{
	"compilerInput": "{\"language\":\"Solidity\",\"sources\":{\"block_chain/marketplace.sol\":{\"content\":\"// SPDX-License-Identifier: MIT\\r\\npragma solidity ^0.8.0;\\r\\n\\r\\ncontract Marketplace {\\r\\n    struct Product {\\r\\n        uint id;\\r\\n        address payable seller;\\r\\n        address payable owner;\\r\\n        string title;\\r\\n        string description;\\r\\n        string imageHash;\\r\\n        uint price;\\r\\n        bool sold;\\r\\n    }\\r\\n\\r\\n    Product[] public products;\\r\\n    uint public productCount;\\r\\n    \\r\\n    //Method Declarations for transactions of products\\r\\n    event productSold(uint indexed productId, address indexed buyer,address indexed seller, uint price);\\r\\n    event paymentOfProduct(address indexed fromAddress, address indexed toAddress,uint256 value);\\r\\n    event productListed(uint indexed productId, address indexed seller, string title, string imageHash, uint price);\\r\\n   \\r\\n\\r\\n    // Function for adding a product to the List\\r\\n    function listProduct(string memory _title, string memory _description, string memory _imageHash, uint _price) public {\\r\\n        require(_price > 0, \\\"Value of Product must be greater than zero\\\");\\r\\n\\r\\n        Product memory productToBeAdded = Product({\\r\\n            id: productCount,\\r\\n            seller: payable(msg.sender),\\r\\n            owner : payable (msg.sender),\\r\\n            title: _title,\\r\\n            description: _description,\\r\\n            imageHash: _imageHash,\\r\\n            price: _price,\\r\\n            sold: false\\r\\n        });\\r\\n        products.push(productToBeAdded);\\r\\n        emit productListed(productCount, msg.sender, _title, _imageHash, _price);\\r\\n        productCount++;\\r\\n    }\\r\\n\\r\\n    // Function call for purchasing the product\\r\\n    function purchaseProduct(uint _id) external payable {\\r\\n    require(_id < productCount, \\\"Item ID does not exist\\\");\\r\\n    Product storage selectedProduct = products[_id];\\r\\n    require(msg.value == selectedProduct.price, \\\"Incorrect amount, please send the exact price\\\");\\r\\n    require(!selectedProduct.sold, \\\"Item is already sold\\\");\\r\\n    require(msg.sender != selectedProduct.owner, \\\"Item owner cannot purchase their own item\\\");\\r\\n\\r\\n    (bool transferred, ) = selectedProduct.owner.call{value: msg.value}(\\\"\\\");\\r\\n    require(transferred, \\\"Ether transfer failed\\\");\\r\\n\\r\\n    // Assigning the ownership from seller to buyer\\r\\n    address previousOwner = selectedProduct.owner;  \\r\\n    selectedProduct.owner = payable(msg.sender);   \\r\\n    selectedProduct.sold = true;                   \\r\\n\\r\\n    // Log transactions\\r\\n    emit paymentOfProduct(msg.sender, previousOwner, msg.value);\\r\\n    emit productSold(_id, previousOwner, msg.sender, selectedProduct.price);\\r\\n}\\r\\n\\r\\n\\r\\n\\r\\n\\r\\n    // Get Function call to retrieve all the products available\\r\\n    function getAllProducts() public view returns (Product[] memory) {\\r\\n        return products;\\r\\n    }\\r\\n\\r\\n    // Get Function call to retrieve a product by an ID\\r\\n    function getProductById(uint _id) public view returns (Product memory) {\\r\\n        require(_id < productCount, \\\"Product ID does not exist\\\");\\r\\n        return products[_id];\\r\\n    }\\r\\n}\\r\\n\"}},\"settings\":{\"optimizer\":{\"enabled\":false,\"runs\":200},\"outputSelection\":{\"*\":{\"\":[\"ast\"],\"*\":[\"abi\",\"metadata\",\"devdoc\",\"userdoc\",\"storageLayout\",\"evm.legacyAssembly\",\"evm.bytecode\",\"evm.deployedBytecode\",\"evm.methodIdentifiers\",\"evm.gasEstimates\",\"evm.assembly\"]}},\"remappings\":[]}}",
	"name": "Marketplace",
	"bytecode": {
		"linkReferences": {},
		"object": "6080604052348015600e575f80fd5b50611e208061001c5f395ff3fe608060405260043610610054575f3560e01c806302ee3a521461005857806338e76a03146100825780633f70c2b41461009e5780637acc0b20146100da578063c72da5d91461011d578063e0f6ef8714610145575b5f80fd5b348015610063575f80fd5b5061006c61016f565b604051610079919061124e565b60405180910390f35b61009c600480360381019061009791906112a9565b610452565b005b3480156100a9575f80fd5b506100c460048036038101906100bf91906112a9565b610805565b6040516100d1919061138f565b60405180910390f35b3480156100e5575f80fd5b5061010060048036038101906100fb91906112a9565b610b0a565b604051610114989796959493929190611424565b60405180910390f35b348015610128575f80fd5b50610143600480360381019061013e91906115e1565b610d38565b005b348015610150575f80fd5b50610159610f83565b6040516101669190611699565b60405180910390f35b60605f805480602002602001604051908101604052809291908181526020015f905b82821015610449578382905f5260205f209060080201604051806101000160405290815f8201548152602001600182015f9054906101000a900473ffffffffffffffffffffffffffffffffffffffff1673ffffffffffffffffffffffffffffffffffffffff1673ffffffffffffffffffffffffffffffffffffffff168152602001600282015f9054906101000a900473ffffffffffffffffffffffffffffffffffffffff1673ffffffffffffffffffffffffffffffffffffffff1673ffffffffffffffffffffffffffffffffffffffff168152602001600382018054610276906116df565b80601f01602080910402602001604051908101604052809291908181526020018280546102a2906116df565b80156102ed5780601f106102c4576101008083540402835291602001916102ed565b820191905f5260205f20905b8154815290600101906020018083116102d057829003601f168201915b50505050508152602001600482018054610306906116df565b80601f0160208091040260200160405190810160405280929190818152602001828054610332906116df565b801561037d5780601f106103545761010080835404028352916020019161037d565b820191905f5260205f20905b81548152906001019060200180831161036057829003601f168201915b50505050508152602001600582018054610396906116df565b80601f01602080910402602001604051908101604052809291908181526020018280546103c2906116df565b801561040d5780601f106103e45761010080835404028352916020019161040d565b820191905f5260205f20905b8154815290600101906020018083116103f057829003601f168201915b5050505050815260200160068201548152602001600782015f9054906101000a900460ff16151515158152505081526020019060010190610191565b50505050905090565b6001548110610496576040517f08c379a000000000000000000000000000000000000000000000000000000000815260040161048d90611759565b60405180910390fd5b5f8082815481106104aa576104a9611777565b5b905f5260205f2090600802019050806006015434146104fe576040517f08c379a00000000000000000000000000000000000000000000000000000000081526004016104f590611814565b60405180910390fd5b806007015f9054906101000a900460ff161561054f576040517f08c379a00000000000000000000000000000000000000000000000000000000081526004016105469061187c565b60405180910390fd5b806002015f9054906101000a900473ffffffffffffffffffffffffffffffffffffffff1673ffffffffffffffffffffffffffffffffffffffff163373ffffffffffffffffffffffffffffffffffffffff16036105e0576040517f08c379a00000000000000000000000000000000000000000000000000000000081526004016105d79061190a565b60405180910390fd5b5f816002015f9054906101000a900473ffffffffffffffffffffffffffffffffffffffff1673ffffffffffffffffffffffffffffffffffffffff163460405161062890611955565b5f6040518083038185875af1925050503d805f8114610662576040519150601f19603f3d011682016040523d82523d5f602084013e610667565b606091505b50509050806106ab576040517f08c379a00000000000000000000000000000000000000000000000000000000081526004016106a2906119b3565b60405180910390fd5b5f826002015f9054906101000a900473ffffffffffffffffffffffffffffffffffffffff16905033836002015f6101000a81548173ffffffffffffffffffffffffffffffffffffffff021916908373ffffffffffffffffffffffffffffffffffffffff1602179055506001836007015f6101000a81548160ff0219169083151502179055508073ffffffffffffffffffffffffffffffffffffffff163373ffffffffffffffffffffffffffffffffffffffff167fc45027e1160131c0ed7b340b8e132fbc3eb9b5f252356c895d9f7dbf036e31dc3460405161078d9190611699565b60405180910390a33373ffffffffffffffffffffffffffffffffffffffff168173ffffffffffffffffffffffffffffffffffffffff16857fa8441c1a059955b600fdd4475282b40c70cb5cf8bca1d216e13a3d503927a30f86600601546040516107f79190611699565b60405180910390a450505050565b61080d610f89565b6001548210610851576040517f08c379a000000000000000000000000000000000000000000000000000000000815260040161084890611a1b565b60405180910390fd5b5f828154811061086457610863611777565b5b905f5260205f209060080201604051806101000160405290815f8201548152602001600182015f9054906101000a900473ffffffffffffffffffffffffffffffffffffffff1673ffffffffffffffffffffffffffffffffffffffff1673ffffffffffffffffffffffffffffffffffffffff168152602001600282015f9054906101000a900473ffffffffffffffffffffffffffffffffffffffff1673ffffffffffffffffffffffffffffffffffffffff1673ffffffffffffffffffffffffffffffffffffffff16815260200160038201805461093f906116df565b80601f016020809104026020016040519081016040528092919081815260200182805461096b906116df565b80156109b65780601f1061098d576101008083540402835291602001916109b6565b820191905f5260205f20905b81548152906001019060200180831161099957829003601f168201915b505050505081526020016004820180546109cf906116df565b80601f01602080910402602001604051908101604052809291908181526020018280546109fb906116df565b8015610a465780601f10610a1d57610100808354040283529160200191610a46565b820191905f5260205f20905b815481529060010190602001808311610a2957829003601f168201915b50505050508152602001600582018054610a5f906116df565b80601f0160208091040260200160405190810160405280929190818152602001828054610a8b906116df565b8015610ad65780601f10610aad57610100808354040283529160200191610ad6565b820191905f5260205f20905b815481529060010190602001808311610ab957829003601f168201915b5050505050815260200160068201548152602001600782015f9054906101000a900460ff1615151515815250509050919050565b5f8181548110610b18575f80fd5b905f5260205f2090600802015f91509050805f015490806001015f9054906101000a900473ffffffffffffffffffffffffffffffffffffffff1690806002015f9054906101000a900473ffffffffffffffffffffffffffffffffffffffff1690806003018054610b87906116df565b80601f0160208091040260200160405190810160405280929190818152602001828054610bb3906116df565b8015610bfe5780601f10610bd557610100808354040283529160200191610bfe565b820191905f5260205f20905b815481529060010190602001808311610be157829003601f168201915b505050505090806004018054610c13906116df565b80601f0160208091040260200160405190810160405280929190818152602001828054610c3f906116df565b8015610c8a5780601f10610c6157610100808354040283529160200191610c8a565b820191905f5260205f20905b815481529060010190602001808311610c6d57829003601f168201915b505050505090806005018054610c9f906116df565b80601f0160208091040260200160405190810160405280929190818152602001828054610ccb906116df565b8015610d165780601f10610ced57610100808354040283529160200191610d16565b820191905f5260205f20905b815481529060010190602001808311610cf957829003601f168201915b505050505090806006015490806007015f9054906101000a900460ff16905088565b5f8111610d7a576040517f08c379a0000000000000000000000000000000000000000000000000000000008152600401610d7190611aa9565b60405180910390fd5b5f60405180610100016040528060015481526020013373ffffffffffffffffffffffffffffffffffffffff1681526020013373ffffffffffffffffffffffffffffffffffffffff1681526020018681526020018581526020018481526020018381526020015f151581525090505f81908060018154018082558091505060019003905f5260205f2090600802015f909190919091505f820151815f01556020820151816001015f6101000a81548173ffffffffffffffffffffffffffffffffffffffff021916908373ffffffffffffffffffffffffffffffffffffffff1602179055506040820151816002015f6101000a81548173ffffffffffffffffffffffffffffffffffffffff021916908373ffffffffffffffffffffffffffffffffffffffff1602179055506060820151816003019081610eb89190611c64565b506080820151816004019081610ece9190611c64565b5060a0820151816005019081610ee49190611c64565b5060c0820151816006015560e0820151816007015f6101000a81548160ff02191690831515021790555050503373ffffffffffffffffffffffffffffffffffffffff166001547fcaca718769b36464485951c1afb94414b8f5b85b6a614a72fd5d1d2e85df19b6878686604051610f5d93929190611d33565b60405180910390a360015f815480929190610f7790611da3565b91905055505050505050565b60015481565b6040518061010001604052805f81526020015f73ffffffffffffffffffffffffffffffffffffffff1681526020015f73ffffffffffffffffffffffffffffffffffffffff1681526020016060815260200160608152602001606081526020015f81526020015f151581525090565b5f81519050919050565b5f82825260208201905092915050565b5f819050602082019050919050565b5f819050919050565b61103281611020565b82525050565b5f73ffffffffffffffffffffffffffffffffffffffff82169050919050565b5f61106182611038565b9050919050565b61107181611057565b82525050565b5f81519050919050565b5f82825260208201905092915050565b8281835e5f83830152505050565b5f601f19601f8301169050919050565b5f6110b982611077565b6110c38185611081565b93506110d3818560208601611091565b6110dc8161109f565b840191505092915050565b5f8115159050919050565b6110fb816110e7565b82525050565b5f61010083015f8301516111175f860182611029565b50602083015161112a6020860182611068565b50604083015161113d6040860182611068565b506060830151848203606086015261115582826110af565b9150506080830151848203608086015261116f82826110af565b91505060a083015184820360a086015261118982826110af565b91505060c083015161119e60c0860182611029565b5060e08301516111b160e08601826110f2565b508091505092915050565b5f6111c78383611101565b905092915050565b5f602082019050919050565b5f6111e582610ff7565b6111ef8185611001565b93508360208202850161120185611011565b805f5b8581101561123c578484038952815161121d85826111bc565b9450611228836111cf565b925060208a01995050600181019050611204565b50829750879550505050505092915050565b5f6020820190508181035f83015261126681846111db565b905092915050565b5f604051905090565b5f80fd5b5f80fd5b61128881611020565b8114611292575f80fd5b50565b5f813590506112a38161127f565b92915050565b5f602082840312156112be576112bd611277565b5b5f6112cb84828501611295565b91505092915050565b5f61010083015f8301516112ea5f860182611029565b5060208301516112fd6020860182611068565b5060408301516113106040860182611068565b506060830151848203606086015261132882826110af565b9150506080830151848203608086015261134282826110af565b91505060a083015184820360a086015261135c82826110af565b91505060c083015161137160c0860182611029565b5060e083015161138460e08601826110f2565b508091505092915050565b5f6020820190508181035f8301526113a781846112d4565b905092915050565b6113b881611020565b82525050565b6113c781611057565b82525050565b5f82825260208201905092915050565b5f6113e782611077565b6113f181856113cd565b9350611401818560208601611091565b61140a8161109f565b840191505092915050565b61141e816110e7565b82525050565b5f610100820190506114385f83018b6113af565b611445602083018a6113be565b61145260408301896113be565b818103606083015261146481886113dd565b9050818103608083015261147881876113dd565b905081810360a083015261148c81866113dd565b905061149b60c08301856113af565b6114a860e0830184611415565b9998505050505050505050565b5f80fd5b5f80fd5b7f4e487b71000000000000000000000000000000000000000000000000000000005f52604160045260245ffd5b6114f38261109f565b810181811067ffffffffffffffff82111715611512576115116114bd565b5b80604052505050565b5f61152461126e565b905061153082826114ea565b919050565b5f67ffffffffffffffff82111561154f5761154e6114bd565b5b6115588261109f565b9050602081019050919050565b828183375f83830152505050565b5f61158561158084611535565b61151b565b9050828152602081018484840111156115a1576115a06114b9565b5b6115ac848285611565565b509392505050565b5f82601f8301126115c8576115c76114b5565b5b81356115d8848260208601611573565b91505092915050565b5f805f80608085870312156115f9576115f8611277565b5b5f85013567ffffffffffffffff8111156116165761161561127b565b5b611622878288016115b4565b945050602085013567ffffffffffffffff8111156116435761164261127b565b5b61164f878288016115b4565b935050604085013567ffffffffffffffff8111156116705761166f61127b565b5b61167c878288016115b4565b925050606061168d87828801611295565b91505092959194509250565b5f6020820190506116ac5f8301846113af565b92915050565b7f4e487b71000000000000000000000000000000000000000000000000000000005f52602260045260245ffd5b5f60028204905060018216806116f657607f821691505b602082108103611709576117086116b2565b5b50919050565b7f4974656d20494420646f6573206e6f74206578697374000000000000000000005f82015250565b5f6117436016836113cd565b915061174e8261170f565b602082019050919050565b5f6020820190508181035f83015261177081611737565b9050919050565b7f4e487b71000000000000000000000000000000000000000000000000000000005f52603260045260245ffd5b7f496e636f727265637420616d6f756e742c20706c656173652073656e642074685f8201527f6520657861637420707269636500000000000000000000000000000000000000602082015250565b5f6117fe602d836113cd565b9150611809826117a4565b604082019050919050565b5f6020820190508181035f83015261182b816117f2565b9050919050565b7f4974656d20697320616c726561647920736f6c640000000000000000000000005f82015250565b5f6118666014836113cd565b915061187182611832565b602082019050919050565b5f6020820190508181035f8301526118938161185a565b9050919050565b7f4974656d206f776e65722063616e6e6f742070757263686173652074686569725f8201527f206f776e206974656d0000000000000000000000000000000000000000000000602082015250565b5f6118f46029836113cd565b91506118ff8261189a565b604082019050919050565b5f6020820190508181035f830152611921816118e8565b9050919050565b5f81905092915050565b50565b5f6119405f83611928565b915061194b82611932565b5f82019050919050565b5f61195f82611935565b9150819050919050565b7f4574686572207472616e73666572206661696c656400000000000000000000005f82015250565b5f61199d6015836113cd565b91506119a882611969565b602082019050919050565b5f6020820190508181035f8301526119ca81611991565b9050919050565b7f50726f6475637420494420646f6573206e6f74206578697374000000000000005f82015250565b5f611a056019836113cd565b9150611a10826119d1565b602082019050919050565b5f6020820190508181035f830152611a32816119f9565b9050919050565b7f56616c7565206f662050726f64756374206d75737420626520677265617465725f8201527f207468616e207a65726f00000000000000000000000000000000000000000000602082015250565b5f611a93602a836113cd565b9150611a9e82611a39565b604082019050919050565b5f6020820190508181035f830152611ac081611a87565b9050919050565b5f819050815f5260205f209050919050565b5f6020601f8301049050919050565b5f82821b905092915050565b5f60088302611b237fffffffffffffffffffffffffffffffffffffffffffffffffffffffffffffffff82611ae8565b611b2d8683611ae8565b95508019841693508086168417925050509392505050565b5f819050919050565b5f611b68611b63611b5e84611020565b611b45565b611020565b9050919050565b5f819050919050565b611b8183611b4e565b611b95611b8d82611b6f565b848454611af4565b825550505050565b5f90565b611ba9611b9d565b611bb4818484611b78565b505050565b5b81811015611bd757611bcc5f82611ba1565b600181019050611bba565b5050565b601f821115611c1c57611bed81611ac7565b611bf684611ad9565b81016020851015611c05578190505b611c19611c1185611ad9565b830182611bb9565b50505b505050565b5f82821c905092915050565b5f611c3c5f1984600802611c21565b1980831691505092915050565b5f611c548383611c2d565b9150826002028217905092915050565b611c6d82611077565b67ffffffffffffffff811115611c8657611c856114bd565b5b611c9082546116df565b611c9b828285611bdb565b5f60209050601f831160018114611ccc575f8415611cba578287015190505b611cc48582611c49565b865550611d2b565b601f198416611cda86611ac7565b5f5b82811015611d0157848901518255600182019150602085019450602081019050611cdc565b86831015611d1e5784890151611d1a601f891682611c2d565b8355505b6001600288020188555050505b505050505050565b5f6060820190508181035f830152611d4b81866113dd565b90508181036020830152611d5f81856113dd565b9050611d6e60408301846113af565b949350505050565b7f4e487b71000000000000000000000000000000000000000000000000000000005f52601160045260245ffd5b5f611dad82611020565b91507fffffffffffffffffffffffffffffffffffffffffffffffffffffffffffffffff8203611ddf57611dde611d76565b5b60018201905091905056fea26469706673582212204291bff5f8f9be423bbff0a75e910862c7a1205cbba63f1cb1d7d13470f3be6a64736f6c63430008190033",
		"opcodes": "PUSH1 0x80 PUSH1 0x40 MSTORE CALLVALUE DUP1 ISZERO PUSH1 0xE JUMPI PUSH0 DUP1 REVERT JUMPDEST POP PUSH2 0x1E20 DUP1 PUSH2 0x1C PUSH0 CODECOPY PUSH0 RETURN INVALID PUSH1 0x80 PUSH1 0x40 MSTORE PUSH1 0x4 CALLDATASIZE LT PUSH2 0x54 JUMPI PUSH0 CALLDATALOAD PUSH1 0xE0 SHR DUP1 PUSH4 0x2EE3A52 EQ PUSH2 0x58 JUMPI DUP1 PUSH4 0x38E76A03 EQ PUSH2 0x82 JUMPI DUP1 PUSH4 0x3F70C2B4 EQ PUSH2 0x9E JUMPI DUP1 PUSH4 0x7ACC0B20 EQ PUSH2 0xDA JUMPI DUP1 PUSH4 0xC72DA5D9 EQ PUSH2 0x11D JUMPI DUP1 PUSH4 0xE0F6EF87 EQ PUSH2 0x145 JUMPI JUMPDEST PUSH0 DUP1 REVERT JUMPDEST CALLVALUE DUP1 ISZERO PUSH2 0x63 JUMPI PUSH0 DUP1 REVERT JUMPDEST POP PUSH2 0x6C PUSH2 0x16F JUMP JUMPDEST PUSH1 0x40 MLOAD PUSH2 0x79 SWAP2 SWAP1 PUSH2 0x124E JUMP JUMPDEST PUSH1 0x40 MLOAD DUP1 SWAP2 SUB SWAP1 RETURN JUMPDEST PUSH2 0x9C PUSH1 0x4 DUP1 CALLDATASIZE SUB DUP2 ADD SWAP1 PUSH2 0x97 SWAP2 SWAP1 PUSH2 0x12A9 JUMP JUMPDEST PUSH2 0x452 JUMP JUMPDEST STOP JUMPDEST CALLVALUE DUP1 ISZERO PUSH2 0xA9 JUMPI PUSH0 DUP1 REVERT JUMPDEST POP PUSH2 0xC4 PUSH1 0x4 DUP1 CALLDATASIZE SUB DUP2 ADD SWAP1 PUSH2 0xBF SWAP2 SWAP1 PUSH2 0x12A9 JUMP JUMPDEST PUSH2 0x805 JUMP JUMPDEST PUSH1 0x40 MLOAD PUSH2 0xD1 SWAP2 SWAP1 PUSH2 0x138F JUMP JUMPDEST PUSH1 0x40 MLOAD DUP1 SWAP2 SUB SWAP1 RETURN JUMPDEST CALLVALUE DUP1 ISZERO PUSH2 0xE5 JUMPI PUSH0 DUP1 REVERT JUMPDEST POP PUSH2 0x100 PUSH1 0x4 DUP1 CALLDATASIZE SUB DUP2 ADD SWAP1 PUSH2 0xFB SWAP2 SWAP1 PUSH2 0x12A9 JUMP JUMPDEST PUSH2 0xB0A JUMP JUMPDEST PUSH1 0x40 MLOAD PUSH2 0x114 SWAP9 SWAP8 SWAP7 SWAP6 SWAP5 SWAP4 SWAP3 SWAP2 SWAP1 PUSH2 0x1424 JUMP JUMPDEST PUSH1 0x40 MLOAD DUP1 SWAP2 SUB SWAP1 RETURN JUMPDEST CALLVALUE DUP1 ISZERO PUSH2 0x128 JUMPI PUSH0 DUP1 REVERT JUMPDEST POP PUSH2 0x143 PUSH1 0x4 DUP1 CALLDATASIZE SUB DUP2 ADD SWAP1 PUSH2 0x13E SWAP2 SWAP1 PUSH2 0x15E1 JUMP JUMPDEST PUSH2 0xD38 JUMP JUMPDEST STOP JUMPDEST CALLVALUE DUP1 ISZERO PUSH2 0x150 JUMPI PUSH0 DUP1 REVERT JUMPDEST POP PUSH2 0x159 PUSH2 0xF83 JUMP JUMPDEST PUSH1 0x40 MLOAD PUSH2 0x166 SWAP2 SWAP1 PUSH2 0x1699 JUMP JUMPDEST PUSH1 0x40 MLOAD DUP1 SWAP2 SUB SWAP1 RETURN JUMPDEST PUSH1 0x60 PUSH0 DUP1 SLOAD DUP1 PUSH1 0x20 MUL PUSH1 0x20 ADD PUSH1 0x40 MLOAD SWAP1 DUP2 ADD PUSH1 0x40 MSTORE DUP1 SWAP3 SWAP2 SWAP1 DUP2 DUP2 MSTORE PUSH1 0x20 ADD PUSH0 SWAP1 JUMPDEST DUP3 DUP3 LT ISZERO PUSH2 0x449 JUMPI DUP4 DUP3 SWAP1 PUSH0 MSTORE PUSH1 0x20 PUSH0 KECCAK256 SWAP1 PUSH1 0x8 MUL ADD PUSH1 0x40 MLOAD DUP1 PUSH2 0x100 ADD PUSH1 0x40 MSTORE SWAP1 DUP2 PUSH0 DUP3 ADD SLOAD DUP2 MSTORE PUSH1 0x20 ADD PUSH1 0x1 DUP3 ADD PUSH0 SWAP1 SLOAD SWAP1 PUSH2 0x100 EXP SWAP1 DIV PUSH20 0xFFFFFFFFFFFFFFFFFFFFFFFFFFFFFFFFFFFFFFFF AND PUSH20 0xFFFFFFFFFFFFFFFFFFFFFFFFFFFFFFFFFFFFFFFF AND PUSH20 0xFFFFFFFFFFFFFFFFFFFFFFFFFFFFFFFFFFFFFFFF AND DUP2 MSTORE PUSH1 0x20 ADD PUSH1 0x2 DUP3 ADD PUSH0 SWAP1 SLOAD SWAP1 PUSH2 0x100 EXP SWAP1 DIV PUSH20 0xFFFFFFFFFFFFFFFFFFFFFFFFFFFFFFFFFFFFFFFF AND PUSH20 0xFFFFFFFFFFFFFFFFFFFFFFFFFFFFFFFFFFFFFFFF AND PUSH20 0xFFFFFFFFFFFFFFFFFFFFFFFFFFFFFFFFFFFFFFFF AND DUP2 MSTORE PUSH1 0x20 ADD PUSH1 0x3 DUP3 ADD DUP1 SLOAD PUSH2 0x276 SWAP1 PUSH2 0x16DF JUMP JUMPDEST DUP1 PUSH1 0x1F ADD PUSH1 0x20 DUP1 SWAP2 DIV MUL PUSH1 0x20 ADD PUSH1 0x40 MLOAD SWAP1 DUP2 ADD PUSH1 0x40 MSTORE DUP1 SWAP3 SWAP2 SWAP1 DUP2 DUP2 MSTORE PUSH1 0x20 ADD DUP3 DUP1 SLOAD PUSH2 0x2A2 SWAP1 PUSH2 0x16DF JUMP JUMPDEST DUP1 ISZERO PUSH2 0x2ED JUMPI DUP1 PUSH1 0x1F LT PUSH2 0x2C4 JUMPI PUSH2 0x100 DUP1 DUP4 SLOAD DIV MUL DUP4 MSTORE SWAP2 PUSH1 0x20 ADD SWAP2 PUSH2 0x2ED JUMP JUMPDEST DUP3 ADD SWAP2 SWAP1 PUSH0 MSTORE PUSH1 0x20 PUSH0 KECCAK256 SWAP1 JUMPDEST DUP2 SLOAD DUP2 MSTORE SWAP1 PUSH1 0x1 ADD SWAP1 PUSH1 0x20 ADD DUP1 DUP4 GT PUSH2 0x2D0 JUMPI DUP3 SWAP1 SUB PUSH1 0x1F AND DUP3 ADD SWAP2 JUMPDEST POP POP POP POP POP DUP2 MSTORE PUSH1 0x20 ADD PUSH1 0x4 DUP3 ADD DUP1 SLOAD PUSH2 0x306 SWAP1 PUSH2 0x16DF JUMP JUMPDEST DUP1 PUSH1 0x1F ADD PUSH1 0x20 DUP1 SWAP2 DIV MUL PUSH1 0x20 ADD PUSH1 0x40 MLOAD SWAP1 DUP2 ADD PUSH1 0x40 MSTORE DUP1 SWAP3 SWAP2 SWAP1 DUP2 DUP2 MSTORE PUSH1 0x20 ADD DUP3 DUP1 SLOAD PUSH2 0x332 SWAP1 PUSH2 0x16DF JUMP JUMPDEST DUP1 ISZERO PUSH2 0x37D JUMPI DUP1 PUSH1 0x1F LT PUSH2 0x354 JUMPI PUSH2 0x100 DUP1 DUP4 SLOAD DIV MUL DUP4 MSTORE SWAP2 PUSH1 0x20 ADD SWAP2 PUSH2 0x37D JUMP JUMPDEST DUP3 ADD SWAP2 SWAP1 PUSH0 MSTORE PUSH1 0x20 PUSH0 KECCAK256 SWAP1 JUMPDEST DUP2 SLOAD DUP2 MSTORE SWAP1 PUSH1 0x1 ADD SWAP1 PUSH1 0x20 ADD DUP1 DUP4 GT PUSH2 0x360 JUMPI DUP3 SWAP1 SUB PUSH1 0x1F AND DUP3 ADD SWAP2 JUMPDEST POP POP POP POP POP DUP2 MSTORE PUSH1 0x20 ADD PUSH1 0x5 DUP3 ADD DUP1 SLOAD PUSH2 0x396 SWAP1 PUSH2 0x16DF JUMP JUMPDEST DUP1 PUSH1 0x1F ADD PUSH1 0x20 DUP1 SWAP2 DIV MUL PUSH1 0x20 ADD PUSH1 0x40 MLOAD SWAP1 DUP2 ADD PUSH1 0x40 MSTORE DUP1 SWAP3 SWAP2 SWAP1 DUP2 DUP2 MSTORE PUSH1 0x20 ADD DUP3 DUP1 SLOAD PUSH2 0x3C2 SWAP1 PUSH2 0x16DF JUMP JUMPDEST DUP1 ISZERO PUSH2 0x40D JUMPI DUP1 PUSH1 0x1F LT PUSH2 0x3E4 JUMPI PUSH2 0x100 DUP1 DUP4 SLOAD DIV MUL DUP4 MSTORE SWAP2 PUSH1 0x20 ADD SWAP2 PUSH2 0x40D JUMP JUMPDEST DUP3 ADD SWAP2 SWAP1 PUSH0 MSTORE PUSH1 0x20 PUSH0 KECCAK256 SWAP1 JUMPDEST DUP2 SLOAD DUP2 MSTORE SWAP1 PUSH1 0x1 ADD SWAP1 PUSH1 0x20 ADD DUP1 DUP4 GT PUSH2 0x3F0 JUMPI DUP3 SWAP1 SUB PUSH1 0x1F AND DUP3 ADD SWAP2 JUMPDEST POP POP POP POP POP DUP2 MSTORE PUSH1 0x20 ADD PUSH1 0x6 DUP3 ADD SLOAD DUP2 MSTORE PUSH1 0x20 ADD PUSH1 0x7 DUP3 ADD PUSH0 SWAP1 SLOAD SWAP1 PUSH2 0x100 EXP SWAP1 DIV PUSH1 0xFF AND ISZERO ISZERO ISZERO ISZERO DUP2 MSTORE POP POP DUP2 MSTORE PUSH1 0x20 ADD SWAP1 PUSH1 0x1 ADD SWAP1 PUSH2 0x191 JUMP JUMPDEST POP POP POP POP SWAP1 POP SWAP1 JUMP JUMPDEST PUSH1 0x1 SLOAD DUP2 LT PUSH2 0x496 JUMPI PUSH1 0x40 MLOAD PUSH32 0x8C379A000000000000000000000000000000000000000000000000000000000 DUP2 MSTORE PUSH1 0x4 ADD PUSH2 0x48D SWAP1 PUSH2 0x1759 JUMP JUMPDEST PUSH1 0x40 MLOAD DUP1 SWAP2 SUB SWAP1 REVERT JUMPDEST PUSH0 DUP1 DUP3 DUP2 SLOAD DUP2 LT PUSH2 0x4AA JUMPI PUSH2 0x4A9 PUSH2 0x1777 JUMP JUMPDEST JUMPDEST SWAP1 PUSH0 MSTORE PUSH1 0x20 PUSH0 KECCAK256 SWAP1 PUSH1 0x8 MUL ADD SWAP1 POP DUP1 PUSH1 0x6 ADD SLOAD CALLVALUE EQ PUSH2 0x4FE JUMPI PUSH1 0x40 MLOAD PUSH32 0x8C379A000000000000000000000000000000000000000000000000000000000 DUP2 MSTORE PUSH1 0x4 ADD PUSH2 0x4F5 SWAP1 PUSH2 0x1814 JUMP JUMPDEST PUSH1 0x40 MLOAD DUP1 SWAP2 SUB SWAP1 REVERT JUMPDEST DUP1 PUSH1 0x7 ADD PUSH0 SWAP1 SLOAD SWAP1 PUSH2 0x100 EXP SWAP1 DIV PUSH1 0xFF AND ISZERO PUSH2 0x54F JUMPI PUSH1 0x40 MLOAD PUSH32 0x8C379A000000000000000000000000000000000000000000000000000000000 DUP2 MSTORE PUSH1 0x4 ADD PUSH2 0x546 SWAP1 PUSH2 0x187C JUMP JUMPDEST PUSH1 0x40 MLOAD DUP1 SWAP2 SUB SWAP1 REVERT JUMPDEST DUP1 PUSH1 0x2 ADD PUSH0 SWAP1 SLOAD SWAP1 PUSH2 0x100 EXP SWAP1 DIV PUSH20 0xFFFFFFFFFFFFFFFFFFFFFFFFFFFFFFFFFFFFFFFF AND PUSH20 0xFFFFFFFFFFFFFFFFFFFFFFFFFFFFFFFFFFFFFFFF AND CALLER PUSH20 0xFFFFFFFFFFFFFFFFFFFFFFFFFFFFFFFFFFFFFFFF AND SUB PUSH2 0x5E0 JUMPI PUSH1 0x40 MLOAD PUSH32 0x8C379A000000000000000000000000000000000000000000000000000000000 DUP2 MSTORE PUSH1 0x4 ADD PUSH2 0x5D7 SWAP1 PUSH2 0x190A JUMP JUMPDEST PUSH1 0x40 MLOAD DUP1 SWAP2 SUB SWAP1 REVERT JUMPDEST PUSH0 DUP2 PUSH1 0x2 ADD PUSH0 SWAP1 SLOAD SWAP1 PUSH2 0x100 EXP SWAP1 DIV PUSH20 0xFFFFFFFFFFFFFFFFFFFFFFFFFFFFFFFFFFFFFFFF AND PUSH20 0xFFFFFFFFFFFFFFFFFFFFFFFFFFFFFFFFFFFFFFFF AND CALLVALUE PUSH1 0x40 MLOAD PUSH2 0x628 SWAP1 PUSH2 0x1955 JUMP JUMPDEST PUSH0 PUSH1 0x40 MLOAD DUP1 DUP4 SUB DUP2 DUP6 DUP8 GAS CALL SWAP3 POP POP POP RETURNDATASIZE DUP1 PUSH0 DUP2 EQ PUSH2 0x662 JUMPI PUSH1 0x40 MLOAD SWAP2 POP PUSH1 0x1F NOT PUSH1 0x3F RETURNDATASIZE ADD AND DUP3 ADD PUSH1 0x40 MSTORE RETURNDATASIZE DUP3 MSTORE RETURNDATASIZE PUSH0 PUSH1 0x20 DUP5 ADD RETURNDATACOPY PUSH2 0x667 JUMP JUMPDEST PUSH1 0x60 SWAP2 POP JUMPDEST POP POP SWAP1 POP DUP1 PUSH2 0x6AB JUMPI PUSH1 0x40 MLOAD PUSH32 0x8C379A000000000000000000000000000000000000000000000000000000000 DUP2 MSTORE PUSH1 0x4 ADD PUSH2 0x6A2 SWAP1 PUSH2 0x19B3 JUMP JUMPDEST PUSH1 0x40 MLOAD DUP1 SWAP2 SUB SWAP1 REVERT JUMPDEST PUSH0 DUP3 PUSH1 0x2 ADD PUSH0 SWAP1 SLOAD SWAP1 PUSH2 0x100 EXP SWAP1 DIV PUSH20 0xFFFFFFFFFFFFFFFFFFFFFFFFFFFFFFFFFFFFFFFF AND SWAP1 POP CALLER DUP4 PUSH1 0x2 ADD PUSH0 PUSH2 0x100 EXP DUP2 SLOAD DUP2 PUSH20 0xFFFFFFFFFFFFFFFFFFFFFFFFFFFFFFFFFFFFFFFF MUL NOT AND SWAP1 DUP4 PUSH20 0xFFFFFFFFFFFFFFFFFFFFFFFFFFFFFFFFFFFFFFFF AND MUL OR SWAP1 SSTORE POP PUSH1 0x1 DUP4 PUSH1 0x7 ADD PUSH0 PUSH2 0x100 EXP DUP2 SLOAD DUP2 PUSH1 0xFF MUL NOT AND SWAP1 DUP4 ISZERO ISZERO MUL OR SWAP1 SSTORE POP DUP1 PUSH20 0xFFFFFFFFFFFFFFFFFFFFFFFFFFFFFFFFFFFFFFFF AND CALLER PUSH20 0xFFFFFFFFFFFFFFFFFFFFFFFFFFFFFFFFFFFFFFFF AND PUSH32 0xC45027E1160131C0ED7B340B8E132FBC3EB9B5F252356C895D9F7DBF036E31DC CALLVALUE PUSH1 0x40 MLOAD PUSH2 0x78D SWAP2 SWAP1 PUSH2 0x1699 JUMP JUMPDEST PUSH1 0x40 MLOAD DUP1 SWAP2 SUB SWAP1 LOG3 CALLER PUSH20 0xFFFFFFFFFFFFFFFFFFFFFFFFFFFFFFFFFFFFFFFF AND DUP2 PUSH20 0xFFFFFFFFFFFFFFFFFFFFFFFFFFFFFFFFFFFFFFFF AND DUP6 PUSH32 0xA8441C1A059955B600FDD4475282B40C70CB5CF8BCA1D216E13A3D503927A30F DUP7 PUSH1 0x6 ADD SLOAD PUSH1 0x40 MLOAD PUSH2 0x7F7 SWAP2 SWAP1 PUSH2 0x1699 JUMP JUMPDEST PUSH1 0x40 MLOAD DUP1 SWAP2 SUB SWAP1 LOG4 POP POP POP POP JUMP JUMPDEST PUSH2 0x80D PUSH2 0xF89 JUMP JUMPDEST PUSH1 0x1 SLOAD DUP3 LT PUSH2 0x851 JUMPI PUSH1 0x40 MLOAD PUSH32 0x8C379A000000000000000000000000000000000000000000000000000000000 DUP2 MSTORE PUSH1 0x4 ADD PUSH2 0x848 SWAP1 PUSH2 0x1A1B JUMP JUMPDEST PUSH1 0x40 MLOAD DUP1 SWAP2 SUB SWAP1 REVERT JUMPDEST PUSH0 DUP3 DUP2 SLOAD DUP2 LT PUSH2 0x864 JUMPI PUSH2 0x863 PUSH2 0x1777 JUMP JUMPDEST JUMPDEST SWAP1 PUSH0 MSTORE PUSH1 0x20 PUSH0 KECCAK256 SWAP1 PUSH1 0x8 MUL ADD PUSH1 0x40 MLOAD DUP1 PUSH2 0x100 ADD PUSH1 0x40 MSTORE SWAP1 DUP2 PUSH0 DUP3 ADD SLOAD DUP2 MSTORE PUSH1 0x20 ADD PUSH1 0x1 DUP3 ADD PUSH0 SWAP1 SLOAD SWAP1 PUSH2 0x100 EXP SWAP1 DIV PUSH20 0xFFFFFFFFFFFFFFFFFFFFFFFFFFFFFFFFFFFFFFFF AND PUSH20 0xFFFFFFFFFFFFFFFFFFFFFFFFFFFFFFFFFFFFFFFF AND PUSH20 0xFFFFFFFFFFFFFFFFFFFFFFFFFFFFFFFFFFFFFFFF AND DUP2 MSTORE PUSH1 0x20 ADD PUSH1 0x2 DUP3 ADD PUSH0 SWAP1 SLOAD SWAP1 PUSH2 0x100 EXP SWAP1 DIV PUSH20 0xFFFFFFFFFFFFFFFFFFFFFFFFFFFFFFFFFFFFFFFF AND PUSH20 0xFFFFFFFFFFFFFFFFFFFFFFFFFFFFFFFFFFFFFFFF AND PUSH20 0xFFFFFFFFFFFFFFFFFFFFFFFFFFFFFFFFFFFFFFFF AND DUP2 MSTORE PUSH1 0x20 ADD PUSH1 0x3 DUP3 ADD DUP1 SLOAD PUSH2 0x93F SWAP1 PUSH2 0x16DF JUMP JUMPDEST DUP1 PUSH1 0x1F ADD PUSH1 0x20 DUP1 SWAP2 DIV MUL PUSH1 0x20 ADD PUSH1 0x40 MLOAD SWAP1 DUP2 ADD PUSH1 0x40 MSTORE DUP1 SWAP3 SWAP2 SWAP1 DUP2 DUP2 MSTORE PUSH1 0x20 ADD DUP3 DUP1 SLOAD PUSH2 0x96B SWAP1 PUSH2 0x16DF JUMP JUMPDEST DUP1 ISZERO PUSH2 0x9B6 JUMPI DUP1 PUSH1 0x1F LT PUSH2 0x98D JUMPI PUSH2 0x100 DUP1 DUP4 SLOAD DIV MUL DUP4 MSTORE SWAP2 PUSH1 0x20 ADD SWAP2 PUSH2 0x9B6 JUMP JUMPDEST DUP3 ADD SWAP2 SWAP1 PUSH0 MSTORE PUSH1 0x20 PUSH0 KECCAK256 SWAP1 JUMPDEST DUP2 SLOAD DUP2 MSTORE SWAP1 PUSH1 0x1 ADD SWAP1 PUSH1 0x20 ADD DUP1 DUP4 GT PUSH2 0x999 JUMPI DUP3 SWAP1 SUB PUSH1 0x1F AND DUP3 ADD SWAP2 JUMPDEST POP POP POP POP POP DUP2 MSTORE PUSH1 0x20 ADD PUSH1 0x4 DUP3 ADD DUP1 SLOAD PUSH2 0x9CF SWAP1 PUSH2 0x16DF JUMP JUMPDEST DUP1 PUSH1 0x1F ADD PUSH1 0x20 DUP1 SWAP2 DIV MUL PUSH1 0x20 ADD PUSH1 0x40 MLOAD SWAP1 DUP2 ADD PUSH1 0x40 MSTORE DUP1 SWAP3 SWAP2 SWAP1 DUP2 DUP2 MSTORE PUSH1 0x20 ADD DUP3 DUP1 SLOAD PUSH2 0x9FB SWAP1 PUSH2 0x16DF JUMP JUMPDEST DUP1 ISZERO PUSH2 0xA46 JUMPI DUP1 PUSH1 0x1F LT PUSH2 0xA1D JUMPI PUSH2 0x100 DUP1 DUP4 SLOAD DIV MUL DUP4 MSTORE SWAP2 PUSH1 0x20 ADD SWAP2 PUSH2 0xA46 JUMP JUMPDEST DUP3 ADD SWAP2 SWAP1 PUSH0 MSTORE PUSH1 0x20 PUSH0 KECCAK256 SWAP1 JUMPDEST DUP2 SLOAD DUP2 MSTORE SWAP1 PUSH1 0x1 ADD SWAP1 PUSH1 0x20 ADD DUP1 DUP4 GT PUSH2 0xA29 JUMPI DUP3 SWAP1 SUB PUSH1 0x1F AND DUP3 ADD SWAP2 JUMPDEST POP POP POP POP POP DUP2 MSTORE PUSH1 0x20 ADD PUSH1 0x5 DUP3 ADD DUP1 SLOAD PUSH2 0xA5F SWAP1 PUSH2 0x16DF JUMP JUMPDEST DUP1 PUSH1 0x1F ADD PUSH1 0x20 DUP1 SWAP2 DIV MUL PUSH1 0x20 ADD PUSH1 0x40 MLOAD SWAP1 DUP2 ADD PUSH1 0x40 MSTORE DUP1 SWAP3 SWAP2 SWAP1 DUP2 DUP2 MSTORE PUSH1 0x20 ADD DUP3 DUP1 SLOAD PUSH2 0xA8B SWAP1 PUSH2 0x16DF JUMP JUMPDEST DUP1 ISZERO PUSH2 0xAD6 JUMPI DUP1 PUSH1 0x1F LT PUSH2 0xAAD JUMPI PUSH2 0x100 DUP1 DUP4 SLOAD DIV MUL DUP4 MSTORE SWAP2 PUSH1 0x20 ADD SWAP2 PUSH2 0xAD6 JUMP JUMPDEST DUP3 ADD SWAP2 SWAP1 PUSH0 MSTORE PUSH1 0x20 PUSH0 KECCAK256 SWAP1 JUMPDEST DUP2 SLOAD DUP2 MSTORE SWAP1 PUSH1 0x1 ADD SWAP1 PUSH1 0x20 ADD DUP1 DUP4 GT PUSH2 0xAB9 JUMPI DUP3 SWAP1 SUB PUSH1 0x1F AND DUP3 ADD SWAP2 JUMPDEST POP POP POP POP POP DUP2 MSTORE PUSH1 0x20 ADD PUSH1 0x6 DUP3 ADD SLOAD DUP2 MSTORE PUSH1 0x20 ADD PUSH1 0x7 DUP3 ADD PUSH0 SWAP1 SLOAD SWAP1 PUSH2 0x100 EXP SWAP1 DIV PUSH1 0xFF AND ISZERO ISZERO ISZERO ISZERO DUP2 MSTORE POP POP SWAP1 POP SWAP2 SWAP1 POP JUMP JUMPDEST PUSH0 DUP2 DUP2 SLOAD DUP2 LT PUSH2 0xB18 JUMPI PUSH0 DUP1 REVERT JUMPDEST SWAP1 PUSH0 MSTORE PUSH1 0x20 PUSH0 KECCAK256 SWAP1 PUSH1 0x8 MUL ADD PUSH0 SWAP2 POP SWAP1 POP DUP1 PUSH0 ADD SLOAD SWAP1 DUP1 PUSH1 0x1 ADD PUSH0 SWAP1 SLOAD SWAP1 PUSH2 0x100 EXP SWAP1 DIV PUSH20 0xFFFFFFFFFFFFFFFFFFFFFFFFFFFFFFFFFFFFFFFF AND SWAP1 DUP1 PUSH1 0x2 ADD PUSH0 SWAP1 SLOAD SWAP1 PUSH2 0x100 EXP SWAP1 DIV PUSH20 0xFFFFFFFFFFFFFFFFFFFFFFFFFFFFFFFFFFFFFFFF AND SWAP1 DUP1 PUSH1 0x3 ADD DUP1 SLOAD PUSH2 0xB87 SWAP1 PUSH2 0x16DF JUMP JUMPDEST DUP1 PUSH1 0x1F ADD PUSH1 0x20 DUP1 SWAP2 DIV MUL PUSH1 0x20 ADD PUSH1 0x40 MLOAD SWAP1 DUP2 ADD PUSH1 0x40 MSTORE DUP1 SWAP3 SWAP2 SWAP1 DUP2 DUP2 MSTORE PUSH1 0x20 ADD DUP3 DUP1 SLOAD PUSH2 0xBB3 SWAP1 PUSH2 0x16DF JUMP JUMPDEST DUP1 ISZERO PUSH2 0xBFE JUMPI DUP1 PUSH1 0x1F LT PUSH2 0xBD5 JUMPI PUSH2 0x100 DUP1 DUP4 SLOAD DIV MUL DUP4 MSTORE SWAP2 PUSH1 0x20 ADD SWAP2 PUSH2 0xBFE JUMP JUMPDEST DUP3 ADD SWAP2 SWAP1 PUSH0 MSTORE PUSH1 0x20 PUSH0 KECCAK256 SWAP1 JUMPDEST DUP2 SLOAD DUP2 MSTORE SWAP1 PUSH1 0x1 ADD SWAP1 PUSH1 0x20 ADD DUP1 DUP4 GT PUSH2 0xBE1 JUMPI DUP3 SWAP1 SUB PUSH1 0x1F AND DUP3 ADD SWAP2 JUMPDEST POP POP POP POP POP SWAP1 DUP1 PUSH1 0x4 ADD DUP1 SLOAD PUSH2 0xC13 SWAP1 PUSH2 0x16DF JUMP JUMPDEST DUP1 PUSH1 0x1F ADD PUSH1 0x20 DUP1 SWAP2 DIV MUL PUSH1 0x20 ADD PUSH1 0x40 MLOAD SWAP1 DUP2 ADD PUSH1 0x40 MSTORE DUP1 SWAP3 SWAP2 SWAP1 DUP2 DUP2 MSTORE PUSH1 0x20 ADD DUP3 DUP1 SLOAD PUSH2 0xC3F SWAP1 PUSH2 0x16DF JUMP JUMPDEST DUP1 ISZERO PUSH2 0xC8A JUMPI DUP1 PUSH1 0x1F LT PUSH2 0xC61 JUMPI PUSH2 0x100 DUP1 DUP4 SLOAD DIV MUL DUP4 MSTORE SWAP2 PUSH1 0x20 ADD SWAP2 PUSH2 0xC8A JUMP JUMPDEST DUP3 ADD SWAP2 SWAP1 PUSH0 MSTORE PUSH1 0x20 PUSH0 KECCAK256 SWAP1 JUMPDEST DUP2 SLOAD DUP2 MSTORE SWAP1 PUSH1 0x1 ADD SWAP1 PUSH1 0x20 ADD DUP1 DUP4 GT PUSH2 0xC6D JUMPI DUP3 SWAP1 SUB PUSH1 0x1F AND DUP3 ADD SWAP2 JUMPDEST POP POP POP POP POP SWAP1 DUP1 PUSH1 0x5 ADD DUP1 SLOAD PUSH2 0xC9F SWAP1 PUSH2 0x16DF JUMP JUMPDEST DUP1 PUSH1 0x1F ADD PUSH1 0x20 DUP1 SWAP2 DIV MUL PUSH1 0x20 ADD PUSH1 0x40 MLOAD SWAP1 DUP2 ADD PUSH1 0x40 MSTORE DUP1 SWAP3 SWAP2 SWAP1 DUP2 DUP2 MSTORE PUSH1 0x20 ADD DUP3 DUP1 SLOAD PUSH2 0xCCB SWAP1 PUSH2 0x16DF JUMP JUMPDEST DUP1 ISZERO PUSH2 0xD16 JUMPI DUP1 PUSH1 0x1F LT PUSH2 0xCED JUMPI PUSH2 0x100 DUP1 DUP4 SLOAD DIV MUL DUP4 MSTORE SWAP2 PUSH1 0x20 ADD SWAP2 PUSH2 0xD16 JUMP JUMPDEST DUP3 ADD SWAP2 SWAP1 PUSH0 MSTORE PUSH1 0x20 PUSH0 KECCAK256 SWAP1 JUMPDEST DUP2 SLOAD DUP2 MSTORE SWAP1 PUSH1 0x1 ADD SWAP1 PUSH1 0x20 ADD DUP1 DUP4 GT PUSH2 0xCF9 JUMPI DUP3 SWAP1 SUB PUSH1 0x1F AND DUP3 ADD SWAP2 JUMPDEST POP POP POP POP POP SWAP1 DUP1 PUSH1 0x6 ADD SLOAD SWAP1 DUP1 PUSH1 0x7 ADD PUSH0 SWAP1 SLOAD SWAP1 PUSH2 0x100 EXP SWAP1 DIV PUSH1 0xFF AND SWAP1 POP DUP9 JUMP JUMPDEST PUSH0 DUP2 GT PUSH2 0xD7A JUMPI PUSH1 0x40 MLOAD PUSH32 0x8C379A000000000000000000000000000000000000000000000000000000000 DUP2 MSTORE PUSH1 0x4 ADD PUSH2 0xD71 SWAP1 PUSH2 0x1AA9 JUMP JUMPDEST PUSH1 0x40 MLOAD DUP1 SWAP2 SUB SWAP1 REVERT JUMPDEST PUSH0 PUSH1 0x40 MLOAD DUP1 PUSH2 0x100 ADD PUSH1 0x40 MSTORE DUP1 PUSH1 0x1 SLOAD DUP2 MSTORE PUSH1 0x20 ADD CALLER PUSH20 0xFFFFFFFFFFFFFFFFFFFFFFFFFFFFFFFFFFFFFFFF AND DUP2 MSTORE PUSH1 0x20 ADD CALLER PUSH20 0xFFFFFFFFFFFFFFFFFFFFFFFFFFFFFFFFFFFFFFFF AND DUP2 MSTORE PUSH1 0x20 ADD DUP7 DUP2 MSTORE PUSH1 0x20 ADD DUP6 DUP2 MSTORE PUSH1 0x20 ADD DUP5 DUP2 MSTORE PUSH1 0x20 ADD DUP4 DUP2 MSTORE PUSH1 0x20 ADD PUSH0 ISZERO ISZERO DUP2 MSTORE POP SWAP1 POP PUSH0 DUP2 SWAP1 DUP1 PUSH1 0x1 DUP2 SLOAD ADD DUP1 DUP3 SSTORE DUP1 SWAP2 POP POP PUSH1 0x1 SWAP1 SUB SWAP1 PUSH0 MSTORE PUSH1 0x20 PUSH0 KECCAK256 SWAP1 PUSH1 0x8 MUL ADD PUSH0 SWAP1 SWAP2 SWAP1 SWAP2 SWAP1 SWAP2 POP PUSH0 DUP3 ADD MLOAD DUP2 PUSH0 ADD SSTORE PUSH1 0x20 DUP3 ADD MLOAD DUP2 PUSH1 0x1 ADD PUSH0 PUSH2 0x100 EXP DUP2 SLOAD DUP2 PUSH20 0xFFFFFFFFFFFFFFFFFFFFFFFFFFFFFFFFFFFFFFFF MUL NOT AND SWAP1 DUP4 PUSH20 0xFFFFFFFFFFFFFFFFFFFFFFFFFFFFFFFFFFFFFFFF AND MUL OR SWAP1 SSTORE POP PUSH1 0x40 DUP3 ADD MLOAD DUP2 PUSH1 0x2 ADD PUSH0 PUSH2 0x100 EXP DUP2 SLOAD DUP2 PUSH20 0xFFFFFFFFFFFFFFFFFFFFFFFFFFFFFFFFFFFFFFFF MUL NOT AND SWAP1 DUP4 PUSH20 0xFFFFFFFFFFFFFFFFFFFFFFFFFFFFFFFFFFFFFFFF AND MUL OR SWAP1 SSTORE POP PUSH1 0x60 DUP3 ADD MLOAD DUP2 PUSH1 0x3 ADD SWAP1 DUP2 PUSH2 0xEB8 SWAP2 SWAP1 PUSH2 0x1C64 JUMP JUMPDEST POP PUSH1 0x80 DUP3 ADD MLOAD DUP2 PUSH1 0x4 ADD SWAP1 DUP2 PUSH2 0xECE SWAP2 SWAP1 PUSH2 0x1C64 JUMP JUMPDEST POP PUSH1 0xA0 DUP3 ADD MLOAD DUP2 PUSH1 0x5 ADD SWAP1 DUP2 PUSH2 0xEE4 SWAP2 SWAP1 PUSH2 0x1C64 JUMP JUMPDEST POP PUSH1 0xC0 DUP3 ADD MLOAD DUP2 PUSH1 0x6 ADD SSTORE PUSH1 0xE0 DUP3 ADD MLOAD DUP2 PUSH1 0x7 ADD PUSH0 PUSH2 0x100 EXP DUP2 SLOAD DUP2 PUSH1 0xFF MUL NOT AND SWAP1 DUP4 ISZERO ISZERO MUL OR SWAP1 SSTORE POP POP POP CALLER PUSH20 0xFFFFFFFFFFFFFFFFFFFFFFFFFFFFFFFFFFFFFFFF AND PUSH1 0x1 SLOAD PUSH32 0xCACA718769B36464485951C1AFB94414B8F5B85B6A614A72FD5D1D2E85DF19B6 DUP8 DUP7 DUP7 PUSH1 0x40 MLOAD PUSH2 0xF5D SWAP4 SWAP3 SWAP2 SWAP1 PUSH2 0x1D33 JUMP JUMPDEST PUSH1 0x40 MLOAD DUP1 SWAP2 SUB SWAP1 LOG3 PUSH1 0x1 PUSH0 DUP2 SLOAD DUP1 SWAP3 SWAP2 SWAP1 PUSH2 0xF77 SWAP1 PUSH2 0x1DA3 JUMP JUMPDEST SWAP2 SWAP1 POP SSTORE POP POP POP POP POP POP JUMP JUMPDEST PUSH1 0x1 SLOAD DUP2 JUMP JUMPDEST PUSH1 0x40 MLOAD DUP1 PUSH2 0x100 ADD PUSH1 0x40 MSTORE DUP1 PUSH0 DUP2 MSTORE PUSH1 0x20 ADD PUSH0 PUSH20 0xFFFFFFFFFFFFFFFFFFFFFFFFFFFFFFFFFFFFFFFF AND DUP2 MSTORE PUSH1 0x20 ADD PUSH0 PUSH20 0xFFFFFFFFFFFFFFFFFFFFFFFFFFFFFFFFFFFFFFFF AND DUP2 MSTORE PUSH1 0x20 ADD PUSH1 0x60 DUP2 MSTORE PUSH1 0x20 ADD PUSH1 0x60 DUP2 MSTORE PUSH1 0x20 ADD PUSH1 0x60 DUP2 MSTORE PUSH1 0x20 ADD PUSH0 DUP2 MSTORE PUSH1 0x20 ADD PUSH0 ISZERO ISZERO DUP2 MSTORE POP SWAP1 JUMP JUMPDEST PUSH0 DUP2 MLOAD SWAP1 POP SWAP2 SWAP1 POP JUMP JUMPDEST PUSH0 DUP3 DUP3 MSTORE PUSH1 0x20 DUP3 ADD SWAP1 POP SWAP3 SWAP2 POP POP JUMP JUMPDEST PUSH0 DUP2 SWAP1 POP PUSH1 0x20 DUP3 ADD SWAP1 POP SWAP2 SWAP1 POP JUMP JUMPDEST PUSH0 DUP2 SWAP1 POP SWAP2 SWAP1 POP JUMP JUMPDEST PUSH2 0x1032 DUP2 PUSH2 0x1020 JUMP JUMPDEST DUP3 MSTORE POP POP JUMP JUMPDEST PUSH0 PUSH20 0xFFFFFFFFFFFFFFFFFFFFFFFFFFFFFFFFFFFFFFFF DUP3 AND SWAP1 POP SWAP2 SWAP1 POP JUMP JUMPDEST PUSH0 PUSH2 0x1061 DUP3 PUSH2 0x1038 JUMP JUMPDEST SWAP1 POP SWAP2 SWAP1 POP JUMP JUMPDEST PUSH2 0x1071 DUP2 PUSH2 0x1057 JUMP JUMPDEST DUP3 MSTORE POP POP JUMP JUMPDEST PUSH0 DUP2 MLOAD SWAP1 POP SWAP2 SWAP1 POP JUMP JUMPDEST PUSH0 DUP3 DUP3 MSTORE PUSH1 0x20 DUP3 ADD SWAP1 POP SWAP3 SWAP2 POP POP JUMP JUMPDEST DUP3 DUP2 DUP4 MCOPY PUSH0 DUP4 DUP4 ADD MSTORE POP POP POP JUMP JUMPDEST PUSH0 PUSH1 0x1F NOT PUSH1 0x1F DUP4 ADD AND SWAP1 POP SWAP2 SWAP1 POP JUMP JUMPDEST PUSH0 PUSH2 0x10B9 DUP3 PUSH2 0x1077 JUMP JUMPDEST PUSH2 0x10C3 DUP2 DUP6 PUSH2 0x1081 JUMP JUMPDEST SWAP4 POP PUSH2 0x10D3 DUP2 DUP6 PUSH1 0x20 DUP7 ADD PUSH2 0x1091 JUMP JUMPDEST PUSH2 0x10DC DUP2 PUSH2 0x109F JUMP JUMPDEST DUP5 ADD SWAP2 POP POP SWAP3 SWAP2 POP POP JUMP JUMPDEST PUSH0 DUP2 ISZERO ISZERO SWAP1 POP SWAP2 SWAP1 POP JUMP JUMPDEST PUSH2 0x10FB DUP2 PUSH2 0x10E7 JUMP JUMPDEST DUP3 MSTORE POP POP JUMP JUMPDEST PUSH0 PUSH2 0x100 DUP4 ADD PUSH0 DUP4 ADD MLOAD PUSH2 0x1117 PUSH0 DUP7 ADD DUP3 PUSH2 0x1029 JUMP JUMPDEST POP PUSH1 0x20 DUP4 ADD MLOAD PUSH2 0x112A PUSH1 0x20 DUP7 ADD DUP3 PUSH2 0x1068 JUMP JUMPDEST POP PUSH1 0x40 DUP4 ADD MLOAD PUSH2 0x113D PUSH1 0x40 DUP7 ADD DUP3 PUSH2 0x1068 JUMP JUMPDEST POP PUSH1 0x60 DUP4 ADD MLOAD DUP5 DUP3 SUB PUSH1 0x60 DUP7 ADD MSTORE PUSH2 0x1155 DUP3 DUP3 PUSH2 0x10AF JUMP JUMPDEST SWAP2 POP POP PUSH1 0x80 DUP4 ADD MLOAD DUP5 DUP3 SUB PUSH1 0x80 DUP7 ADD MSTORE PUSH2 0x116F DUP3 DUP3 PUSH2 0x10AF JUMP JUMPDEST SWAP2 POP POP PUSH1 0xA0 DUP4 ADD MLOAD DUP5 DUP3 SUB PUSH1 0xA0 DUP7 ADD MSTORE PUSH2 0x1189 DUP3 DUP3 PUSH2 0x10AF JUMP JUMPDEST SWAP2 POP POP PUSH1 0xC0 DUP4 ADD MLOAD PUSH2 0x119E PUSH1 0xC0 DUP7 ADD DUP3 PUSH2 0x1029 JUMP JUMPDEST POP PUSH1 0xE0 DUP4 ADD MLOAD PUSH2 0x11B1 PUSH1 0xE0 DUP7 ADD DUP3 PUSH2 0x10F2 JUMP JUMPDEST POP DUP1 SWAP2 POP POP SWAP3 SWAP2 POP POP JUMP JUMPDEST PUSH0 PUSH2 0x11C7 DUP4 DUP4 PUSH2 0x1101 JUMP JUMPDEST SWAP1 POP SWAP3 SWAP2 POP POP JUMP JUMPDEST PUSH0 PUSH1 0x20 DUP3 ADD SWAP1 POP SWAP2 SWAP1 POP JUMP JUMPDEST PUSH0 PUSH2 0x11E5 DUP3 PUSH2 0xFF7 JUMP JUMPDEST PUSH2 0x11EF DUP2 DUP6 PUSH2 0x1001 JUMP JUMPDEST SWAP4 POP DUP4 PUSH1 0x20 DUP3 MUL DUP6 ADD PUSH2 0x1201 DUP6 PUSH2 0x1011 JUMP JUMPDEST DUP1 PUSH0 JUMPDEST DUP6 DUP2 LT ISZERO PUSH2 0x123C JUMPI DUP5 DUP5 SUB DUP10 MSTORE DUP2 MLOAD PUSH2 0x121D DUP6 DUP3 PUSH2 0x11BC JUMP JUMPDEST SWAP5 POP PUSH2 0x1228 DUP4 PUSH2 0x11CF JUMP JUMPDEST SWAP3 POP PUSH1 0x20 DUP11 ADD SWAP10 POP POP PUSH1 0x1 DUP2 ADD SWAP1 POP PUSH2 0x1204 JUMP JUMPDEST POP DUP3 SWAP8 POP DUP8 SWAP6 POP POP POP POP POP POP SWAP3 SWAP2 POP POP JUMP JUMPDEST PUSH0 PUSH1 0x20 DUP3 ADD SWAP1 POP DUP2 DUP2 SUB PUSH0 DUP4 ADD MSTORE PUSH2 0x1266 DUP2 DUP5 PUSH2 0x11DB JUMP JUMPDEST SWAP1 POP SWAP3 SWAP2 POP POP JUMP JUMPDEST PUSH0 PUSH1 0x40 MLOAD SWAP1 POP SWAP1 JUMP JUMPDEST PUSH0 DUP1 REVERT JUMPDEST PUSH0 DUP1 REVERT JUMPDEST PUSH2 0x1288 DUP2 PUSH2 0x1020 JUMP JUMPDEST DUP2 EQ PUSH2 0x1292 JUMPI PUSH0 DUP1 REVERT JUMPDEST POP JUMP JUMPDEST PUSH0 DUP2 CALLDATALOAD SWAP1 POP PUSH2 0x12A3 DUP2 PUSH2 0x127F JUMP JUMPDEST SWAP3 SWAP2 POP POP JUMP JUMPDEST PUSH0 PUSH1 0x20 DUP3 DUP5 SUB SLT ISZERO PUSH2 0x12BE JUMPI PUSH2 0x12BD PUSH2 0x1277 JUMP JUMPDEST JUMPDEST PUSH0 PUSH2 0x12CB DUP5 DUP3 DUP6 ADD PUSH2 0x1295 JUMP JUMPDEST SWAP2 POP POP SWAP3 SWAP2 POP POP JUMP JUMPDEST PUSH0 PUSH2 0x100 DUP4 ADD PUSH0 DUP4 ADD MLOAD PUSH2 0x12EA PUSH0 DUP7 ADD DUP3 PUSH2 0x1029 JUMP JUMPDEST POP PUSH1 0x20 DUP4 ADD MLOAD PUSH2 0x12FD PUSH1 0x20 DUP7 ADD DUP3 PUSH2 0x1068 JUMP JUMPDEST POP PUSH1 0x40 DUP4 ADD MLOAD PUSH2 0x1310 PUSH1 0x40 DUP7 ADD DUP3 PUSH2 0x1068 JUMP JUMPDEST POP PUSH1 0x60 DUP4 ADD MLOAD DUP5 DUP3 SUB PUSH1 0x60 DUP7 ADD MSTORE PUSH2 0x1328 DUP3 DUP3 PUSH2 0x10AF JUMP JUMPDEST SWAP2 POP POP PUSH1 0x80 DUP4 ADD MLOAD DUP5 DUP3 SUB PUSH1 0x80 DUP7 ADD MSTORE PUSH2 0x1342 DUP3 DUP3 PUSH2 0x10AF JUMP JUMPDEST SWAP2 POP POP PUSH1 0xA0 DUP4 ADD MLOAD DUP5 DUP3 SUB PUSH1 0xA0 DUP7 ADD MSTORE PUSH2 0x135C DUP3 DUP3 PUSH2 0x10AF JUMP JUMPDEST SWAP2 POP POP PUSH1 0xC0 DUP4 ADD MLOAD PUSH2 0x1371 PUSH1 0xC0 DUP7 ADD DUP3 PUSH2 0x1029 JUMP JUMPDEST POP PUSH1 0xE0 DUP4 ADD MLOAD PUSH2 0x1384 PUSH1 0xE0 DUP7 ADD DUP3 PUSH2 0x10F2 JUMP JUMPDEST POP DUP1 SWAP2 POP POP SWAP3 SWAP2 POP POP JUMP JUMPDEST PUSH0 PUSH1 0x20 DUP3 ADD SWAP1 POP DUP2 DUP2 SUB PUSH0 DUP4 ADD MSTORE PUSH2 0x13A7 DUP2 DUP5 PUSH2 0x12D4 JUMP JUMPDEST SWAP1 POP SWAP3 SWAP2 POP POP JUMP JUMPDEST PUSH2 0x13B8 DUP2 PUSH2 0x1020 JUMP JUMPDEST DUP3 MSTORE POP POP JUMP JUMPDEST PUSH2 0x13C7 DUP2 PUSH2 0x1057 JUMP JUMPDEST DUP3 MSTORE POP POP JUMP JUMPDEST PUSH0 DUP3 DUP3 MSTORE PUSH1 0x20 DUP3 ADD SWAP1 POP SWAP3 SWAP2 POP POP JUMP JUMPDEST PUSH0 PUSH2 0x13E7 DUP3 PUSH2 0x1077 JUMP JUMPDEST PUSH2 0x13F1 DUP2 DUP6 PUSH2 0x13CD JUMP JUMPDEST SWAP4 POP PUSH2 0x1401 DUP2 DUP6 PUSH1 0x20 DUP7 ADD PUSH2 0x1091 JUMP JUMPDEST PUSH2 0x140A DUP2 PUSH2 0x109F JUMP JUMPDEST DUP5 ADD SWAP2 POP POP SWAP3 SWAP2 POP POP JUMP JUMPDEST PUSH2 0x141E DUP2 PUSH2 0x10E7 JUMP JUMPDEST DUP3 MSTORE POP POP JUMP JUMPDEST PUSH0 PUSH2 0x100 DUP3 ADD SWAP1 POP PUSH2 0x1438 PUSH0 DUP4 ADD DUP12 PUSH2 0x13AF JUMP JUMPDEST PUSH2 0x1445 PUSH1 0x20 DUP4 ADD DUP11 PUSH2 0x13BE JUMP JUMPDEST PUSH2 0x1452 PUSH1 0x40 DUP4 ADD DUP10 PUSH2 0x13BE JUMP JUMPDEST DUP2 DUP2 SUB PUSH1 0x60 DUP4 ADD MSTORE PUSH2 0x1464 DUP2 DUP9 PUSH2 0x13DD JUMP JUMPDEST SWAP1 POP DUP2 DUP2 SUB PUSH1 0x80 DUP4 ADD MSTORE PUSH2 0x1478 DUP2 DUP8 PUSH2 0x13DD JUMP JUMPDEST SWAP1 POP DUP2 DUP2 SUB PUSH1 0xA0 DUP4 ADD MSTORE PUSH2 0x148C DUP2 DUP7 PUSH2 0x13DD JUMP JUMPDEST SWAP1 POP PUSH2 0x149B PUSH1 0xC0 DUP4 ADD DUP6 PUSH2 0x13AF JUMP JUMPDEST PUSH2 0x14A8 PUSH1 0xE0 DUP4 ADD DUP5 PUSH2 0x1415 JUMP JUMPDEST SWAP10 SWAP9 POP POP POP POP POP POP POP POP POP JUMP JUMPDEST PUSH0 DUP1 REVERT JUMPDEST PUSH0 DUP1 REVERT JUMPDEST PUSH32 0x4E487B7100000000000000000000000000000000000000000000000000000000 PUSH0 MSTORE PUSH1 0x41 PUSH1 0x4 MSTORE PUSH1 0x24 PUSH0 REVERT JUMPDEST PUSH2 0x14F3 DUP3 PUSH2 0x109F JUMP JUMPDEST DUP2 ADD DUP2 DUP2 LT PUSH8 0xFFFFFFFFFFFFFFFF DUP3 GT OR ISZERO PUSH2 0x1512 JUMPI PUSH2 0x1511 PUSH2 0x14BD JUMP JUMPDEST JUMPDEST DUP1 PUSH1 0x40 MSTORE POP POP POP JUMP JUMPDEST PUSH0 PUSH2 0x1524 PUSH2 0x126E JUMP JUMPDEST SWAP1 POP PUSH2 0x1530 DUP3 DUP3 PUSH2 0x14EA JUMP JUMPDEST SWAP2 SWAP1 POP JUMP JUMPDEST PUSH0 PUSH8 0xFFFFFFFFFFFFFFFF DUP3 GT ISZERO PUSH2 0x154F JUMPI PUSH2 0x154E PUSH2 0x14BD JUMP JUMPDEST JUMPDEST PUSH2 0x1558 DUP3 PUSH2 0x109F JUMP JUMPDEST SWAP1 POP PUSH1 0x20 DUP2 ADD SWAP1 POP SWAP2 SWAP1 POP JUMP JUMPDEST DUP3 DUP2 DUP4 CALLDATACOPY PUSH0 DUP4 DUP4 ADD MSTORE POP POP POP JUMP JUMPDEST PUSH0 PUSH2 0x1585 PUSH2 0x1580 DUP5 PUSH2 0x1535 JUMP JUMPDEST PUSH2 0x151B JUMP JUMPDEST SWAP1 POP DUP3 DUP2 MSTORE PUSH1 0x20 DUP2 ADD DUP5 DUP5 DUP5 ADD GT ISZERO PUSH2 0x15A1 JUMPI PUSH2 0x15A0 PUSH2 0x14B9 JUMP JUMPDEST JUMPDEST PUSH2 0x15AC DUP5 DUP3 DUP6 PUSH2 0x1565 JUMP JUMPDEST POP SWAP4 SWAP3 POP POP POP JUMP JUMPDEST PUSH0 DUP3 PUSH1 0x1F DUP4 ADD SLT PUSH2 0x15C8 JUMPI PUSH2 0x15C7 PUSH2 0x14B5 JUMP JUMPDEST JUMPDEST DUP2 CALLDATALOAD PUSH2 0x15D8 DUP5 DUP3 PUSH1 0x20 DUP7 ADD PUSH2 0x1573 JUMP JUMPDEST SWAP2 POP POP SWAP3 SWAP2 POP POP JUMP JUMPDEST PUSH0 DUP1 PUSH0 DUP1 PUSH1 0x80 DUP6 DUP8 SUB SLT ISZERO PUSH2 0x15F9 JUMPI PUSH2 0x15F8 PUSH2 0x1277 JUMP JUMPDEST JUMPDEST PUSH0 DUP6 ADD CALLDATALOAD PUSH8 0xFFFFFFFFFFFFFFFF DUP2 GT ISZERO PUSH2 0x1616 JUMPI PUSH2 0x1615 PUSH2 0x127B JUMP JUMPDEST JUMPDEST PUSH2 0x1622 DUP8 DUP3 DUP9 ADD PUSH2 0x15B4 JUMP JUMPDEST SWAP5 POP POP PUSH1 0x20 DUP6 ADD CALLDATALOAD PUSH8 0xFFFFFFFFFFFFFFFF DUP2 GT ISZERO PUSH2 0x1643 JUMPI PUSH2 0x1642 PUSH2 0x127B JUMP JUMPDEST JUMPDEST PUSH2 0x164F DUP8 DUP3 DUP9 ADD PUSH2 0x15B4 JUMP JUMPDEST SWAP4 POP POP PUSH1 0x40 DUP6 ADD CALLDATALOAD PUSH8 0xFFFFFFFFFFFFFFFF DUP2 GT ISZERO PUSH2 0x1670 JUMPI PUSH2 0x166F PUSH2 0x127B JUMP JUMPDEST JUMPDEST PUSH2 0x167C DUP8 DUP3 DUP9 ADD PUSH2 0x15B4 JUMP JUMPDEST SWAP3 POP POP PUSH1 0x60 PUSH2 0x168D DUP8 DUP3 DUP9 ADD PUSH2 0x1295 JUMP JUMPDEST SWAP2 POP POP SWAP3 SWAP6 SWAP2 SWAP5 POP SWAP3 POP JUMP JUMPDEST PUSH0 PUSH1 0x20 DUP3 ADD SWAP1 POP PUSH2 0x16AC PUSH0 DUP4 ADD DUP5 PUSH2 0x13AF JUMP JUMPDEST SWAP3 SWAP2 POP POP JUMP JUMPDEST PUSH32 0x4E487B7100000000000000000000000000000000000000000000000000000000 PUSH0 MSTORE PUSH1 0x22 PUSH1 0x4 MSTORE PUSH1 0x24 PUSH0 REVERT JUMPDEST PUSH0 PUSH1 0x2 DUP3 DIV SWAP1 POP PUSH1 0x1 DUP3 AND DUP1 PUSH2 0x16F6 JUMPI PUSH1 0x7F DUP3 AND SWAP2 POP JUMPDEST PUSH1 0x20 DUP3 LT DUP2 SUB PUSH2 0x1709 JUMPI PUSH2 0x1708 PUSH2 0x16B2 JUMP JUMPDEST JUMPDEST POP SWAP2 SWAP1 POP JUMP JUMPDEST PUSH32 0x4974656D20494420646F6573206E6F7420657869737400000000000000000000 PUSH0 DUP3 ADD MSTORE POP JUMP JUMPDEST PUSH0 PUSH2 0x1743 PUSH1 0x16 DUP4 PUSH2 0x13CD JUMP JUMPDEST SWAP2 POP PUSH2 0x174E DUP3 PUSH2 0x170F JUMP JUMPDEST PUSH1 0x20 DUP3 ADD SWAP1 POP SWAP2 SWAP1 POP JUMP JUMPDEST PUSH0 PUSH1 0x20 DUP3 ADD SWAP1 POP DUP2 DUP2 SUB PUSH0 DUP4 ADD MSTORE PUSH2 0x1770 DUP2 PUSH2 0x1737 JUMP JUMPDEST SWAP1 POP SWAP2 SWAP1 POP JUMP JUMPDEST PUSH32 0x4E487B7100000000000000000000000000000000000000000000000000000000 PUSH0 MSTORE PUSH1 0x32 PUSH1 0x4 MSTORE PUSH1 0x24 PUSH0 REVERT JUMPDEST PUSH32 0x496E636F727265637420616D6F756E742C20706C656173652073656E64207468 PUSH0 DUP3 ADD MSTORE PUSH32 0x6520657861637420707269636500000000000000000000000000000000000000 PUSH1 0x20 DUP3 ADD MSTORE POP JUMP JUMPDEST PUSH0 PUSH2 0x17FE PUSH1 0x2D DUP4 PUSH2 0x13CD JUMP JUMPDEST SWAP2 POP PUSH2 0x1809 DUP3 PUSH2 0x17A4 JUMP JUMPDEST PUSH1 0x40 DUP3 ADD SWAP1 POP SWAP2 SWAP1 POP JUMP JUMPDEST PUSH0 PUSH1 0x20 DUP3 ADD SWAP1 POP DUP2 DUP2 SUB PUSH0 DUP4 ADD MSTORE PUSH2 0x182B DUP2 PUSH2 0x17F2 JUMP JUMPDEST SWAP1 POP SWAP2 SWAP1 POP JUMP JUMPDEST PUSH32 0x4974656D20697320616C726561647920736F6C64000000000000000000000000 PUSH0 DUP3 ADD MSTORE POP JUMP JUMPDEST PUSH0 PUSH2 0x1866 PUSH1 0x14 DUP4 PUSH2 0x13CD JUMP JUMPDEST SWAP2 POP PUSH2 0x1871 DUP3 PUSH2 0x1832 JUMP JUMPDEST PUSH1 0x20 DUP3 ADD SWAP1 POP SWAP2 SWAP1 POP JUMP JUMPDEST PUSH0 PUSH1 0x20 DUP3 ADD SWAP1 POP DUP2 DUP2 SUB PUSH0 DUP4 ADD MSTORE PUSH2 0x1893 DUP2 PUSH2 0x185A JUMP JUMPDEST SWAP1 POP SWAP2 SWAP1 POP JUMP JUMPDEST PUSH32 0x4974656D206F776E65722063616E6E6F74207075726368617365207468656972 PUSH0 DUP3 ADD MSTORE PUSH32 0x206F776E206974656D0000000000000000000000000000000000000000000000 PUSH1 0x20 DUP3 ADD MSTORE POP JUMP JUMPDEST PUSH0 PUSH2 0x18F4 PUSH1 0x29 DUP4 PUSH2 0x13CD JUMP JUMPDEST SWAP2 POP PUSH2 0x18FF DUP3 PUSH2 0x189A JUMP JUMPDEST PUSH1 0x40 DUP3 ADD SWAP1 POP SWAP2 SWAP1 POP JUMP JUMPDEST PUSH0 PUSH1 0x20 DUP3 ADD SWAP1 POP DUP2 DUP2 SUB PUSH0 DUP4 ADD MSTORE PUSH2 0x1921 DUP2 PUSH2 0x18E8 JUMP JUMPDEST SWAP1 POP SWAP2 SWAP1 POP JUMP JUMPDEST PUSH0 DUP2 SWAP1 POP SWAP3 SWAP2 POP POP JUMP JUMPDEST POP JUMP JUMPDEST PUSH0 PUSH2 0x1940 PUSH0 DUP4 PUSH2 0x1928 JUMP JUMPDEST SWAP2 POP PUSH2 0x194B DUP3 PUSH2 0x1932 JUMP JUMPDEST PUSH0 DUP3 ADD SWAP1 POP SWAP2 SWAP1 POP JUMP JUMPDEST PUSH0 PUSH2 0x195F DUP3 PUSH2 0x1935 JUMP JUMPDEST SWAP2 POP DUP2 SWAP1 POP SWAP2 SWAP1 POP JUMP JUMPDEST PUSH32 0x4574686572207472616E73666572206661696C65640000000000000000000000 PUSH0 DUP3 ADD MSTORE POP JUMP JUMPDEST PUSH0 PUSH2 0x199D PUSH1 0x15 DUP4 PUSH2 0x13CD JUMP JUMPDEST SWAP2 POP PUSH2 0x19A8 DUP3 PUSH2 0x1969 JUMP JUMPDEST PUSH1 0x20 DUP3 ADD SWAP1 POP SWAP2 SWAP1 POP JUMP JUMPDEST PUSH0 PUSH1 0x20 DUP3 ADD SWAP1 POP DUP2 DUP2 SUB PUSH0 DUP4 ADD MSTORE PUSH2 0x19CA DUP2 PUSH2 0x1991 JUMP JUMPDEST SWAP1 POP SWAP2 SWAP1 POP JUMP JUMPDEST PUSH32 0x50726F6475637420494420646F6573206E6F7420657869737400000000000000 PUSH0 DUP3 ADD MSTORE POP JUMP JUMPDEST PUSH0 PUSH2 0x1A05 PUSH1 0x19 DUP4 PUSH2 0x13CD JUMP JUMPDEST SWAP2 POP PUSH2 0x1A10 DUP3 PUSH2 0x19D1 JUMP JUMPDEST PUSH1 0x20 DUP3 ADD SWAP1 POP SWAP2 SWAP1 POP JUMP JUMPDEST PUSH0 PUSH1 0x20 DUP3 ADD SWAP1 POP DUP2 DUP2 SUB PUSH0 DUP4 ADD MSTORE PUSH2 0x1A32 DUP2 PUSH2 0x19F9 JUMP JUMPDEST SWAP1 POP SWAP2 SWAP1 POP JUMP JUMPDEST PUSH32 0x56616C7565206F662050726F64756374206D7573742062652067726561746572 PUSH0 DUP3 ADD MSTORE PUSH32 0x207468616E207A65726F00000000000000000000000000000000000000000000 PUSH1 0x20 DUP3 ADD MSTORE POP JUMP JUMPDEST PUSH0 PUSH2 0x1A93 PUSH1 0x2A DUP4 PUSH2 0x13CD JUMP JUMPDEST SWAP2 POP PUSH2 0x1A9E DUP3 PUSH2 0x1A39 JUMP JUMPDEST PUSH1 0x40 DUP3 ADD SWAP1 POP SWAP2 SWAP1 POP JUMP JUMPDEST PUSH0 PUSH1 0x20 DUP3 ADD SWAP1 POP DUP2 DUP2 SUB PUSH0 DUP4 ADD MSTORE PUSH2 0x1AC0 DUP2 PUSH2 0x1A87 JUMP JUMPDEST SWAP1 POP SWAP2 SWAP1 POP JUMP JUMPDEST PUSH0 DUP2 SWAP1 POP DUP2 PUSH0 MSTORE PUSH1 0x20 PUSH0 KECCAK256 SWAP1 POP SWAP2 SWAP1 POP JUMP JUMPDEST PUSH0 PUSH1 0x20 PUSH1 0x1F DUP4 ADD DIV SWAP1 POP SWAP2 SWAP1 POP JUMP JUMPDEST PUSH0 DUP3 DUP3 SHL SWAP1 POP SWAP3 SWAP2 POP POP JUMP JUMPDEST PUSH0 PUSH1 0x8 DUP4 MUL PUSH2 0x1B23 PUSH32 0xFFFFFFFFFFFFFFFFFFFFFFFFFFFFFFFFFFFFFFFFFFFFFFFFFFFFFFFFFFFFFFFF DUP3 PUSH2 0x1AE8 JUMP JUMPDEST PUSH2 0x1B2D DUP7 DUP4 PUSH2 0x1AE8 JUMP JUMPDEST SWAP6 POP DUP1 NOT DUP5 AND SWAP4 POP DUP1 DUP7 AND DUP5 OR SWAP3 POP POP POP SWAP4 SWAP3 POP POP POP JUMP JUMPDEST PUSH0 DUP2 SWAP1 POP SWAP2 SWAP1 POP JUMP JUMPDEST PUSH0 PUSH2 0x1B68 PUSH2 0x1B63 PUSH2 0x1B5E DUP5 PUSH2 0x1020 JUMP JUMPDEST PUSH2 0x1B45 JUMP JUMPDEST PUSH2 0x1020 JUMP JUMPDEST SWAP1 POP SWAP2 SWAP1 POP JUMP JUMPDEST PUSH0 DUP2 SWAP1 POP SWAP2 SWAP1 POP JUMP JUMPDEST PUSH2 0x1B81 DUP4 PUSH2 0x1B4E JUMP JUMPDEST PUSH2 0x1B95 PUSH2 0x1B8D DUP3 PUSH2 0x1B6F JUMP JUMPDEST DUP5 DUP5 SLOAD PUSH2 0x1AF4 JUMP JUMPDEST DUP3 SSTORE POP POP POP POP JUMP JUMPDEST PUSH0 SWAP1 JUMP JUMPDEST PUSH2 0x1BA9 PUSH2 0x1B9D JUMP JUMPDEST PUSH2 0x1BB4 DUP2 DUP5 DUP5 PUSH2 0x1B78 JUMP JUMPDEST POP POP POP JUMP JUMPDEST JUMPDEST DUP2 DUP2 LT ISZERO PUSH2 0x1BD7 JUMPI PUSH2 0x1BCC PUSH0 DUP3 PUSH2 0x1BA1 JUMP JUMPDEST PUSH1 0x1 DUP2 ADD SWAP1 POP PUSH2 0x1BBA JUMP JUMPDEST POP POP JUMP JUMPDEST PUSH1 0x1F DUP3 GT ISZERO PUSH2 0x1C1C JUMPI PUSH2 0x1BED DUP2 PUSH2 0x1AC7 JUMP JUMPDEST PUSH2 0x1BF6 DUP5 PUSH2 0x1AD9 JUMP JUMPDEST DUP2 ADD PUSH1 0x20 DUP6 LT ISZERO PUSH2 0x1C05 JUMPI DUP2 SWAP1 POP JUMPDEST PUSH2 0x1C19 PUSH2 0x1C11 DUP6 PUSH2 0x1AD9 JUMP JUMPDEST DUP4 ADD DUP3 PUSH2 0x1BB9 JUMP JUMPDEST POP POP JUMPDEST POP POP POP JUMP JUMPDEST PUSH0 DUP3 DUP3 SHR SWAP1 POP SWAP3 SWAP2 POP POP JUMP JUMPDEST PUSH0 PUSH2 0x1C3C PUSH0 NOT DUP5 PUSH1 0x8 MUL PUSH2 0x1C21 JUMP JUMPDEST NOT DUP1 DUP4 AND SWAP2 POP POP SWAP3 SWAP2 POP POP JUMP JUMPDEST PUSH0 PUSH2 0x1C54 DUP4 DUP4 PUSH2 0x1C2D JUMP JUMPDEST SWAP2 POP DUP3 PUSH1 0x2 MUL DUP3 OR SWAP1 POP SWAP3 SWAP2 POP POP JUMP JUMPDEST PUSH2 0x1C6D DUP3 PUSH2 0x1077 JUMP JUMPDEST PUSH8 0xFFFFFFFFFFFFFFFF DUP2 GT ISZERO PUSH2 0x1C86 JUMPI PUSH2 0x1C85 PUSH2 0x14BD JUMP JUMPDEST JUMPDEST PUSH2 0x1C90 DUP3 SLOAD PUSH2 0x16DF JUMP JUMPDEST PUSH2 0x1C9B DUP3 DUP3 DUP6 PUSH2 0x1BDB JUMP JUMPDEST PUSH0 PUSH1 0x20 SWAP1 POP PUSH1 0x1F DUP4 GT PUSH1 0x1 DUP2 EQ PUSH2 0x1CCC JUMPI PUSH0 DUP5 ISZERO PUSH2 0x1CBA JUMPI DUP3 DUP8 ADD MLOAD SWAP1 POP JUMPDEST PUSH2 0x1CC4 DUP6 DUP3 PUSH2 0x1C49 JUMP JUMPDEST DUP7 SSTORE POP PUSH2 0x1D2B JUMP JUMPDEST PUSH1 0x1F NOT DUP5 AND PUSH2 0x1CDA DUP7 PUSH2 0x1AC7 JUMP JUMPDEST PUSH0 JUMPDEST DUP3 DUP2 LT ISZERO PUSH2 0x1D01 JUMPI DUP5 DUP10 ADD MLOAD DUP3 SSTORE PUSH1 0x1 DUP3 ADD SWAP2 POP PUSH1 0x20 DUP6 ADD SWAP5 POP PUSH1 0x20 DUP2 ADD SWAP1 POP PUSH2 0x1CDC JUMP JUMPDEST DUP7 DUP4 LT ISZERO PUSH2 0x1D1E JUMPI DUP5 DUP10 ADD MLOAD PUSH2 0x1D1A PUSH1 0x1F DUP10 AND DUP3 PUSH2 0x1C2D JUMP JUMPDEST DUP4 SSTORE POP JUMPDEST PUSH1 0x1 PUSH1 0x2 DUP9 MUL ADD DUP9 SSTORE POP POP POP JUMPDEST POP POP POP POP POP POP JUMP JUMPDEST PUSH0 PUSH1 0x60 DUP3 ADD SWAP1 POP DUP2 DUP2 SUB PUSH0 DUP4 ADD MSTORE PUSH2 0x1D4B DUP2 DUP7 PUSH2 0x13DD JUMP JUMPDEST SWAP1 POP DUP2 DUP2 SUB PUSH1 0x20 DUP4 ADD MSTORE PUSH2 0x1D5F DUP2 DUP6 PUSH2 0x13DD JUMP JUMPDEST SWAP1 POP PUSH2 0x1D6E PUSH1 0x40 DUP4 ADD DUP5 PUSH2 0x13AF JUMP JUMPDEST SWAP5 SWAP4 POP POP POP POP JUMP JUMPDEST PUSH32 0x4E487B7100000000000000000000000000000000000000000000000000000000 PUSH0 MSTORE PUSH1 0x11 PUSH1 0x4 MSTORE PUSH1 0x24 PUSH0 REVERT JUMPDEST PUSH0 PUSH2 0x1DAD DUP3 PUSH2 0x1020 JUMP JUMPDEST SWAP2 POP PUSH32 0xFFFFFFFFFFFFFFFFFFFFFFFFFFFFFFFFFFFFFFFFFFFFFFFFFFFFFFFFFFFFFFFF DUP3 SUB PUSH2 0x1DDF JUMPI PUSH2 0x1DDE PUSH2 0x1D76 JUMP JUMPDEST JUMPDEST PUSH1 0x1 DUP3 ADD SWAP1 POP SWAP2 SWAP1 POP JUMP INVALID LOG2 PUSH5 0x6970667358 0x22 SLT KECCAK256 TIMESTAMP SWAP2 0xBF CREATE2 0xF8 0xF9 0xBE TIMESTAMP EXTCODESIZE 0xBF CREATE 0xA7 MCOPY SWAP2 ADDMOD PUSH3 0xC7A120 TLOAD 0xBB 0xA6 EXTCODEHASH SHR 0xB1 0xD7 0xD1 CALLVALUE PUSH17 0xF3BE6A64736F6C63430008190033000000 "
	},
	"abi": [
		{
			"inputs": [
				{
					"internalType": "string",
					"name": "_title",
					"type": "string"
				},
				{
					"internalType": "string",
					"name": "_description",
					"type": "string"
				},
				{
					"internalType": "string",
					"name": "_imageHash",
					"type": "string"
				},
				{
					"internalType": "uint256",
					"name": "_price",
					"type": "uint256"
				}
			],
			"name": "listProduct",
			"outputs": [],
			"stateMutability": "nonpayable",
			"type": "function"
		},
		{
			"anonymous": false,
			"inputs": [
				{
					"indexed": true,
					"internalType": "address",
					"name": "fromAddress",
					"type": "address"
				},
				{
					"indexed": true,
					"internalType": "address",
					"name": "toAddress",
					"type": "address"
				},
				{
					"indexed": false,
					"internalType": "uint256",
					"name": "value",
					"type": "uint256"
				}
			],
			"name": "paymentOfProduct",
			"type": "event"
		},
		{
			"anonymous": false,
			"inputs": [
				{
					"indexed": true,
					"internalType": "uint256",
					"name": "productId",
					"type": "uint256"
				},
				{
					"indexed": true,
					"internalType": "address",
					"name": "seller",
					"type": "address"
				},
				{
					"indexed": false,
					"internalType": "string",
					"name": "title",
					"type": "string"
				},
				{
					"indexed": false,
					"internalType": "string",
					"name": "imageHash",
					"type": "string"
				},
				{
					"indexed": false,
					"internalType": "uint256",
					"name": "price",
					"type": "uint256"
				}
			],
			"name": "productListed",
			"type": "event"
		},
		{
			"anonymous": false,
			"inputs": [
				{
					"indexed": true,
					"internalType": "uint256",
					"name": "productId",
					"type": "uint256"
				},
				{
					"indexed": true,
					"internalType": "address",
					"name": "buyer",
					"type": "address"
				},
				{
					"indexed": true,
					"internalType": "address",
					"name": "seller",
					"type": "address"
				},
				{
					"indexed": false,
					"internalType": "uint256",
					"name": "price",
					"type": "uint256"
				}
			],
			"name": "productSold",
			"type": "event"
		},
		{
			"inputs": [
				{
					"internalType": "uint256",
					"name": "_id",
					"type": "uint256"
				}
			],
			"name": "purchaseProduct",
			"outputs": [],
			"stateMutability": "payable",
			"type": "function"
		},
		{
			"inputs": [],
			"name": "getAllProducts",
			"outputs": [
				{
					"components": [
						{
							"internalType": "uint256",
							"name": "id",
							"type": "uint256"
						},
						{
							"internalType": "address payable",
							"name": "seller",
							"type": "address"
						},
						{
							"internalType": "address payable",
							"name": "owner",
							"type": "address"
						},
						{
							"internalType": "string",
							"name": "title",
							"type": "string"
						},
						{
							"internalType": "string",
							"name": "description",
							"type": "string"
						},
						{
							"internalType": "string",
							"name": "imageHash",
							"type": "string"
						},
						{
							"internalType": "uint256",
							"name": "price",
							"type": "uint256"
						},
						{
							"internalType": "bool",
							"name": "sold",
							"type": "bool"
						}
					],
					"internalType": "struct Marketplace.Product[]",
					"name": "",
					"type": "tuple[]"
				}
			],
			"stateMutability": "view",
			"type": "function"
		},
		{
			"inputs": [
				{
					"internalType": "uint256",
					"name": "_id",
					"type": "uint256"
				}
			],
			"name": "getProductById",
			"outputs": [
				{
					"components": [
						{
							"internalType": "uint256",
							"name": "id",
							"type": "uint256"
						},
						{
							"internalType": "address payable",
							"name": "seller",
							"type": "address"
						},
						{
							"internalType": "address payable",
							"name": "owner",
							"type": "address"
						},
						{
							"internalType": "string",
							"name": "title",
							"type": "string"
						},
						{
							"internalType": "string",
							"name": "description",
							"type": "string"
						},
						{
							"internalType": "string",
							"name": "imageHash",
							"type": "string"
						},
						{
							"internalType": "uint256",
							"name": "price",
							"type": "uint256"
						},
						{
							"internalType": "bool",
							"name": "sold",
							"type": "bool"
						}
					],
					"internalType": "struct Marketplace.Product",
					"name": "",
					"type": "tuple"
				}
			],
			"stateMutability": "view",
			"type": "function"
		},
		{
			"inputs": [],
			"name": "productCount",
			"outputs": [
				{
					"internalType": "uint256",
					"name": "",
					"type": "uint256"
				}
			],
			"stateMutability": "view",
			"type": "function"
		},
		{
			"inputs": [
				{
					"internalType": "uint256",
					"name": "",
					"type": "uint256"
				}
			],
			"name": "products",
			"outputs": [
				{
					"internalType": "uint256",
					"name": "id",
					"type": "uint256"
				},
				{
					"internalType": "address payable",
					"name": "seller",
					"type": "address"
				},
				{
					"internalType": "address payable",
					"name": "owner",
					"type": "address"
				},
				{
					"internalType": "string",
					"name": "title",
					"type": "string"
				},
				{
					"internalType": "string",
					"name": "description",
					"type": "string"
				},
				{
					"internalType": "string",
					"name": "imageHash",
					"type": "string"
				},
				{
					"internalType": "uint256",
					"name": "price",
					"type": "uint256"
				},
				{
					"internalType": "bool",
					"name": "sold",
					"type": "bool"
				}
			],
			"stateMutability": "view",
			"type": "function"
		}
	],
	"storageLayout": {
		"storage": [
			{
				"astId": 22,
				"contract": "block_chain/marketplace.sol:Marketplace",
				"label": "products",
				"offset": 0,
				"slot": "0",
				"type": "t_array(t_struct(Product)18_storage)dyn_storage"
			},
			{
				"astId": 24,
				"contract": "block_chain/marketplace.sol:Marketplace",
				"label": "productCount",
				"offset": 0,
				"slot": "1",
				"type": "t_uint256"
			}
		],
		"types": {
			"t_address_payable": {
				"encoding": "inplace",
				"label": "address payable",
				"numberOfBytes": "20"
			},
			"t_array(t_struct(Product)18_storage)dyn_storage": {
				"base": "t_struct(Product)18_storage",
				"encoding": "dynamic_array",
				"label": "struct Marketplace.Product[]",
				"numberOfBytes": "32"
			},
			"t_bool": {
				"encoding": "inplace",
				"label": "bool",
				"numberOfBytes": "1"
			},
			"t_string_storage": {
				"encoding": "bytes",
				"label": "string",
				"numberOfBytes": "32"
			},
			"t_struct(Product)18_storage": {
				"encoding": "inplace",
				"label": "struct Marketplace.Product",
				"members": [
					{
						"astId": 3,
						"contract": "block_chain/marketplace.sol:Marketplace",
						"label": "id",
						"offset": 0,
						"slot": "0",
						"type": "t_uint256"
					},
					{
						"astId": 5,
						"contract": "block_chain/marketplace.sol:Marketplace",
						"label": "seller",
						"offset": 0,
						"slot": "1",
						"type": "t_address_payable"
					},
					{
						"astId": 7,
						"contract": "block_chain/marketplace.sol:Marketplace",
						"label": "owner",
						"offset": 0,
						"slot": "2",
						"type": "t_address_payable"
					},
					{
						"astId": 9,
						"contract": "block_chain/marketplace.sol:Marketplace",
						"label": "title",
						"offset": 0,
						"slot": "3",
						"type": "t_string_storage"
					},
					{
						"astId": 11,
						"contract": "block_chain/marketplace.sol:Marketplace",
						"label": "description",
						"offset": 0,
						"slot": "4",
						"type": "t_string_storage"
					},
					{
						"astId": 13,
						"contract": "block_chain/marketplace.sol:Marketplace",
						"label": "imageHash",
						"offset": 0,
						"slot": "5",
						"type": "t_string_storage"
					},
					{
						"astId": 15,
						"contract": "block_chain/marketplace.sol:Marketplace",
						"label": "price",
						"offset": 0,
						"slot": "6",
						"type": "t_uint256"
					},
					{
						"astId": 17,
						"contract": "block_chain/marketplace.sol:Marketplace",
						"label": "sold",
						"offset": 0,
						"slot": "7",
						"type": "t_bool"
					}
				],
				"numberOfBytes": "256"
			},
			"t_uint256": {
				"encoding": "inplace",
				"label": "uint256",
				"numberOfBytes": "32"
			}
		}
	},
	"web3Deploy": "var marketplaceContract = new web3.eth.Contract([{\"anonymous\":false,\"inputs\":[{\"indexed\":true,\"internalType\":\"address\",\"name\":\"fromAddress\",\"type\":\"address\"},{\"indexed\":true,\"internalType\":\"address\",\"name\":\"toAddress\",\"type\":\"address\"},{\"indexed\":false,\"internalType\":\"uint256\",\"name\":\"value\",\"type\":\"uint256\"}],\"name\":\"paymentOfProduct\",\"type\":\"event\"},{\"anonymous\":false,\"inputs\":[{\"indexed\":true,\"internalType\":\"uint256\",\"name\":\"productId\",\"type\":\"uint256\"},{\"indexed\":true,\"internalType\":\"address\",\"name\":\"seller\",\"type\":\"address\"},{\"indexed\":false,\"internalType\":\"string\",\"name\":\"title\",\"type\":\"string\"},{\"indexed\":false,\"internalType\":\"string\",\"name\":\"imageHash\",\"type\":\"string\"},{\"indexed\":false,\"internalType\":\"uint256\",\"name\":\"price\",\"type\":\"uint256\"}],\"name\":\"productListed\",\"type\":\"event\"},{\"anonymous\":false,\"inputs\":[{\"indexed\":true,\"internalType\":\"uint256\",\"name\":\"productId\",\"type\":\"uint256\"},{\"indexed\":true,\"internalType\":\"address\",\"name\":\"buyer\",\"type\":\"address\"},{\"indexed\":true,\"internalType\":\"address\",\"name\":\"seller\",\"type\":\"address\"},{\"indexed\":false,\"internalType\":\"uint256\",\"name\":\"price\",\"type\":\"uint256\"}],\"name\":\"productSold\",\"type\":\"event\"},{\"inputs\":[],\"name\":\"getAllProducts\",\"outputs\":[{\"components\":[{\"internalType\":\"uint256\",\"name\":\"id\",\"type\":\"uint256\"},{\"internalType\":\"address payable\",\"name\":\"seller\",\"type\":\"address\"},{\"internalType\":\"address payable\",\"name\":\"owner\",\"type\":\"address\"},{\"internalType\":\"string\",\"name\":\"title\",\"type\":\"string\"},{\"internalType\":\"string\",\"name\":\"description\",\"type\":\"string\"},{\"internalType\":\"string\",\"name\":\"imageHash\",\"type\":\"string\"},{\"internalType\":\"uint256\",\"name\":\"price\",\"type\":\"uint256\"},{\"internalType\":\"bool\",\"name\":\"sold\",\"type\":\"bool\"}],\"internalType\":\"struct Marketplace.Product[]\",\"name\":\"\",\"type\":\"tuple[]\"}],\"stateMutability\":\"view\",\"type\":\"function\"},{\"inputs\":[{\"internalType\":\"uint256\",\"name\":\"_id\",\"type\":\"uint256\"}],\"name\":\"getProductById\",\"outputs\":[{\"components\":[{\"internalType\":\"uint256\",\"name\":\"id\",\"type\":\"uint256\"},{\"internalType\":\"address payable\",\"name\":\"seller\",\"type\":\"address\"},{\"internalType\":\"address payable\",\"name\":\"owner\",\"type\":\"address\"},{\"internalType\":\"string\",\"name\":\"title\",\"type\":\"string\"},{\"internalType\":\"string\",\"name\":\"description\",\"type\":\"string\"},{\"internalType\":\"string\",\"name\":\"imageHash\",\"type\":\"string\"},{\"internalType\":\"uint256\",\"name\":\"price\",\"type\":\"uint256\"},{\"internalType\":\"bool\",\"name\":\"sold\",\"type\":\"bool\"}],\"internalType\":\"struct Marketplace.Product\",\"name\":\"\",\"type\":\"tuple\"}],\"stateMutability\":\"view\",\"type\":\"function\"},{\"inputs\":[{\"internalType\":\"string\",\"name\":\"_title\",\"type\":\"string\"},{\"internalType\":\"string\",\"name\":\"_description\",\"type\":\"string\"},{\"internalType\":\"string\",\"name\":\"_imageHash\",\"type\":\"string\"},{\"internalType\":\"uint256\",\"name\":\"_price\",\"type\":\"uint256\"}],\"name\":\"listProduct\",\"outputs\":[],\"stateMutability\":\"nonpayable\",\"type\":\"function\"},{\"inputs\":[],\"name\":\"productCount\",\"outputs\":[{\"internalType\":\"uint256\",\"name\":\"\",\"type\":\"uint256\"}],\"stateMutability\":\"view\",\"type\":\"function\"},{\"inputs\":[{\"internalType\":\"uint256\",\"name\":\"\",\"type\":\"uint256\"}],\"name\":\"products\",\"outputs\":[{\"internalType\":\"uint256\",\"name\":\"id\",\"type\":\"uint256\"},{\"internalType\":\"address payable\",\"name\":\"seller\",\"type\":\"address\"},{\"internalType\":\"address payable\",\"name\":\"owner\",\"type\":\"address\"},{\"internalType\":\"string\",\"name\":\"title\",\"type\":\"string\"},{\"internalType\":\"string\",\"name\":\"description\",\"type\":\"string\"},{\"internalType\":\"string\",\"name\":\"imageHash\",\"type\":\"string\"},{\"internalType\":\"uint256\",\"name\":\"price\",\"type\":\"uint256\"},{\"internalType\":\"bool\",\"name\":\"sold\",\"type\":\"bool\"}],\"stateMutability\":\"view\",\"type\":\"function\"},{\"inputs\":[{\"internalType\":\"uint256\",\"name\":\"_id\",\"type\":\"uint256\"}],\"name\":\"purchaseProduct\",\"outputs\":[],\"stateMutability\":\"payable\",\"type\":\"function\"}]);\nvar marketplace = marketplaceContract.deploy({\n     data: '0x6080604052348015600e575f80fd5b50611e208061001c5f395ff3fe608060405260043610610054575f3560e01c806302ee3a521461005857806338e76a03146100825780633f70c2b41461009e5780637acc0b20146100da578063c72da5d91461011d578063e0f6ef8714610145575b5f80fd5b348015610063575f80fd5b5061006c61016f565b604051610079919061124e565b60405180910390f35b61009c600480360381019061009791906112a9565b610452565b005b3480156100a9575f80fd5b506100c460048036038101906100bf91906112a9565b610805565b6040516100d1919061138f565b60405180910390f35b3480156100e5575f80fd5b5061010060048036038101906100fb91906112a9565b610b0a565b604051610114989796959493929190611424565b60405180910390f35b348015610128575f80fd5b50610143600480360381019061013e91906115e1565b610d38565b005b348015610150575f80fd5b50610159610f83565b6040516101669190611699565b60405180910390f35b60605f805480602002602001604051908101604052809291908181526020015f905b82821015610449578382905f5260205f209060080201604051806101000160405290815f8201548152602001600182015f9054906101000a900473ffffffffffffffffffffffffffffffffffffffff1673ffffffffffffffffffffffffffffffffffffffff1673ffffffffffffffffffffffffffffffffffffffff168152602001600282015f9054906101000a900473ffffffffffffffffffffffffffffffffffffffff1673ffffffffffffffffffffffffffffffffffffffff1673ffffffffffffffffffffffffffffffffffffffff168152602001600382018054610276906116df565b80601f01602080910402602001604051908101604052809291908181526020018280546102a2906116df565b80156102ed5780601f106102c4576101008083540402835291602001916102ed565b820191905f5260205f20905b8154815290600101906020018083116102d057829003601f168201915b50505050508152602001600482018054610306906116df565b80601f0160208091040260200160405190810160405280929190818152602001828054610332906116df565b801561037d5780601f106103545761010080835404028352916020019161037d565b820191905f5260205f20905b81548152906001019060200180831161036057829003601f168201915b50505050508152602001600582018054610396906116df565b80601f01602080910402602001604051908101604052809291908181526020018280546103c2906116df565b801561040d5780601f106103e45761010080835404028352916020019161040d565b820191905f5260205f20905b8154815290600101906020018083116103f057829003601f168201915b5050505050815260200160068201548152602001600782015f9054906101000a900460ff16151515158152505081526020019060010190610191565b50505050905090565b6001548110610496576040517f08c379a000000000000000000000000000000000000000000000000000000000815260040161048d90611759565b60405180910390fd5b5f8082815481106104aa576104a9611777565b5b905f5260205f2090600802019050806006015434146104fe576040517f08c379a00000000000000000000000000000000000000000000000000000000081526004016104f590611814565b60405180910390fd5b806007015f9054906101000a900460ff161561054f576040517f08c379a00000000000000000000000000000000000000000000000000000000081526004016105469061187c565b60405180910390fd5b806002015f9054906101000a900473ffffffffffffffffffffffffffffffffffffffff1673ffffffffffffffffffffffffffffffffffffffff163373ffffffffffffffffffffffffffffffffffffffff16036105e0576040517f08c379a00000000000000000000000000000000000000000000000000000000081526004016105d79061190a565b60405180910390fd5b5f816002015f9054906101000a900473ffffffffffffffffffffffffffffffffffffffff1673ffffffffffffffffffffffffffffffffffffffff163460405161062890611955565b5f6040518083038185875af1925050503d805f8114610662576040519150601f19603f3d011682016040523d82523d5f602084013e610667565b606091505b50509050806106ab576040517f08c379a00000000000000000000000000000000000000000000000000000000081526004016106a2906119b3565b60405180910390fd5b5f826002015f9054906101000a900473ffffffffffffffffffffffffffffffffffffffff16905033836002015f6101000a81548173ffffffffffffffffffffffffffffffffffffffff021916908373ffffffffffffffffffffffffffffffffffffffff1602179055506001836007015f6101000a81548160ff0219169083151502179055508073ffffffffffffffffffffffffffffffffffffffff163373ffffffffffffffffffffffffffffffffffffffff167fc45027e1160131c0ed7b340b8e132fbc3eb9b5f252356c895d9f7dbf036e31dc3460405161078d9190611699565b60405180910390a33373ffffffffffffffffffffffffffffffffffffffff168173ffffffffffffffffffffffffffffffffffffffff16857fa8441c1a059955b600fdd4475282b40c70cb5cf8bca1d216e13a3d503927a30f86600601546040516107f79190611699565b60405180910390a450505050565b61080d610f89565b6001548210610851576040517f08c379a000000000000000000000000000000000000000000000000000000000815260040161084890611a1b565b60405180910390fd5b5f828154811061086457610863611777565b5b905f5260205f209060080201604051806101000160405290815f8201548152602001600182015f9054906101000a900473ffffffffffffffffffffffffffffffffffffffff1673ffffffffffffffffffffffffffffffffffffffff1673ffffffffffffffffffffffffffffffffffffffff168152602001600282015f9054906101000a900473ffffffffffffffffffffffffffffffffffffffff1673ffffffffffffffffffffffffffffffffffffffff1673ffffffffffffffffffffffffffffffffffffffff16815260200160038201805461093f906116df565b80601f016020809104026020016040519081016040528092919081815260200182805461096b906116df565b80156109b65780601f1061098d576101008083540402835291602001916109b6565b820191905f5260205f20905b81548152906001019060200180831161099957829003601f168201915b505050505081526020016004820180546109cf906116df565b80601f01602080910402602001604051908101604052809291908181526020018280546109fb906116df565b8015610a465780601f10610a1d57610100808354040283529160200191610a46565b820191905f5260205f20905b815481529060010190602001808311610a2957829003601f168201915b50505050508152602001600582018054610a5f906116df565b80601f0160208091040260200160405190810160405280929190818152602001828054610a8b906116df565b8015610ad65780601f10610aad57610100808354040283529160200191610ad6565b820191905f5260205f20905b815481529060010190602001808311610ab957829003601f168201915b5050505050815260200160068201548152602001600782015f9054906101000a900460ff1615151515815250509050919050565b5f8181548110610b18575f80fd5b905f5260205f2090600802015f91509050805f015490806001015f9054906101000a900473ffffffffffffffffffffffffffffffffffffffff1690806002015f9054906101000a900473ffffffffffffffffffffffffffffffffffffffff1690806003018054610b87906116df565b80601f0160208091040260200160405190810160405280929190818152602001828054610bb3906116df565b8015610bfe5780601f10610bd557610100808354040283529160200191610bfe565b820191905f5260205f20905b815481529060010190602001808311610be157829003601f168201915b505050505090806004018054610c13906116df565b80601f0160208091040260200160405190810160405280929190818152602001828054610c3f906116df565b8015610c8a5780601f10610c6157610100808354040283529160200191610c8a565b820191905f5260205f20905b815481529060010190602001808311610c6d57829003601f168201915b505050505090806005018054610c9f906116df565b80601f0160208091040260200160405190810160405280929190818152602001828054610ccb906116df565b8015610d165780601f10610ced57610100808354040283529160200191610d16565b820191905f5260205f20905b815481529060010190602001808311610cf957829003601f168201915b505050505090806006015490806007015f9054906101000a900460ff16905088565b5f8111610d7a576040517f08c379a0000000000000000000000000000000000000000000000000000000008152600401610d7190611aa9565b60405180910390fd5b5f60405180610100016040528060015481526020013373ffffffffffffffffffffffffffffffffffffffff1681526020013373ffffffffffffffffffffffffffffffffffffffff1681526020018681526020018581526020018481526020018381526020015f151581525090505f81908060018154018082558091505060019003905f5260205f2090600802015f909190919091505f820151815f01556020820151816001015f6101000a81548173ffffffffffffffffffffffffffffffffffffffff021916908373ffffffffffffffffffffffffffffffffffffffff1602179055506040820151816002015f6101000a81548173ffffffffffffffffffffffffffffffffffffffff021916908373ffffffffffffffffffffffffffffffffffffffff1602179055506060820151816003019081610eb89190611c64565b506080820151816004019081610ece9190611c64565b5060a0820151816005019081610ee49190611c64565b5060c0820151816006015560e0820151816007015f6101000a81548160ff02191690831515021790555050503373ffffffffffffffffffffffffffffffffffffffff166001547fcaca718769b36464485951c1afb94414b8f5b85b6a614a72fd5d1d2e85df19b6878686604051610f5d93929190611d33565b60405180910390a360015f815480929190610f7790611da3565b91905055505050505050565b60015481565b6040518061010001604052805f81526020015f73ffffffffffffffffffffffffffffffffffffffff1681526020015f73ffffffffffffffffffffffffffffffffffffffff1681526020016060815260200160608152602001606081526020015f81526020015f151581525090565b5f81519050919050565b5f82825260208201905092915050565b5f819050602082019050919050565b5f819050919050565b61103281611020565b82525050565b5f73ffffffffffffffffffffffffffffffffffffffff82169050919050565b5f61106182611038565b9050919050565b61107181611057565b82525050565b5f81519050919050565b5f82825260208201905092915050565b8281835e5f83830152505050565b5f601f19601f8301169050919050565b5f6110b982611077565b6110c38185611081565b93506110d3818560208601611091565b6110dc8161109f565b840191505092915050565b5f8115159050919050565b6110fb816110e7565b82525050565b5f61010083015f8301516111175f860182611029565b50602083015161112a6020860182611068565b50604083015161113d6040860182611068565b506060830151848203606086015261115582826110af565b9150506080830151848203608086015261116f82826110af565b91505060a083015184820360a086015261118982826110af565b91505060c083015161119e60c0860182611029565b5060e08301516111b160e08601826110f2565b508091505092915050565b5f6111c78383611101565b905092915050565b5f602082019050919050565b5f6111e582610ff7565b6111ef8185611001565b93508360208202850161120185611011565b805f5b8581101561123c578484038952815161121d85826111bc565b9450611228836111cf565b925060208a01995050600181019050611204565b50829750879550505050505092915050565b5f6020820190508181035f83015261126681846111db565b905092915050565b5f604051905090565b5f80fd5b5f80fd5b61128881611020565b8114611292575f80fd5b50565b5f813590506112a38161127f565b92915050565b5f602082840312156112be576112bd611277565b5b5f6112cb84828501611295565b91505092915050565b5f61010083015f8301516112ea5f860182611029565b5060208301516112fd6020860182611068565b5060408301516113106040860182611068565b506060830151848203606086015261132882826110af565b9150506080830151848203608086015261134282826110af565b91505060a083015184820360a086015261135c82826110af565b91505060c083015161137160c0860182611029565b5060e083015161138460e08601826110f2565b508091505092915050565b5f6020820190508181035f8301526113a781846112d4565b905092915050565b6113b881611020565b82525050565b6113c781611057565b82525050565b5f82825260208201905092915050565b5f6113e782611077565b6113f181856113cd565b9350611401818560208601611091565b61140a8161109f565b840191505092915050565b61141e816110e7565b82525050565b5f610100820190506114385f83018b6113af565b611445602083018a6113be565b61145260408301896113be565b818103606083015261146481886113dd565b9050818103608083015261147881876113dd565b905081810360a083015261148c81866113dd565b905061149b60c08301856113af565b6114a860e0830184611415565b9998505050505050505050565b5f80fd5b5f80fd5b7f4e487b71000000000000000000000000000000000000000000000000000000005f52604160045260245ffd5b6114f38261109f565b810181811067ffffffffffffffff82111715611512576115116114bd565b5b80604052505050565b5f61152461126e565b905061153082826114ea565b919050565b5f67ffffffffffffffff82111561154f5761154e6114bd565b5b6115588261109f565b9050602081019050919050565b828183375f83830152505050565b5f61158561158084611535565b61151b565b9050828152602081018484840111156115a1576115a06114b9565b5b6115ac848285611565565b509392505050565b5f82601f8301126115c8576115c76114b5565b5b81356115d8848260208601611573565b91505092915050565b5f805f80608085870312156115f9576115f8611277565b5b5f85013567ffffffffffffffff8111156116165761161561127b565b5b611622878288016115b4565b945050602085013567ffffffffffffffff8111156116435761164261127b565b5b61164f878288016115b4565b935050604085013567ffffffffffffffff8111156116705761166f61127b565b5b61167c878288016115b4565b925050606061168d87828801611295565b91505092959194509250565b5f6020820190506116ac5f8301846113af565b92915050565b7f4e487b71000000000000000000000000000000000000000000000000000000005f52602260045260245ffd5b5f60028204905060018216806116f657607f821691505b602082108103611709576117086116b2565b5b50919050565b7f4974656d20494420646f6573206e6f74206578697374000000000000000000005f82015250565b5f6117436016836113cd565b915061174e8261170f565b602082019050919050565b5f6020820190508181035f83015261177081611737565b9050919050565b7f4e487b71000000000000000000000000000000000000000000000000000000005f52603260045260245ffd5b7f496e636f727265637420616d6f756e742c20706c656173652073656e642074685f8201527f6520657861637420707269636500000000000000000000000000000000000000602082015250565b5f6117fe602d836113cd565b9150611809826117a4565b604082019050919050565b5f6020820190508181035f83015261182b816117f2565b9050919050565b7f4974656d20697320616c726561647920736f6c640000000000000000000000005f82015250565b5f6118666014836113cd565b915061187182611832565b602082019050919050565b5f6020820190508181035f8301526118938161185a565b9050919050565b7f4974656d206f776e65722063616e6e6f742070757263686173652074686569725f8201527f206f776e206974656d0000000000000000000000000000000000000000000000602082015250565b5f6118f46029836113cd565b91506118ff8261189a565b604082019050919050565b5f6020820190508181035f830152611921816118e8565b9050919050565b5f81905092915050565b50565b5f6119405f83611928565b915061194b82611932565b5f82019050919050565b5f61195f82611935565b9150819050919050565b7f4574686572207472616e73666572206661696c656400000000000000000000005f82015250565b5f61199d6015836113cd565b91506119a882611969565b602082019050919050565b5f6020820190508181035f8301526119ca81611991565b9050919050565b7f50726f6475637420494420646f6573206e6f74206578697374000000000000005f82015250565b5f611a056019836113cd565b9150611a10826119d1565b602082019050919050565b5f6020820190508181035f830152611a32816119f9565b9050919050565b7f56616c7565206f662050726f64756374206d75737420626520677265617465725f8201527f207468616e207a65726f00000000000000000000000000000000000000000000602082015250565b5f611a93602a836113cd565b9150611a9e82611a39565b604082019050919050565b5f6020820190508181035f830152611ac081611a87565b9050919050565b5f819050815f5260205f209050919050565b5f6020601f8301049050919050565b5f82821b905092915050565b5f60088302611b237fffffffffffffffffffffffffffffffffffffffffffffffffffffffffffffffff82611ae8565b611b2d8683611ae8565b95508019841693508086168417925050509392505050565b5f819050919050565b5f611b68611b63611b5e84611020565b611b45565b611020565b9050919050565b5f819050919050565b611b8183611b4e565b611b95611b8d82611b6f565b848454611af4565b825550505050565b5f90565b611ba9611b9d565b611bb4818484611b78565b505050565b5b81811015611bd757611bcc5f82611ba1565b600181019050611bba565b5050565b601f821115611c1c57611bed81611ac7565b611bf684611ad9565b81016020851015611c05578190505b611c19611c1185611ad9565b830182611bb9565b50505b505050565b5f82821c905092915050565b5f611c3c5f1984600802611c21565b1980831691505092915050565b5f611c548383611c2d565b9150826002028217905092915050565b611c6d82611077565b67ffffffffffffffff811115611c8657611c856114bd565b5b611c9082546116df565b611c9b828285611bdb565b5f60209050601f831160018114611ccc575f8415611cba578287015190505b611cc48582611c49565b865550611d2b565b601f198416611cda86611ac7565b5f5b82811015611d0157848901518255600182019150602085019450602081019050611cdc565b86831015611d1e5784890151611d1a601f891682611c2d565b8355505b6001600288020188555050505b505050505050565b5f6060820190508181035f830152611d4b81866113dd565b90508181036020830152611d5f81856113dd565b9050611d6e60408301846113af565b949350505050565b7f4e487b71000000000000000000000000000000000000000000000000000000005f52601160045260245ffd5b5f611dad82611020565b91507fffffffffffffffffffffffffffffffffffffffffffffffffffffffffffffffff8203611ddf57611dde611d76565b5b60018201905091905056fea26469706673582212204291bff5f8f9be423bbff0a75e910862c7a1205cbba63f1cb1d7d13470f3be6a64736f6c63430008190033', \n     arguments: [\n     ]\n}).send({\n     from: web3.eth.accounts[0], \n     gas: '4700000'\n   }, function (e, contract){\n    console.log(e, contract);\n    if (typeof contract.address !== 'undefined') {\n         console.log('Contract mined! address: ' + contract.address + ' transactionHash: ' + contract.transactionHash);\n    }\n })",
	"functionHashes": {
		"02ee3a52": "getAllProducts()",
		"3f70c2b4": "getProductById(uint256)",
		"c72da5d9": "listProduct(string,string,string,uint256)",
		"e0f6ef87": "productCount()",
		"7acc0b20": "products(uint256)",
		"38e76a03": "purchaseProduct(uint256)"
	},
	"gasEstimates": {
		"Creation": {
			"codeDepositCost": "1542400",
			"executionCost": "1608",
			"totalCost": "1544008"
		},
		"External": {
			"getAllProducts()": "infinite",
			"getProductById(uint256)": "infinite",
			"listProduct(string,string,string,uint256)": "infinite",
			"productCount()": "2513",
			"products(uint256)": "infinite",
			"purchaseProduct(uint256)": "infinite"
		}
	},
	"devdoc": {
		"kind": "dev",
		"methods": {},
		"version": 1
	},
	"userdoc": {
		"kind": "user",
		"methods": {},
		"version": 1
	},
	"Runtime Bytecode": {
		"immutableReferences": {},
		"linkReferences": {},
		"object": "608060405260043610610054575f3560e01c806302ee3a521461005857806338e76a03146100825780633f70c2b41461009e5780637acc0b20146100da578063c72da5d91461011d578063e0f6ef8714610145575b5f80fd5b348015610063575f80fd5b5061006c61016f565b604051610079919061124e565b60405180910390f35b61009c600480360381019061009791906112a9565b610452565b005b3480156100a9575f80fd5b506100c460048036038101906100bf91906112a9565b610805565b6040516100d1919061138f565b60405180910390f35b3480156100e5575f80fd5b5061010060048036038101906100fb91906112a9565b610b0a565b604051610114989796959493929190611424565b60405180910390f35b348015610128575f80fd5b50610143600480360381019061013e91906115e1565b610d38565b005b348015610150575f80fd5b50610159610f83565b6040516101669190611699565b60405180910390f35b60605f805480602002602001604051908101604052809291908181526020015f905b82821015610449578382905f5260205f209060080201604051806101000160405290815f8201548152602001600182015f9054906101000a900473ffffffffffffffffffffffffffffffffffffffff1673ffffffffffffffffffffffffffffffffffffffff1673ffffffffffffffffffffffffffffffffffffffff168152602001600282015f9054906101000a900473ffffffffffffffffffffffffffffffffffffffff1673ffffffffffffffffffffffffffffffffffffffff1673ffffffffffffffffffffffffffffffffffffffff168152602001600382018054610276906116df565b80601f01602080910402602001604051908101604052809291908181526020018280546102a2906116df565b80156102ed5780601f106102c4576101008083540402835291602001916102ed565b820191905f5260205f20905b8154815290600101906020018083116102d057829003601f168201915b50505050508152602001600482018054610306906116df565b80601f0160208091040260200160405190810160405280929190818152602001828054610332906116df565b801561037d5780601f106103545761010080835404028352916020019161037d565b820191905f5260205f20905b81548152906001019060200180831161036057829003601f168201915b50505050508152602001600582018054610396906116df565b80601f01602080910402602001604051908101604052809291908181526020018280546103c2906116df565b801561040d5780601f106103e45761010080835404028352916020019161040d565b820191905f5260205f20905b8154815290600101906020018083116103f057829003601f168201915b5050505050815260200160068201548152602001600782015f9054906101000a900460ff16151515158152505081526020019060010190610191565b50505050905090565b6001548110610496576040517f08c379a000000000000000000000000000000000000000000000000000000000815260040161048d90611759565b60405180910390fd5b5f8082815481106104aa576104a9611777565b5b905f5260205f2090600802019050806006015434146104fe576040517f08c379a00000000000000000000000000000000000000000000000000000000081526004016104f590611814565b60405180910390fd5b806007015f9054906101000a900460ff161561054f576040517f08c379a00000000000000000000000000000000000000000000000000000000081526004016105469061187c565b60405180910390fd5b806002015f9054906101000a900473ffffffffffffffffffffffffffffffffffffffff1673ffffffffffffffffffffffffffffffffffffffff163373ffffffffffffffffffffffffffffffffffffffff16036105e0576040517f08c379a00000000000000000000000000000000000000000000000000000000081526004016105d79061190a565b60405180910390fd5b5f816002015f9054906101000a900473ffffffffffffffffffffffffffffffffffffffff1673ffffffffffffffffffffffffffffffffffffffff163460405161062890611955565b5f6040518083038185875af1925050503d805f8114610662576040519150601f19603f3d011682016040523d82523d5f602084013e610667565b606091505b50509050806106ab576040517f08c379a00000000000000000000000000000000000000000000000000000000081526004016106a2906119b3565b60405180910390fd5b5f826002015f9054906101000a900473ffffffffffffffffffffffffffffffffffffffff16905033836002015f6101000a81548173ffffffffffffffffffffffffffffffffffffffff021916908373ffffffffffffffffffffffffffffffffffffffff1602179055506001836007015f6101000a81548160ff0219169083151502179055508073ffffffffffffffffffffffffffffffffffffffff163373ffffffffffffffffffffffffffffffffffffffff167fc45027e1160131c0ed7b340b8e132fbc3eb9b5f252356c895d9f7dbf036e31dc3460405161078d9190611699565b60405180910390a33373ffffffffffffffffffffffffffffffffffffffff168173ffffffffffffffffffffffffffffffffffffffff16857fa8441c1a059955b600fdd4475282b40c70cb5cf8bca1d216e13a3d503927a30f86600601546040516107f79190611699565b60405180910390a450505050565b61080d610f89565b6001548210610851576040517f08c379a000000000000000000000000000000000000000000000000000000000815260040161084890611a1b565b60405180910390fd5b5f828154811061086457610863611777565b5b905f5260205f209060080201604051806101000160405290815f8201548152602001600182015f9054906101000a900473ffffffffffffffffffffffffffffffffffffffff1673ffffffffffffffffffffffffffffffffffffffff1673ffffffffffffffffffffffffffffffffffffffff168152602001600282015f9054906101000a900473ffffffffffffffffffffffffffffffffffffffff1673ffffffffffffffffffffffffffffffffffffffff1673ffffffffffffffffffffffffffffffffffffffff16815260200160038201805461093f906116df565b80601f016020809104026020016040519081016040528092919081815260200182805461096b906116df565b80156109b65780601f1061098d576101008083540402835291602001916109b6565b820191905f5260205f20905b81548152906001019060200180831161099957829003601f168201915b505050505081526020016004820180546109cf906116df565b80601f01602080910402602001604051908101604052809291908181526020018280546109fb906116df565b8015610a465780601f10610a1d57610100808354040283529160200191610a46565b820191905f5260205f20905b815481529060010190602001808311610a2957829003601f168201915b50505050508152602001600582018054610a5f906116df565b80601f0160208091040260200160405190810160405280929190818152602001828054610a8b906116df565b8015610ad65780601f10610aad57610100808354040283529160200191610ad6565b820191905f5260205f20905b815481529060010190602001808311610ab957829003601f168201915b5050505050815260200160068201548152602001600782015f9054906101000a900460ff1615151515815250509050919050565b5f8181548110610b18575f80fd5b905f5260205f2090600802015f91509050805f015490806001015f9054906101000a900473ffffffffffffffffffffffffffffffffffffffff1690806002015f9054906101000a900473ffffffffffffffffffffffffffffffffffffffff1690806003018054610b87906116df565b80601f0160208091040260200160405190810160405280929190818152602001828054610bb3906116df565b8015610bfe5780601f10610bd557610100808354040283529160200191610bfe565b820191905f5260205f20905b815481529060010190602001808311610be157829003601f168201915b505050505090806004018054610c13906116df565b80601f0160208091040260200160405190810160405280929190818152602001828054610c3f906116df565b8015610c8a5780601f10610c6157610100808354040283529160200191610c8a565b820191905f5260205f20905b815481529060010190602001808311610c6d57829003601f168201915b505050505090806005018054610c9f906116df565b80601f0160208091040260200160405190810160405280929190818152602001828054610ccb906116df565b8015610d165780601f10610ced57610100808354040283529160200191610d16565b820191905f5260205f20905b815481529060010190602001808311610cf957829003601f168201915b505050505090806006015490806007015f9054906101000a900460ff16905088565b5f8111610d7a576040517f08c379a0000000000000000000000000000000000000000000000000000000008152600401610d7190611aa9565b60405180910390fd5b5f60405180610100016040528060015481526020013373ffffffffffffffffffffffffffffffffffffffff1681526020013373ffffffffffffffffffffffffffffffffffffffff1681526020018681526020018581526020018481526020018381526020015f151581525090505f81908060018154018082558091505060019003905f5260205f2090600802015f909190919091505f820151815f01556020820151816001015f6101000a81548173ffffffffffffffffffffffffffffffffffffffff021916908373ffffffffffffffffffffffffffffffffffffffff1602179055506040820151816002015f6101000a81548173ffffffffffffffffffffffffffffffffffffffff021916908373ffffffffffffffffffffffffffffffffffffffff1602179055506060820151816003019081610eb89190611c64565b506080820151816004019081610ece9190611c64565b5060a0820151816005019081610ee49190611c64565b5060c0820151816006015560e0820151816007015f6101000a81548160ff02191690831515021790555050503373ffffffffffffffffffffffffffffffffffffffff166001547fcaca718769b36464485951c1afb94414b8f5b85b6a614a72fd5d1d2e85df19b6878686604051610f5d93929190611d33565b60405180910390a360015f815480929190610f7790611da3565b91905055505050505050565b60015481565b6040518061010001604052805f81526020015f73ffffffffffffffffffffffffffffffffffffffff1681526020015f73ffffffffffffffffffffffffffffffffffffffff1681526020016060815260200160608152602001606081526020015f81526020015f151581525090565b5f81519050919050565b5f82825260208201905092915050565b5f819050602082019050919050565b5f819050919050565b61103281611020565b82525050565b5f73ffffffffffffffffffffffffffffffffffffffff82169050919050565b5f61106182611038565b9050919050565b61107181611057565b82525050565b5f81519050919050565b5f82825260208201905092915050565b8281835e5f83830152505050565b5f601f19601f8301169050919050565b5f6110b982611077565b6110c38185611081565b93506110d3818560208601611091565b6110dc8161109f565b840191505092915050565b5f8115159050919050565b6110fb816110e7565b82525050565b5f61010083015f8301516111175f860182611029565b50602083015161112a6020860182611068565b50604083015161113d6040860182611068565b506060830151848203606086015261115582826110af565b9150506080830151848203608086015261116f82826110af565b91505060a083015184820360a086015261118982826110af565b91505060c083015161119e60c0860182611029565b5060e08301516111b160e08601826110f2565b508091505092915050565b5f6111c78383611101565b905092915050565b5f602082019050919050565b5f6111e582610ff7565b6111ef8185611001565b93508360208202850161120185611011565b805f5b8581101561123c578484038952815161121d85826111bc565b9450611228836111cf565b925060208a01995050600181019050611204565b50829750879550505050505092915050565b5f6020820190508181035f83015261126681846111db565b905092915050565b5f604051905090565b5f80fd5b5f80fd5b61128881611020565b8114611292575f80fd5b50565b5f813590506112a38161127f565b92915050565b5f602082840312156112be576112bd611277565b5b5f6112cb84828501611295565b91505092915050565b5f61010083015f8301516112ea5f860182611029565b5060208301516112fd6020860182611068565b5060408301516113106040860182611068565b506060830151848203606086015261132882826110af565b9150506080830151848203608086015261134282826110af565b91505060a083015184820360a086015261135c82826110af565b91505060c083015161137160c0860182611029565b5060e083015161138460e08601826110f2565b508091505092915050565b5f6020820190508181035f8301526113a781846112d4565b905092915050565b6113b881611020565b82525050565b6113c781611057565b82525050565b5f82825260208201905092915050565b5f6113e782611077565b6113f181856113cd565b9350611401818560208601611091565b61140a8161109f565b840191505092915050565b61141e816110e7565b82525050565b5f610100820190506114385f83018b6113af565b611445602083018a6113be565b61145260408301896113be565b818103606083015261146481886113dd565b9050818103608083015261147881876113dd565b905081810360a083015261148c81866113dd565b905061149b60c08301856113af565b6114a860e0830184611415565b9998505050505050505050565b5f80fd5b5f80fd5b7f4e487b71000000000000000000000000000000000000000000000000000000005f52604160045260245ffd5b6114f38261109f565b810181811067ffffffffffffffff82111715611512576115116114bd565b5b80604052505050565b5f61152461126e565b905061153082826114ea565b919050565b5f67ffffffffffffffff82111561154f5761154e6114bd565b5b6115588261109f565b9050602081019050919050565b828183375f83830152505050565b5f61158561158084611535565b61151b565b9050828152602081018484840111156115a1576115a06114b9565b5b6115ac848285611565565b509392505050565b5f82601f8301126115c8576115c76114b5565b5b81356115d8848260208601611573565b91505092915050565b5f805f80608085870312156115f9576115f8611277565b5b5f85013567ffffffffffffffff8111156116165761161561127b565b5b611622878288016115b4565b945050602085013567ffffffffffffffff8111156116435761164261127b565b5b61164f878288016115b4565b935050604085013567ffffffffffffffff8111156116705761166f61127b565b5b61167c878288016115b4565b925050606061168d87828801611295565b91505092959194509250565b5f6020820190506116ac5f8301846113af565b92915050565b7f4e487b71000000000000000000000000000000000000000000000000000000005f52602260045260245ffd5b5f60028204905060018216806116f657607f821691505b602082108103611709576117086116b2565b5b50919050565b7f4974656d20494420646f6573206e6f74206578697374000000000000000000005f82015250565b5f6117436016836113cd565b915061174e8261170f565b602082019050919050565b5f6020820190508181035f83015261177081611737565b9050919050565b7f4e487b71000000000000000000000000000000000000000000000000000000005f52603260045260245ffd5b7f496e636f727265637420616d6f756e742c20706c656173652073656e642074685f8201527f6520657861637420707269636500000000000000000000000000000000000000602082015250565b5f6117fe602d836113cd565b9150611809826117a4565b604082019050919050565b5f6020820190508181035f83015261182b816117f2565b9050919050565b7f4974656d20697320616c726561647920736f6c640000000000000000000000005f82015250565b5f6118666014836113cd565b915061187182611832565b602082019050919050565b5f6020820190508181035f8301526118938161185a565b9050919050565b7f4974656d206f776e65722063616e6e6f742070757263686173652074686569725f8201527f206f776e206974656d0000000000000000000000000000000000000000000000602082015250565b5f6118f46029836113cd565b91506118ff8261189a565b604082019050919050565b5f6020820190508181035f830152611921816118e8565b9050919050565b5f81905092915050565b50565b5f6119405f83611928565b915061194b82611932565b5f82019050919050565b5f61195f82611935565b9150819050919050565b7f4574686572207472616e73666572206661696c656400000000000000000000005f82015250565b5f61199d6015836113cd565b91506119a882611969565b602082019050919050565b5f6020820190508181035f8301526119ca81611991565b9050919050565b7f50726f6475637420494420646f6573206e6f74206578697374000000000000005f82015250565b5f611a056019836113cd565b9150611a10826119d1565b602082019050919050565b5f6020820190508181035f830152611a32816119f9565b9050919050565b7f56616c7565206f662050726f64756374206d75737420626520677265617465725f8201527f207468616e207a65726f00000000000000000000000000000000000000000000602082015250565b5f611a93602a836113cd565b9150611a9e82611a39565b604082019050919050565b5f6020820190508181035f830152611ac081611a87565b9050919050565b5f819050815f5260205f209050919050565b5f6020601f8301049050919050565b5f82821b905092915050565b5f60088302611b237fffffffffffffffffffffffffffffffffffffffffffffffffffffffffffffffff82611ae8565b611b2d8683611ae8565b95508019841693508086168417925050509392505050565b5f819050919050565b5f611b68611b63611b5e84611020565b611b45565b611020565b9050919050565b5f819050919050565b611b8183611b4e565b611b95611b8d82611b6f565b848454611af4565b825550505050565b5f90565b611ba9611b9d565b611bb4818484611b78565b505050565b5b81811015611bd757611bcc5f82611ba1565b600181019050611bba565b5050565b601f821115611c1c57611bed81611ac7565b611bf684611ad9565b81016020851015611c05578190505b611c19611c1185611ad9565b830182611bb9565b50505b505050565b5f82821c905092915050565b5f611c3c5f1984600802611c21565b1980831691505092915050565b5f611c548383611c2d565b9150826002028217905092915050565b611c6d82611077565b67ffffffffffffffff811115611c8657611c856114bd565b5b611c9082546116df565b611c9b828285611bdb565b5f60209050601f831160018114611ccc575f8415611cba578287015190505b611cc48582611c49565b865550611d2b565b601f198416611cda86611ac7565b5f5b82811015611d0157848901518255600182019150602085019450602081019050611cdc565b86831015611d1e5784890151611d1a601f891682611c2d565b8355505b6001600288020188555050505b505050505050565b5f6060820190508181035f830152611d4b81866113dd565b90508181036020830152611d5f81856113dd565b9050611d6e60408301846113af565b949350505050565b7f4e487b71000000000000000000000000000000000000000000000000000000005f52601160045260245ffd5b5f611dad82611020565b91507fffffffffffffffffffffffffffffffffffffffffffffffffffffffffffffffff8203611ddf57611dde611d76565b5b60018201905091905056fea26469706673582212204291bff5f8f9be423bbff0a75e910862c7a1205cbba63f1cb1d7d13470f3be6a64736f6c63430008190033",
		"opcodes": "PUSH1 0x80 PUSH1 0x40 MSTORE PUSH1 0x4 CALLDATASIZE LT PUSH2 0x54 JUMPI PUSH0 CALLDATALOAD PUSH1 0xE0 SHR DUP1 PUSH4 0x2EE3A52 EQ PUSH2 0x58 JUMPI DUP1 PUSH4 0x38E76A03 EQ PUSH2 0x82 JUMPI DUP1 PUSH4 0x3F70C2B4 EQ PUSH2 0x9E JUMPI DUP1 PUSH4 0x7ACC0B20 EQ PUSH2 0xDA JUMPI DUP1 PUSH4 0xC72DA5D9 EQ PUSH2 0x11D JUMPI DUP1 PUSH4 0xE0F6EF87 EQ PUSH2 0x145 JUMPI JUMPDEST PUSH0 DUP1 REVERT JUMPDEST CALLVALUE DUP1 ISZERO PUSH2 0x63 JUMPI PUSH0 DUP1 REVERT JUMPDEST POP PUSH2 0x6C PUSH2 0x16F JUMP JUMPDEST PUSH1 0x40 MLOAD PUSH2 0x79 SWAP2 SWAP1 PUSH2 0x124E JUMP JUMPDEST PUSH1 0x40 MLOAD DUP1 SWAP2 SUB SWAP1 RETURN JUMPDEST PUSH2 0x9C PUSH1 0x4 DUP1 CALLDATASIZE SUB DUP2 ADD SWAP1 PUSH2 0x97 SWAP2 SWAP1 PUSH2 0x12A9 JUMP JUMPDEST PUSH2 0x452 JUMP JUMPDEST STOP JUMPDEST CALLVALUE DUP1 ISZERO PUSH2 0xA9 JUMPI PUSH0 DUP1 REVERT JUMPDEST POP PUSH2 0xC4 PUSH1 0x4 DUP1 CALLDATASIZE SUB DUP2 ADD SWAP1 PUSH2 0xBF SWAP2 SWAP1 PUSH2 0x12A9 JUMP JUMPDEST PUSH2 0x805 JUMP JUMPDEST PUSH1 0x40 MLOAD PUSH2 0xD1 SWAP2 SWAP1 PUSH2 0x138F JUMP JUMPDEST PUSH1 0x40 MLOAD DUP1 SWAP2 SUB SWAP1 RETURN JUMPDEST CALLVALUE DUP1 ISZERO PUSH2 0xE5 JUMPI PUSH0 DUP1 REVERT JUMPDEST POP PUSH2 0x100 PUSH1 0x4 DUP1 CALLDATASIZE SUB DUP2 ADD SWAP1 PUSH2 0xFB SWAP2 SWAP1 PUSH2 0x12A9 JUMP JUMPDEST PUSH2 0xB0A JUMP JUMPDEST PUSH1 0x40 MLOAD PUSH2 0x114 SWAP9 SWAP8 SWAP7 SWAP6 SWAP5 SWAP4 SWAP3 SWAP2 SWAP1 PUSH2 0x1424 JUMP JUMPDEST PUSH1 0x40 MLOAD DUP1 SWAP2 SUB SWAP1 RETURN JUMPDEST CALLVALUE DUP1 ISZERO PUSH2 0x128 JUMPI PUSH0 DUP1 REVERT JUMPDEST POP PUSH2 0x143 PUSH1 0x4 DUP1 CALLDATASIZE SUB DUP2 ADD SWAP1 PUSH2 0x13E SWAP2 SWAP1 PUSH2 0x15E1 JUMP JUMPDEST PUSH2 0xD38 JUMP JUMPDEST STOP JUMPDEST CALLVALUE DUP1 ISZERO PUSH2 0x150 JUMPI PUSH0 DUP1 REVERT JUMPDEST POP PUSH2 0x159 PUSH2 0xF83 JUMP JUMPDEST PUSH1 0x40 MLOAD PUSH2 0x166 SWAP2 SWAP1 PUSH2 0x1699 JUMP JUMPDEST PUSH1 0x40 MLOAD DUP1 SWAP2 SUB SWAP1 RETURN JUMPDEST PUSH1 0x60 PUSH0 DUP1 SLOAD DUP1 PUSH1 0x20 MUL PUSH1 0x20 ADD PUSH1 0x40 MLOAD SWAP1 DUP2 ADD PUSH1 0x40 MSTORE DUP1 SWAP3 SWAP2 SWAP1 DUP2 DUP2 MSTORE PUSH1 0x20 ADD PUSH0 SWAP1 JUMPDEST DUP3 DUP3 LT ISZERO PUSH2 0x449 JUMPI DUP4 DUP3 SWAP1 PUSH0 MSTORE PUSH1 0x20 PUSH0 KECCAK256 SWAP1 PUSH1 0x8 MUL ADD PUSH1 0x40 MLOAD DUP1 PUSH2 0x100 ADD PUSH1 0x40 MSTORE SWAP1 DUP2 PUSH0 DUP3 ADD SLOAD DUP2 MSTORE PUSH1 0x20 ADD PUSH1 0x1 DUP3 ADD PUSH0 SWAP1 SLOAD SWAP1 PUSH2 0x100 EXP SWAP1 DIV PUSH20 0xFFFFFFFFFFFFFFFFFFFFFFFFFFFFFFFFFFFFFFFF AND PUSH20 0xFFFFFFFFFFFFFFFFFFFFFFFFFFFFFFFFFFFFFFFF AND PUSH20 0xFFFFFFFFFFFFFFFFFFFFFFFFFFFFFFFFFFFFFFFF AND DUP2 MSTORE PUSH1 0x20 ADD PUSH1 0x2 DUP3 ADD PUSH0 SWAP1 SLOAD SWAP1 PUSH2 0x100 EXP SWAP1 DIV PUSH20 0xFFFFFFFFFFFFFFFFFFFFFFFFFFFFFFFFFFFFFFFF AND PUSH20 0xFFFFFFFFFFFFFFFFFFFFFFFFFFFFFFFFFFFFFFFF AND PUSH20 0xFFFFFFFFFFFFFFFFFFFFFFFFFFFFFFFFFFFFFFFF AND DUP2 MSTORE PUSH1 0x20 ADD PUSH1 0x3 DUP3 ADD DUP1 SLOAD PUSH2 0x276 SWAP1 PUSH2 0x16DF JUMP JUMPDEST DUP1 PUSH1 0x1F ADD PUSH1 0x20 DUP1 SWAP2 DIV MUL PUSH1 0x20 ADD PUSH1 0x40 MLOAD SWAP1 DUP2 ADD PUSH1 0x40 MSTORE DUP1 SWAP3 SWAP2 SWAP1 DUP2 DUP2 MSTORE PUSH1 0x20 ADD DUP3 DUP1 SLOAD PUSH2 0x2A2 SWAP1 PUSH2 0x16DF JUMP JUMPDEST DUP1 ISZERO PUSH2 0x2ED JUMPI DUP1 PUSH1 0x1F LT PUSH2 0x2C4 JUMPI PUSH2 0x100 DUP1 DUP4 SLOAD DIV MUL DUP4 MSTORE SWAP2 PUSH1 0x20 ADD SWAP2 PUSH2 0x2ED JUMP JUMPDEST DUP3 ADD SWAP2 SWAP1 PUSH0 MSTORE PUSH1 0x20 PUSH0 KECCAK256 SWAP1 JUMPDEST DUP2 SLOAD DUP2 MSTORE SWAP1 PUSH1 0x1 ADD SWAP1 PUSH1 0x20 ADD DUP1 DUP4 GT PUSH2 0x2D0 JUMPI DUP3 SWAP1 SUB PUSH1 0x1F AND DUP3 ADD SWAP2 JUMPDEST POP POP POP POP POP DUP2 MSTORE PUSH1 0x20 ADD PUSH1 0x4 DUP3 ADD DUP1 SLOAD PUSH2 0x306 SWAP1 PUSH2 0x16DF JUMP JUMPDEST DUP1 PUSH1 0x1F ADD PUSH1 0x20 DUP1 SWAP2 DIV MUL PUSH1 0x20 ADD PUSH1 0x40 MLOAD SWAP1 DUP2 ADD PUSH1 0x40 MSTORE DUP1 SWAP3 SWAP2 SWAP1 DUP2 DUP2 MSTORE PUSH1 0x20 ADD DUP3 DUP1 SLOAD PUSH2 0x332 SWAP1 PUSH2 0x16DF JUMP JUMPDEST DUP1 ISZERO PUSH2 0x37D JUMPI DUP1 PUSH1 0x1F LT PUSH2 0x354 JUMPI PUSH2 0x100 DUP1 DUP4 SLOAD DIV MUL DUP4 MSTORE SWAP2 PUSH1 0x20 ADD SWAP2 PUSH2 0x37D JUMP JUMPDEST DUP3 ADD SWAP2 SWAP1 PUSH0 MSTORE PUSH1 0x20 PUSH0 KECCAK256 SWAP1 JUMPDEST DUP2 SLOAD DUP2 MSTORE SWAP1 PUSH1 0x1 ADD SWAP1 PUSH1 0x20 ADD DUP1 DUP4 GT PUSH2 0x360 JUMPI DUP3 SWAP1 SUB PUSH1 0x1F AND DUP3 ADD SWAP2 JUMPDEST POP POP POP POP POP DUP2 MSTORE PUSH1 0x20 ADD PUSH1 0x5 DUP3 ADD DUP1 SLOAD PUSH2 0x396 SWAP1 PUSH2 0x16DF JUMP JUMPDEST DUP1 PUSH1 0x1F ADD PUSH1 0x20 DUP1 SWAP2 DIV MUL PUSH1 0x20 ADD PUSH1 0x40 MLOAD SWAP1 DUP2 ADD PUSH1 0x40 MSTORE DUP1 SWAP3 SWAP2 SWAP1 DUP2 DUP2 MSTORE PUSH1 0x20 ADD DUP3 DUP1 SLOAD PUSH2 0x3C2 SWAP1 PUSH2 0x16DF JUMP JUMPDEST DUP1 ISZERO PUSH2 0x40D JUMPI DUP1 PUSH1 0x1F LT PUSH2 0x3E4 JUMPI PUSH2 0x100 DUP1 DUP4 SLOAD DIV MUL DUP4 MSTORE SWAP2 PUSH1 0x20 ADD SWAP2 PUSH2 0x40D JUMP JUMPDEST DUP3 ADD SWAP2 SWAP1 PUSH0 MSTORE PUSH1 0x20 PUSH0 KECCAK256 SWAP1 JUMPDEST DUP2 SLOAD DUP2 MSTORE SWAP1 PUSH1 0x1 ADD SWAP1 PUSH1 0x20 ADD DUP1 DUP4 GT PUSH2 0x3F0 JUMPI DUP3 SWAP1 SUB PUSH1 0x1F AND DUP3 ADD SWAP2 JUMPDEST POP POP POP POP POP DUP2 MSTORE PUSH1 0x20 ADD PUSH1 0x6 DUP3 ADD SLOAD DUP2 MSTORE PUSH1 0x20 ADD PUSH1 0x7 DUP3 ADD PUSH0 SWAP1 SLOAD SWAP1 PUSH2 0x100 EXP SWAP1 DIV PUSH1 0xFF AND ISZERO ISZERO ISZERO ISZERO DUP2 MSTORE POP POP DUP2 MSTORE PUSH1 0x20 ADD SWAP1 PUSH1 0x1 ADD SWAP1 PUSH2 0x191 JUMP JUMPDEST POP POP POP POP SWAP1 POP SWAP1 JUMP JUMPDEST PUSH1 0x1 SLOAD DUP2 LT PUSH2 0x496 JUMPI PUSH1 0x40 MLOAD PUSH32 0x8C379A000000000000000000000000000000000000000000000000000000000 DUP2 MSTORE PUSH1 0x4 ADD PUSH2 0x48D SWAP1 PUSH2 0x1759 JUMP JUMPDEST PUSH1 0x40 MLOAD DUP1 SWAP2 SUB SWAP1 REVERT JUMPDEST PUSH0 DUP1 DUP3 DUP2 SLOAD DUP2 LT PUSH2 0x4AA JUMPI PUSH2 0x4A9 PUSH2 0x1777 JUMP JUMPDEST JUMPDEST SWAP1 PUSH0 MSTORE PUSH1 0x20 PUSH0 KECCAK256 SWAP1 PUSH1 0x8 MUL ADD SWAP1 POP DUP1 PUSH1 0x6 ADD SLOAD CALLVALUE EQ PUSH2 0x4FE JUMPI PUSH1 0x40 MLOAD PUSH32 0x8C379A000000000000000000000000000000000000000000000000000000000 DUP2 MSTORE PUSH1 0x4 ADD PUSH2 0x4F5 SWAP1 PUSH2 0x1814 JUMP JUMPDEST PUSH1 0x40 MLOAD DUP1 SWAP2 SUB SWAP1 REVERT JUMPDEST DUP1 PUSH1 0x7 ADD PUSH0 SWAP1 SLOAD SWAP1 PUSH2 0x100 EXP SWAP1 DIV PUSH1 0xFF AND ISZERO PUSH2 0x54F JUMPI PUSH1 0x40 MLOAD PUSH32 0x8C379A000000000000000000000000000000000000000000000000000000000 DUP2 MSTORE PUSH1 0x4 ADD PUSH2 0x546 SWAP1 PUSH2 0x187C JUMP JUMPDEST PUSH1 0x40 MLOAD DUP1 SWAP2 SUB SWAP1 REVERT JUMPDEST DUP1 PUSH1 0x2 ADD PUSH0 SWAP1 SLOAD SWAP1 PUSH2 0x100 EXP SWAP1 DIV PUSH20 0xFFFFFFFFFFFFFFFFFFFFFFFFFFFFFFFFFFFFFFFF AND PUSH20 0xFFFFFFFFFFFFFFFFFFFFFFFFFFFFFFFFFFFFFFFF AND CALLER PUSH20 0xFFFFFFFFFFFFFFFFFFFFFFFFFFFFFFFFFFFFFFFF AND SUB PUSH2 0x5E0 JUMPI PUSH1 0x40 MLOAD PUSH32 0x8C379A000000000000000000000000000000000000000000000000000000000 DUP2 MSTORE PUSH1 0x4 ADD PUSH2 0x5D7 SWAP1 PUSH2 0x190A JUMP JUMPDEST PUSH1 0x40 MLOAD DUP1 SWAP2 SUB SWAP1 REVERT JUMPDEST PUSH0 DUP2 PUSH1 0x2 ADD PUSH0 SWAP1 SLOAD SWAP1 PUSH2 0x100 EXP SWAP1 DIV PUSH20 0xFFFFFFFFFFFFFFFFFFFFFFFFFFFFFFFFFFFFFFFF AND PUSH20 0xFFFFFFFFFFFFFFFFFFFFFFFFFFFFFFFFFFFFFFFF AND CALLVALUE PUSH1 0x40 MLOAD PUSH2 0x628 SWAP1 PUSH2 0x1955 JUMP JUMPDEST PUSH0 PUSH1 0x40 MLOAD DUP1 DUP4 SUB DUP2 DUP6 DUP8 GAS CALL SWAP3 POP POP POP RETURNDATASIZE DUP1 PUSH0 DUP2 EQ PUSH2 0x662 JUMPI PUSH1 0x40 MLOAD SWAP2 POP PUSH1 0x1F NOT PUSH1 0x3F RETURNDATASIZE ADD AND DUP3 ADD PUSH1 0x40 MSTORE RETURNDATASIZE DUP3 MSTORE RETURNDATASIZE PUSH0 PUSH1 0x20 DUP5 ADD RETURNDATACOPY PUSH2 0x667 JUMP JUMPDEST PUSH1 0x60 SWAP2 POP JUMPDEST POP POP SWAP1 POP DUP1 PUSH2 0x6AB JUMPI PUSH1 0x40 MLOAD PUSH32 0x8C379A000000000000000000000000000000000000000000000000000000000 DUP2 MSTORE PUSH1 0x4 ADD PUSH2 0x6A2 SWAP1 PUSH2 0x19B3 JUMP JUMPDEST PUSH1 0x40 MLOAD DUP1 SWAP2 SUB SWAP1 REVERT JUMPDEST PUSH0 DUP3 PUSH1 0x2 ADD PUSH0 SWAP1 SLOAD SWAP1 PUSH2 0x100 EXP SWAP1 DIV PUSH20 0xFFFFFFFFFFFFFFFFFFFFFFFFFFFFFFFFFFFFFFFF AND SWAP1 POP CALLER DUP4 PUSH1 0x2 ADD PUSH0 PUSH2 0x100 EXP DUP2 SLOAD DUP2 PUSH20 0xFFFFFFFFFFFFFFFFFFFFFFFFFFFFFFFFFFFFFFFF MUL NOT AND SWAP1 DUP4 PUSH20 0xFFFFFFFFFFFFFFFFFFFFFFFFFFFFFFFFFFFFFFFF AND MUL OR SWAP1 SSTORE POP PUSH1 0x1 DUP4 PUSH1 0x7 ADD PUSH0 PUSH2 0x100 EXP DUP2 SLOAD DUP2 PUSH1 0xFF MUL NOT AND SWAP1 DUP4 ISZERO ISZERO MUL OR SWAP1 SSTORE POP DUP1 PUSH20 0xFFFFFFFFFFFFFFFFFFFFFFFFFFFFFFFFFFFFFFFF AND CALLER PUSH20 0xFFFFFFFFFFFFFFFFFFFFFFFFFFFFFFFFFFFFFFFF AND PUSH32 0xC45027E1160131C0ED7B340B8E132FBC3EB9B5F252356C895D9F7DBF036E31DC CALLVALUE PUSH1 0x40 MLOAD PUSH2 0x78D SWAP2 SWAP1 PUSH2 0x1699 JUMP JUMPDEST PUSH1 0x40 MLOAD DUP1 SWAP2 SUB SWAP1 LOG3 CALLER PUSH20 0xFFFFFFFFFFFFFFFFFFFFFFFFFFFFFFFFFFFFFFFF AND DUP2 PUSH20 0xFFFFFFFFFFFFFFFFFFFFFFFFFFFFFFFFFFFFFFFF AND DUP6 PUSH32 0xA8441C1A059955B600FDD4475282B40C70CB5CF8BCA1D216E13A3D503927A30F DUP7 PUSH1 0x6 ADD SLOAD PUSH1 0x40 MLOAD PUSH2 0x7F7 SWAP2 SWAP1 PUSH2 0x1699 JUMP JUMPDEST PUSH1 0x40 MLOAD DUP1 SWAP2 SUB SWAP1 LOG4 POP POP POP POP JUMP JUMPDEST PUSH2 0x80D PUSH2 0xF89 JUMP JUMPDEST PUSH1 0x1 SLOAD DUP3 LT PUSH2 0x851 JUMPI PUSH1 0x40 MLOAD PUSH32 0x8C379A000000000000000000000000000000000000000000000000000000000 DUP2 MSTORE PUSH1 0x4 ADD PUSH2 0x848 SWAP1 PUSH2 0x1A1B JUMP JUMPDEST PUSH1 0x40 MLOAD DUP1 SWAP2 SUB SWAP1 REVERT JUMPDEST PUSH0 DUP3 DUP2 SLOAD DUP2 LT PUSH2 0x864 JUMPI PUSH2 0x863 PUSH2 0x1777 JUMP JUMPDEST JUMPDEST SWAP1 PUSH0 MSTORE PUSH1 0x20 PUSH0 KECCAK256 SWAP1 PUSH1 0x8 MUL ADD PUSH1 0x40 MLOAD DUP1 PUSH2 0x100 ADD PUSH1 0x40 MSTORE SWAP1 DUP2 PUSH0 DUP3 ADD SLOAD DUP2 MSTORE PUSH1 0x20 ADD PUSH1 0x1 DUP3 ADD PUSH0 SWAP1 SLOAD SWAP1 PUSH2 0x100 EXP SWAP1 DIV PUSH20 0xFFFFFFFFFFFFFFFFFFFFFFFFFFFFFFFFFFFFFFFF AND PUSH20 0xFFFFFFFFFFFFFFFFFFFFFFFFFFFFFFFFFFFFFFFF AND PUSH20 0xFFFFFFFFFFFFFFFFFFFFFFFFFFFFFFFFFFFFFFFF AND DUP2 MSTORE PUSH1 0x20 ADD PUSH1 0x2 DUP3 ADD PUSH0 SWAP1 SLOAD SWAP1 PUSH2 0x100 EXP SWAP1 DIV PUSH20 0xFFFFFFFFFFFFFFFFFFFFFFFFFFFFFFFFFFFFFFFF AND PUSH20 0xFFFFFFFFFFFFFFFFFFFFFFFFFFFFFFFFFFFFFFFF AND PUSH20 0xFFFFFFFFFFFFFFFFFFFFFFFFFFFFFFFFFFFFFFFF AND DUP2 MSTORE PUSH1 0x20 ADD PUSH1 0x3 DUP3 ADD DUP1 SLOAD PUSH2 0x93F SWAP1 PUSH2 0x16DF JUMP JUMPDEST DUP1 PUSH1 0x1F ADD PUSH1 0x20 DUP1 SWAP2 DIV MUL PUSH1 0x20 ADD PUSH1 0x40 MLOAD SWAP1 DUP2 ADD PUSH1 0x40 MSTORE DUP1 SWAP3 SWAP2 SWAP1 DUP2 DUP2 MSTORE PUSH1 0x20 ADD DUP3 DUP1 SLOAD PUSH2 0x96B SWAP1 PUSH2 0x16DF JUMP JUMPDEST DUP1 ISZERO PUSH2 0x9B6 JUMPI DUP1 PUSH1 0x1F LT PUSH2 0x98D JUMPI PUSH2 0x100 DUP1 DUP4 SLOAD DIV MUL DUP4 MSTORE SWAP2 PUSH1 0x20 ADD SWAP2 PUSH2 0x9B6 JUMP JUMPDEST DUP3 ADD SWAP2 SWAP1 PUSH0 MSTORE PUSH1 0x20 PUSH0 KECCAK256 SWAP1 JUMPDEST DUP2 SLOAD DUP2 MSTORE SWAP1 PUSH1 0x1 ADD SWAP1 PUSH1 0x20 ADD DUP1 DUP4 GT PUSH2 0x999 JUMPI DUP3 SWAP1 SUB PUSH1 0x1F AND DUP3 ADD SWAP2 JUMPDEST POP POP POP POP POP DUP2 MSTORE PUSH1 0x20 ADD PUSH1 0x4 DUP3 ADD DUP1 SLOAD PUSH2 0x9CF SWAP1 PUSH2 0x16DF JUMP JUMPDEST DUP1 PUSH1 0x1F ADD PUSH1 0x20 DUP1 SWAP2 DIV MUL PUSH1 0x20 ADD PUSH1 0x40 MLOAD SWAP1 DUP2 ADD PUSH1 0x40 MSTORE DUP1 SWAP3 SWAP2 SWAP1 DUP2 DUP2 MSTORE PUSH1 0x20 ADD DUP3 DUP1 SLOAD PUSH2 0x9FB SWAP1 PUSH2 0x16DF JUMP JUMPDEST DUP1 ISZERO PUSH2 0xA46 JUMPI DUP1 PUSH1 0x1F LT PUSH2 0xA1D JUMPI PUSH2 0x100 DUP1 DUP4 SLOAD DIV MUL DUP4 MSTORE SWAP2 PUSH1 0x20 ADD SWAP2 PUSH2 0xA46 JUMP JUMPDEST DUP3 ADD SWAP2 SWAP1 PUSH0 MSTORE PUSH1 0x20 PUSH0 KECCAK256 SWAP1 JUMPDEST DUP2 SLOAD DUP2 MSTORE SWAP1 PUSH1 0x1 ADD SWAP1 PUSH1 0x20 ADD DUP1 DUP4 GT PUSH2 0xA29 JUMPI DUP3 SWAP1 SUB PUSH1 0x1F AND DUP3 ADD SWAP2 JUMPDEST POP POP POP POP POP DUP2 MSTORE PUSH1 0x20 ADD PUSH1 0x5 DUP3 ADD DUP1 SLOAD PUSH2 0xA5F SWAP1 PUSH2 0x16DF JUMP JUMPDEST DUP1 PUSH1 0x1F ADD PUSH1 0x20 DUP1 SWAP2 DIV MUL PUSH1 0x20 ADD PUSH1 0x40 MLOAD SWAP1 DUP2 ADD PUSH1 0x40 MSTORE DUP1 SWAP3 SWAP2 SWAP1 DUP2 DUP2 MSTORE PUSH1 0x20 ADD DUP3 DUP1 SLOAD PUSH2 0xA8B SWAP1 PUSH2 0x16DF JUMP JUMPDEST DUP1 ISZERO PUSH2 0xAD6 JUMPI DUP1 PUSH1 0x1F LT PUSH2 0xAAD JUMPI PUSH2 0x100 DUP1 DUP4 SLOAD DIV MUL DUP4 MSTORE SWAP2 PUSH1 0x20 ADD SWAP2 PUSH2 0xAD6 JUMP JUMPDEST DUP3 ADD SWAP2 SWAP1 PUSH0 MSTORE PUSH1 0x20 PUSH0 KECCAK256 SWAP1 JUMPDEST DUP2 SLOAD DUP2 MSTORE SWAP1 PUSH1 0x1 ADD SWAP1 PUSH1 0x20 ADD DUP1 DUP4 GT PUSH2 0xAB9 JUMPI DUP3 SWAP1 SUB PUSH1 0x1F AND DUP3 ADD SWAP2 JUMPDEST POP POP POP POP POP DUP2 MSTORE PUSH1 0x20 ADD PUSH1 0x6 DUP3 ADD SLOAD DUP2 MSTORE PUSH1 0x20 ADD PUSH1 0x7 DUP3 ADD PUSH0 SWAP1 SLOAD SWAP1 PUSH2 0x100 EXP SWAP1 DIV PUSH1 0xFF AND ISZERO ISZERO ISZERO ISZERO DUP2 MSTORE POP POP SWAP1 POP SWAP2 SWAP1 POP JUMP JUMPDEST PUSH0 DUP2 DUP2 SLOAD DUP2 LT PUSH2 0xB18 JUMPI PUSH0 DUP1 REVERT JUMPDEST SWAP1 PUSH0 MSTORE PUSH1 0x20 PUSH0 KECCAK256 SWAP1 PUSH1 0x8 MUL ADD PUSH0 SWAP2 POP SWAP1 POP DUP1 PUSH0 ADD SLOAD SWAP1 DUP1 PUSH1 0x1 ADD PUSH0 SWAP1 SLOAD SWAP1 PUSH2 0x100 EXP SWAP1 DIV PUSH20 0xFFFFFFFFFFFFFFFFFFFFFFFFFFFFFFFFFFFFFFFF AND SWAP1 DUP1 PUSH1 0x2 ADD PUSH0 SWAP1 SLOAD SWAP1 PUSH2 0x100 EXP SWAP1 DIV PUSH20 0xFFFFFFFFFFFFFFFFFFFFFFFFFFFFFFFFFFFFFFFF AND SWAP1 DUP1 PUSH1 0x3 ADD DUP1 SLOAD PUSH2 0xB87 SWAP1 PUSH2 0x16DF JUMP JUMPDEST DUP1 PUSH1 0x1F ADD PUSH1 0x20 DUP1 SWAP2 DIV MUL PUSH1 0x20 ADD PUSH1 0x40 MLOAD SWAP1 DUP2 ADD PUSH1 0x40 MSTORE DUP1 SWAP3 SWAP2 SWAP1 DUP2 DUP2 MSTORE PUSH1 0x20 ADD DUP3 DUP1 SLOAD PUSH2 0xBB3 SWAP1 PUSH2 0x16DF JUMP JUMPDEST DUP1 ISZERO PUSH2 0xBFE JUMPI DUP1 PUSH1 0x1F LT PUSH2 0xBD5 JUMPI PUSH2 0x100 DUP1 DUP4 SLOAD DIV MUL DUP4 MSTORE SWAP2 PUSH1 0x20 ADD SWAP2 PUSH2 0xBFE JUMP JUMPDEST DUP3 ADD SWAP2 SWAP1 PUSH0 MSTORE PUSH1 0x20 PUSH0 KECCAK256 SWAP1 JUMPDEST DUP2 SLOAD DUP2 MSTORE SWAP1 PUSH1 0x1 ADD SWAP1 PUSH1 0x20 ADD DUP1 DUP4 GT PUSH2 0xBE1 JUMPI DUP3 SWAP1 SUB PUSH1 0x1F AND DUP3 ADD SWAP2 JUMPDEST POP POP POP POP POP SWAP1 DUP1 PUSH1 0x4 ADD DUP1 SLOAD PUSH2 0xC13 SWAP1 PUSH2 0x16DF JUMP JUMPDEST DUP1 PUSH1 0x1F ADD PUSH1 0x20 DUP1 SWAP2 DIV MUL PUSH1 0x20 ADD PUSH1 0x40 MLOAD SWAP1 DUP2 ADD PUSH1 0x40 MSTORE DUP1 SWAP3 SWAP2 SWAP1 DUP2 DUP2 MSTORE PUSH1 0x20 ADD DUP3 DUP1 SLOAD PUSH2 0xC3F SWAP1 PUSH2 0x16DF JUMP JUMPDEST DUP1 ISZERO PUSH2 0xC8A JUMPI DUP1 PUSH1 0x1F LT PUSH2 0xC61 JUMPI PUSH2 0x100 DUP1 DUP4 SLOAD DIV MUL DUP4 MSTORE SWAP2 PUSH1 0x20 ADD SWAP2 PUSH2 0xC8A JUMP JUMPDEST DUP3 ADD SWAP2 SWAP1 PUSH0 MSTORE PUSH1 0x20 PUSH0 KECCAK256 SWAP1 JUMPDEST DUP2 SLOAD DUP2 MSTORE SWAP1 PUSH1 0x1 ADD SWAP1 PUSH1 0x20 ADD DUP1 DUP4 GT PUSH2 0xC6D JUMPI DUP3 SWAP1 SUB PUSH1 0x1F AND DUP3 ADD SWAP2 JUMPDEST POP POP POP POP POP SWAP1 DUP1 PUSH1 0x5 ADD DUP1 SLOAD PUSH2 0xC9F SWAP1 PUSH2 0x16DF JUMP JUMPDEST DUP1 PUSH1 0x1F ADD PUSH1 0x20 DUP1 SWAP2 DIV MUL PUSH1 0x20 ADD PUSH1 0x40 MLOAD SWAP1 DUP2 ADD PUSH1 0x40 MSTORE DUP1 SWAP3 SWAP2 SWAP1 DUP2 DUP2 MSTORE PUSH1 0x20 ADD DUP3 DUP1 SLOAD PUSH2 0xCCB SWAP1 PUSH2 0x16DF JUMP JUMPDEST DUP1 ISZERO PUSH2 0xD16 JUMPI DUP1 PUSH1 0x1F LT PUSH2 0xCED JUMPI PUSH2 0x100 DUP1 DUP4 SLOAD DIV MUL DUP4 MSTORE SWAP2 PUSH1 0x20 ADD SWAP2 PUSH2 0xD16 JUMP JUMPDEST DUP3 ADD SWAP2 SWAP1 PUSH0 MSTORE PUSH1 0x20 PUSH0 KECCAK256 SWAP1 JUMPDEST DUP2 SLOAD DUP2 MSTORE SWAP1 PUSH1 0x1 ADD SWAP1 PUSH1 0x20 ADD DUP1 DUP4 GT PUSH2 0xCF9 JUMPI DUP3 SWAP1 SUB PUSH1 0x1F AND DUP3 ADD SWAP2 JUMPDEST POP POP POP POP POP SWAP1 DUP1 PUSH1 0x6 ADD SLOAD SWAP1 DUP1 PUSH1 0x7 ADD PUSH0 SWAP1 SLOAD SWAP1 PUSH2 0x100 EXP SWAP1 DIV PUSH1 0xFF AND SWAP1 POP DUP9 JUMP JUMPDEST PUSH0 DUP2 GT PUSH2 0xD7A JUMPI PUSH1 0x40 MLOAD PUSH32 0x8C379A000000000000000000000000000000000000000000000000000000000 DUP2 MSTORE PUSH1 0x4 ADD PUSH2 0xD71 SWAP1 PUSH2 0x1AA9 JUMP JUMPDEST PUSH1 0x40 MLOAD DUP1 SWAP2 SUB SWAP1 REVERT JUMPDEST PUSH0 PUSH1 0x40 MLOAD DUP1 PUSH2 0x100 ADD PUSH1 0x40 MSTORE DUP1 PUSH1 0x1 SLOAD DUP2 MSTORE PUSH1 0x20 ADD CALLER PUSH20 0xFFFFFFFFFFFFFFFFFFFFFFFFFFFFFFFFFFFFFFFF AND DUP2 MSTORE PUSH1 0x20 ADD CALLER PUSH20 0xFFFFFFFFFFFFFFFFFFFFFFFFFFFFFFFFFFFFFFFF AND DUP2 MSTORE PUSH1 0x20 ADD DUP7 DUP2 MSTORE PUSH1 0x20 ADD DUP6 DUP2 MSTORE PUSH1 0x20 ADD DUP5 DUP2 MSTORE PUSH1 0x20 ADD DUP4 DUP2 MSTORE PUSH1 0x20 ADD PUSH0 ISZERO ISZERO DUP2 MSTORE POP SWAP1 POP PUSH0 DUP2 SWAP1 DUP1 PUSH1 0x1 DUP2 SLOAD ADD DUP1 DUP3 SSTORE DUP1 SWAP2 POP POP PUSH1 0x1 SWAP1 SUB SWAP1 PUSH0 MSTORE PUSH1 0x20 PUSH0 KECCAK256 SWAP1 PUSH1 0x8 MUL ADD PUSH0 SWAP1 SWAP2 SWAP1 SWAP2 SWAP1 SWAP2 POP PUSH0 DUP3 ADD MLOAD DUP2 PUSH0 ADD SSTORE PUSH1 0x20 DUP3 ADD MLOAD DUP2 PUSH1 0x1 ADD PUSH0 PUSH2 0x100 EXP DUP2 SLOAD DUP2 PUSH20 0xFFFFFFFFFFFFFFFFFFFFFFFFFFFFFFFFFFFFFFFF MUL NOT AND SWAP1 DUP4 PUSH20 0xFFFFFFFFFFFFFFFFFFFFFFFFFFFFFFFFFFFFFFFF AND MUL OR SWAP1 SSTORE POP PUSH1 0x40 DUP3 ADD MLOAD DUP2 PUSH1 0x2 ADD PUSH0 PUSH2 0x100 EXP DUP2 SLOAD DUP2 PUSH20 0xFFFFFFFFFFFFFFFFFFFFFFFFFFFFFFFFFFFFFFFF MUL NOT AND SWAP1 DUP4 PUSH20 0xFFFFFFFFFFFFFFFFFFFFFFFFFFFFFFFFFFFFFFFF AND MUL OR SWAP1 SSTORE POP PUSH1 0x60 DUP3 ADD MLOAD DUP2 PUSH1 0x3 ADD SWAP1 DUP2 PUSH2 0xEB8 SWAP2 SWAP1 PUSH2 0x1C64 JUMP JUMPDEST POP PUSH1 0x80 DUP3 ADD MLOAD DUP2 PUSH1 0x4 ADD SWAP1 DUP2 PUSH2 0xECE SWAP2 SWAP1 PUSH2 0x1C64 JUMP JUMPDEST POP PUSH1 0xA0 DUP3 ADD MLOAD DUP2 PUSH1 0x5 ADD SWAP1 DUP2 PUSH2 0xEE4 SWAP2 SWAP1 PUSH2 0x1C64 JUMP JUMPDEST POP PUSH1 0xC0 DUP3 ADD MLOAD DUP2 PUSH1 0x6 ADD SSTORE PUSH1 0xE0 DUP3 ADD MLOAD DUP2 PUSH1 0x7 ADD PUSH0 PUSH2 0x100 EXP DUP2 SLOAD DUP2 PUSH1 0xFF MUL NOT AND SWAP1 DUP4 ISZERO ISZERO MUL OR SWAP1 SSTORE POP POP POP CALLER PUSH20 0xFFFFFFFFFFFFFFFFFFFFFFFFFFFFFFFFFFFFFFFF AND PUSH1 0x1 SLOAD PUSH32 0xCACA718769B36464485951C1AFB94414B8F5B85B6A614A72FD5D1D2E85DF19B6 DUP8 DUP7 DUP7 PUSH1 0x40 MLOAD PUSH2 0xF5D SWAP4 SWAP3 SWAP2 SWAP1 PUSH2 0x1D33 JUMP JUMPDEST PUSH1 0x40 MLOAD DUP1 SWAP2 SUB SWAP1 LOG3 PUSH1 0x1 PUSH0 DUP2 SLOAD DUP1 SWAP3 SWAP2 SWAP1 PUSH2 0xF77 SWAP1 PUSH2 0x1DA3 JUMP JUMPDEST SWAP2 SWAP1 POP SSTORE POP POP POP POP POP POP JUMP JUMPDEST PUSH1 0x1 SLOAD DUP2 JUMP JUMPDEST PUSH1 0x40 MLOAD DUP1 PUSH2 0x100 ADD PUSH1 0x40 MSTORE DUP1 PUSH0 DUP2 MSTORE PUSH1 0x20 ADD PUSH0 PUSH20 0xFFFFFFFFFFFFFFFFFFFFFFFFFFFFFFFFFFFFFFFF AND DUP2 MSTORE PUSH1 0x20 ADD PUSH0 PUSH20 0xFFFFFFFFFFFFFFFFFFFFFFFFFFFFFFFFFFFFFFFF AND DUP2 MSTORE PUSH1 0x20 ADD PUSH1 0x60 DUP2 MSTORE PUSH1 0x20 ADD PUSH1 0x60 DUP2 MSTORE PUSH1 0x20 ADD PUSH1 0x60 DUP2 MSTORE PUSH1 0x20 ADD PUSH0 DUP2 MSTORE PUSH1 0x20 ADD PUSH0 ISZERO ISZERO DUP2 MSTORE POP SWAP1 JUMP JUMPDEST PUSH0 DUP2 MLOAD SWAP1 POP SWAP2 SWAP1 POP JUMP JUMPDEST PUSH0 DUP3 DUP3 MSTORE PUSH1 0x20 DUP3 ADD SWAP1 POP SWAP3 SWAP2 POP POP JUMP JUMPDEST PUSH0 DUP2 SWAP1 POP PUSH1 0x20 DUP3 ADD SWAP1 POP SWAP2 SWAP1 POP JUMP JUMPDEST PUSH0 DUP2 SWAP1 POP SWAP2 SWAP1 POP JUMP JUMPDEST PUSH2 0x1032 DUP2 PUSH2 0x1020 JUMP JUMPDEST DUP3 MSTORE POP POP JUMP JUMPDEST PUSH0 PUSH20 0xFFFFFFFFFFFFFFFFFFFFFFFFFFFFFFFFFFFFFFFF DUP3 AND SWAP1 POP SWAP2 SWAP1 POP JUMP JUMPDEST PUSH0 PUSH2 0x1061 DUP3 PUSH2 0x1038 JUMP JUMPDEST SWAP1 POP SWAP2 SWAP1 POP JUMP JUMPDEST PUSH2 0x1071 DUP2 PUSH2 0x1057 JUMP JUMPDEST DUP3 MSTORE POP POP JUMP JUMPDEST PUSH0 DUP2 MLOAD SWAP1 POP SWAP2 SWAP1 POP JUMP JUMPDEST PUSH0 DUP3 DUP3 MSTORE PUSH1 0x20 DUP3 ADD SWAP1 POP SWAP3 SWAP2 POP POP JUMP JUMPDEST DUP3 DUP2 DUP4 MCOPY PUSH0 DUP4 DUP4 ADD MSTORE POP POP POP JUMP JUMPDEST PUSH0 PUSH1 0x1F NOT PUSH1 0x1F DUP4 ADD AND SWAP1 POP SWAP2 SWAP1 POP JUMP JUMPDEST PUSH0 PUSH2 0x10B9 DUP3 PUSH2 0x1077 JUMP JUMPDEST PUSH2 0x10C3 DUP2 DUP6 PUSH2 0x1081 JUMP JUMPDEST SWAP4 POP PUSH2 0x10D3 DUP2 DUP6 PUSH1 0x20 DUP7 ADD PUSH2 0x1091 JUMP JUMPDEST PUSH2 0x10DC DUP2 PUSH2 0x109F JUMP JUMPDEST DUP5 ADD SWAP2 POP POP SWAP3 SWAP2 POP POP JUMP JUMPDEST PUSH0 DUP2 ISZERO ISZERO SWAP1 POP SWAP2 SWAP1 POP JUMP JUMPDEST PUSH2 0x10FB DUP2 PUSH2 0x10E7 JUMP JUMPDEST DUP3 MSTORE POP POP JUMP JUMPDEST PUSH0 PUSH2 0x100 DUP4 ADD PUSH0 DUP4 ADD MLOAD PUSH2 0x1117 PUSH0 DUP7 ADD DUP3 PUSH2 0x1029 JUMP JUMPDEST POP PUSH1 0x20 DUP4 ADD MLOAD PUSH2 0x112A PUSH1 0x20 DUP7 ADD DUP3 PUSH2 0x1068 JUMP JUMPDEST POP PUSH1 0x40 DUP4 ADD MLOAD PUSH2 0x113D PUSH1 0x40 DUP7 ADD DUP3 PUSH2 0x1068 JUMP JUMPDEST POP PUSH1 0x60 DUP4 ADD MLOAD DUP5 DUP3 SUB PUSH1 0x60 DUP7 ADD MSTORE PUSH2 0x1155 DUP3 DUP3 PUSH2 0x10AF JUMP JUMPDEST SWAP2 POP POP PUSH1 0x80 DUP4 ADD MLOAD DUP5 DUP3 SUB PUSH1 0x80 DUP7 ADD MSTORE PUSH2 0x116F DUP3 DUP3 PUSH2 0x10AF JUMP JUMPDEST SWAP2 POP POP PUSH1 0xA0 DUP4 ADD MLOAD DUP5 DUP3 SUB PUSH1 0xA0 DUP7 ADD MSTORE PUSH2 0x1189 DUP3 DUP3 PUSH2 0x10AF JUMP JUMPDEST SWAP2 POP POP PUSH1 0xC0 DUP4 ADD MLOAD PUSH2 0x119E PUSH1 0xC0 DUP7 ADD DUP3 PUSH2 0x1029 JUMP JUMPDEST POP PUSH1 0xE0 DUP4 ADD MLOAD PUSH2 0x11B1 PUSH1 0xE0 DUP7 ADD DUP3 PUSH2 0x10F2 JUMP JUMPDEST POP DUP1 SWAP2 POP POP SWAP3 SWAP2 POP POP JUMP JUMPDEST PUSH0 PUSH2 0x11C7 DUP4 DUP4 PUSH2 0x1101 JUMP JUMPDEST SWAP1 POP SWAP3 SWAP2 POP POP JUMP JUMPDEST PUSH0 PUSH1 0x20 DUP3 ADD SWAP1 POP SWAP2 SWAP1 POP JUMP JUMPDEST PUSH0 PUSH2 0x11E5 DUP3 PUSH2 0xFF7 JUMP JUMPDEST PUSH2 0x11EF DUP2 DUP6 PUSH2 0x1001 JUMP JUMPDEST SWAP4 POP DUP4 PUSH1 0x20 DUP3 MUL DUP6 ADD PUSH2 0x1201 DUP6 PUSH2 0x1011 JUMP JUMPDEST DUP1 PUSH0 JUMPDEST DUP6 DUP2 LT ISZERO PUSH2 0x123C JUMPI DUP5 DUP5 SUB DUP10 MSTORE DUP2 MLOAD PUSH2 0x121D DUP6 DUP3 PUSH2 0x11BC JUMP JUMPDEST SWAP5 POP PUSH2 0x1228 DUP4 PUSH2 0x11CF JUMP JUMPDEST SWAP3 POP PUSH1 0x20 DUP11 ADD SWAP10 POP POP PUSH1 0x1 DUP2 ADD SWAP1 POP PUSH2 0x1204 JUMP JUMPDEST POP DUP3 SWAP8 POP DUP8 SWAP6 POP POP POP POP POP POP SWAP3 SWAP2 POP POP JUMP JUMPDEST PUSH0 PUSH1 0x20 DUP3 ADD SWAP1 POP DUP2 DUP2 SUB PUSH0 DUP4 ADD MSTORE PUSH2 0x1266 DUP2 DUP5 PUSH2 0x11DB JUMP JUMPDEST SWAP1 POP SWAP3 SWAP2 POP POP JUMP JUMPDEST PUSH0 PUSH1 0x40 MLOAD SWAP1 POP SWAP1 JUMP JUMPDEST PUSH0 DUP1 REVERT JUMPDEST PUSH0 DUP1 REVERT JUMPDEST PUSH2 0x1288 DUP2 PUSH2 0x1020 JUMP JUMPDEST DUP2 EQ PUSH2 0x1292 JUMPI PUSH0 DUP1 REVERT JUMPDEST POP JUMP JUMPDEST PUSH0 DUP2 CALLDATALOAD SWAP1 POP PUSH2 0x12A3 DUP2 PUSH2 0x127F JUMP JUMPDEST SWAP3 SWAP2 POP POP JUMP JUMPDEST PUSH0 PUSH1 0x20 DUP3 DUP5 SUB SLT ISZERO PUSH2 0x12BE JUMPI PUSH2 0x12BD PUSH2 0x1277 JUMP JUMPDEST JUMPDEST PUSH0 PUSH2 0x12CB DUP5 DUP3 DUP6 ADD PUSH2 0x1295 JUMP JUMPDEST SWAP2 POP POP SWAP3 SWAP2 POP POP JUMP JUMPDEST PUSH0 PUSH2 0x100 DUP4 ADD PUSH0 DUP4 ADD MLOAD PUSH2 0x12EA PUSH0 DUP7 ADD DUP3 PUSH2 0x1029 JUMP JUMPDEST POP PUSH1 0x20 DUP4 ADD MLOAD PUSH2 0x12FD PUSH1 0x20 DUP7 ADD DUP3 PUSH2 0x1068 JUMP JUMPDEST POP PUSH1 0x40 DUP4 ADD MLOAD PUSH2 0x1310 PUSH1 0x40 DUP7 ADD DUP3 PUSH2 0x1068 JUMP JUMPDEST POP PUSH1 0x60 DUP4 ADD MLOAD DUP5 DUP3 SUB PUSH1 0x60 DUP7 ADD MSTORE PUSH2 0x1328 DUP3 DUP3 PUSH2 0x10AF JUMP JUMPDEST SWAP2 POP POP PUSH1 0x80 DUP4 ADD MLOAD DUP5 DUP3 SUB PUSH1 0x80 DUP7 ADD MSTORE PUSH2 0x1342 DUP3 DUP3 PUSH2 0x10AF JUMP JUMPDEST SWAP2 POP POP PUSH1 0xA0 DUP4 ADD MLOAD DUP5 DUP3 SUB PUSH1 0xA0 DUP7 ADD MSTORE PUSH2 0x135C DUP3 DUP3 PUSH2 0x10AF JUMP JUMPDEST SWAP2 POP POP PUSH1 0xC0 DUP4 ADD MLOAD PUSH2 0x1371 PUSH1 0xC0 DUP7 ADD DUP3 PUSH2 0x1029 JUMP JUMPDEST POP PUSH1 0xE0 DUP4 ADD MLOAD PUSH2 0x1384 PUSH1 0xE0 DUP7 ADD DUP3 PUSH2 0x10F2 JUMP JUMPDEST POP DUP1 SWAP2 POP POP SWAP3 SWAP2 POP POP JUMP JUMPDEST PUSH0 PUSH1 0x20 DUP3 ADD SWAP1 POP DUP2 DUP2 SUB PUSH0 DUP4 ADD MSTORE PUSH2 0x13A7 DUP2 DUP5 PUSH2 0x12D4 JUMP JUMPDEST SWAP1 POP SWAP3 SWAP2 POP POP JUMP JUMPDEST PUSH2 0x13B8 DUP2 PUSH2 0x1020 JUMP JUMPDEST DUP3 MSTORE POP POP JUMP JUMPDEST PUSH2 0x13C7 DUP2 PUSH2 0x1057 JUMP JUMPDEST DUP3 MSTORE POP POP JUMP JUMPDEST PUSH0 DUP3 DUP3 MSTORE PUSH1 0x20 DUP3 ADD SWAP1 POP SWAP3 SWAP2 POP POP JUMP JUMPDEST PUSH0 PUSH2 0x13E7 DUP3 PUSH2 0x1077 JUMP JUMPDEST PUSH2 0x13F1 DUP2 DUP6 PUSH2 0x13CD JUMP JUMPDEST SWAP4 POP PUSH2 0x1401 DUP2 DUP6 PUSH1 0x20 DUP7 ADD PUSH2 0x1091 JUMP JUMPDEST PUSH2 0x140A DUP2 PUSH2 0x109F JUMP JUMPDEST DUP5 ADD SWAP2 POP POP SWAP3 SWAP2 POP POP JUMP JUMPDEST PUSH2 0x141E DUP2 PUSH2 0x10E7 JUMP JUMPDEST DUP3 MSTORE POP POP JUMP JUMPDEST PUSH0 PUSH2 0x100 DUP3 ADD SWAP1 POP PUSH2 0x1438 PUSH0 DUP4 ADD DUP12 PUSH2 0x13AF JUMP JUMPDEST PUSH2 0x1445 PUSH1 0x20 DUP4 ADD DUP11 PUSH2 0x13BE JUMP JUMPDEST PUSH2 0x1452 PUSH1 0x40 DUP4 ADD DUP10 PUSH2 0x13BE JUMP JUMPDEST DUP2 DUP2 SUB PUSH1 0x60 DUP4 ADD MSTORE PUSH2 0x1464 DUP2 DUP9 PUSH2 0x13DD JUMP JUMPDEST SWAP1 POP DUP2 DUP2 SUB PUSH1 0x80 DUP4 ADD MSTORE PUSH2 0x1478 DUP2 DUP8 PUSH2 0x13DD JUMP JUMPDEST SWAP1 POP DUP2 DUP2 SUB PUSH1 0xA0 DUP4 ADD MSTORE PUSH2 0x148C DUP2 DUP7 PUSH2 0x13DD JUMP JUMPDEST SWAP1 POP PUSH2 0x149B PUSH1 0xC0 DUP4 ADD DUP6 PUSH2 0x13AF JUMP JUMPDEST PUSH2 0x14A8 PUSH1 0xE0 DUP4 ADD DUP5 PUSH2 0x1415 JUMP JUMPDEST SWAP10 SWAP9 POP POP POP POP POP POP POP POP POP JUMP JUMPDEST PUSH0 DUP1 REVERT JUMPDEST PUSH0 DUP1 REVERT JUMPDEST PUSH32 0x4E487B7100000000000000000000000000000000000000000000000000000000 PUSH0 MSTORE PUSH1 0x41 PUSH1 0x4 MSTORE PUSH1 0x24 PUSH0 REVERT JUMPDEST PUSH2 0x14F3 DUP3 PUSH2 0x109F JUMP JUMPDEST DUP2 ADD DUP2 DUP2 LT PUSH8 0xFFFFFFFFFFFFFFFF DUP3 GT OR ISZERO PUSH2 0x1512 JUMPI PUSH2 0x1511 PUSH2 0x14BD JUMP JUMPDEST JUMPDEST DUP1 PUSH1 0x40 MSTORE POP POP POP JUMP JUMPDEST PUSH0 PUSH2 0x1524 PUSH2 0x126E JUMP JUMPDEST SWAP1 POP PUSH2 0x1530 DUP3 DUP3 PUSH2 0x14EA JUMP JUMPDEST SWAP2 SWAP1 POP JUMP JUMPDEST PUSH0 PUSH8 0xFFFFFFFFFFFFFFFF DUP3 GT ISZERO PUSH2 0x154F JUMPI PUSH2 0x154E PUSH2 0x14BD JUMP JUMPDEST JUMPDEST PUSH2 0x1558 DUP3 PUSH2 0x109F JUMP JUMPDEST SWAP1 POP PUSH1 0x20 DUP2 ADD SWAP1 POP SWAP2 SWAP1 POP JUMP JUMPDEST DUP3 DUP2 DUP4 CALLDATACOPY PUSH0 DUP4 DUP4 ADD MSTORE POP POP POP JUMP JUMPDEST PUSH0 PUSH2 0x1585 PUSH2 0x1580 DUP5 PUSH2 0x1535 JUMP JUMPDEST PUSH2 0x151B JUMP JUMPDEST SWAP1 POP DUP3 DUP2 MSTORE PUSH1 0x20 DUP2 ADD DUP5 DUP5 DUP5 ADD GT ISZERO PUSH2 0x15A1 JUMPI PUSH2 0x15A0 PUSH2 0x14B9 JUMP JUMPDEST JUMPDEST PUSH2 0x15AC DUP5 DUP3 DUP6 PUSH2 0x1565 JUMP JUMPDEST POP SWAP4 SWAP3 POP POP POP JUMP JUMPDEST PUSH0 DUP3 PUSH1 0x1F DUP4 ADD SLT PUSH2 0x15C8 JUMPI PUSH2 0x15C7 PUSH2 0x14B5 JUMP JUMPDEST JUMPDEST DUP2 CALLDATALOAD PUSH2 0x15D8 DUP5 DUP3 PUSH1 0x20 DUP7 ADD PUSH2 0x1573 JUMP JUMPDEST SWAP2 POP POP SWAP3 SWAP2 POP POP JUMP JUMPDEST PUSH0 DUP1 PUSH0 DUP1 PUSH1 0x80 DUP6 DUP8 SUB SLT ISZERO PUSH2 0x15F9 JUMPI PUSH2 0x15F8 PUSH2 0x1277 JUMP JUMPDEST JUMPDEST PUSH0 DUP6 ADD CALLDATALOAD PUSH8 0xFFFFFFFFFFFFFFFF DUP2 GT ISZERO PUSH2 0x1616 JUMPI PUSH2 0x1615 PUSH2 0x127B JUMP JUMPDEST JUMPDEST PUSH2 0x1622 DUP8 DUP3 DUP9 ADD PUSH2 0x15B4 JUMP JUMPDEST SWAP5 POP POP PUSH1 0x20 DUP6 ADD CALLDATALOAD PUSH8 0xFFFFFFFFFFFFFFFF DUP2 GT ISZERO PUSH2 0x1643 JUMPI PUSH2 0x1642 PUSH2 0x127B JUMP JUMPDEST JUMPDEST PUSH2 0x164F DUP8 DUP3 DUP9 ADD PUSH2 0x15B4 JUMP JUMPDEST SWAP4 POP POP PUSH1 0x40 DUP6 ADD CALLDATALOAD PUSH8 0xFFFFFFFFFFFFFFFF DUP2 GT ISZERO PUSH2 0x1670 JUMPI PUSH2 0x166F PUSH2 0x127B JUMP JUMPDEST JUMPDEST PUSH2 0x167C DUP8 DUP3 DUP9 ADD PUSH2 0x15B4 JUMP JUMPDEST SWAP3 POP POP PUSH1 0x60 PUSH2 0x168D DUP8 DUP3 DUP9 ADD PUSH2 0x1295 JUMP JUMPDEST SWAP2 POP POP SWAP3 SWAP6 SWAP2 SWAP5 POP SWAP3 POP JUMP JUMPDEST PUSH0 PUSH1 0x20 DUP3 ADD SWAP1 POP PUSH2 0x16AC PUSH0 DUP4 ADD DUP5 PUSH2 0x13AF JUMP JUMPDEST SWAP3 SWAP2 POP POP JUMP JUMPDEST PUSH32 0x4E487B7100000000000000000000000000000000000000000000000000000000 PUSH0 MSTORE PUSH1 0x22 PUSH1 0x4 MSTORE PUSH1 0x24 PUSH0 REVERT JUMPDEST PUSH0 PUSH1 0x2 DUP3 DIV SWAP1 POP PUSH1 0x1 DUP3 AND DUP1 PUSH2 0x16F6 JUMPI PUSH1 0x7F DUP3 AND SWAP2 POP JUMPDEST PUSH1 0x20 DUP3 LT DUP2 SUB PUSH2 0x1709 JUMPI PUSH2 0x1708 PUSH2 0x16B2 JUMP JUMPDEST JUMPDEST POP SWAP2 SWAP1 POP JUMP JUMPDEST PUSH32 0x4974656D20494420646F6573206E6F7420657869737400000000000000000000 PUSH0 DUP3 ADD MSTORE POP JUMP JUMPDEST PUSH0 PUSH2 0x1743 PUSH1 0x16 DUP4 PUSH2 0x13CD JUMP JUMPDEST SWAP2 POP PUSH2 0x174E DUP3 PUSH2 0x170F JUMP JUMPDEST PUSH1 0x20 DUP3 ADD SWAP1 POP SWAP2 SWAP1 POP JUMP JUMPDEST PUSH0 PUSH1 0x20 DUP3 ADD SWAP1 POP DUP2 DUP2 SUB PUSH0 DUP4 ADD MSTORE PUSH2 0x1770 DUP2 PUSH2 0x1737 JUMP JUMPDEST SWAP1 POP SWAP2 SWAP1 POP JUMP JUMPDEST PUSH32 0x4E487B7100000000000000000000000000000000000000000000000000000000 PUSH0 MSTORE PUSH1 0x32 PUSH1 0x4 MSTORE PUSH1 0x24 PUSH0 REVERT JUMPDEST PUSH32 0x496E636F727265637420616D6F756E742C20706C656173652073656E64207468 PUSH0 DUP3 ADD MSTORE PUSH32 0x6520657861637420707269636500000000000000000000000000000000000000 PUSH1 0x20 DUP3 ADD MSTORE POP JUMP JUMPDEST PUSH0 PUSH2 0x17FE PUSH1 0x2D DUP4 PUSH2 0x13CD JUMP JUMPDEST SWAP2 POP PUSH2 0x1809 DUP3 PUSH2 0x17A4 JUMP JUMPDEST PUSH1 0x40 DUP3 ADD SWAP1 POP SWAP2 SWAP1 POP JUMP JUMPDEST PUSH0 PUSH1 0x20 DUP3 ADD SWAP1 POP DUP2 DUP2 SUB PUSH0 DUP4 ADD MSTORE PUSH2 0x182B DUP2 PUSH2 0x17F2 JUMP JUMPDEST SWAP1 POP SWAP2 SWAP1 POP JUMP JUMPDEST PUSH32 0x4974656D20697320616C726561647920736F6C64000000000000000000000000 PUSH0 DUP3 ADD MSTORE POP JUMP JUMPDEST PUSH0 PUSH2 0x1866 PUSH1 0x14 DUP4 PUSH2 0x13CD JUMP JUMPDEST SWAP2 POP PUSH2 0x1871 DUP3 PUSH2 0x1832 JUMP JUMPDEST PUSH1 0x20 DUP3 ADD SWAP1 POP SWAP2 SWAP1 POP JUMP JUMPDEST PUSH0 PUSH1 0x20 DUP3 ADD SWAP1 POP DUP2 DUP2 SUB PUSH0 DUP4 ADD MSTORE PUSH2 0x1893 DUP2 PUSH2 0x185A JUMP JUMPDEST SWAP1 POP SWAP2 SWAP1 POP JUMP JUMPDEST PUSH32 0x4974656D206F776E65722063616E6E6F74207075726368617365207468656972 PUSH0 DUP3 ADD MSTORE PUSH32 0x206F776E206974656D0000000000000000000000000000000000000000000000 PUSH1 0x20 DUP3 ADD MSTORE POP JUMP JUMPDEST PUSH0 PUSH2 0x18F4 PUSH1 0x29 DUP4 PUSH2 0x13CD JUMP JUMPDEST SWAP2 POP PUSH2 0x18FF DUP3 PUSH2 0x189A JUMP JUMPDEST PUSH1 0x40 DUP3 ADD SWAP1 POP SWAP2 SWAP1 POP JUMP JUMPDEST PUSH0 PUSH1 0x20 DUP3 ADD SWAP1 POP DUP2 DUP2 SUB PUSH0 DUP4 ADD MSTORE PUSH2 0x1921 DUP2 PUSH2 0x18E8 JUMP JUMPDEST SWAP1 POP SWAP2 SWAP1 POP JUMP JUMPDEST PUSH0 DUP2 SWAP1 POP SWAP3 SWAP2 POP POP JUMP JUMPDEST POP JUMP JUMPDEST PUSH0 PUSH2 0x1940 PUSH0 DUP4 PUSH2 0x1928 JUMP JUMPDEST SWAP2 POP PUSH2 0x194B DUP3 PUSH2 0x1932 JUMP JUMPDEST PUSH0 DUP3 ADD SWAP1 POP SWAP2 SWAP1 POP JUMP JUMPDEST PUSH0 PUSH2 0x195F DUP3 PUSH2 0x1935 JUMP JUMPDEST SWAP2 POP DUP2 SWAP1 POP SWAP2 SWAP1 POP JUMP JUMPDEST PUSH32 0x4574686572207472616E73666572206661696C65640000000000000000000000 PUSH0 DUP3 ADD MSTORE POP JUMP JUMPDEST PUSH0 PUSH2 0x199D PUSH1 0x15 DUP4 PUSH2 0x13CD JUMP JUMPDEST SWAP2 POP PUSH2 0x19A8 DUP3 PUSH2 0x1969 JUMP JUMPDEST PUSH1 0x20 DUP3 ADD SWAP1 POP SWAP2 SWAP1 POP JUMP JUMPDEST PUSH0 PUSH1 0x20 DUP3 ADD SWAP1 POP DUP2 DUP2 SUB PUSH0 DUP4 ADD MSTORE PUSH2 0x19CA DUP2 PUSH2 0x1991 JUMP JUMPDEST SWAP1 POP SWAP2 SWAP1 POP JUMP JUMPDEST PUSH32 0x50726F6475637420494420646F6573206E6F7420657869737400000000000000 PUSH0 DUP3 ADD MSTORE POP JUMP JUMPDEST PUSH0 PUSH2 0x1A05 PUSH1 0x19 DUP4 PUSH2 0x13CD JUMP JUMPDEST SWAP2 POP PUSH2 0x1A10 DUP3 PUSH2 0x19D1 JUMP JUMPDEST PUSH1 0x20 DUP3 ADD SWAP1 POP SWAP2 SWAP1 POP JUMP JUMPDEST PUSH0 PUSH1 0x20 DUP3 ADD SWAP1 POP DUP2 DUP2 SUB PUSH0 DUP4 ADD MSTORE PUSH2 0x1A32 DUP2 PUSH2 0x19F9 JUMP JUMPDEST SWAP1 POP SWAP2 SWAP1 POP JUMP JUMPDEST PUSH32 0x56616C7565206F662050726F64756374206D7573742062652067726561746572 PUSH0 DUP3 ADD MSTORE PUSH32 0x207468616E207A65726F00000000000000000000000000000000000000000000 PUSH1 0x20 DUP3 ADD MSTORE POP JUMP JUMPDEST PUSH0 PUSH2 0x1A93 PUSH1 0x2A DUP4 PUSH2 0x13CD JUMP JUMPDEST SWAP2 POP PUSH2 0x1A9E DUP3 PUSH2 0x1A39 JUMP JUMPDEST PUSH1 0x40 DUP3 ADD SWAP1 POP SWAP2 SWAP1 POP JUMP JUMPDEST PUSH0 PUSH1 0x20 DUP3 ADD SWAP1 POP DUP2 DUP2 SUB PUSH0 DUP4 ADD MSTORE PUSH2 0x1AC0 DUP2 PUSH2 0x1A87 JUMP JUMPDEST SWAP1 POP SWAP2 SWAP1 POP JUMP JUMPDEST PUSH0 DUP2 SWAP1 POP DUP2 PUSH0 MSTORE PUSH1 0x20 PUSH0 KECCAK256 SWAP1 POP SWAP2 SWAP1 POP JUMP JUMPDEST PUSH0 PUSH1 0x20 PUSH1 0x1F DUP4 ADD DIV SWAP1 POP SWAP2 SWAP1 POP JUMP JUMPDEST PUSH0 DUP3 DUP3 SHL SWAP1 POP SWAP3 SWAP2 POP POP JUMP JUMPDEST PUSH0 PUSH1 0x8 DUP4 MUL PUSH2 0x1B23 PUSH32 0xFFFFFFFFFFFFFFFFFFFFFFFFFFFFFFFFFFFFFFFFFFFFFFFFFFFFFFFFFFFFFFFF DUP3 PUSH2 0x1AE8 JUMP JUMPDEST PUSH2 0x1B2D DUP7 DUP4 PUSH2 0x1AE8 JUMP JUMPDEST SWAP6 POP DUP1 NOT DUP5 AND SWAP4 POP DUP1 DUP7 AND DUP5 OR SWAP3 POP POP POP SWAP4 SWAP3 POP POP POP JUMP JUMPDEST PUSH0 DUP2 SWAP1 POP SWAP2 SWAP1 POP JUMP JUMPDEST PUSH0 PUSH2 0x1B68 PUSH2 0x1B63 PUSH2 0x1B5E DUP5 PUSH2 0x1020 JUMP JUMPDEST PUSH2 0x1B45 JUMP JUMPDEST PUSH2 0x1020 JUMP JUMPDEST SWAP1 POP SWAP2 SWAP1 POP JUMP JUMPDEST PUSH0 DUP2 SWAP1 POP SWAP2 SWAP1 POP JUMP JUMPDEST PUSH2 0x1B81 DUP4 PUSH2 0x1B4E JUMP JUMPDEST PUSH2 0x1B95 PUSH2 0x1B8D DUP3 PUSH2 0x1B6F JUMP JUMPDEST DUP5 DUP5 SLOAD PUSH2 0x1AF4 JUMP JUMPDEST DUP3 SSTORE POP POP POP POP JUMP JUMPDEST PUSH0 SWAP1 JUMP JUMPDEST PUSH2 0x1BA9 PUSH2 0x1B9D JUMP JUMPDEST PUSH2 0x1BB4 DUP2 DUP5 DUP5 PUSH2 0x1B78 JUMP JUMPDEST POP POP POP JUMP JUMPDEST JUMPDEST DUP2 DUP2 LT ISZERO PUSH2 0x1BD7 JUMPI PUSH2 0x1BCC PUSH0 DUP3 PUSH2 0x1BA1 JUMP JUMPDEST PUSH1 0x1 DUP2 ADD SWAP1 POP PUSH2 0x1BBA JUMP JUMPDEST POP POP JUMP JUMPDEST PUSH1 0x1F DUP3 GT ISZERO PUSH2 0x1C1C JUMPI PUSH2 0x1BED DUP2 PUSH2 0x1AC7 JUMP JUMPDEST PUSH2 0x1BF6 DUP5 PUSH2 0x1AD9 JUMP JUMPDEST DUP2 ADD PUSH1 0x20 DUP6 LT ISZERO PUSH2 0x1C05 JUMPI DUP2 SWAP1 POP JUMPDEST PUSH2 0x1C19 PUSH2 0x1C11 DUP6 PUSH2 0x1AD9 JUMP JUMPDEST DUP4 ADD DUP3 PUSH2 0x1BB9 JUMP JUMPDEST POP POP JUMPDEST POP POP POP JUMP JUMPDEST PUSH0 DUP3 DUP3 SHR SWAP1 POP SWAP3 SWAP2 POP POP JUMP JUMPDEST PUSH0 PUSH2 0x1C3C PUSH0 NOT DUP5 PUSH1 0x8 MUL PUSH2 0x1C21 JUMP JUMPDEST NOT DUP1 DUP4 AND SWAP2 POP POP SWAP3 SWAP2 POP POP JUMP JUMPDEST PUSH0 PUSH2 0x1C54 DUP4 DUP4 PUSH2 0x1C2D JUMP JUMPDEST SWAP2 POP DUP3 PUSH1 0x2 MUL DUP3 OR SWAP1 POP SWAP3 SWAP2 POP POP JUMP JUMPDEST PUSH2 0x1C6D DUP3 PUSH2 0x1077 JUMP JUMPDEST PUSH8 0xFFFFFFFFFFFFFFFF DUP2 GT ISZERO PUSH2 0x1C86 JUMPI PUSH2 0x1C85 PUSH2 0x14BD JUMP JUMPDEST JUMPDEST PUSH2 0x1C90 DUP3 SLOAD PUSH2 0x16DF JUMP JUMPDEST PUSH2 0x1C9B DUP3 DUP3 DUP6 PUSH2 0x1BDB JUMP JUMPDEST PUSH0 PUSH1 0x20 SWAP1 POP PUSH1 0x1F DUP4 GT PUSH1 0x1 DUP2 EQ PUSH2 0x1CCC JUMPI PUSH0 DUP5 ISZERO PUSH2 0x1CBA JUMPI DUP3 DUP8 ADD MLOAD SWAP1 POP JUMPDEST PUSH2 0x1CC4 DUP6 DUP3 PUSH2 0x1C49 JUMP JUMPDEST DUP7 SSTORE POP PUSH2 0x1D2B JUMP JUMPDEST PUSH1 0x1F NOT DUP5 AND PUSH2 0x1CDA DUP7 PUSH2 0x1AC7 JUMP JUMPDEST PUSH0 JUMPDEST DUP3 DUP2 LT ISZERO PUSH2 0x1D01 JUMPI DUP5 DUP10 ADD MLOAD DUP3 SSTORE PUSH1 0x1 DUP3 ADD SWAP2 POP PUSH1 0x20 DUP6 ADD SWAP5 POP PUSH1 0x20 DUP2 ADD SWAP1 POP PUSH2 0x1CDC JUMP JUMPDEST DUP7 DUP4 LT ISZERO PUSH2 0x1D1E JUMPI DUP5 DUP10 ADD MLOAD PUSH2 0x1D1A PUSH1 0x1F DUP10 AND DUP3 PUSH2 0x1C2D JUMP JUMPDEST DUP4 SSTORE POP JUMPDEST PUSH1 0x1 PUSH1 0x2 DUP9 MUL ADD DUP9 SSTORE POP POP POP JUMPDEST POP POP POP POP POP POP JUMP JUMPDEST PUSH0 PUSH1 0x60 DUP3 ADD SWAP1 POP DUP2 DUP2 SUB PUSH0 DUP4 ADD MSTORE PUSH2 0x1D4B DUP2 DUP7 PUSH2 0x13DD JUMP JUMPDEST SWAP1 POP DUP2 DUP2 SUB PUSH1 0x20 DUP4 ADD MSTORE PUSH2 0x1D5F DUP2 DUP6 PUSH2 0x13DD JUMP JUMPDEST SWAP1 POP PUSH2 0x1D6E PUSH1 0x40 DUP4 ADD DUP5 PUSH2 0x13AF JUMP JUMPDEST SWAP5 SWAP4 POP POP POP POP JUMP JUMPDEST PUSH32 0x4E487B7100000000000000000000000000000000000000000000000000000000 PUSH0 MSTORE PUSH1 0x11 PUSH1 0x4 MSTORE PUSH1 0x24 PUSH0 REVERT JUMPDEST PUSH0 PUSH2 0x1DAD DUP3 PUSH2 0x1020 JUMP JUMPDEST SWAP2 POP PUSH32 0xFFFFFFFFFFFFFFFFFFFFFFFFFFFFFFFFFFFFFFFFFFFFFFFFFFFFFFFFFFFFFFFF DUP3 SUB PUSH2 0x1DDF JUMPI PUSH2 0x1DDE PUSH2 0x1D76 JUMP JUMPDEST JUMPDEST PUSH1 0x1 DUP3 ADD SWAP1 POP SWAP2 SWAP1 POP JUMP INVALID LOG2 PUSH5 0x6970667358 0x22 SLT KECCAK256 TIMESTAMP SWAP2 0xBF CREATE2 0xF8 0xF9 0xBE TIMESTAMP EXTCODESIZE 0xBF CREATE 0xA7 MCOPY SWAP2 ADDMOD PUSH3 0xC7A120 TLOAD 0xBB 0xA6 EXTCODEHASH SHR 0xB1 0xD7 0xD1 CALLVALUE PUSH17 0xF3BE6A64736F6C63430008190033000000 "
	},
	"Assembly": ".code\n  PUSH 80\t\t\tcontract Marketplace {\\r\\n    ...\n  PUSH 40\t\t\tcontract Marketplace {\\r\\n    ...\n  MSTORE \t\t\tcontract Marketplace {\\r\\n    ...\n  CALLVALUE \t\t\tcontract Marketplace {\\r\\n    ...\n  DUP1 \t\t\tcontract Marketplace {\\r\\n    ...\n  ISZERO \t\t\tcontract Marketplace {\\r\\n    ...\n  PUSH [tag] 1\t\t\tcontract Marketplace {\\r\\n    ...\n  JUMPI \t\t\tcontract Marketplace {\\r\\n    ...\n  PUSH 0\t\t\tcontract Marketplace {\\r\\n    ...\n  DUP1 \t\t\tcontract Marketplace {\\r\\n    ...\n  REVERT \t\t\tcontract Marketplace {\\r\\n    ...\ntag 1\t\t\tcontract Marketplace {\\r\\n    ...\n  JUMPDEST \t\t\tcontract Marketplace {\\r\\n    ...\n  POP \t\t\tcontract Marketplace {\\r\\n    ...\n  PUSH #[$] 0000000000000000000000000000000000000000000000000000000000000000\t\t\tcontract Marketplace {\\r\\n    ...\n  DUP1 \t\t\tcontract Marketplace {\\r\\n    ...\n  PUSH [$] 0000000000000000000000000000000000000000000000000000000000000000\t\t\tcontract Marketplace {\\r\\n    ...\n  PUSH 0\t\t\tcontract Marketplace {\\r\\n    ...\n  CODECOPY \t\t\tcontract Marketplace {\\r\\n    ...\n  PUSH 0\t\t\tcontract Marketplace {\\r\\n    ...\n  RETURN \t\t\tcontract Marketplace {\\r\\n    ...\n.data\n  0:\n    .code\n      PUSH 80\t\t\tcontract Marketplace {\\r\\n    ...\n      PUSH 40\t\t\tcontract Marketplace {\\r\\n    ...\n      MSTORE \t\t\tcontract Marketplace {\\r\\n    ...\n      PUSH 4\t\t\tcontract Marketplace {\\r\\n    ...\n      CALLDATASIZE \t\t\tcontract Marketplace {\\r\\n    ...\n      LT \t\t\tcontract Marketplace {\\r\\n    ...\n      PUSH [tag] 1\t\t\tcontract Marketplace {\\r\\n    ...\n      JUMPI \t\t\tcontract Marketplace {\\r\\n    ...\n      PUSH 0\t\t\tcontract Marketplace {\\r\\n    ...\n      CALLDATALOAD \t\t\tcontract Marketplace {\\r\\n    ...\n      PUSH E0\t\t\tcontract Marketplace {\\r\\n    ...\n      SHR \t\t\tcontract Marketplace {\\r\\n    ...\n      DUP1 \t\t\tcontract Marketplace {\\r\\n    ...\n      PUSH 2EE3A52\t\t\tcontract Marketplace {\\r\\n    ...\n      EQ \t\t\tcontract Marketplace {\\r\\n    ...\n      PUSH [tag] 2\t\t\tcontract Marketplace {\\r\\n    ...\n      JUMPI \t\t\tcontract Marketplace {\\r\\n    ...\n      DUP1 \t\t\tcontract Marketplace {\\r\\n    ...\n      PUSH 38E76A03\t\t\tcontract Marketplace {\\r\\n    ...\n      EQ \t\t\tcontract Marketplace {\\r\\n    ...\n      PUSH [tag] 3\t\t\tcontract Marketplace {\\r\\n    ...\n      JUMPI \t\t\tcontract Marketplace {\\r\\n    ...\n      DUP1 \t\t\tcontract Marketplace {\\r\\n    ...\n      PUSH 3F70C2B4\t\t\tcontract Marketplace {\\r\\n    ...\n      EQ \t\t\tcontract Marketplace {\\r\\n    ...\n      PUSH [tag] 4\t\t\tcontract Marketplace {\\r\\n    ...\n      JUMPI \t\t\tcontract Marketplace {\\r\\n    ...\n      DUP1 \t\t\tcontract Marketplace {\\r\\n    ...\n      PUSH 7ACC0B20\t\t\tcontract Marketplace {\\r\\n    ...\n      EQ \t\t\tcontract Marketplace {\\r\\n    ...\n      PUSH [tag] 5\t\t\tcontract Marketplace {\\r\\n    ...\n      JUMPI \t\t\tcontract Marketplace {\\r\\n    ...\n      DUP1 \t\t\tcontract Marketplace {\\r\\n    ...\n      PUSH C72DA5D9\t\t\tcontract Marketplace {\\r\\n    ...\n      EQ \t\t\tcontract Marketplace {\\r\\n    ...\n      PUSH [tag] 6\t\t\tcontract Marketplace {\\r\\n    ...\n      JUMPI \t\t\tcontract Marketplace {\\r\\n    ...\n      DUP1 \t\t\tcontract Marketplace {\\r\\n    ...\n      PUSH E0F6EF87\t\t\tcontract Marketplace {\\r\\n    ...\n      EQ \t\t\tcontract Marketplace {\\r\\n    ...\n      PUSH [tag] 7\t\t\tcontract Marketplace {\\r\\n    ...\n      JUMPI \t\t\tcontract Marketplace {\\r\\n    ...\n    tag 1\t\t\tcontract Marketplace {\\r\\n    ...\n      JUMPDEST \t\t\tcontract Marketplace {\\r\\n    ...\n      PUSH 0\t\t\tcontract Marketplace {\\r\\n    ...\n      DUP1 \t\t\tcontract Marketplace {\\r\\n    ...\n      REVERT \t\t\tcontract Marketplace {\\r\\n    ...\n    tag 2\t\t\tfunction getAllProducts() publ...\n      JUMPDEST \t\t\tfunction getAllProducts() publ...\n      CALLVALUE \t\t\tfunction getAllProducts() publ...\n      DUP1 \t\t\tfunction getAllProducts() publ...\n      ISZERO \t\t\tfunction getAllProducts() publ...\n      PUSH [tag] 8\t\t\tfunction getAllProducts() publ...\n      JUMPI \t\t\tfunction getAllProducts() publ...\n      PUSH 0\t\t\tfunction getAllProducts() publ...\n      DUP1 \t\t\tfunction getAllProducts() publ...\n      REVERT \t\t\tfunction getAllProducts() publ...\n    tag 8\t\t\tfunction getAllProducts() publ...\n      JUMPDEST \t\t\tfunction getAllProducts() publ...\n      POP \t\t\tfunction getAllProducts() publ...\n      PUSH [tag] 9\t\t\tfunction getAllProducts() publ...\n      PUSH [tag] 10\t\t\tfunction getAllProducts() publ...\n      JUMP \t\t\tfunction getAllProducts() publ...\n    tag 9\t\t\tfunction getAllProducts() publ...\n      JUMPDEST \t\t\tfunction getAllProducts() publ...\n      PUSH 40\t\t\tfunction getAllProducts() publ...\n      MLOAD \t\t\tfunction getAllProducts() publ...\n      PUSH [tag] 11\t\t\tfunction getAllProducts() publ...\n      SWAP2 \t\t\tfunction getAllProducts() publ...\n      SWAP1 \t\t\tfunction getAllProducts() publ...\n      PUSH [tag] 12\t\t\tfunction getAllProducts() publ...\n      JUMP \t\t\tfunction getAllProducts() publ...\n    tag 11\t\t\tfunction getAllProducts() publ...\n      JUMPDEST \t\t\tfunction getAllProducts() publ...\n      PUSH 40\t\t\tfunction getAllProducts() publ...\n      MLOAD \t\t\tfunction getAllProducts() publ...\n      DUP1 \t\t\tfunction getAllProducts() publ...\n      SWAP2 \t\t\tfunction getAllProducts() publ...\n      SUB \t\t\tfunction getAllProducts() publ...\n      SWAP1 \t\t\tfunction getAllProducts() publ...\n      RETURN \t\t\tfunction getAllProducts() publ...\n    tag 3\t\t\tfunction purchaseProduct(uint ...\n      JUMPDEST \t\t\tfunction purchaseProduct(uint ...\n      PUSH [tag] 13\t\t\tfunction purchaseProduct(uint ...\n      PUSH 4\t\t\tfunction purchaseProduct(uint ...\n      DUP1 \t\t\tfunction purchaseProduct(uint ...\n      CALLDATASIZE \t\t\tfunction purchaseProduct(uint ...\n      SUB \t\t\tfunction purchaseProduct(uint ...\n      DUP2 \t\t\tfunction purchaseProduct(uint ...\n      ADD \t\t\tfunction purchaseProduct(uint ...\n      SWAP1 \t\t\tfunction purchaseProduct(uint ...\n      PUSH [tag] 14\t\t\tfunction purchaseProduct(uint ...\n      SWAP2 \t\t\tfunction purchaseProduct(uint ...\n      SWAP1 \t\t\tfunction purchaseProduct(uint ...\n      PUSH [tag] 15\t\t\tfunction purchaseProduct(uint ...\n      JUMP \t\t\tfunction purchaseProduct(uint ...\n    tag 14\t\t\tfunction purchaseProduct(uint ...\n      JUMPDEST \t\t\tfunction purchaseProduct(uint ...\n      PUSH [tag] 16\t\t\tfunction purchaseProduct(uint ...\n      JUMP \t\t\tfunction purchaseProduct(uint ...\n    tag 13\t\t\tfunction purchaseProduct(uint ...\n      JUMPDEST \t\t\tfunction purchaseProduct(uint ...\n      STOP \t\t\tfunction purchaseProduct(uint ...\n    tag 4\t\t\tfunction getProductById(uint _...\n      JUMPDEST \t\t\tfunction getProductById(uint _...\n      CALLVALUE \t\t\tfunction getProductById(uint _...\n      DUP1 \t\t\tfunction getProductById(uint _...\n      ISZERO \t\t\tfunction getProductById(uint _...\n      PUSH [tag] 17\t\t\tfunction getProductById(uint _...\n      JUMPI \t\t\tfunction getProductById(uint _...\n      PUSH 0\t\t\tfunction getProductById(uint _...\n      DUP1 \t\t\tfunction getProductById(uint _...\n      REVERT \t\t\tfunction getProductById(uint _...\n    tag 17\t\t\tfunction getProductById(uint _...\n      JUMPDEST \t\t\tfunction getProductById(uint _...\n      POP \t\t\tfunction getProductById(uint _...\n      PUSH [tag] 18\t\t\tfunction getProductById(uint _...\n      PUSH 4\t\t\tfunction getProductById(uint _...\n      DUP1 \t\t\tfunction getProductById(uint _...\n      CALLDATASIZE \t\t\tfunction getProductById(uint _...\n      SUB \t\t\tfunction getProductById(uint _...\n      DUP2 \t\t\tfunction getProductById(uint _...\n      ADD \t\t\tfunction getProductById(uint _...\n      SWAP1 \t\t\tfunction getProductById(uint _...\n      PUSH [tag] 19\t\t\tfunction getProductById(uint _...\n      SWAP2 \t\t\tfunction getProductById(uint _...\n      SWAP1 \t\t\tfunction getProductById(uint _...\n      PUSH [tag] 15\t\t\tfunction getProductById(uint _...\n      JUMP \t\t\tfunction getProductById(uint _...\n    tag 19\t\t\tfunction getProductById(uint _...\n      JUMPDEST \t\t\tfunction getProductById(uint _...\n      PUSH [tag] 20\t\t\tfunction getProductById(uint _...\n      JUMP \t\t\tfunction getProductById(uint _...\n    tag 18\t\t\tfunction getProductById(uint _...\n      JUMPDEST \t\t\tfunction getProductById(uint _...\n      PUSH 40\t\t\tfunction getProductById(uint _...\n      MLOAD \t\t\tfunction getProductById(uint _...\n      PUSH [tag] 21\t\t\tfunction getProductById(uint _...\n      SWAP2 \t\t\tfunction getProductById(uint _...\n      SWAP1 \t\t\tfunction getProductById(uint _...\n      PUSH [tag] 22\t\t\tfunction getProductById(uint _...\n      JUMP \t\t\tfunction getProductById(uint _...\n    tag 21\t\t\tfunction getProductById(uint _...\n      JUMPDEST \t\t\tfunction getProductById(uint _...\n      PUSH 40\t\t\tfunction getProductById(uint _...\n      MLOAD \t\t\tfunction getProductById(uint _...\n      DUP1 \t\t\tfunction getProductById(uint _...\n      SWAP2 \t\t\tfunction getProductById(uint _...\n      SUB \t\t\tfunction getProductById(uint _...\n      SWAP1 \t\t\tfunction getProductById(uint _...\n      RETURN \t\t\tfunction getProductById(uint _...\n    tag 5\t\t\tProduct[] public products\n      JUMPDEST \t\t\tProduct[] public products\n      CALLVALUE \t\t\tProduct[] public products\n      DUP1 \t\t\tProduct[] public products\n      ISZERO \t\t\tProduct[] public products\n      PUSH [tag] 23\t\t\tProduct[] public products\n      JUMPI \t\t\tProduct[] public products\n      PUSH 0\t\t\tProduct[] public products\n      DUP1 \t\t\tProduct[] public products\n      REVERT \t\t\tProduct[] public products\n    tag 23\t\t\tProduct[] public products\n      JUMPDEST \t\t\tProduct[] public products\n      POP \t\t\tProduct[] public products\n      PUSH [tag] 24\t\t\tProduct[] public products\n      PUSH 4\t\t\tProduct[] public products\n      DUP1 \t\t\tProduct[] public products\n      CALLDATASIZE \t\t\tProduct[] public products\n      SUB \t\t\tProduct[] public products\n      DUP2 \t\t\tProduct[] public products\n      ADD \t\t\tProduct[] public products\n      SWAP1 \t\t\tProduct[] public products\n      PUSH [tag] 25\t\t\tProduct[] public products\n      SWAP2 \t\t\tProduct[] public products\n      SWAP1 \t\t\tProduct[] public products\n      PUSH [tag] 15\t\t\tProduct[] public products\n      JUMP \t\t\tProduct[] public products\n    tag 25\t\t\tProduct[] public products\n      JUMPDEST \t\t\tProduct[] public products\n      PUSH [tag] 26\t\t\tProduct[] public products\n      JUMP \t\t\tProduct[] public products\n    tag 24\t\t\tProduct[] public products\n      JUMPDEST \t\t\tProduct[] public products\n      PUSH 40\t\t\tProduct[] public products\n      MLOAD \t\t\tProduct[] public products\n      PUSH [tag] 27\t\t\tProduct[] public products\n      SWAP9 \t\t\tProduct[] public products\n      SWAP8 \t\t\tProduct[] public products\n      SWAP7 \t\t\tProduct[] public products\n      SWAP6 \t\t\tProduct[] public products\n      SWAP5 \t\t\tProduct[] public products\n      SWAP4 \t\t\tProduct[] public products\n      SWAP3 \t\t\tProduct[] public products\n      SWAP2 \t\t\tProduct[] public products\n      SWAP1 \t\t\tProduct[] public products\n      PUSH [tag] 28\t\t\tProduct[] public products\n      JUMP \t\t\tProduct[] public products\n    tag 27\t\t\tProduct[] public products\n      JUMPDEST \t\t\tProduct[] public products\n      PUSH 40\t\t\tProduct[] public products\n      MLOAD \t\t\tProduct[] public products\n      DUP1 \t\t\tProduct[] public products\n      SWAP2 \t\t\tProduct[] public products\n      SUB \t\t\tProduct[] public products\n      SWAP1 \t\t\tProduct[] public products\n      RETURN \t\t\tProduct[] public products\n    tag 6\t\t\tfunction listProduct(string me...\n      JUMPDEST \t\t\tfunction listProduct(string me...\n      CALLVALUE \t\t\tfunction listProduct(string me...\n      DUP1 \t\t\tfunction listProduct(string me...\n      ISZERO \t\t\tfunction listProduct(string me...\n      PUSH [tag] 29\t\t\tfunction listProduct(string me...\n      JUMPI \t\t\tfunction listProduct(string me...\n      PUSH 0\t\t\tfunction listProduct(string me...\n      DUP1 \t\t\tfunction listProduct(string me...\n      REVERT \t\t\tfunction listProduct(string me...\n    tag 29\t\t\tfunction listProduct(string me...\n      JUMPDEST \t\t\tfunction listProduct(string me...\n      POP \t\t\tfunction listProduct(string me...\n      PUSH [tag] 30\t\t\tfunction listProduct(string me...\n      PUSH 4\t\t\tfunction listProduct(string me...\n      DUP1 \t\t\tfunction listProduct(string me...\n      CALLDATASIZE \t\t\tfunction listProduct(string me...\n      SUB \t\t\tfunction listProduct(string me...\n      DUP2 \t\t\tfunction listProduct(string me...\n      ADD \t\t\tfunction listProduct(string me...\n      SWAP1 \t\t\tfunction listProduct(string me...\n      PUSH [tag] 31\t\t\tfunction listProduct(string me...\n      SWAP2 \t\t\tfunction listProduct(string me...\n      SWAP1 \t\t\tfunction listProduct(string me...\n      PUSH [tag] 32\t\t\tfunction listProduct(string me...\n      JUMP \t\t\tfunction listProduct(string me...\n    tag 31\t\t\tfunction listProduct(string me...\n      JUMPDEST \t\t\tfunction listProduct(string me...\n      PUSH [tag] 33\t\t\tfunction listProduct(string me...\n      JUMP \t\t\tfunction listProduct(string me...\n    tag 30\t\t\tfunction listProduct(string me...\n      JUMPDEST \t\t\tfunction listProduct(string me...\n      STOP \t\t\tfunction listProduct(string me...\n    tag 7\t\t\tuint public productCount\n      JUMPDEST \t\t\tuint public productCount\n      CALLVALUE \t\t\tuint public productCount\n      DUP1 \t\t\tuint public productCount\n      ISZERO \t\t\tuint public productCount\n      PUSH [tag] 34\t\t\tuint public productCount\n      JUMPI \t\t\tuint public productCount\n      PUSH 0\t\t\tuint public productCount\n      DUP1 \t\t\tuint public productCount\n      REVERT \t\t\tuint public productCount\n    tag 34\t\t\tuint public productCount\n      JUMPDEST \t\t\tuint public productCount\n      POP \t\t\tuint public productCount\n      PUSH [tag] 35\t\t\tuint public productCount\n      PUSH [tag] 36\t\t\tuint public productCount\n      JUMP \t\t\tuint public productCount\n    tag 35\t\t\tuint public productCount\n      JUMPDEST \t\t\tuint public productCount\n      PUSH 40\t\t\tuint public productCount\n      MLOAD \t\t\tuint public productCount\n      PUSH [tag] 37\t\t\tuint public productCount\n      SWAP2 \t\t\tuint public productCount\n      SWAP1 \t\t\tuint public productCount\n      PUSH [tag] 38\t\t\tuint public productCount\n      JUMP \t\t\tuint public productCount\n    tag 37\t\t\tuint public productCount\n      JUMPDEST \t\t\tuint public productCount\n      PUSH 40\t\t\tuint public productCount\n      MLOAD \t\t\tuint public productCount\n      DUP1 \t\t\tuint public productCount\n      SWAP2 \t\t\tuint public productCount\n      SUB \t\t\tuint public productCount\n      SWAP1 \t\t\tuint public productCount\n      RETURN \t\t\tuint public productCount\n    tag 10\t\t\tfunction getAllProducts() publ...\n      JUMPDEST \t\t\tfunction getAllProducts() publ...\n      PUSH 60\t\t\tProduct[] memory\n      PUSH 0\t\t\tproducts\n      DUP1 \t\t\treturn products\n      SLOAD \t\t\treturn products\n      DUP1 \t\t\treturn products\n      PUSH 20\t\t\treturn products\n      MUL \t\t\treturn products\n      PUSH 20\t\t\treturn products\n      ADD \t\t\treturn products\n      PUSH 40\t\t\treturn products\n      MLOAD \t\t\treturn products\n      SWAP1 \t\t\treturn products\n      DUP2 \t\t\treturn products\n      ADD \t\t\treturn products\n      PUSH 40\t\t\treturn products\n      MSTORE \t\t\treturn products\n      DUP1 \t\t\treturn products\n      SWAP3 \t\t\treturn products\n      SWAP2 \t\t\treturn products\n      SWAP1 \t\t\treturn products\n      DUP2 \t\t\treturn products\n      DUP2 \t\t\treturn products\n      MSTORE \t\t\treturn products\n      PUSH 20\t\t\treturn products\n      ADD \t\t\treturn products\n      PUSH 0\t\t\treturn products\n      SWAP1 \t\t\treturn products\n    tag 40\t\t\treturn products\n      JUMPDEST \t\t\treturn products\n      DUP3 \t\t\treturn products\n      DUP3 \t\t\treturn products\n      LT \t\t\treturn products\n      ISZERO \t\t\treturn products\n      PUSH [tag] 41\t\t\treturn products\n      JUMPI \t\t\treturn products\n      DUP4 \t\t\treturn products\n      DUP3 \t\t\treturn products\n      SWAP1 \t\t\treturn products\n      PUSH 0\t\t\treturn products\n      MSTORE \t\t\treturn products\n      PUSH 20\t\t\treturn products\n      PUSH 0\t\t\treturn products\n      KECCAK256 \t\t\treturn products\n      SWAP1 \t\t\treturn products\n      PUSH 8\t\t\treturn products\n      MUL \t\t\treturn products\n      ADD \t\t\treturn products\n      PUSH 40\t\t\treturn products\n      MLOAD \t\t\treturn products\n      DUP1 \t\t\treturn products\n      PUSH 100\t\t\treturn products\n      ADD \t\t\treturn products\n      PUSH 40\t\t\treturn products\n      MSTORE \t\t\treturn products\n      SWAP1 \t\t\treturn products\n      DUP2 \t\t\treturn products\n      PUSH 0\t\t\treturn products\n      DUP3 \t\t\treturn products\n      ADD \t\t\treturn products\n      SLOAD \t\t\treturn products\n      DUP2 \t\t\treturn products\n      MSTORE \t\t\treturn products\n      PUSH 20\t\t\treturn products\n      ADD \t\t\treturn products\n      PUSH 1\t\t\treturn products\n      DUP3 \t\t\treturn products\n      ADD \t\t\treturn products\n      PUSH 0\t\t\treturn products\n      SWAP1 \t\t\treturn products\n      SLOAD \t\t\treturn products\n      SWAP1 \t\t\treturn products\n      PUSH 100\t\t\treturn products\n      EXP \t\t\treturn products\n      SWAP1 \t\t\treturn products\n      DIV \t\t\treturn products\n      PUSH FFFFFFFFFFFFFFFFFFFFFFFFFFFFFFFFFFFFFFFF\t\t\treturn products\n      AND \t\t\treturn products\n      PUSH FFFFFFFFFFFFFFFFFFFFFFFFFFFFFFFFFFFFFFFF\t\t\treturn products\n      AND \t\t\treturn products\n      PUSH FFFFFFFFFFFFFFFFFFFFFFFFFFFFFFFFFFFFFFFF\t\t\treturn products\n      AND \t\t\treturn products\n      DUP2 \t\t\treturn products\n      MSTORE \t\t\treturn products\n      PUSH 20\t\t\treturn products\n      ADD \t\t\treturn products\n      PUSH 2\t\t\treturn products\n      DUP3 \t\t\treturn products\n      ADD \t\t\treturn products\n      PUSH 0\t\t\treturn products\n      SWAP1 \t\t\treturn products\n      SLOAD \t\t\treturn products\n      SWAP1 \t\t\treturn products\n      PUSH 100\t\t\treturn products\n      EXP \t\t\treturn products\n      SWAP1 \t\t\treturn products\n      DIV \t\t\treturn products\n      PUSH FFFFFFFFFFFFFFFFFFFFFFFFFFFFFFFFFFFFFFFF\t\t\treturn products\n      AND \t\t\treturn products\n      PUSH FFFFFFFFFFFFFFFFFFFFFFFFFFFFFFFFFFFFFFFF\t\t\treturn products\n      AND \t\t\treturn products\n      PUSH FFFFFFFFFFFFFFFFFFFFFFFFFFFFFFFFFFFFFFFF\t\t\treturn products\n      AND \t\t\treturn products\n      DUP2 \t\t\treturn products\n      MSTORE \t\t\treturn products\n      PUSH 20\t\t\treturn products\n      ADD \t\t\treturn products\n      PUSH 3\t\t\treturn products\n      DUP3 \t\t\treturn products\n      ADD \t\t\treturn products\n      DUP1 \t\t\treturn products\n      SLOAD \t\t\treturn products\n      PUSH [tag] 43\t\t\treturn products\n      SWAP1 \t\t\treturn products\n      PUSH [tag] 44\t\t\treturn products\n      JUMP \t\t\treturn products\n    tag 43\t\t\treturn products\n      JUMPDEST \t\t\treturn products\n      DUP1 \t\t\treturn products\n      PUSH 1F\t\t\treturn products\n      ADD \t\t\treturn products\n      PUSH 20\t\t\treturn products\n      DUP1 \t\t\treturn products\n      SWAP2 \t\t\treturn products\n      DIV \t\t\treturn products\n      MUL \t\t\treturn products\n      PUSH 20\t\t\treturn products\n      ADD \t\t\treturn products\n      PUSH 40\t\t\treturn products\n      MLOAD \t\t\treturn products\n      SWAP1 \t\t\treturn products\n      DUP2 \t\t\treturn products\n      ADD \t\t\treturn products\n      PUSH 40\t\t\treturn products\n      MSTORE \t\t\treturn products\n      DUP1 \t\t\treturn products\n      SWAP3 \t\t\treturn products\n      SWAP2 \t\t\treturn products\n      SWAP1 \t\t\treturn products\n      DUP2 \t\t\treturn products\n      DUP2 \t\t\treturn products\n      MSTORE \t\t\treturn products\n      PUSH 20\t\t\treturn products\n      ADD \t\t\treturn products\n      DUP3 \t\t\treturn products\n      DUP1 \t\t\treturn products\n      SLOAD \t\t\treturn products\n      PUSH [tag] 45\t\t\treturn products\n      SWAP1 \t\t\treturn products\n      PUSH [tag] 44\t\t\treturn products\n      JUMP \t\t\treturn products\n    tag 45\t\t\treturn products\n      JUMPDEST \t\t\treturn products\n      DUP1 \t\t\treturn products\n      ISZERO \t\t\treturn products\n      PUSH [tag] 46\t\t\treturn products\n      JUMPI \t\t\treturn products\n      DUP1 \t\t\treturn products\n      PUSH 1F\t\t\treturn products\n      LT \t\t\treturn products\n      PUSH [tag] 47\t\t\treturn products\n      JUMPI \t\t\treturn products\n      PUSH 100\t\t\treturn products\n      DUP1 \t\t\treturn products\n      DUP4 \t\t\treturn products\n      SLOAD \t\t\treturn products\n      DIV \t\t\treturn products\n      MUL \t\t\treturn products\n      DUP4 \t\t\treturn products\n      MSTORE \t\t\treturn products\n      SWAP2 \t\t\treturn products\n      PUSH 20\t\t\treturn products\n      ADD \t\t\treturn products\n      SWAP2 \t\t\treturn products\n      PUSH [tag] 46\t\t\treturn products\n      JUMP \t\t\treturn products\n    tag 47\t\t\treturn products\n      JUMPDEST \t\t\treturn products\n      DUP3 \t\t\treturn products\n      ADD \t\t\treturn products\n      SWAP2 \t\t\treturn products\n      SWAP1 \t\t\treturn products\n      PUSH 0\t\t\treturn products\n      MSTORE \t\t\treturn products\n      PUSH 20\t\t\treturn products\n      PUSH 0\t\t\treturn products\n      KECCAK256 \t\t\treturn products\n      SWAP1 \t\t\treturn products\n    tag 48\t\t\treturn products\n      JUMPDEST \t\t\treturn products\n      DUP2 \t\t\treturn products\n      SLOAD \t\t\treturn products\n      DUP2 \t\t\treturn products\n      MSTORE \t\t\treturn products\n      SWAP1 \t\t\treturn products\n      PUSH 1\t\t\treturn products\n      ADD \t\t\treturn products\n      SWAP1 \t\t\treturn products\n      PUSH 20\t\t\treturn products\n      ADD \t\t\treturn products\n      DUP1 \t\t\treturn products\n      DUP4 \t\t\treturn products\n      GT \t\t\treturn products\n      PUSH [tag] 48\t\t\treturn products\n      JUMPI \t\t\treturn products\n      DUP3 \t\t\treturn products\n      SWAP1 \t\t\treturn products\n      SUB \t\t\treturn products\n      PUSH 1F\t\t\treturn products\n      AND \t\t\treturn products\n      DUP3 \t\t\treturn products\n      ADD \t\t\treturn products\n      SWAP2 \t\t\treturn products\n    tag 46\t\t\treturn products\n      JUMPDEST \t\t\treturn products\n      POP \t\t\treturn products\n      POP \t\t\treturn products\n      POP \t\t\treturn products\n      POP \t\t\treturn products\n      POP \t\t\treturn products\n      DUP2 \t\t\treturn products\n      MSTORE \t\t\treturn products\n      PUSH 20\t\t\treturn products\n      ADD \t\t\treturn products\n      PUSH 4\t\t\treturn products\n      DUP3 \t\t\treturn products\n      ADD \t\t\treturn products\n      DUP1 \t\t\treturn products\n      SLOAD \t\t\treturn products\n      PUSH [tag] 49\t\t\treturn products\n      SWAP1 \t\t\treturn products\n      PUSH [tag] 44\t\t\treturn products\n      JUMP \t\t\treturn products\n    tag 49\t\t\treturn products\n      JUMPDEST \t\t\treturn products\n      DUP1 \t\t\treturn products\n      PUSH 1F\t\t\treturn products\n      ADD \t\t\treturn products\n      PUSH 20\t\t\treturn products\n      DUP1 \t\t\treturn products\n      SWAP2 \t\t\treturn products\n      DIV \t\t\treturn products\n      MUL \t\t\treturn products\n      PUSH 20\t\t\treturn products\n      ADD \t\t\treturn products\n      PUSH 40\t\t\treturn products\n      MLOAD \t\t\treturn products\n      SWAP1 \t\t\treturn products\n      DUP2 \t\t\treturn products\n      ADD \t\t\treturn products\n      PUSH 40\t\t\treturn products\n      MSTORE \t\t\treturn products\n      DUP1 \t\t\treturn products\n      SWAP3 \t\t\treturn products\n      SWAP2 \t\t\treturn products\n      SWAP1 \t\t\treturn products\n      DUP2 \t\t\treturn products\n      DUP2 \t\t\treturn products\n      MSTORE \t\t\treturn products\n      PUSH 20\t\t\treturn products\n      ADD \t\t\treturn products\n      DUP3 \t\t\treturn products\n      DUP1 \t\t\treturn products\n      SLOAD \t\t\treturn products\n      PUSH [tag] 50\t\t\treturn products\n      SWAP1 \t\t\treturn products\n      PUSH [tag] 44\t\t\treturn products\n      JUMP \t\t\treturn products\n    tag 50\t\t\treturn products\n      JUMPDEST \t\t\treturn products\n      DUP1 \t\t\treturn products\n      ISZERO \t\t\treturn products\n      PUSH [tag] 51\t\t\treturn products\n      JUMPI \t\t\treturn products\n      DUP1 \t\t\treturn products\n      PUSH 1F\t\t\treturn products\n      LT \t\t\treturn products\n      PUSH [tag] 52\t\t\treturn products\n      JUMPI \t\t\treturn products\n      PUSH 100\t\t\treturn products\n      DUP1 \t\t\treturn products\n      DUP4 \t\t\treturn products\n      SLOAD \t\t\treturn products\n      DIV \t\t\treturn products\n      MUL \t\t\treturn products\n      DUP4 \t\t\treturn products\n      MSTORE \t\t\treturn products\n      SWAP2 \t\t\treturn products\n      PUSH 20\t\t\treturn products\n      ADD \t\t\treturn products\n      SWAP2 \t\t\treturn products\n      PUSH [tag] 51\t\t\treturn products\n      JUMP \t\t\treturn products\n    tag 52\t\t\treturn products\n      JUMPDEST \t\t\treturn products\n      DUP3 \t\t\treturn products\n      ADD \t\t\treturn products\n      SWAP2 \t\t\treturn products\n      SWAP1 \t\t\treturn products\n      PUSH 0\t\t\treturn products\n      MSTORE \t\t\treturn products\n      PUSH 20\t\t\treturn products\n      PUSH 0\t\t\treturn products\n      KECCAK256 \t\t\treturn products\n      SWAP1 \t\t\treturn products\n    tag 53\t\t\treturn products\n      JUMPDEST \t\t\treturn products\n      DUP2 \t\t\treturn products\n      SLOAD \t\t\treturn products\n      DUP2 \t\t\treturn products\n      MSTORE \t\t\treturn products\n      SWAP1 \t\t\treturn products\n      PUSH 1\t\t\treturn products\n      ADD \t\t\treturn products\n      SWAP1 \t\t\treturn products\n      PUSH 20\t\t\treturn products\n      ADD \t\t\treturn products\n      DUP1 \t\t\treturn products\n      DUP4 \t\t\treturn products\n      GT \t\t\treturn products\n      PUSH [tag] 53\t\t\treturn products\n      JUMPI \t\t\treturn products\n      DUP3 \t\t\treturn products\n      SWAP1 \t\t\treturn products\n      SUB \t\t\treturn products\n      PUSH 1F\t\t\treturn products\n      AND \t\t\treturn products\n      DUP3 \t\t\treturn products\n      ADD \t\t\treturn products\n      SWAP2 \t\t\treturn products\n    tag 51\t\t\treturn products\n      JUMPDEST \t\t\treturn products\n      POP \t\t\treturn products\n      POP \t\t\treturn products\n      POP \t\t\treturn products\n      POP \t\t\treturn products\n      POP \t\t\treturn products\n      DUP2 \t\t\treturn products\n      MSTORE \t\t\treturn products\n      PUSH 20\t\t\treturn products\n      ADD \t\t\treturn products\n      PUSH 5\t\t\treturn products\n      DUP3 \t\t\treturn products\n      ADD \t\t\treturn products\n      DUP1 \t\t\treturn products\n      SLOAD \t\t\treturn products\n      PUSH [tag] 54\t\t\treturn products\n      SWAP1 \t\t\treturn products\n      PUSH [tag] 44\t\t\treturn products\n      JUMP \t\t\treturn products\n    tag 54\t\t\treturn products\n      JUMPDEST \t\t\treturn products\n      DUP1 \t\t\treturn products\n      PUSH 1F\t\t\treturn products\n      ADD \t\t\treturn products\n      PUSH 20\t\t\treturn products\n      DUP1 \t\t\treturn products\n      SWAP2 \t\t\treturn products\n      DIV \t\t\treturn products\n      MUL \t\t\treturn products\n      PUSH 20\t\t\treturn products\n      ADD \t\t\treturn products\n      PUSH 40\t\t\treturn products\n      MLOAD \t\t\treturn products\n      SWAP1 \t\t\treturn products\n      DUP2 \t\t\treturn products\n      ADD \t\t\treturn products\n      PUSH 40\t\t\treturn products\n      MSTORE \t\t\treturn products\n      DUP1 \t\t\treturn products\n      SWAP3 \t\t\treturn products\n      SWAP2 \t\t\treturn products\n      SWAP1 \t\t\treturn products\n      DUP2 \t\t\treturn products\n      DUP2 \t\t\treturn products\n      MSTORE \t\t\treturn products\n      PUSH 20\t\t\treturn products\n      ADD \t\t\treturn products\n      DUP3 \t\t\treturn products\n      DUP1 \t\t\treturn products\n      SLOAD \t\t\treturn products\n      PUSH [tag] 55\t\t\treturn products\n      SWAP1 \t\t\treturn products\n      PUSH [tag] 44\t\t\treturn products\n      JUMP \t\t\treturn products\n    tag 55\t\t\treturn products\n      JUMPDEST \t\t\treturn products\n      DUP1 \t\t\treturn products\n      ISZERO \t\t\treturn products\n      PUSH [tag] 56\t\t\treturn products\n      JUMPI \t\t\treturn products\n      DUP1 \t\t\treturn products\n      PUSH 1F\t\t\treturn products\n      LT \t\t\treturn products\n      PUSH [tag] 57\t\t\treturn products\n      JUMPI \t\t\treturn products\n      PUSH 100\t\t\treturn products\n      DUP1 \t\t\treturn products\n      DUP4 \t\t\treturn products\n      SLOAD \t\t\treturn products\n      DIV \t\t\treturn products\n      MUL \t\t\treturn products\n      DUP4 \t\t\treturn products\n      MSTORE \t\t\treturn products\n      SWAP2 \t\t\treturn products\n      PUSH 20\t\t\treturn products\n      ADD \t\t\treturn products\n      SWAP2 \t\t\treturn products\n      PUSH [tag] 56\t\t\treturn products\n      JUMP \t\t\treturn products\n    tag 57\t\t\treturn products\n      JUMPDEST \t\t\treturn products\n      DUP3 \t\t\treturn products\n      ADD \t\t\treturn products\n      SWAP2 \t\t\treturn products\n      SWAP1 \t\t\treturn products\n      PUSH 0\t\t\treturn products\n      MSTORE \t\t\treturn products\n      PUSH 20\t\t\treturn products\n      PUSH 0\t\t\treturn products\n      KECCAK256 \t\t\treturn products\n      SWAP1 \t\t\treturn products\n    tag 58\t\t\treturn products\n      JUMPDEST \t\t\treturn products\n      DUP2 \t\t\treturn products\n      SLOAD \t\t\treturn products\n      DUP2 \t\t\treturn products\n      MSTORE \t\t\treturn products\n      SWAP1 \t\t\treturn products\n      PUSH 1\t\t\treturn products\n      ADD \t\t\treturn products\n      SWAP1 \t\t\treturn products\n      PUSH 20\t\t\treturn products\n      ADD \t\t\treturn products\n      DUP1 \t\t\treturn products\n      DUP4 \t\t\treturn products\n      GT \t\t\treturn products\n      PUSH [tag] 58\t\t\treturn products\n      JUMPI \t\t\treturn products\n      DUP3 \t\t\treturn products\n      SWAP1 \t\t\treturn products\n      SUB \t\t\treturn products\n      PUSH 1F\t\t\treturn products\n      AND \t\t\treturn products\n      DUP3 \t\t\treturn products\n      ADD \t\t\treturn products\n      SWAP2 \t\t\treturn products\n    tag 56\t\t\treturn products\n      JUMPDEST \t\t\treturn products\n      POP \t\t\treturn products\n      POP \t\t\treturn products\n      POP \t\t\treturn products\n      POP \t\t\treturn products\n      POP \t\t\treturn products\n      DUP2 \t\t\treturn products\n      MSTORE \t\t\treturn products\n      PUSH 20\t\t\treturn products\n      ADD \t\t\treturn products\n      PUSH 6\t\t\treturn products\n      DUP3 \t\t\treturn products\n      ADD \t\t\treturn products\n      SLOAD \t\t\treturn products\n      DUP2 \t\t\treturn products\n      MSTORE \t\t\treturn products\n      PUSH 20\t\t\treturn products\n      ADD \t\t\treturn products\n      PUSH 7\t\t\treturn products\n      DUP3 \t\t\treturn products\n      ADD \t\t\treturn products\n      PUSH 0\t\t\treturn products\n      SWAP1 \t\t\treturn products\n      SLOAD \t\t\treturn products\n      SWAP1 \t\t\treturn products\n      PUSH 100\t\t\treturn products\n      EXP \t\t\treturn products\n      SWAP1 \t\t\treturn products\n      DIV \t\t\treturn products\n      PUSH FF\t\t\treturn products\n      AND \t\t\treturn products\n      ISZERO \t\t\treturn products\n      ISZERO \t\t\treturn products\n      ISZERO \t\t\treturn products\n      ISZERO \t\t\treturn products\n      DUP2 \t\t\treturn products\n      MSTORE \t\t\treturn products\n      POP \t\t\treturn products\n      POP \t\t\treturn products\n      DUP2 \t\t\treturn products\n      MSTORE \t\t\treturn products\n      PUSH 20\t\t\treturn products\n      ADD \t\t\treturn products\n      SWAP1 \t\t\treturn products\n      PUSH 1\t\t\treturn products\n      ADD \t\t\treturn products\n      SWAP1 \t\t\treturn products\n      PUSH [tag] 40\t\t\treturn products\n      JUMP \t\t\treturn products\n    tag 41\t\t\treturn products\n      JUMPDEST \t\t\treturn products\n      POP \t\t\treturn products\n      POP \t\t\treturn products\n      POP \t\t\treturn products\n      POP \t\t\treturn products\n      SWAP1 \t\t\treturn products\n      POP \t\t\treturn products\n      SWAP1 \t\t\tfunction getAllProducts() publ...\n      JUMP \t\t\tfunction getAllProducts() publ...\n    tag 16\t\t\tfunction purchaseProduct(uint ...\n      JUMPDEST \t\t\tfunction purchaseProduct(uint ...\n      PUSH 1\t\t\tproductCount\n      SLOAD \t\t\tproductCount\n      DUP2 \t\t\t_id\n      LT \t\t\t_id < productCount\n      PUSH [tag] 60\t\t\trequire(_id < productCount, \"I...\n      JUMPI \t\t\trequire(_id < productCount, \"I...\n      PUSH 40\t\t\trequire(_id < productCount, \"I...\n      MLOAD \t\t\trequire(_id < productCount, \"I...\n      PUSH 8C379A000000000000000000000000000000000000000000000000000000000\t\t\trequire(_id < productCount, \"I...\n      DUP2 \t\t\trequire(_id < productCount, \"I...\n      MSTORE \t\t\trequire(_id < productCount, \"I...\n      PUSH 4\t\t\trequire(_id < productCount, \"I...\n      ADD \t\t\trequire(_id < productCount, \"I...\n      PUSH [tag] 61\t\t\trequire(_id < productCount, \"I...\n      SWAP1 \t\t\trequire(_id < productCount, \"I...\n      PUSH [tag] 62\t\t\trequire(_id < productCount, \"I...\n      JUMP \t\t\trequire(_id < productCount, \"I...\n    tag 61\t\t\trequire(_id < productCount, \"I...\n      JUMPDEST \t\t\trequire(_id < productCount, \"I...\n      PUSH 40\t\t\trequire(_id < productCount, \"I...\n      MLOAD \t\t\trequire(_id < productCount, \"I...\n      DUP1 \t\t\trequire(_id < productCount, \"I...\n      SWAP2 \t\t\trequire(_id < productCount, \"I...\n      SUB \t\t\trequire(_id < productCount, \"I...\n      SWAP1 \t\t\trequire(_id < productCount, \"I...\n      REVERT \t\t\trequire(_id < productCount, \"I...\n    tag 60\t\t\trequire(_id < productCount, \"I...\n      JUMPDEST \t\t\trequire(_id < productCount, \"I...\n      PUSH 0\t\t\tProduct storage selectedProduc...\n      DUP1 \t\t\tproducts\n      DUP3 \t\t\t_id\n      DUP2 \t\t\tproducts[_id]\n      SLOAD \t\t\tproducts[_id]\n      DUP2 \t\t\tproducts[_id]\n      LT \t\t\tproducts[_id]\n      PUSH [tag] 63\t\t\tproducts[_id]\n      JUMPI \t\t\tproducts[_id]\n      PUSH [tag] 64\t\t\tproducts[_id]\n      PUSH [tag] 65\t\t\tproducts[_id]\n      JUMP \t\t\tproducts[_id]\n    tag 64\t\t\tproducts[_id]\n      JUMPDEST \t\t\tproducts[_id]\n    tag 63\t\t\tproducts[_id]\n      JUMPDEST \t\t\tproducts[_id]\n      SWAP1 \t\t\tproducts[_id]\n      PUSH 0\t\t\tproducts[_id]\n      MSTORE \t\t\tproducts[_id]\n      PUSH 20\t\t\tproducts[_id]\n      PUSH 0\t\t\tproducts[_id]\n      KECCAK256 \t\t\tproducts[_id]\n      SWAP1 \t\t\tproducts[_id]\n      PUSH 8\t\t\tproducts[_id]\n      MUL \t\t\tproducts[_id]\n      ADD \t\t\tproducts[_id]\n      SWAP1 \t\t\tProduct storage selectedProduc...\n      POP \t\t\tProduct storage selectedProduc...\n      DUP1 \t\t\tselectedProduct\n      PUSH 6\t\t\tselectedProduct.price\n      ADD \t\t\tselectedProduct.price\n      SLOAD \t\t\tselectedProduct.price\n      CALLVALUE \t\t\tmsg.value\n      EQ \t\t\tmsg.value == selectedProduct.p...\n      PUSH [tag] 67\t\t\trequire(msg.value == selectedP...\n      JUMPI \t\t\trequire(msg.value == selectedP...\n      PUSH 40\t\t\trequire(msg.value == selectedP...\n      MLOAD \t\t\trequire(msg.value == selectedP...\n      PUSH 8C379A000000000000000000000000000000000000000000000000000000000\t\t\trequire(msg.value == selectedP...\n      DUP2 \t\t\trequire(msg.value == selectedP...\n      MSTORE \t\t\trequire(msg.value == selectedP...\n      PUSH 4\t\t\trequire(msg.value == selectedP...\n      ADD \t\t\trequire(msg.value == selectedP...\n      PUSH [tag] 68\t\t\trequire(msg.value == selectedP...\n      SWAP1 \t\t\trequire(msg.value == selectedP...\n      PUSH [tag] 69\t\t\trequire(msg.value == selectedP...\n      JUMP \t\t\trequire(msg.value == selectedP...\n    tag 68\t\t\trequire(msg.value == selectedP...\n      JUMPDEST \t\t\trequire(msg.value == selectedP...\n      PUSH 40\t\t\trequire(msg.value == selectedP...\n      MLOAD \t\t\trequire(msg.value == selectedP...\n      DUP1 \t\t\trequire(msg.value == selectedP...\n      SWAP2 \t\t\trequire(msg.value == selectedP...\n      SUB \t\t\trequire(msg.value == selectedP...\n      SWAP1 \t\t\trequire(msg.value == selectedP...\n      REVERT \t\t\trequire(msg.value == selectedP...\n    tag 67\t\t\trequire(msg.value == selectedP...\n      JUMPDEST \t\t\trequire(msg.value == selectedP...\n      DUP1 \t\t\tselectedProduct\n      PUSH 7\t\t\tselectedProduct.sold\n      ADD \t\t\tselectedProduct.sold\n      PUSH 0\t\t\tselectedProduct.sold\n      SWAP1 \t\t\tselectedProduct.sold\n      SLOAD \t\t\tselectedProduct.sold\n      SWAP1 \t\t\tselectedProduct.sold\n      PUSH 100\t\t\tselectedProduct.sold\n      EXP \t\t\tselectedProduct.sold\n      SWAP1 \t\t\tselectedProduct.sold\n      DIV \t\t\tselectedProduct.sold\n      PUSH FF\t\t\tselectedProduct.sold\n      AND \t\t\tselectedProduct.sold\n      ISZERO \t\t\t!selectedProduct.sold\n      PUSH [tag] 70\t\t\trequire(!selectedProduct.sold,...\n      JUMPI \t\t\trequire(!selectedProduct.sold,...\n      PUSH 40\t\t\trequire(!selectedProduct.sold,...\n      MLOAD \t\t\trequire(!selectedProduct.sold,...\n      PUSH 8C379A000000000000000000000000000000000000000000000000000000000\t\t\trequire(!selectedProduct.sold,...\n      DUP2 \t\t\trequire(!selectedProduct.sold,...\n      MSTORE \t\t\trequire(!selectedProduct.sold,...\n      PUSH 4\t\t\trequire(!selectedProduct.sold,...\n      ADD \t\t\trequire(!selectedProduct.sold,...\n      PUSH [tag] 71\t\t\trequire(!selectedProduct.sold,...\n      SWAP1 \t\t\trequire(!selectedProduct.sold,...\n      PUSH [tag] 72\t\t\trequire(!selectedProduct.sold,...\n      JUMP \t\t\trequire(!selectedProduct.sold,...\n    tag 71\t\t\trequire(!selectedProduct.sold,...\n      JUMPDEST \t\t\trequire(!selectedProduct.sold,...\n      PUSH 40\t\t\trequire(!selectedProduct.sold,...\n      MLOAD \t\t\trequire(!selectedProduct.sold,...\n      DUP1 \t\t\trequire(!selectedProduct.sold,...\n      SWAP2 \t\t\trequire(!selectedProduct.sold,...\n      SUB \t\t\trequire(!selectedProduct.sold,...\n      SWAP1 \t\t\trequire(!selectedProduct.sold,...\n      REVERT \t\t\trequire(!selectedProduct.sold,...\n    tag 70\t\t\trequire(!selectedProduct.sold,...\n      JUMPDEST \t\t\trequire(!selectedProduct.sold,...\n      DUP1 \t\t\tselectedProduct\n      PUSH 2\t\t\tselectedProduct.owner\n      ADD \t\t\tselectedProduct.owner\n      PUSH 0\t\t\tselectedProduct.owner\n      SWAP1 \t\t\tselectedProduct.owner\n      SLOAD \t\t\tselectedProduct.owner\n      SWAP1 \t\t\tselectedProduct.owner\n      PUSH 100\t\t\tselectedProduct.owner\n      EXP \t\t\tselectedProduct.owner\n      SWAP1 \t\t\tselectedProduct.owner\n      DIV \t\t\tselectedProduct.owner\n      PUSH FFFFFFFFFFFFFFFFFFFFFFFFFFFFFFFFFFFFFFFF\t\t\tselectedProduct.owner\n      AND \t\t\tselectedProduct.owner\n      PUSH FFFFFFFFFFFFFFFFFFFFFFFFFFFFFFFFFFFFFFFF\t\t\tmsg.sender != selectedProduct....\n      AND \t\t\tmsg.sender != selectedProduct....\n      CALLER \t\t\tmsg.sender\n      PUSH FFFFFFFFFFFFFFFFFFFFFFFFFFFFFFFFFFFFFFFF\t\t\tmsg.sender != selectedProduct....\n      AND \t\t\tmsg.sender != selectedProduct....\n      SUB \t\t\tmsg.sender != selectedProduct....\n      PUSH [tag] 73\t\t\trequire(msg.sender != selected...\n      JUMPI \t\t\trequire(msg.sender != selected...\n      PUSH 40\t\t\trequire(msg.sender != selected...\n      MLOAD \t\t\trequire(msg.sender != selected...\n      PUSH 8C379A000000000000000000000000000000000000000000000000000000000\t\t\trequire(msg.sender != selected...\n      DUP2 \t\t\trequire(msg.sender != selected...\n      MSTORE \t\t\trequire(msg.sender != selected...\n      PUSH 4\t\t\trequire(msg.sender != selected...\n      ADD \t\t\trequire(msg.sender != selected...\n      PUSH [tag] 74\t\t\trequire(msg.sender != selected...\n      SWAP1 \t\t\trequire(msg.sender != selected...\n      PUSH [tag] 75\t\t\trequire(msg.sender != selected...\n      JUMP \t\t\trequire(msg.sender != selected...\n    tag 74\t\t\trequire(msg.sender != selected...\n      JUMPDEST \t\t\trequire(msg.sender != selected...\n      PUSH 40\t\t\trequire(msg.sender != selected...\n      MLOAD \t\t\trequire(msg.sender != selected...\n      DUP1 \t\t\trequire(msg.sender != selected...\n      SWAP2 \t\t\trequire(msg.sender != selected...\n      SUB \t\t\trequire(msg.sender != selected...\n      SWAP1 \t\t\trequire(msg.sender != selected...\n      REVERT \t\t\trequire(msg.sender != selected...\n    tag 73\t\t\trequire(msg.sender != selected...\n      JUMPDEST \t\t\trequire(msg.sender != selected...\n      PUSH 0\t\t\tbool transferred\n      DUP2 \t\t\tselectedProduct\n      PUSH 2\t\t\tselectedProduct.owner\n      ADD \t\t\tselectedProduct.owner\n      PUSH 0\t\t\tselectedProduct.owner\n      SWAP1 \t\t\tselectedProduct.owner\n      SLOAD \t\t\tselectedProduct.owner\n      SWAP1 \t\t\tselectedProduct.owner\n      PUSH 100\t\t\tselectedProduct.owner\n      EXP \t\t\tselectedProduct.owner\n      SWAP1 \t\t\tselectedProduct.owner\n      DIV \t\t\tselectedProduct.owner\n      PUSH FFFFFFFFFFFFFFFFFFFFFFFFFFFFFFFFFFFFFFFF\t\t\tselectedProduct.owner\n      AND \t\t\tselectedProduct.owner\n      PUSH FFFFFFFFFFFFFFFFFFFFFFFFFFFFFFFFFFFFFFFF\t\t\tselectedProduct.owner.call\n      AND \t\t\tselectedProduct.owner.call\n      CALLVALUE \t\t\tmsg.value\n      PUSH 40\t\t\tselectedProduct.owner.call{val...\n      MLOAD \t\t\tselectedProduct.owner.call{val...\n      PUSH [tag] 76\t\t\tselectedProduct.owner.call{val...\n      SWAP1 \t\t\tselectedProduct.owner.call{val...\n      PUSH [tag] 77\t\t\tselectedProduct.owner.call{val...\n      JUMP \t\t\tselectedProduct.owner.call{val...\n    tag 76\t\t\tselectedProduct.owner.call{val...\n      JUMPDEST \t\t\tselectedProduct.owner.call{val...\n      PUSH 0\t\t\tselectedProduct.owner.call{val...\n      PUSH 40\t\t\tselectedProduct.owner.call{val...\n      MLOAD \t\t\tselectedProduct.owner.call{val...\n      DUP1 \t\t\tselectedProduct.owner.call{val...\n      DUP4 \t\t\tselectedProduct.owner.call{val...\n      SUB \t\t\tselectedProduct.owner.call{val...\n      DUP2 \t\t\tselectedProduct.owner.call{val...\n      DUP6 \t\t\tselectedProduct.owner.call{val...\n      DUP8 \t\t\tselectedProduct.owner.call{val...\n      GAS \t\t\tselectedProduct.owner.call{val...\n      CALL \t\t\tselectedProduct.owner.call{val...\n      SWAP3 \t\t\tselectedProduct.owner.call{val...\n      POP \t\t\tselectedProduct.owner.call{val...\n      POP \t\t\tselectedProduct.owner.call{val...\n      POP \t\t\tselectedProduct.owner.call{val...\n      RETURNDATASIZE \t\t\tselectedProduct.owner.call{val...\n      DUP1 \t\t\tselectedProduct.owner.call{val...\n      PUSH 0\t\t\tselectedProduct.owner.call{val...\n      DUP2 \t\t\tselectedProduct.owner.call{val...\n      EQ \t\t\tselectedProduct.owner.call{val...\n      PUSH [tag] 80\t\t\tselectedProduct.owner.call{val...\n      JUMPI \t\t\tselectedProduct.owner.call{val...\n      PUSH 40\t\t\tselectedProduct.owner.call{val...\n      MLOAD \t\t\tselectedProduct.owner.call{val...\n      SWAP2 \t\t\tselectedProduct.owner.call{val...\n      POP \t\t\tselectedProduct.owner.call{val...\n      PUSH 1F\t\t\tselectedProduct.owner.call{val...\n      NOT \t\t\tselectedProduct.owner.call{val...\n      PUSH 3F\t\t\tselectedProduct.owner.call{val...\n      RETURNDATASIZE \t\t\tselectedProduct.owner.call{val...\n      ADD \t\t\tselectedProduct.owner.call{val...\n      AND \t\t\tselectedProduct.owner.call{val...\n      DUP3 \t\t\tselectedProduct.owner.call{val...\n      ADD \t\t\tselectedProduct.owner.call{val...\n      PUSH 40\t\t\tselectedProduct.owner.call{val...\n      MSTORE \t\t\tselectedProduct.owner.call{val...\n      RETURNDATASIZE \t\t\tselectedProduct.owner.call{val...\n      DUP3 \t\t\tselectedProduct.owner.call{val...\n      MSTORE \t\t\tselectedProduct.owner.call{val...\n      RETURNDATASIZE \t\t\tselectedProduct.owner.call{val...\n      PUSH 0\t\t\tselectedProduct.owner.call{val...\n      PUSH 20\t\t\tselectedProduct.owner.call{val...\n      DUP5 \t\t\tselectedProduct.owner.call{val...\n      ADD \t\t\tselectedProduct.owner.call{val...\n      RETURNDATACOPY \t\t\tselectedProduct.owner.call{val...\n      PUSH [tag] 79\t\t\tselectedProduct.owner.call{val...\n      JUMP \t\t\tselectedProduct.owner.call{val...\n    tag 80\t\t\tselectedProduct.owner.call{val...\n      JUMPDEST \t\t\tselectedProduct.owner.call{val...\n      PUSH 60\t\t\tselectedProduct.owner.call{val...\n      SWAP2 \t\t\tselectedProduct.owner.call{val...\n      POP \t\t\tselectedProduct.owner.call{val...\n    tag 79\t\t\tselectedProduct.owner.call{val...\n      JUMPDEST \t\t\tselectedProduct.owner.call{val...\n      POP \t\t\tselectedProduct.owner.call{val...\n      POP \t\t\t(bool transferred, ) = selecte...\n      SWAP1 \t\t\t(bool transferred, ) = selecte...\n      POP \t\t\t(bool transferred, ) = selecte...\n      DUP1 \t\t\ttransferred\n      PUSH [tag] 81\t\t\trequire(transferred, \"Ether tr...\n      JUMPI \t\t\trequire(transferred, \"Ether tr...\n      PUSH 40\t\t\trequire(transferred, \"Ether tr...\n      MLOAD \t\t\trequire(transferred, \"Ether tr...\n      PUSH 8C379A000000000000000000000000000000000000000000000000000000000\t\t\trequire(transferred, \"Ether tr...\n      DUP2 \t\t\trequire(transferred, \"Ether tr...\n      MSTORE \t\t\trequire(transferred, \"Ether tr...\n      PUSH 4\t\t\trequire(transferred, \"Ether tr...\n      ADD \t\t\trequire(transferred, \"Ether tr...\n      PUSH [tag] 82\t\t\trequire(transferred, \"Ether tr...\n      SWAP1 \t\t\trequire(transferred, \"Ether tr...\n      PUSH [tag] 83\t\t\trequire(transferred, \"Ether tr...\n      JUMP \t\t\trequire(transferred, \"Ether tr...\n    tag 82\t\t\trequire(transferred, \"Ether tr...\n      JUMPDEST \t\t\trequire(transferred, \"Ether tr...\n      PUSH 40\t\t\trequire(transferred, \"Ether tr...\n      MLOAD \t\t\trequire(transferred, \"Ether tr...\n      DUP1 \t\t\trequire(transferred, \"Ether tr...\n      SWAP2 \t\t\trequire(transferred, \"Ether tr...\n      SUB \t\t\trequire(transferred, \"Ether tr...\n      SWAP1 \t\t\trequire(transferred, \"Ether tr...\n      REVERT \t\t\trequire(transferred, \"Ether tr...\n    tag 81\t\t\trequire(transferred, \"Ether tr...\n      JUMPDEST \t\t\trequire(transferred, \"Ether tr...\n      PUSH 0\t\t\taddress previousOwner\n      DUP3 \t\t\tselectedProduct\n      PUSH 2\t\t\tselectedProduct.owner\n      ADD \t\t\tselectedProduct.owner\n      PUSH 0\t\t\tselectedProduct.owner\n      SWAP1 \t\t\tselectedProduct.owner\n      SLOAD \t\t\tselectedProduct.owner\n      SWAP1 \t\t\tselectedProduct.owner\n      PUSH 100\t\t\tselectedProduct.owner\n      EXP \t\t\tselectedProduct.owner\n      SWAP1 \t\t\tselectedProduct.owner\n      DIV \t\t\tselectedProduct.owner\n      PUSH FFFFFFFFFFFFFFFFFFFFFFFFFFFFFFFFFFFFFFFF\t\t\tselectedProduct.owner\n      AND \t\t\tselectedProduct.owner\n      SWAP1 \t\t\taddress previousOwner = select...\n      POP \t\t\taddress previousOwner = select...\n      CALLER \t\t\tmsg.sender\n      DUP4 \t\t\tselectedProduct\n      PUSH 2\t\t\tselectedProduct.owner\n      ADD \t\t\tselectedProduct.owner\n      PUSH 0\t\t\tselectedProduct.owner\n      PUSH 100\t\t\tselectedProduct.owner = payabl...\n      EXP \t\t\tselectedProduct.owner = payabl...\n      DUP2 \t\t\tselectedProduct.owner = payabl...\n      SLOAD \t\t\tselectedProduct.owner = payabl...\n      DUP2 \t\t\tselectedProduct.owner = payabl...\n      PUSH FFFFFFFFFFFFFFFFFFFFFFFFFFFFFFFFFFFFFFFF\t\t\tselectedProduct.owner = payabl...\n      MUL \t\t\tselectedProduct.owner = payabl...\n      NOT \t\t\tselectedProduct.owner = payabl...\n      AND \t\t\tselectedProduct.owner = payabl...\n      SWAP1 \t\t\tselectedProduct.owner = payabl...\n      DUP4 \t\t\tselectedProduct.owner = payabl...\n      PUSH FFFFFFFFFFFFFFFFFFFFFFFFFFFFFFFFFFFFFFFF\t\t\tselectedProduct.owner = payabl...\n      AND \t\t\tselectedProduct.owner = payabl...\n      MUL \t\t\tselectedProduct.owner = payabl...\n      OR \t\t\tselectedProduct.owner = payabl...\n      SWAP1 \t\t\tselectedProduct.owner = payabl...\n      SSTORE \t\t\tselectedProduct.owner = payabl...\n      POP \t\t\tselectedProduct.owner = payabl...\n      PUSH 1\t\t\ttrue\n      DUP4 \t\t\tselectedProduct\n      PUSH 7\t\t\tselectedProduct.sold\n      ADD \t\t\tselectedProduct.sold\n      PUSH 0\t\t\tselectedProduct.sold\n      PUSH 100\t\t\tselectedProduct.sold = true\n      EXP \t\t\tselectedProduct.sold = true\n      DUP2 \t\t\tselectedProduct.sold = true\n      SLOAD \t\t\tselectedProduct.sold = true\n      DUP2 \t\t\tselectedProduct.sold = true\n      PUSH FF\t\t\tselectedProduct.sold = true\n      MUL \t\t\tselectedProduct.sold = true\n      NOT \t\t\tselectedProduct.sold = true\n      AND \t\t\tselectedProduct.sold = true\n      SWAP1 \t\t\tselectedProduct.sold = true\n      DUP4 \t\t\tselectedProduct.sold = true\n      ISZERO \t\t\tselectedProduct.sold = true\n      ISZERO \t\t\tselectedProduct.sold = true\n      MUL \t\t\tselectedProduct.sold = true\n      OR \t\t\tselectedProduct.sold = true\n      SWAP1 \t\t\tselectedProduct.sold = true\n      SSTORE \t\t\tselectedProduct.sold = true\n      POP \t\t\tselectedProduct.sold = true\n      DUP1 \t\t\tpreviousOwner\n      PUSH FFFFFFFFFFFFFFFFFFFFFFFFFFFFFFFFFFFFFFFF\t\t\tpaymentOfProduct(msg.sender, p...\n      AND \t\t\tpaymentOfProduct(msg.sender, p...\n      CALLER \t\t\tmsg.sender\n      PUSH FFFFFFFFFFFFFFFFFFFFFFFFFFFFFFFFFFFFFFFF\t\t\tpaymentOfProduct(msg.sender, p...\n      AND \t\t\tpaymentOfProduct(msg.sender, p...\n      PUSH C45027E1160131C0ED7B340B8E132FBC3EB9B5F252356C895D9F7DBF036E31DC\t\t\tpaymentOfProduct(msg.sender, p...\n      CALLVALUE \t\t\tmsg.value\n      PUSH 40\t\t\tpaymentOfProduct(msg.sender, p...\n      MLOAD \t\t\tpaymentOfProduct(msg.sender, p...\n      PUSH [tag] 84\t\t\tpaymentOfProduct(msg.sender, p...\n      SWAP2 \t\t\tpaymentOfProduct(msg.sender, p...\n      SWAP1 \t\t\tpaymentOfProduct(msg.sender, p...\n      PUSH [tag] 38\t\t\tpaymentOfProduct(msg.sender, p...\n      JUMP \t\t\tpaymentOfProduct(msg.sender, p...\n    tag 84\t\t\tpaymentOfProduct(msg.sender, p...\n      JUMPDEST \t\t\tpaymentOfProduct(msg.sender, p...\n      PUSH 40\t\t\tpaymentOfProduct(msg.sender, p...\n      MLOAD \t\t\tpaymentOfProduct(msg.sender, p...\n      DUP1 \t\t\tpaymentOfProduct(msg.sender, p...\n      SWAP2 \t\t\tpaymentOfProduct(msg.sender, p...\n      SUB \t\t\tpaymentOfProduct(msg.sender, p...\n      SWAP1 \t\t\tpaymentOfProduct(msg.sender, p...\n      LOG3 \t\t\tpaymentOfProduct(msg.sender, p...\n      CALLER \t\t\tmsg.sender\n      PUSH FFFFFFFFFFFFFFFFFFFFFFFFFFFFFFFFFFFFFFFF\t\t\tproductSold(_id, previousOwner...\n      AND \t\t\tproductSold(_id, previousOwner...\n      DUP2 \t\t\tpreviousOwner\n      PUSH FFFFFFFFFFFFFFFFFFFFFFFFFFFFFFFFFFFFFFFF\t\t\tproductSold(_id, previousOwner...\n      AND \t\t\tproductSold(_id, previousOwner...\n      DUP6 \t\t\t_id\n      PUSH A8441C1A059955B600FDD4475282B40C70CB5CF8BCA1D216E13A3D503927A30F\t\t\tproductSold(_id, previousOwner...\n      DUP7 \t\t\tselectedProduct\n      PUSH 6\t\t\tselectedProduct.price\n      ADD \t\t\tselectedProduct.price\n      SLOAD \t\t\tselectedProduct.price\n      PUSH 40\t\t\tproductSold(_id, previousOwner...\n      MLOAD \t\t\tproductSold(_id, previousOwner...\n      PUSH [tag] 85\t\t\tproductSold(_id, previousOwner...\n      SWAP2 \t\t\tproductSold(_id, previousOwner...\n      SWAP1 \t\t\tproductSold(_id, previousOwner...\n      PUSH [tag] 38\t\t\tproductSold(_id, previousOwner...\n      JUMP \t\t\tproductSold(_id, previousOwner...\n    tag 85\t\t\tproductSold(_id, previousOwner...\n      JUMPDEST \t\t\tproductSold(_id, previousOwner...\n      PUSH 40\t\t\tproductSold(_id, previousOwner...\n      MLOAD \t\t\tproductSold(_id, previousOwner...\n      DUP1 \t\t\tproductSold(_id, previousOwner...\n      SWAP2 \t\t\tproductSold(_id, previousOwner...\n      SUB \t\t\tproductSold(_id, previousOwner...\n      SWAP1 \t\t\tproductSold(_id, previousOwner...\n      LOG4 \t\t\tproductSold(_id, previousOwner...\n      POP \t\t\t{\\r\\n    require(_id < product...\n      POP \t\t\t{\\r\\n    require(_id < product...\n      POP \t\t\t{\\r\\n    require(_id < product...\n      POP \t\t\tfunction purchaseProduct(uint ...\n      JUMP \t\t\tfunction purchaseProduct(uint ...\n    tag 20\t\t\tfunction getProductById(uint _...\n      JUMPDEST \t\t\tfunction getProductById(uint _...\n      PUSH [tag] 86\t\t\tProduct memory\n      PUSH [tag] 87\t\t\tProduct memory\n      JUMP \t\t\tProduct memory\n    tag 86\t\t\tProduct memory\n      JUMPDEST \t\t\tProduct memory\n      PUSH 1\t\t\tproductCount\n      SLOAD \t\t\tproductCount\n      DUP3 \t\t\t_id\n      LT \t\t\t_id < productCount\n      PUSH [tag] 89\t\t\trequire(_id < productCount, \"P...\n      JUMPI \t\t\trequire(_id < productCount, \"P...\n      PUSH 40\t\t\trequire(_id < productCount, \"P...\n      MLOAD \t\t\trequire(_id < productCount, \"P...\n      PUSH 8C379A000000000000000000000000000000000000000000000000000000000\t\t\trequire(_id < productCount, \"P...\n      DUP2 \t\t\trequire(_id < productCount, \"P...\n      MSTORE \t\t\trequire(_id < productCount, \"P...\n      PUSH 4\t\t\trequire(_id < productCount, \"P...\n      ADD \t\t\trequire(_id < productCount, \"P...\n      PUSH [tag] 90\t\t\trequire(_id < productCount, \"P...\n      SWAP1 \t\t\trequire(_id < productCount, \"P...\n      PUSH [tag] 91\t\t\trequire(_id < productCount, \"P...\n      JUMP \t\t\trequire(_id < productCount, \"P...\n    tag 90\t\t\trequire(_id < productCount, \"P...\n      JUMPDEST \t\t\trequire(_id < productCount, \"P...\n      PUSH 40\t\t\trequire(_id < productCount, \"P...\n      MLOAD \t\t\trequire(_id < productCount, \"P...\n      DUP1 \t\t\trequire(_id < productCount, \"P...\n      SWAP2 \t\t\trequire(_id < productCount, \"P...\n      SUB \t\t\trequire(_id < productCount, \"P...\n      SWAP1 \t\t\trequire(_id < productCount, \"P...\n      REVERT \t\t\trequire(_id < productCount, \"P...\n    tag 89\t\t\trequire(_id < productCount, \"P...\n      JUMPDEST \t\t\trequire(_id < productCount, \"P...\n      PUSH 0\t\t\tproducts\n      DUP3 \t\t\t_id\n      DUP2 \t\t\tproducts[_id]\n      SLOAD \t\t\tproducts[_id]\n      DUP2 \t\t\tproducts[_id]\n      LT \t\t\tproducts[_id]\n      PUSH [tag] 92\t\t\tproducts[_id]\n      JUMPI \t\t\tproducts[_id]\n      PUSH [tag] 93\t\t\tproducts[_id]\n      PUSH [tag] 65\t\t\tproducts[_id]\n      JUMP \t\t\tproducts[_id]\n    tag 93\t\t\tproducts[_id]\n      JUMPDEST \t\t\tproducts[_id]\n    tag 92\t\t\tproducts[_id]\n      JUMPDEST \t\t\tproducts[_id]\n      SWAP1 \t\t\tproducts[_id]\n      PUSH 0\t\t\tproducts[_id]\n      MSTORE \t\t\tproducts[_id]\n      PUSH 20\t\t\tproducts[_id]\n      PUSH 0\t\t\tproducts[_id]\n      KECCAK256 \t\t\tproducts[_id]\n      SWAP1 \t\t\tproducts[_id]\n      PUSH 8\t\t\tproducts[_id]\n      MUL \t\t\tproducts[_id]\n      ADD \t\t\tproducts[_id]\n      PUSH 40\t\t\treturn products[_id]\n      MLOAD \t\t\treturn products[_id]\n      DUP1 \t\t\treturn products[_id]\n      PUSH 100\t\t\treturn products[_id]\n      ADD \t\t\treturn products[_id]\n      PUSH 40\t\t\treturn products[_id]\n      MSTORE \t\t\treturn products[_id]\n      SWAP1 \t\t\treturn products[_id]\n      DUP2 \t\t\treturn products[_id]\n      PUSH 0\t\t\treturn products[_id]\n      DUP3 \t\t\treturn products[_id]\n      ADD \t\t\treturn products[_id]\n      SLOAD \t\t\treturn products[_id]\n      DUP2 \t\t\treturn products[_id]\n      MSTORE \t\t\treturn products[_id]\n      PUSH 20\t\t\treturn products[_id]\n      ADD \t\t\treturn products[_id]\n      PUSH 1\t\t\treturn products[_id]\n      DUP3 \t\t\treturn products[_id]\n      ADD \t\t\treturn products[_id]\n      PUSH 0\t\t\treturn products[_id]\n      SWAP1 \t\t\treturn products[_id]\n      SLOAD \t\t\treturn products[_id]\n      SWAP1 \t\t\treturn products[_id]\n      PUSH 100\t\t\treturn products[_id]\n      EXP \t\t\treturn products[_id]\n      SWAP1 \t\t\treturn products[_id]\n      DIV \t\t\treturn products[_id]\n      PUSH FFFFFFFFFFFFFFFFFFFFFFFFFFFFFFFFFFFFFFFF\t\t\treturn products[_id]\n      AND \t\t\treturn products[_id]\n      PUSH FFFFFFFFFFFFFFFFFFFFFFFFFFFFFFFFFFFFFFFF\t\t\treturn products[_id]\n      AND \t\t\treturn products[_id]\n      PUSH FFFFFFFFFFFFFFFFFFFFFFFFFFFFFFFFFFFFFFFF\t\t\treturn products[_id]\n      AND \t\t\treturn products[_id]\n      DUP2 \t\t\treturn products[_id]\n      MSTORE \t\t\treturn products[_id]\n      PUSH 20\t\t\treturn products[_id]\n      ADD \t\t\treturn products[_id]\n      PUSH 2\t\t\treturn products[_id]\n      DUP3 \t\t\treturn products[_id]\n      ADD \t\t\treturn products[_id]\n      PUSH 0\t\t\treturn products[_id]\n      SWAP1 \t\t\treturn products[_id]\n      SLOAD \t\t\treturn products[_id]\n      SWAP1 \t\t\treturn products[_id]\n      PUSH 100\t\t\treturn products[_id]\n      EXP \t\t\treturn products[_id]\n      SWAP1 \t\t\treturn products[_id]\n      DIV \t\t\treturn products[_id]\n      PUSH FFFFFFFFFFFFFFFFFFFFFFFFFFFFFFFFFFFFFFFF\t\t\treturn products[_id]\n      AND \t\t\treturn products[_id]\n      PUSH FFFFFFFFFFFFFFFFFFFFFFFFFFFFFFFFFFFFFFFF\t\t\treturn products[_id]\n      AND \t\t\treturn products[_id]\n      PUSH FFFFFFFFFFFFFFFFFFFFFFFFFFFFFFFFFFFFFFFF\t\t\treturn products[_id]\n      AND \t\t\treturn products[_id]\n      DUP2 \t\t\treturn products[_id]\n      MSTORE \t\t\treturn products[_id]\n      PUSH 20\t\t\treturn products[_id]\n      ADD \t\t\treturn products[_id]\n      PUSH 3\t\t\treturn products[_id]\n      DUP3 \t\t\treturn products[_id]\n      ADD \t\t\treturn products[_id]\n      DUP1 \t\t\treturn products[_id]\n      SLOAD \t\t\treturn products[_id]\n      PUSH [tag] 95\t\t\treturn products[_id]\n      SWAP1 \t\t\treturn products[_id]\n      PUSH [tag] 44\t\t\treturn products[_id]\n      JUMP \t\t\treturn products[_id]\n    tag 95\t\t\treturn products[_id]\n      JUMPDEST \t\t\treturn products[_id]\n      DUP1 \t\t\treturn products[_id]\n      PUSH 1F\t\t\treturn products[_id]\n      ADD \t\t\treturn products[_id]\n      PUSH 20\t\t\treturn products[_id]\n      DUP1 \t\t\treturn products[_id]\n      SWAP2 \t\t\treturn products[_id]\n      DIV \t\t\treturn products[_id]\n      MUL \t\t\treturn products[_id]\n      PUSH 20\t\t\treturn products[_id]\n      ADD \t\t\treturn products[_id]\n      PUSH 40\t\t\treturn products[_id]\n      MLOAD \t\t\treturn products[_id]\n      SWAP1 \t\t\treturn products[_id]\n      DUP2 \t\t\treturn products[_id]\n      ADD \t\t\treturn products[_id]\n      PUSH 40\t\t\treturn products[_id]\n      MSTORE \t\t\treturn products[_id]\n      DUP1 \t\t\treturn products[_id]\n      SWAP3 \t\t\treturn products[_id]\n      SWAP2 \t\t\treturn products[_id]\n      SWAP1 \t\t\treturn products[_id]\n      DUP2 \t\t\treturn products[_id]\n      DUP2 \t\t\treturn products[_id]\n      MSTORE \t\t\treturn products[_id]\n      PUSH 20\t\t\treturn products[_id]\n      ADD \t\t\treturn products[_id]\n      DUP3 \t\t\treturn products[_id]\n      DUP1 \t\t\treturn products[_id]\n      SLOAD \t\t\treturn products[_id]\n      PUSH [tag] 96\t\t\treturn products[_id]\n      SWAP1 \t\t\treturn products[_id]\n      PUSH [tag] 44\t\t\treturn products[_id]\n      JUMP \t\t\treturn products[_id]\n    tag 96\t\t\treturn products[_id]\n      JUMPDEST \t\t\treturn products[_id]\n      DUP1 \t\t\treturn products[_id]\n      ISZERO \t\t\treturn products[_id]\n      PUSH [tag] 97\t\t\treturn products[_id]\n      JUMPI \t\t\treturn products[_id]\n      DUP1 \t\t\treturn products[_id]\n      PUSH 1F\t\t\treturn products[_id]\n      LT \t\t\treturn products[_id]\n      PUSH [tag] 98\t\t\treturn products[_id]\n      JUMPI \t\t\treturn products[_id]\n      PUSH 100\t\t\treturn products[_id]\n      DUP1 \t\t\treturn products[_id]\n      DUP4 \t\t\treturn products[_id]\n      SLOAD \t\t\treturn products[_id]\n      DIV \t\t\treturn products[_id]\n      MUL \t\t\treturn products[_id]\n      DUP4 \t\t\treturn products[_id]\n      MSTORE \t\t\treturn products[_id]\n      SWAP2 \t\t\treturn products[_id]\n      PUSH 20\t\t\treturn products[_id]\n      ADD \t\t\treturn products[_id]\n      SWAP2 \t\t\treturn products[_id]\n      PUSH [tag] 97\t\t\treturn products[_id]\n      JUMP \t\t\treturn products[_id]\n    tag 98\t\t\treturn products[_id]\n      JUMPDEST \t\t\treturn products[_id]\n      DUP3 \t\t\treturn products[_id]\n      ADD \t\t\treturn products[_id]\n      SWAP2 \t\t\treturn products[_id]\n      SWAP1 \t\t\treturn products[_id]\n      PUSH 0\t\t\treturn products[_id]\n      MSTORE \t\t\treturn products[_id]\n      PUSH 20\t\t\treturn products[_id]\n      PUSH 0\t\t\treturn products[_id]\n      KECCAK256 \t\t\treturn products[_id]\n      SWAP1 \t\t\treturn products[_id]\n    tag 99\t\t\treturn products[_id]\n      JUMPDEST \t\t\treturn products[_id]\n      DUP2 \t\t\treturn products[_id]\n      SLOAD \t\t\treturn products[_id]\n      DUP2 \t\t\treturn products[_id]\n      MSTORE \t\t\treturn products[_id]\n      SWAP1 \t\t\treturn products[_id]\n      PUSH 1\t\t\treturn products[_id]\n      ADD \t\t\treturn products[_id]\n      SWAP1 \t\t\treturn products[_id]\n      PUSH 20\t\t\treturn products[_id]\n      ADD \t\t\treturn products[_id]\n      DUP1 \t\t\treturn products[_id]\n      DUP4 \t\t\treturn products[_id]\n      GT \t\t\treturn products[_id]\n      PUSH [tag] 99\t\t\treturn products[_id]\n      JUMPI \t\t\treturn products[_id]\n      DUP3 \t\t\treturn products[_id]\n      SWAP1 \t\t\treturn products[_id]\n      SUB \t\t\treturn products[_id]\n      PUSH 1F\t\t\treturn products[_id]\n      AND \t\t\treturn products[_id]\n      DUP3 \t\t\treturn products[_id]\n      ADD \t\t\treturn products[_id]\n      SWAP2 \t\t\treturn products[_id]\n    tag 97\t\t\treturn products[_id]\n      JUMPDEST \t\t\treturn products[_id]\n      POP \t\t\treturn products[_id]\n      POP \t\t\treturn products[_id]\n      POP \t\t\treturn products[_id]\n      POP \t\t\treturn products[_id]\n      POP \t\t\treturn products[_id]\n      DUP2 \t\t\treturn products[_id]\n      MSTORE \t\t\treturn products[_id]\n      PUSH 20\t\t\treturn products[_id]\n      ADD \t\t\treturn products[_id]\n      PUSH 4\t\t\treturn products[_id]\n      DUP3 \t\t\treturn products[_id]\n      ADD \t\t\treturn products[_id]\n      DUP1 \t\t\treturn products[_id]\n      SLOAD \t\t\treturn products[_id]\n      PUSH [tag] 100\t\t\treturn products[_id]\n      SWAP1 \t\t\treturn products[_id]\n      PUSH [tag] 44\t\t\treturn products[_id]\n      JUMP \t\t\treturn products[_id]\n    tag 100\t\t\treturn products[_id]\n      JUMPDEST \t\t\treturn products[_id]\n      DUP1 \t\t\treturn products[_id]\n      PUSH 1F\t\t\treturn products[_id]\n      ADD \t\t\treturn products[_id]\n      PUSH 20\t\t\treturn products[_id]\n      DUP1 \t\t\treturn products[_id]\n      SWAP2 \t\t\treturn products[_id]\n      DIV \t\t\treturn products[_id]\n      MUL \t\t\treturn products[_id]\n      PUSH 20\t\t\treturn products[_id]\n      ADD \t\t\treturn products[_id]\n      PUSH 40\t\t\treturn products[_id]\n      MLOAD \t\t\treturn products[_id]\n      SWAP1 \t\t\treturn products[_id]\n      DUP2 \t\t\treturn products[_id]\n      ADD \t\t\treturn products[_id]\n      PUSH 40\t\t\treturn products[_id]\n      MSTORE \t\t\treturn products[_id]\n      DUP1 \t\t\treturn products[_id]\n      SWAP3 \t\t\treturn products[_id]\n      SWAP2 \t\t\treturn products[_id]\n      SWAP1 \t\t\treturn products[_id]\n      DUP2 \t\t\treturn products[_id]\n      DUP2 \t\t\treturn products[_id]\n      MSTORE \t\t\treturn products[_id]\n      PUSH 20\t\t\treturn products[_id]\n      ADD \t\t\treturn products[_id]\n      DUP3 \t\t\treturn products[_id]\n      DUP1 \t\t\treturn products[_id]\n      SLOAD \t\t\treturn products[_id]\n      PUSH [tag] 101\t\t\treturn products[_id]\n      SWAP1 \t\t\treturn products[_id]\n      PUSH [tag] 44\t\t\treturn products[_id]\n      JUMP \t\t\treturn products[_id]\n    tag 101\t\t\treturn products[_id]\n      JUMPDEST \t\t\treturn products[_id]\n      DUP1 \t\t\treturn products[_id]\n      ISZERO \t\t\treturn products[_id]\n      PUSH [tag] 102\t\t\treturn products[_id]\n      JUMPI \t\t\treturn products[_id]\n      DUP1 \t\t\treturn products[_id]\n      PUSH 1F\t\t\treturn products[_id]\n      LT \t\t\treturn products[_id]\n      PUSH [tag] 103\t\t\treturn products[_id]\n      JUMPI \t\t\treturn products[_id]\n      PUSH 100\t\t\treturn products[_id]\n      DUP1 \t\t\treturn products[_id]\n      DUP4 \t\t\treturn products[_id]\n      SLOAD \t\t\treturn products[_id]\n      DIV \t\t\treturn products[_id]\n      MUL \t\t\treturn products[_id]\n      DUP4 \t\t\treturn products[_id]\n      MSTORE \t\t\treturn products[_id]\n      SWAP2 \t\t\treturn products[_id]\n      PUSH 20\t\t\treturn products[_id]\n      ADD \t\t\treturn products[_id]\n      SWAP2 \t\t\treturn products[_id]\n      PUSH [tag] 102\t\t\treturn products[_id]\n      JUMP \t\t\treturn products[_id]\n    tag 103\t\t\treturn products[_id]\n      JUMPDEST \t\t\treturn products[_id]\n      DUP3 \t\t\treturn products[_id]\n      ADD \t\t\treturn products[_id]\n      SWAP2 \t\t\treturn products[_id]\n      SWAP1 \t\t\treturn products[_id]\n      PUSH 0\t\t\treturn products[_id]\n      MSTORE \t\t\treturn products[_id]\n      PUSH 20\t\t\treturn products[_id]\n      PUSH 0\t\t\treturn products[_id]\n      KECCAK256 \t\t\treturn products[_id]\n      SWAP1 \t\t\treturn products[_id]\n    tag 104\t\t\treturn products[_id]\n      JUMPDEST \t\t\treturn products[_id]\n      DUP2 \t\t\treturn products[_id]\n      SLOAD \t\t\treturn products[_id]\n      DUP2 \t\t\treturn products[_id]\n      MSTORE \t\t\treturn products[_id]\n      SWAP1 \t\t\treturn products[_id]\n      PUSH 1\t\t\treturn products[_id]\n      ADD \t\t\treturn products[_id]\n      SWAP1 \t\t\treturn products[_id]\n      PUSH 20\t\t\treturn products[_id]\n      ADD \t\t\treturn products[_id]\n      DUP1 \t\t\treturn products[_id]\n      DUP4 \t\t\treturn products[_id]\n      GT \t\t\treturn products[_id]\n      PUSH [tag] 104\t\t\treturn products[_id]\n      JUMPI \t\t\treturn products[_id]\n      DUP3 \t\t\treturn products[_id]\n      SWAP1 \t\t\treturn products[_id]\n      SUB \t\t\treturn products[_id]\n      PUSH 1F\t\t\treturn products[_id]\n      AND \t\t\treturn products[_id]\n      DUP3 \t\t\treturn products[_id]\n      ADD \t\t\treturn products[_id]\n      SWAP2 \t\t\treturn products[_id]\n    tag 102\t\t\treturn products[_id]\n      JUMPDEST \t\t\treturn products[_id]\n      POP \t\t\treturn products[_id]\n      POP \t\t\treturn products[_id]\n      POP \t\t\treturn products[_id]\n      POP \t\t\treturn products[_id]\n      POP \t\t\treturn products[_id]\n      DUP2 \t\t\treturn products[_id]\n      MSTORE \t\t\treturn products[_id]\n      PUSH 20\t\t\treturn products[_id]\n      ADD \t\t\treturn products[_id]\n      PUSH 5\t\t\treturn products[_id]\n      DUP3 \t\t\treturn products[_id]\n      ADD \t\t\treturn products[_id]\n      DUP1 \t\t\treturn products[_id]\n      SLOAD \t\t\treturn products[_id]\n      PUSH [tag] 105\t\t\treturn products[_id]\n      SWAP1 \t\t\treturn products[_id]\n      PUSH [tag] 44\t\t\treturn products[_id]\n      JUMP \t\t\treturn products[_id]\n    tag 105\t\t\treturn products[_id]\n      JUMPDEST \t\t\treturn products[_id]\n      DUP1 \t\t\treturn products[_id]\n      PUSH 1F\t\t\treturn products[_id]\n      ADD \t\t\treturn products[_id]\n      PUSH 20\t\t\treturn products[_id]\n      DUP1 \t\t\treturn products[_id]\n      SWAP2 \t\t\treturn products[_id]\n      DIV \t\t\treturn products[_id]\n      MUL \t\t\treturn products[_id]\n      PUSH 20\t\t\treturn products[_id]\n      ADD \t\t\treturn products[_id]\n      PUSH 40\t\t\treturn products[_id]\n      MLOAD \t\t\treturn products[_id]\n      SWAP1 \t\t\treturn products[_id]\n      DUP2 \t\t\treturn products[_id]\n      ADD \t\t\treturn products[_id]\n      PUSH 40\t\t\treturn products[_id]\n      MSTORE \t\t\treturn products[_id]\n      DUP1 \t\t\treturn products[_id]\n      SWAP3 \t\t\treturn products[_id]\n      SWAP2 \t\t\treturn products[_id]\n      SWAP1 \t\t\treturn products[_id]\n      DUP2 \t\t\treturn products[_id]\n      DUP2 \t\t\treturn products[_id]\n      MSTORE \t\t\treturn products[_id]\n      PUSH 20\t\t\treturn products[_id]\n      ADD \t\t\treturn products[_id]\n      DUP3 \t\t\treturn products[_id]\n      DUP1 \t\t\treturn products[_id]\n      SLOAD \t\t\treturn products[_id]\n      PUSH [tag] 106\t\t\treturn products[_id]\n      SWAP1 \t\t\treturn products[_id]\n      PUSH [tag] 44\t\t\treturn products[_id]\n      JUMP \t\t\treturn products[_id]\n    tag 106\t\t\treturn products[_id]\n      JUMPDEST \t\t\treturn products[_id]\n      DUP1 \t\t\treturn products[_id]\n      ISZERO \t\t\treturn products[_id]\n      PUSH [tag] 107\t\t\treturn products[_id]\n      JUMPI \t\t\treturn products[_id]\n      DUP1 \t\t\treturn products[_id]\n      PUSH 1F\t\t\treturn products[_id]\n      LT \t\t\treturn products[_id]\n      PUSH [tag] 108\t\t\treturn products[_id]\n      JUMPI \t\t\treturn products[_id]\n      PUSH 100\t\t\treturn products[_id]\n      DUP1 \t\t\treturn products[_id]\n      DUP4 \t\t\treturn products[_id]\n      SLOAD \t\t\treturn products[_id]\n      DIV \t\t\treturn products[_id]\n      MUL \t\t\treturn products[_id]\n      DUP4 \t\t\treturn products[_id]\n      MSTORE \t\t\treturn products[_id]\n      SWAP2 \t\t\treturn products[_id]\n      PUSH 20\t\t\treturn products[_id]\n      ADD \t\t\treturn products[_id]\n      SWAP2 \t\t\treturn products[_id]\n      PUSH [tag] 107\t\t\treturn products[_id]\n      JUMP \t\t\treturn products[_id]\n    tag 108\t\t\treturn products[_id]\n      JUMPDEST \t\t\treturn products[_id]\n      DUP3 \t\t\treturn products[_id]\n      ADD \t\t\treturn products[_id]\n      SWAP2 \t\t\treturn products[_id]\n      SWAP1 \t\t\treturn products[_id]\n      PUSH 0\t\t\treturn products[_id]\n      MSTORE \t\t\treturn products[_id]\n      PUSH 20\t\t\treturn products[_id]\n      PUSH 0\t\t\treturn products[_id]\n      KECCAK256 \t\t\treturn products[_id]\n      SWAP1 \t\t\treturn products[_id]\n    tag 109\t\t\treturn products[_id]\n      JUMPDEST \t\t\treturn products[_id]\n      DUP2 \t\t\treturn products[_id]\n      SLOAD \t\t\treturn products[_id]\n      DUP2 \t\t\treturn products[_id]\n      MSTORE \t\t\treturn products[_id]\n      SWAP1 \t\t\treturn products[_id]\n      PUSH 1\t\t\treturn products[_id]\n      ADD \t\t\treturn products[_id]\n      SWAP1 \t\t\treturn products[_id]\n      PUSH 20\t\t\treturn products[_id]\n      ADD \t\t\treturn products[_id]\n      DUP1 \t\t\treturn products[_id]\n      DUP4 \t\t\treturn products[_id]\n      GT \t\t\treturn products[_id]\n      PUSH [tag] 109\t\t\treturn products[_id]\n      JUMPI \t\t\treturn products[_id]\n      DUP3 \t\t\treturn products[_id]\n      SWAP1 \t\t\treturn products[_id]\n      SUB \t\t\treturn products[_id]\n      PUSH 1F\t\t\treturn products[_id]\n      AND \t\t\treturn products[_id]\n      DUP3 \t\t\treturn products[_id]\n      ADD \t\t\treturn products[_id]\n      SWAP2 \t\t\treturn products[_id]\n    tag 107\t\t\treturn products[_id]\n      JUMPDEST \t\t\treturn products[_id]\n      POP \t\t\treturn products[_id]\n      POP \t\t\treturn products[_id]\n      POP \t\t\treturn products[_id]\n      POP \t\t\treturn products[_id]\n      POP \t\t\treturn products[_id]\n      DUP2 \t\t\treturn products[_id]\n      MSTORE \t\t\treturn products[_id]\n      PUSH 20\t\t\treturn products[_id]\n      ADD \t\t\treturn products[_id]\n      PUSH 6\t\t\treturn products[_id]\n      DUP3 \t\t\treturn products[_id]\n      ADD \t\t\treturn products[_id]\n      SLOAD \t\t\treturn products[_id]\n      DUP2 \t\t\treturn products[_id]\n      MSTORE \t\t\treturn products[_id]\n      PUSH 20\t\t\treturn products[_id]\n      ADD \t\t\treturn products[_id]\n      PUSH 7\t\t\treturn products[_id]\n      DUP3 \t\t\treturn products[_id]\n      ADD \t\t\treturn products[_id]\n      PUSH 0\t\t\treturn products[_id]\n      SWAP1 \t\t\treturn products[_id]\n      SLOAD \t\t\treturn products[_id]\n      SWAP1 \t\t\treturn products[_id]\n      PUSH 100\t\t\treturn products[_id]\n      EXP \t\t\treturn products[_id]\n      SWAP1 \t\t\treturn products[_id]\n      DIV \t\t\treturn products[_id]\n      PUSH FF\t\t\treturn products[_id]\n      AND \t\t\treturn products[_id]\n      ISZERO \t\t\treturn products[_id]\n      ISZERO \t\t\treturn products[_id]\n      ISZERO \t\t\treturn products[_id]\n      ISZERO \t\t\treturn products[_id]\n      DUP2 \t\t\treturn products[_id]\n      MSTORE \t\t\treturn products[_id]\n      POP \t\t\treturn products[_id]\n      POP \t\t\treturn products[_id]\n      SWAP1 \t\t\treturn products[_id]\n      POP \t\t\treturn products[_id]\n      SWAP2 \t\t\tfunction getProductById(uint _...\n      SWAP1 \t\t\tfunction getProductById(uint _...\n      POP \t\t\tfunction getProductById(uint _...\n      JUMP \t\t\tfunction getProductById(uint _...\n    tag 26\t\t\tProduct[] public products\n      JUMPDEST \t\t\tProduct[] public products\n      PUSH 0\t\t\tProduct[] public products\n      DUP2 \t\t\tProduct[] public products\n      DUP2 \t\t\tProduct[] public products\n      SLOAD \t\t\tProduct[] public products\n      DUP2 \t\t\tProduct[] public products\n      LT \t\t\tProduct[] public products\n      PUSH [tag] 110\t\t\tProduct[] public products\n      JUMPI \t\t\tProduct[] public products\n      PUSH 0\t\t\tProduct[] public products\n      DUP1 \t\t\tProduct[] public products\n      REVERT \t\t\tProduct[] public products\n    tag 110\t\t\tProduct[] public products\n      JUMPDEST \t\t\tProduct[] public products\n      SWAP1 \t\t\tProduct[] public products\n      PUSH 0\t\t\tProduct[] public products\n      MSTORE \t\t\tProduct[] public products\n      PUSH 20\t\t\tProduct[] public products\n      PUSH 0\t\t\tProduct[] public products\n      KECCAK256 \t\t\tProduct[] public products\n      SWAP1 \t\t\tProduct[] public products\n      PUSH 8\t\t\tProduct[] public products\n      MUL \t\t\tProduct[] public products\n      ADD \t\t\tProduct[] public products\n      PUSH 0\t\t\tProduct[] public products\n      SWAP2 \t\t\tProduct[] public products\n      POP \t\t\tProduct[] public products\n      SWAP1 \t\t\tProduct[] public products\n      POP \t\t\tProduct[] public products\n      DUP1 \t\t\tProduct[] public products\n      PUSH 0\t\t\tProduct[] public products\n      ADD \t\t\tProduct[] public products\n      SLOAD \t\t\tProduct[] public products\n      SWAP1 \t\t\tProduct[] public products\n      DUP1 \t\t\tProduct[] public products\n      PUSH 1\t\t\tProduct[] public products\n      ADD \t\t\tProduct[] public products\n      PUSH 0\t\t\tProduct[] public products\n      SWAP1 \t\t\tProduct[] public products\n      SLOAD \t\t\tProduct[] public products\n      SWAP1 \t\t\tProduct[] public products\n      PUSH 100\t\t\tProduct[] public products\n      EXP \t\t\tProduct[] public products\n      SWAP1 \t\t\tProduct[] public products\n      DIV \t\t\tProduct[] public products\n      PUSH FFFFFFFFFFFFFFFFFFFFFFFFFFFFFFFFFFFFFFFF\t\t\tProduct[] public products\n      AND \t\t\tProduct[] public products\n      SWAP1 \t\t\tProduct[] public products\n      DUP1 \t\t\tProduct[] public products\n      PUSH 2\t\t\tProduct[] public products\n      ADD \t\t\tProduct[] public products\n      PUSH 0\t\t\tProduct[] public products\n      SWAP1 \t\t\tProduct[] public products\n      SLOAD \t\t\tProduct[] public products\n      SWAP1 \t\t\tProduct[] public products\n      PUSH 100\t\t\tProduct[] public products\n      EXP \t\t\tProduct[] public products\n      SWAP1 \t\t\tProduct[] public products\n      DIV \t\t\tProduct[] public products\n      PUSH FFFFFFFFFFFFFFFFFFFFFFFFFFFFFFFFFFFFFFFF\t\t\tProduct[] public products\n      AND \t\t\tProduct[] public products\n      SWAP1 \t\t\tProduct[] public products\n      DUP1 \t\t\tProduct[] public products\n      PUSH 3\t\t\tProduct[] public products\n      ADD \t\t\tProduct[] public products\n      DUP1 \t\t\tProduct[] public products\n      SLOAD \t\t\tProduct[] public products\n      PUSH [tag] 112\t\t\tProduct[] public products\n      SWAP1 \t\t\tProduct[] public products\n      PUSH [tag] 44\t\t\tProduct[] public products\n      JUMP \t\t\tProduct[] public products\n    tag 112\t\t\tProduct[] public products\n      JUMPDEST \t\t\tProduct[] public products\n      DUP1 \t\t\tProduct[] public products\n      PUSH 1F\t\t\tProduct[] public products\n      ADD \t\t\tProduct[] public products\n      PUSH 20\t\t\tProduct[] public products\n      DUP1 \t\t\tProduct[] public products\n      SWAP2 \t\t\tProduct[] public products\n      DIV \t\t\tProduct[] public products\n      MUL \t\t\tProduct[] public products\n      PUSH 20\t\t\tProduct[] public products\n      ADD \t\t\tProduct[] public products\n      PUSH 40\t\t\tProduct[] public products\n      MLOAD \t\t\tProduct[] public products\n      SWAP1 \t\t\tProduct[] public products\n      DUP2 \t\t\tProduct[] public products\n      ADD \t\t\tProduct[] public products\n      PUSH 40\t\t\tProduct[] public products\n      MSTORE \t\t\tProduct[] public products\n      DUP1 \t\t\tProduct[] public products\n      SWAP3 \t\t\tProduct[] public products\n      SWAP2 \t\t\tProduct[] public products\n      SWAP1 \t\t\tProduct[] public products\n      DUP2 \t\t\tProduct[] public products\n      DUP2 \t\t\tProduct[] public products\n      MSTORE \t\t\tProduct[] public products\n      PUSH 20\t\t\tProduct[] public products\n      ADD \t\t\tProduct[] public products\n      DUP3 \t\t\tProduct[] public products\n      DUP1 \t\t\tProduct[] public products\n      SLOAD \t\t\tProduct[] public products\n      PUSH [tag] 113\t\t\tProduct[] public products\n      SWAP1 \t\t\tProduct[] public products\n      PUSH [tag] 44\t\t\tProduct[] public products\n      JUMP \t\t\tProduct[] public products\n    tag 113\t\t\tProduct[] public products\n      JUMPDEST \t\t\tProduct[] public products\n      DUP1 \t\t\tProduct[] public products\n      ISZERO \t\t\tProduct[] public products\n      PUSH [tag] 114\t\t\tProduct[] public products\n      JUMPI \t\t\tProduct[] public products\n      DUP1 \t\t\tProduct[] public products\n      PUSH 1F\t\t\tProduct[] public products\n      LT \t\t\tProduct[] public products\n      PUSH [tag] 115\t\t\tProduct[] public products\n      JUMPI \t\t\tProduct[] public products\n      PUSH 100\t\t\tProduct[] public products\n      DUP1 \t\t\tProduct[] public products\n      DUP4 \t\t\tProduct[] public products\n      SLOAD \t\t\tProduct[] public products\n      DIV \t\t\tProduct[] public products\n      MUL \t\t\tProduct[] public products\n      DUP4 \t\t\tProduct[] public products\n      MSTORE \t\t\tProduct[] public products\n      SWAP2 \t\t\tProduct[] public products\n      PUSH 20\t\t\tProduct[] public products\n      ADD \t\t\tProduct[] public products\n      SWAP2 \t\t\tProduct[] public products\n      PUSH [tag] 114\t\t\tProduct[] public products\n      JUMP \t\t\tProduct[] public products\n    tag 115\t\t\tProduct[] public products\n      JUMPDEST \t\t\tProduct[] public products\n      DUP3 \t\t\tProduct[] public products\n      ADD \t\t\tProduct[] public products\n      SWAP2 \t\t\tProduct[] public products\n      SWAP1 \t\t\tProduct[] public products\n      PUSH 0\t\t\tProduct[] public products\n      MSTORE \t\t\tProduct[] public products\n      PUSH 20\t\t\tProduct[] public products\n      PUSH 0\t\t\tProduct[] public products\n      KECCAK256 \t\t\tProduct[] public products\n      SWAP1 \t\t\tProduct[] public products\n    tag 116\t\t\tProduct[] public products\n      JUMPDEST \t\t\tProduct[] public products\n      DUP2 \t\t\tProduct[] public products\n      SLOAD \t\t\tProduct[] public products\n      DUP2 \t\t\tProduct[] public products\n      MSTORE \t\t\tProduct[] public products\n      SWAP1 \t\t\tProduct[] public products\n      PUSH 1\t\t\tProduct[] public products\n      ADD \t\t\tProduct[] public products\n      SWAP1 \t\t\tProduct[] public products\n      PUSH 20\t\t\tProduct[] public products\n      ADD \t\t\tProduct[] public products\n      DUP1 \t\t\tProduct[] public products\n      DUP4 \t\t\tProduct[] public products\n      GT \t\t\tProduct[] public products\n      PUSH [tag] 116\t\t\tProduct[] public products\n      JUMPI \t\t\tProduct[] public products\n      DUP3 \t\t\tProduct[] public products\n      SWAP1 \t\t\tProduct[] public products\n      SUB \t\t\tProduct[] public products\n      PUSH 1F\t\t\tProduct[] public products\n      AND \t\t\tProduct[] public products\n      DUP3 \t\t\tProduct[] public products\n      ADD \t\t\tProduct[] public products\n      SWAP2 \t\t\tProduct[] public products\n    tag 114\t\t\tProduct[] public products\n      JUMPDEST \t\t\tProduct[] public products\n      POP \t\t\tProduct[] public products\n      POP \t\t\tProduct[] public products\n      POP \t\t\tProduct[] public products\n      POP \t\t\tProduct[] public products\n      POP \t\t\tProduct[] public products\n      SWAP1 \t\t\tProduct[] public products\n      DUP1 \t\t\tProduct[] public products\n      PUSH 4\t\t\tProduct[] public products\n      ADD \t\t\tProduct[] public products\n      DUP1 \t\t\tProduct[] public products\n      SLOAD \t\t\tProduct[] public products\n      PUSH [tag] 117\t\t\tProduct[] public products\n      SWAP1 \t\t\tProduct[] public products\n      PUSH [tag] 44\t\t\tProduct[] public products\n      JUMP \t\t\tProduct[] public products\n    tag 117\t\t\tProduct[] public products\n      JUMPDEST \t\t\tProduct[] public products\n      DUP1 \t\t\tProduct[] public products\n      PUSH 1F\t\t\tProduct[] public products\n      ADD \t\t\tProduct[] public products\n      PUSH 20\t\t\tProduct[] public products\n      DUP1 \t\t\tProduct[] public products\n      SWAP2 \t\t\tProduct[] public products\n      DIV \t\t\tProduct[] public products\n      MUL \t\t\tProduct[] public products\n      PUSH 20\t\t\tProduct[] public products\n      ADD \t\t\tProduct[] public products\n      PUSH 40\t\t\tProduct[] public products\n      MLOAD \t\t\tProduct[] public products\n      SWAP1 \t\t\tProduct[] public products\n      DUP2 \t\t\tProduct[] public products\n      ADD \t\t\tProduct[] public products\n      PUSH 40\t\t\tProduct[] public products\n      MSTORE \t\t\tProduct[] public products\n      DUP1 \t\t\tProduct[] public products\n      SWAP3 \t\t\tProduct[] public products\n      SWAP2 \t\t\tProduct[] public products\n      SWAP1 \t\t\tProduct[] public products\n      DUP2 \t\t\tProduct[] public products\n      DUP2 \t\t\tProduct[] public products\n      MSTORE \t\t\tProduct[] public products\n      PUSH 20\t\t\tProduct[] public products\n      ADD \t\t\tProduct[] public products\n      DUP3 \t\t\tProduct[] public products\n      DUP1 \t\t\tProduct[] public products\n      SLOAD \t\t\tProduct[] public products\n      PUSH [tag] 118\t\t\tProduct[] public products\n      SWAP1 \t\t\tProduct[] public products\n      PUSH [tag] 44\t\t\tProduct[] public products\n      JUMP \t\t\tProduct[] public products\n    tag 118\t\t\tProduct[] public products\n      JUMPDEST \t\t\tProduct[] public products\n      DUP1 \t\t\tProduct[] public products\n      ISZERO \t\t\tProduct[] public products\n      PUSH [tag] 119\t\t\tProduct[] public products\n      JUMPI \t\t\tProduct[] public products\n      DUP1 \t\t\tProduct[] public products\n      PUSH 1F\t\t\tProduct[] public products\n      LT \t\t\tProduct[] public products\n      PUSH [tag] 120\t\t\tProduct[] public products\n      JUMPI \t\t\tProduct[] public products\n      PUSH 100\t\t\tProduct[] public products\n      DUP1 \t\t\tProduct[] public products\n      DUP4 \t\t\tProduct[] public products\n      SLOAD \t\t\tProduct[] public products\n      DIV \t\t\tProduct[] public products\n      MUL \t\t\tProduct[] public products\n      DUP4 \t\t\tProduct[] public products\n      MSTORE \t\t\tProduct[] public products\n      SWAP2 \t\t\tProduct[] public products\n      PUSH 20\t\t\tProduct[] public products\n      ADD \t\t\tProduct[] public products\n      SWAP2 \t\t\tProduct[] public products\n      PUSH [tag] 119\t\t\tProduct[] public products\n      JUMP \t\t\tProduct[] public products\n    tag 120\t\t\tProduct[] public products\n      JUMPDEST \t\t\tProduct[] public products\n      DUP3 \t\t\tProduct[] public products\n      ADD \t\t\tProduct[] public products\n      SWAP2 \t\t\tProduct[] public products\n      SWAP1 \t\t\tProduct[] public products\n      PUSH 0\t\t\tProduct[] public products\n      MSTORE \t\t\tProduct[] public products\n      PUSH 20\t\t\tProduct[] public products\n      PUSH 0\t\t\tProduct[] public products\n      KECCAK256 \t\t\tProduct[] public products\n      SWAP1 \t\t\tProduct[] public products\n    tag 121\t\t\tProduct[] public products\n      JUMPDEST \t\t\tProduct[] public products\n      DUP2 \t\t\tProduct[] public products\n      SLOAD \t\t\tProduct[] public products\n      DUP2 \t\t\tProduct[] public products\n      MSTORE \t\t\tProduct[] public products\n      SWAP1 \t\t\tProduct[] public products\n      PUSH 1\t\t\tProduct[] public products\n      ADD \t\t\tProduct[] public products\n      SWAP1 \t\t\tProduct[] public products\n      PUSH 20\t\t\tProduct[] public products\n      ADD \t\t\tProduct[] public products\n      DUP1 \t\t\tProduct[] public products\n      DUP4 \t\t\tProduct[] public products\n      GT \t\t\tProduct[] public products\n      PUSH [tag] 121\t\t\tProduct[] public products\n      JUMPI \t\t\tProduct[] public products\n      DUP3 \t\t\tProduct[] public products\n      SWAP1 \t\t\tProduct[] public products\n      SUB \t\t\tProduct[] public products\n      PUSH 1F\t\t\tProduct[] public products\n      AND \t\t\tProduct[] public products\n      DUP3 \t\t\tProduct[] public products\n      ADD \t\t\tProduct[] public products\n      SWAP2 \t\t\tProduct[] public products\n    tag 119\t\t\tProduct[] public products\n      JUMPDEST \t\t\tProduct[] public products\n      POP \t\t\tProduct[] public products\n      POP \t\t\tProduct[] public products\n      POP \t\t\tProduct[] public products\n      POP \t\t\tProduct[] public products\n      POP \t\t\tProduct[] public products\n      SWAP1 \t\t\tProduct[] public products\n      DUP1 \t\t\tProduct[] public products\n      PUSH 5\t\t\tProduct[] public products\n      ADD \t\t\tProduct[] public products\n      DUP1 \t\t\tProduct[] public products\n      SLOAD \t\t\tProduct[] public products\n      PUSH [tag] 122\t\t\tProduct[] public products\n      SWAP1 \t\t\tProduct[] public products\n      PUSH [tag] 44\t\t\tProduct[] public products\n      JUMP \t\t\tProduct[] public products\n    tag 122\t\t\tProduct[] public products\n      JUMPDEST \t\t\tProduct[] public products\n      DUP1 \t\t\tProduct[] public products\n      PUSH 1F\t\t\tProduct[] public products\n      ADD \t\t\tProduct[] public products\n      PUSH 20\t\t\tProduct[] public products\n      DUP1 \t\t\tProduct[] public products\n      SWAP2 \t\t\tProduct[] public products\n      DIV \t\t\tProduct[] public products\n      MUL \t\t\tProduct[] public products\n      PUSH 20\t\t\tProduct[] public products\n      ADD \t\t\tProduct[] public products\n      PUSH 40\t\t\tProduct[] public products\n      MLOAD \t\t\tProduct[] public products\n      SWAP1 \t\t\tProduct[] public products\n      DUP2 \t\t\tProduct[] public products\n      ADD \t\t\tProduct[] public products\n      PUSH 40\t\t\tProduct[] public products\n      MSTORE \t\t\tProduct[] public products\n      DUP1 \t\t\tProduct[] public products\n      SWAP3 \t\t\tProduct[] public products\n      SWAP2 \t\t\tProduct[] public products\n      SWAP1 \t\t\tProduct[] public products\n      DUP2 \t\t\tProduct[] public products\n      DUP2 \t\t\tProduct[] public products\n      MSTORE \t\t\tProduct[] public products\n      PUSH 20\t\t\tProduct[] public products\n      ADD \t\t\tProduct[] public products\n      DUP3 \t\t\tProduct[] public products\n      DUP1 \t\t\tProduct[] public products\n      SLOAD \t\t\tProduct[] public products\n      PUSH [tag] 123\t\t\tProduct[] public products\n      SWAP1 \t\t\tProduct[] public products\n      PUSH [tag] 44\t\t\tProduct[] public products\n      JUMP \t\t\tProduct[] public products\n    tag 123\t\t\tProduct[] public products\n      JUMPDEST \t\t\tProduct[] public products\n      DUP1 \t\t\tProduct[] public products\n      ISZERO \t\t\tProduct[] public products\n      PUSH [tag] 124\t\t\tProduct[] public products\n      JUMPI \t\t\tProduct[] public products\n      DUP1 \t\t\tProduct[] public products\n      PUSH 1F\t\t\tProduct[] public products\n      LT \t\t\tProduct[] public products\n      PUSH [tag] 125\t\t\tProduct[] public products\n      JUMPI \t\t\tProduct[] public products\n      PUSH 100\t\t\tProduct[] public products\n      DUP1 \t\t\tProduct[] public products\n      DUP4 \t\t\tProduct[] public products\n      SLOAD \t\t\tProduct[] public products\n      DIV \t\t\tProduct[] public products\n      MUL \t\t\tProduct[] public products\n      DUP4 \t\t\tProduct[] public products\n      MSTORE \t\t\tProduct[] public products\n      SWAP2 \t\t\tProduct[] public products\n      PUSH 20\t\t\tProduct[] public products\n      ADD \t\t\tProduct[] public products\n      SWAP2 \t\t\tProduct[] public products\n      PUSH [tag] 124\t\t\tProduct[] public products\n      JUMP \t\t\tProduct[] public products\n    tag 125\t\t\tProduct[] public products\n      JUMPDEST \t\t\tProduct[] public products\n      DUP3 \t\t\tProduct[] public products\n      ADD \t\t\tProduct[] public products\n      SWAP2 \t\t\tProduct[] public products\n      SWAP1 \t\t\tProduct[] public products\n      PUSH 0\t\t\tProduct[] public products\n      MSTORE \t\t\tProduct[] public products\n      PUSH 20\t\t\tProduct[] public products\n      PUSH 0\t\t\tProduct[] public products\n      KECCAK256 \t\t\tProduct[] public products\n      SWAP1 \t\t\tProduct[] public products\n    tag 126\t\t\tProduct[] public products\n      JUMPDEST \t\t\tProduct[] public products\n      DUP2 \t\t\tProduct[] public products\n      SLOAD \t\t\tProduct[] public products\n      DUP2 \t\t\tProduct[] public products\n      MSTORE \t\t\tProduct[] public products\n      SWAP1 \t\t\tProduct[] public products\n      PUSH 1\t\t\tProduct[] public products\n      ADD \t\t\tProduct[] public products\n      SWAP1 \t\t\tProduct[] public products\n      PUSH 20\t\t\tProduct[] public products\n      ADD \t\t\tProduct[] public products\n      DUP1 \t\t\tProduct[] public products\n      DUP4 \t\t\tProduct[] public products\n      GT \t\t\tProduct[] public products\n      PUSH [tag] 126\t\t\tProduct[] public products\n      JUMPI \t\t\tProduct[] public products\n      DUP3 \t\t\tProduct[] public products\n      SWAP1 \t\t\tProduct[] public products\n      SUB \t\t\tProduct[] public products\n      PUSH 1F\t\t\tProduct[] public products\n      AND \t\t\tProduct[] public products\n      DUP3 \t\t\tProduct[] public products\n      ADD \t\t\tProduct[] public products\n      SWAP2 \t\t\tProduct[] public products\n    tag 124\t\t\tProduct[] public products\n      JUMPDEST \t\t\tProduct[] public products\n      POP \t\t\tProduct[] public products\n      POP \t\t\tProduct[] public products\n      POP \t\t\tProduct[] public products\n      POP \t\t\tProduct[] public products\n      POP \t\t\tProduct[] public products\n      SWAP1 \t\t\tProduct[] public products\n      DUP1 \t\t\tProduct[] public products\n      PUSH 6\t\t\tProduct[] public products\n      ADD \t\t\tProduct[] public products\n      SLOAD \t\t\tProduct[] public products\n      SWAP1 \t\t\tProduct[] public products\n      DUP1 \t\t\tProduct[] public products\n      PUSH 7\t\t\tProduct[] public products\n      ADD \t\t\tProduct[] public products\n      PUSH 0\t\t\tProduct[] public products\n      SWAP1 \t\t\tProduct[] public products\n      SLOAD \t\t\tProduct[] public products\n      SWAP1 \t\t\tProduct[] public products\n      PUSH 100\t\t\tProduct[] public products\n      EXP \t\t\tProduct[] public products\n      SWAP1 \t\t\tProduct[] public products\n      DIV \t\t\tProduct[] public products\n      PUSH FF\t\t\tProduct[] public products\n      AND \t\t\tProduct[] public products\n      SWAP1 \t\t\tProduct[] public products\n      POP \t\t\tProduct[] public products\n      DUP9 \t\t\tProduct[] public products\n      JUMP \t\t\tProduct[] public products\n    tag 33\t\t\tfunction listProduct(string me...\n      JUMPDEST \t\t\tfunction listProduct(string me...\n      PUSH 0\t\t\t0\n      DUP2 \t\t\t_price\n      GT \t\t\t_price > 0\n      PUSH [tag] 128\t\t\trequire(_price > 0, \"Value of ...\n      JUMPI \t\t\trequire(_price > 0, \"Value of ...\n      PUSH 40\t\t\trequire(_price > 0, \"Value of ...\n      MLOAD \t\t\trequire(_price > 0, \"Value of ...\n      PUSH 8C379A000000000000000000000000000000000000000000000000000000000\t\t\trequire(_price > 0, \"Value of ...\n      DUP2 \t\t\trequire(_price > 0, \"Value of ...\n      MSTORE \t\t\trequire(_price > 0, \"Value of ...\n      PUSH 4\t\t\trequire(_price > 0, \"Value of ...\n      ADD \t\t\trequire(_price > 0, \"Value of ...\n      PUSH [tag] 129\t\t\trequire(_price > 0, \"Value of ...\n      SWAP1 \t\t\trequire(_price > 0, \"Value of ...\n      PUSH [tag] 130\t\t\trequire(_price > 0, \"Value of ...\n      JUMP \t\t\trequire(_price > 0, \"Value of ...\n    tag 129\t\t\trequire(_price > 0, \"Value of ...\n      JUMPDEST \t\t\trequire(_price > 0, \"Value of ...\n      PUSH 40\t\t\trequire(_price > 0, \"Value of ...\n      MLOAD \t\t\trequire(_price > 0, \"Value of ...\n      DUP1 \t\t\trequire(_price > 0, \"Value of ...\n      SWAP2 \t\t\trequire(_price > 0, \"Value of ...\n      SUB \t\t\trequire(_price > 0, \"Value of ...\n      SWAP1 \t\t\trequire(_price > 0, \"Value of ...\n      REVERT \t\t\trequire(_price > 0, \"Value of ...\n    tag 128\t\t\trequire(_price > 0, \"Value of ...\n      JUMPDEST \t\t\trequire(_price > 0, \"Value of ...\n      PUSH 0\t\t\tProduct memory productToBeAdde...\n      PUSH 40\t\t\tProduct({\\r\\n            id: p...\n      MLOAD \t\t\tProduct({\\r\\n            id: p...\n      DUP1 \t\t\tProduct({\\r\\n            id: p...\n      PUSH 100\t\t\tProduct({\\r\\n            id: p...\n      ADD \t\t\tProduct({\\r\\n            id: p...\n      PUSH 40\t\t\tProduct({\\r\\n            id: p...\n      MSTORE \t\t\tProduct({\\r\\n            id: p...\n      DUP1 \t\t\tProduct({\\r\\n            id: p...\n      PUSH 1\t\t\tproductCount\n      SLOAD \t\t\tproductCount\n      DUP2 \t\t\tProduct({\\r\\n            id: p...\n      MSTORE \t\t\tProduct({\\r\\n            id: p...\n      PUSH 20\t\t\tProduct({\\r\\n            id: p...\n      ADD \t\t\tProduct({\\r\\n            id: p...\n      CALLER \t\t\tmsg.sender\n      PUSH FFFFFFFFFFFFFFFFFFFFFFFFFFFFFFFFFFFFFFFF\t\t\tProduct({\\r\\n            id: p...\n      AND \t\t\tProduct({\\r\\n            id: p...\n      DUP2 \t\t\tProduct({\\r\\n            id: p...\n      MSTORE \t\t\tProduct({\\r\\n            id: p...\n      PUSH 20\t\t\tProduct({\\r\\n            id: p...\n      ADD \t\t\tProduct({\\r\\n            id: p...\n      CALLER \t\t\tmsg.sender\n      PUSH FFFFFFFFFFFFFFFFFFFFFFFFFFFFFFFFFFFFFFFF\t\t\tProduct({\\r\\n            id: p...\n      AND \t\t\tProduct({\\r\\n            id: p...\n      DUP2 \t\t\tProduct({\\r\\n            id: p...\n      MSTORE \t\t\tProduct({\\r\\n            id: p...\n      PUSH 20\t\t\tProduct({\\r\\n            id: p...\n      ADD \t\t\tProduct({\\r\\n            id: p...\n      DUP7 \t\t\t_title\n      DUP2 \t\t\tProduct({\\r\\n            id: p...\n      MSTORE \t\t\tProduct({\\r\\n            id: p...\n      PUSH 20\t\t\tProduct({\\r\\n            id: p...\n      ADD \t\t\tProduct({\\r\\n            id: p...\n      DUP6 \t\t\t_description\n      DUP2 \t\t\tProduct({\\r\\n            id: p...\n      MSTORE \t\t\tProduct({\\r\\n            id: p...\n      PUSH 20\t\t\tProduct({\\r\\n            id: p...\n      ADD \t\t\tProduct({\\r\\n            id: p...\n      DUP5 \t\t\t_imageHash\n      DUP2 \t\t\tProduct({\\r\\n            id: p...\n      MSTORE \t\t\tProduct({\\r\\n            id: p...\n      PUSH 20\t\t\tProduct({\\r\\n            id: p...\n      ADD \t\t\tProduct({\\r\\n            id: p...\n      DUP4 \t\t\t_price\n      DUP2 \t\t\tProduct({\\r\\n            id: p...\n      MSTORE \t\t\tProduct({\\r\\n            id: p...\n      PUSH 20\t\t\tProduct({\\r\\n            id: p...\n      ADD \t\t\tProduct({\\r\\n            id: p...\n      PUSH 0\t\t\tfalse\n      ISZERO \t\t\tProduct({\\r\\n            id: p...\n      ISZERO \t\t\tProduct({\\r\\n            id: p...\n      DUP2 \t\t\tProduct({\\r\\n            id: p...\n      MSTORE \t\t\tProduct({\\r\\n            id: p...\n      POP \t\t\tProduct({\\r\\n            id: p...\n      SWAP1 \t\t\tProduct memory productToBeAdde...\n      POP \t\t\tProduct memory productToBeAdde...\n      PUSH 0\t\t\tproducts\n      DUP2 \t\t\tproductToBeAdded\n      SWAP1 \t\t\tproducts.push(productToBeAdded...\n      DUP1 \t\t\tproducts.push(productToBeAdded...\n      PUSH 1\t\t\tproducts.push(productToBeAdded...\n      DUP2 \t\t\tproducts.push(productToBeAdded...\n      SLOAD \t\t\tproducts.push(productToBeAdded...\n      ADD \t\t\tproducts.push(productToBeAdded...\n      DUP1 \t\t\tproducts.push(productToBeAdded...\n      DUP3 \t\t\tproducts.push(productToBeAdded...\n      SSTORE \t\t\tproducts.push(productToBeAdded...\n      DUP1 \t\t\tproducts.push(productToBeAdded...\n      SWAP2 \t\t\tproducts.push(productToBeAdded...\n      POP \t\t\tproducts.push(productToBeAdded...\n      POP \t\t\tproducts.push(productToBeAdded...\n      PUSH 1\t\t\tproducts.push(productToBeAdded...\n      SWAP1 \t\t\tproducts.push(productToBeAdded...\n      SUB \t\t\tproducts.push(productToBeAdded...\n      SWAP1 \t\t\tproducts.push(productToBeAdded...\n      PUSH 0\t\t\tproducts.push(productToBeAdded...\n      MSTORE \t\t\tproducts.push(productToBeAdded...\n      PUSH 20\t\t\tproducts.push(productToBeAdded...\n      PUSH 0\t\t\tproducts.push(productToBeAdded...\n      KECCAK256 \t\t\tproducts.push(productToBeAdded...\n      SWAP1 \t\t\tproducts.push(productToBeAdded...\n      PUSH 8\t\t\tproducts.push(productToBeAdded...\n      MUL \t\t\tproducts.push(productToBeAdded...\n      ADD \t\t\tproducts.push(productToBeAdded...\n      PUSH 0\t\t\tproducts.push(productToBeAdded...\n      SWAP1 \t\t\tproducts.push(productToBeAdded...\n      SWAP2 \t\t\tproducts.push(productToBeAdded...\n      SWAP1 \t\t\tproducts.push(productToBeAdded...\n      SWAP2 \t\t\tproducts.push(productToBeAdded...\n      SWAP1 \t\t\tproducts.push(productToBeAdded...\n      SWAP2 \t\t\tproducts.push(productToBeAdded...\n      POP \t\t\tproducts.push(productToBeAdded...\n      PUSH 0\t\t\tproducts.push(productToBeAdded...\n      DUP3 \t\t\tproducts.push(productToBeAdded...\n      ADD \t\t\tproducts.push(productToBeAdded...\n      MLOAD \t\t\tproducts.push(productToBeAdded...\n      DUP2 \t\t\tproducts.push(productToBeAdded...\n      PUSH 0\t\t\tproducts.push(productToBeAdded...\n      ADD \t\t\tproducts.push(productToBeAdded...\n      SSTORE \t\t\tproducts.push(productToBeAdded...\n      PUSH 20\t\t\tproducts.push(productToBeAdded...\n      DUP3 \t\t\tproducts.push(productToBeAdded...\n      ADD \t\t\tproducts.push(productToBeAdded...\n      MLOAD \t\t\tproducts.push(productToBeAdded...\n      DUP2 \t\t\tproducts.push(productToBeAdded...\n      PUSH 1\t\t\tproducts.push(productToBeAdded...\n      ADD \t\t\tproducts.push(productToBeAdded...\n      PUSH 0\t\t\tproducts.push(productToBeAdded...\n      PUSH 100\t\t\tproducts.push(productToBeAdded...\n      EXP \t\t\tproducts.push(productToBeAdded...\n      DUP2 \t\t\tproducts.push(productToBeAdded...\n      SLOAD \t\t\tproducts.push(productToBeAdded...\n      DUP2 \t\t\tproducts.push(productToBeAdded...\n      PUSH FFFFFFFFFFFFFFFFFFFFFFFFFFFFFFFFFFFFFFFF\t\t\tproducts.push(productToBeAdded...\n      MUL \t\t\tproducts.push(productToBeAdded...\n      NOT \t\t\tproducts.push(productToBeAdded...\n      AND \t\t\tproducts.push(productToBeAdded...\n      SWAP1 \t\t\tproducts.push(productToBeAdded...\n      DUP4 \t\t\tproducts.push(productToBeAdded...\n      PUSH FFFFFFFFFFFFFFFFFFFFFFFFFFFFFFFFFFFFFFFF\t\t\tproducts.push(productToBeAdded...\n      AND \t\t\tproducts.push(productToBeAdded...\n      MUL \t\t\tproducts.push(productToBeAdded...\n      OR \t\t\tproducts.push(productToBeAdded...\n      SWAP1 \t\t\tproducts.push(productToBeAdded...\n      SSTORE \t\t\tproducts.push(productToBeAdded...\n      POP \t\t\tproducts.push(productToBeAdded...\n      PUSH 40\t\t\tproducts.push(productToBeAdded...\n      DUP3 \t\t\tproducts.push(productToBeAdded...\n      ADD \t\t\tproducts.push(productToBeAdded...\n      MLOAD \t\t\tproducts.push(productToBeAdded...\n      DUP2 \t\t\tproducts.push(productToBeAdded...\n      PUSH 2\t\t\tproducts.push(productToBeAdded...\n      ADD \t\t\tproducts.push(productToBeAdded...\n      PUSH 0\t\t\tproducts.push(productToBeAdded...\n      PUSH 100\t\t\tproducts.push(productToBeAdded...\n      EXP \t\t\tproducts.push(productToBeAdded...\n      DUP2 \t\t\tproducts.push(productToBeAdded...\n      SLOAD \t\t\tproducts.push(productToBeAdded...\n      DUP2 \t\t\tproducts.push(productToBeAdded...\n      PUSH FFFFFFFFFFFFFFFFFFFFFFFFFFFFFFFFFFFFFFFF\t\t\tproducts.push(productToBeAdded...\n      MUL \t\t\tproducts.push(productToBeAdded...\n      NOT \t\t\tproducts.push(productToBeAdded...\n      AND \t\t\tproducts.push(productToBeAdded...\n      SWAP1 \t\t\tproducts.push(productToBeAdded...\n      DUP4 \t\t\tproducts.push(productToBeAdded...\n      PUSH FFFFFFFFFFFFFFFFFFFFFFFFFFFFFFFFFFFFFFFF\t\t\tproducts.push(productToBeAdded...\n      AND \t\t\tproducts.push(productToBeAdded...\n      MUL \t\t\tproducts.push(productToBeAdded...\n      OR \t\t\tproducts.push(productToBeAdded...\n      SWAP1 \t\t\tproducts.push(productToBeAdded...\n      SSTORE \t\t\tproducts.push(productToBeAdded...\n      POP \t\t\tproducts.push(productToBeAdded...\n      PUSH 60\t\t\tproducts.push(productToBeAdded...\n      DUP3 \t\t\tproducts.push(productToBeAdded...\n      ADD \t\t\tproducts.push(productToBeAdded...\n      MLOAD \t\t\tproducts.push(productToBeAdded...\n      DUP2 \t\t\tproducts.push(productToBeAdded...\n      PUSH 3\t\t\tproducts.push(productToBeAdded...\n      ADD \t\t\tproducts.push(productToBeAdded...\n      SWAP1 \t\t\tproducts.push(productToBeAdded...\n      DUP2 \t\t\tproducts.push(productToBeAdded...\n      PUSH [tag] 132\t\t\tproducts.push(productToBeAdded...\n      SWAP2 \t\t\tproducts.push(productToBeAdded...\n      SWAP1 \t\t\tproducts.push(productToBeAdded...\n      PUSH [tag] 133\t\t\tproducts.push(productToBeAdded...\n      JUMP \t\t\tproducts.push(productToBeAdded...\n    tag 132\t\t\tproducts.push(productToBeAdded...\n      JUMPDEST \t\t\tproducts.push(productToBeAdded...\n      POP \t\t\tproducts.push(productToBeAdded...\n      PUSH 80\t\t\tproducts.push(productToBeAdded...\n      DUP3 \t\t\tproducts.push(productToBeAdded...\n      ADD \t\t\tproducts.push(productToBeAdded...\n      MLOAD \t\t\tproducts.push(productToBeAdded...\n      DUP2 \t\t\tproducts.push(productToBeAdded...\n      PUSH 4\t\t\tproducts.push(productToBeAdded...\n      ADD \t\t\tproducts.push(productToBeAdded...\n      SWAP1 \t\t\tproducts.push(productToBeAdded...\n      DUP2 \t\t\tproducts.push(productToBeAdded...\n      PUSH [tag] 134\t\t\tproducts.push(productToBeAdded...\n      SWAP2 \t\t\tproducts.push(productToBeAdded...\n      SWAP1 \t\t\tproducts.push(productToBeAdded...\n      PUSH [tag] 133\t\t\tproducts.push(productToBeAdded...\n      JUMP \t\t\tproducts.push(productToBeAdded...\n    tag 134\t\t\tproducts.push(productToBeAdded...\n      JUMPDEST \t\t\tproducts.push(productToBeAdded...\n      POP \t\t\tproducts.push(productToBeAdded...\n      PUSH A0\t\t\tproducts.push(productToBeAdded...\n      DUP3 \t\t\tproducts.push(productToBeAdded...\n      ADD \t\t\tproducts.push(productToBeAdded...\n      MLOAD \t\t\tproducts.push(productToBeAdded...\n      DUP2 \t\t\tproducts.push(productToBeAdded...\n      PUSH 5\t\t\tproducts.push(productToBeAdded...\n      ADD \t\t\tproducts.push(productToBeAdded...\n      SWAP1 \t\t\tproducts.push(productToBeAdded...\n      DUP2 \t\t\tproducts.push(productToBeAdded...\n      PUSH [tag] 135\t\t\tproducts.push(productToBeAdded...\n      SWAP2 \t\t\tproducts.push(productToBeAdded...\n      SWAP1 \t\t\tproducts.push(productToBeAdded...\n      PUSH [tag] 133\t\t\tproducts.push(productToBeAdded...\n      JUMP \t\t\tproducts.push(productToBeAdded...\n    tag 135\t\t\tproducts.push(productToBeAdded...\n      JUMPDEST \t\t\tproducts.push(productToBeAdded...\n      POP \t\t\tproducts.push(productToBeAdded...\n      PUSH C0\t\t\tproducts.push(productToBeAdded...\n      DUP3 \t\t\tproducts.push(productToBeAdded...\n      ADD \t\t\tproducts.push(productToBeAdded...\n      MLOAD \t\t\tproducts.push(productToBeAdded...\n      DUP2 \t\t\tproducts.push(productToBeAdded...\n      PUSH 6\t\t\tproducts.push(productToBeAdded...\n      ADD \t\t\tproducts.push(productToBeAdded...\n      SSTORE \t\t\tproducts.push(productToBeAdded...\n      PUSH E0\t\t\tproducts.push(productToBeAdded...\n      DUP3 \t\t\tproducts.push(productToBeAdded...\n      ADD \t\t\tproducts.push(productToBeAdded...\n      MLOAD \t\t\tproducts.push(productToBeAdded...\n      DUP2 \t\t\tproducts.push(productToBeAdded...\n      PUSH 7\t\t\tproducts.push(productToBeAdded...\n      ADD \t\t\tproducts.push(productToBeAdded...\n      PUSH 0\t\t\tproducts.push(productToBeAdded...\n      PUSH 100\t\t\tproducts.push(productToBeAdded...\n      EXP \t\t\tproducts.push(productToBeAdded...\n      DUP2 \t\t\tproducts.push(productToBeAdded...\n      SLOAD \t\t\tproducts.push(productToBeAdded...\n      DUP2 \t\t\tproducts.push(productToBeAdded...\n      PUSH FF\t\t\tproducts.push(productToBeAdded...\n      MUL \t\t\tproducts.push(productToBeAdded...\n      NOT \t\t\tproducts.push(productToBeAdded...\n      AND \t\t\tproducts.push(productToBeAdded...\n      SWAP1 \t\t\tproducts.push(productToBeAdded...\n      DUP4 \t\t\tproducts.push(productToBeAdded...\n      ISZERO \t\t\tproducts.push(productToBeAdded...\n      ISZERO \t\t\tproducts.push(productToBeAdded...\n      MUL \t\t\tproducts.push(productToBeAdded...\n      OR \t\t\tproducts.push(productToBeAdded...\n      SWAP1 \t\t\tproducts.push(productToBeAdded...\n      SSTORE \t\t\tproducts.push(productToBeAdded...\n      POP \t\t\tproducts.push(productToBeAdded...\n      POP \t\t\tproducts.push(productToBeAdded...\n      POP \t\t\tproducts.push(productToBeAdded...\n      CALLER \t\t\tmsg.sender\n      PUSH FFFFFFFFFFFFFFFFFFFFFFFFFFFFFFFFFFFFFFFF\t\t\tproductListed(productCount, ms...\n      AND \t\t\tproductListed(productCount, ms...\n      PUSH 1\t\t\tproductCount\n      SLOAD \t\t\tproductCount\n      PUSH CACA718769B36464485951C1AFB94414B8F5B85B6A614A72FD5D1D2E85DF19B6\t\t\tproductListed(productCount, ms...\n      DUP8 \t\t\t_title\n      DUP7 \t\t\t_imageHash\n      DUP7 \t\t\t_price\n      PUSH 40\t\t\tproductListed(productCount, ms...\n      MLOAD \t\t\tproductListed(productCount, ms...\n      PUSH [tag] 136\t\t\tproductListed(productCount, ms...\n      SWAP4 \t\t\tproductListed(productCount, ms...\n      SWAP3 \t\t\tproductListed(productCount, ms...\n      SWAP2 \t\t\tproductListed(productCount, ms...\n      SWAP1 \t\t\tproductListed(productCount, ms...\n      PUSH [tag] 137\t\t\tproductListed(productCount, ms...\n      JUMP \t\t\tproductListed(productCount, ms...\n    tag 136\t\t\tproductListed(productCount, ms...\n      JUMPDEST \t\t\tproductListed(productCount, ms...\n      PUSH 40\t\t\tproductListed(productCount, ms...\n      MLOAD \t\t\tproductListed(productCount, ms...\n      DUP1 \t\t\tproductListed(productCount, ms...\n      SWAP2 \t\t\tproductListed(productCount, ms...\n      SUB \t\t\tproductListed(productCount, ms...\n      SWAP1 \t\t\tproductListed(productCount, ms...\n      LOG3 \t\t\tproductListed(productCount, ms...\n      PUSH 1\t\t\tproductCount\n      PUSH 0\t\t\tproductCount\n      DUP2 \t\t\tproductCount++\n      SLOAD \t\t\tproductCount++\n      DUP1 \t\t\tproductCount++\n      SWAP3 \t\t\tproductCount++\n      SWAP2 \t\t\tproductCount++\n      SWAP1 \t\t\tproductCount++\n      PUSH [tag] 138\t\t\tproductCount++\n      SWAP1 \t\t\tproductCount++\n      PUSH [tag] 139\t\t\tproductCount++\n      JUMP \t\t\tproductCount++\n    tag 138\t\t\tproductCount++\n      JUMPDEST \t\t\tproductCount++\n      SWAP2 \t\t\tproductCount++\n      SWAP1 \t\t\tproductCount++\n      POP \t\t\tproductCount++\n      SSTORE \t\t\tproductCount++\n      POP \t\t\tproductCount++\n      POP \t\t\t{\\r\\n        require(_price > ...\n      POP \t\t\tfunction listProduct(string me...\n      POP \t\t\tfunction listProduct(string me...\n      POP \t\t\tfunction listProduct(string me...\n      POP \t\t\tfunction listProduct(string me...\n      JUMP \t\t\tfunction listProduct(string me...\n    tag 36\t\t\tuint public productCount\n      JUMPDEST \t\t\tuint public productCount\n      PUSH 1\t\t\tuint public productCount\n      SLOAD \t\t\tuint public productCount\n      DUP2 \t\t\tuint public productCount\n      JUMP \t\t\tuint public productCount\n    tag 87\t\t\t\n      JUMPDEST \t\t\t\n      PUSH 40\t\t\t\n      MLOAD \t\t\t\n      DUP1 \t\t\t\n      PUSH 100\t\t\t\n      ADD \t\t\t\n      PUSH 40\t\t\t\n      MSTORE \t\t\t\n      DUP1 \t\t\t\n      PUSH 0\t\t\t\n      DUP2 \t\t\t\n      MSTORE \t\t\t\n      PUSH 20\t\t\t\n      ADD \t\t\t\n      PUSH 0\t\t\t\n      PUSH FFFFFFFFFFFFFFFFFFFFFFFFFFFFFFFFFFFFFFFF\t\t\t\n      AND \t\t\t\n      DUP2 \t\t\t\n      MSTORE \t\t\t\n      PUSH 20\t\t\t\n      ADD \t\t\t\n      PUSH 0\t\t\t\n      PUSH FFFFFFFFFFFFFFFFFFFFFFFFFFFFFFFFFFFFFFFF\t\t\t\n      AND \t\t\t\n      DUP2 \t\t\t\n      MSTORE \t\t\t\n      PUSH 20\t\t\t\n      ADD \t\t\t\n      PUSH 60\t\t\t\n      DUP2 \t\t\t\n      MSTORE \t\t\t\n      PUSH 20\t\t\t\n      ADD \t\t\t\n      PUSH 60\t\t\t\n      DUP2 \t\t\t\n      MSTORE \t\t\t\n      PUSH 20\t\t\t\n      ADD \t\t\t\n      PUSH 60\t\t\t\n      DUP2 \t\t\t\n      MSTORE \t\t\t\n      PUSH 20\t\t\t\n      ADD \t\t\t\n      PUSH 0\t\t\t\n      DUP2 \t\t\t\n      MSTORE \t\t\t\n      PUSH 20\t\t\t\n      ADD \t\t\t\n      PUSH 0\t\t\t\n      ISZERO \t\t\t\n      ISZERO \t\t\t\n      DUP2 \t\t\t\n      MSTORE \t\t\t\n      POP \t\t\t\n      SWAP1 \t\t\t\n      JUMP \t\t\t\n    tag 140\t\t\t-License-Identifier: MIT\\r\\npr...\n      JUMPDEST \t\t\t-License-Identifier: MIT\\r\\npr...\n      PUSH 0\t\t\toduct \n      DUP2 \t\t\t addr\n      MLOAD \t\t\t       addre\n      SWAP1 \t\t\tint id;\\r\\n        addre\n      POP \t\t\tint id;\\r\\n        addre\n      SWAP2 \t\t\t-License-Identifier: MIT\\r\\npr...\n      SWAP1 \t\t\t-License-Identifier: MIT\\r\\npr...\n      POP \t\t\t-License-Identifier: MIT\\r\\npr...\n      JUMP \t\t\t-License-Identifier: MIT\\r\\npr...\n    tag 141\t\t\tller;\\r\\n        address payab...\n      JUMPDEST \t\t\tller;\\r\\n        address payab...\n      PUSH 0\t\t\t    uint pr\n      DUP3 \t\t\t;\\r\\n   \n      DUP3 \t\t\t so\n      MSTORE \t\t\t   bool sold;\\r\\n    \n      PUSH 20\t\t\ts;\\r\\n\n      DUP3 \t\t\todu\n      ADD \t\t\tc products;\\r\\n \n      SWAP1 \t\t\tProduct[] public products;\\r\\n...\n      POP \t\t\tProduct[] public products;\\r\\n...\n      SWAP3 \t\t\tller;\\r\\n        address payab...\n      SWAP2 \t\t\tller;\\r\\n        address payab...\n      POP \t\t\tller;\\r\\n        address payab...\n      POP \t\t\tller;\\r\\n        address payab...\n      JUMP \t\t\tller;\\r\\n        address payab...\n    tag 142\t\t\tic productCount;\\r\\n    \\r\\n  ...\n      JUMPDEST \t\t\tic productCount;\\r\\n    \\r\\n  ...\n      PUSH 0\t\t\tprod\n      DUP2 \t\t\td p\n      SWAP1 \t\t\tt indexed p\n      POP \t\t\tt indexed p\n      PUSH 20\t\t\tuyer\n      DUP3 \t\t\txed\n      ADD \t\t\tindexed buyer,\n      SWAP1 \t\t\taddress indexed buyer,\n      POP \t\t\taddress indexed buyer,\n      SWAP2 \t\t\tic productCount;\\r\\n    \\r\\n  ...\n      SWAP1 \t\t\tic productCount;\\r\\n    \\r\\n  ...\n      POP \t\t\tic productCount;\\r\\n    \\r\\n  ...\n      JUMP \t\t\tic productCount;\\r\\n    \\r\\n  ...\n    tag 143\t\t\ted seller, uint price);\\r\\n   ...\n      JUMPDEST \t\t\ted seller, uint price);\\r\\n   ...\n      PUSH 0\t\t\tymentOf\n      DUP2 \t\t\td fro\n      SWAP1 \t\t\tress indexed fro\n      POP \t\t\tress indexed fro\n      SWAP2 \t\t\ted seller, uint price);\\r\\n   ...\n      SWAP1 \t\t\ted seller, uint price);\\r\\n   ...\n      POP \t\t\ted seller, uint price);\\r\\n   ...\n      JUMP \t\t\ted seller, uint price);\\r\\n   ...\n    tag 144\t\t\tdress indexed toAddress,uint25...\n      JUMPDEST \t\t\tdress indexed toAddress,uint25...\n      PUSH [tag] 219\t\t\t productId, address inde\n      DUP2 \t\t\ts ind\n      PUSH [tag] 143\t\t\t productId, address inde\n      JUMP \t\t\t productId, address inde\n    tag 219\t\t\t productId, address inde\n      JUMPDEST \t\t\t productId, address inde\n      DUP3 \t\t\tdex\n      MSTORE \t\t\tuint indexed productId, addres...\n      POP \t\t\tdress indexed toAddress,uint25...\n      POP \t\t\tdress indexed toAddress,uint25...\n      JUMP \t\t\tdress indexed toAddress,uint25...\n    tag 145\t\t\ttring title, string imageHash,...\n      JUMPDEST \t\t\ttring title, string imageHash,...\n      PUSH 0\t\t\trice);\\r\n      PUSH FFFFFFFFFFFFFFFFFFFFFFFFFFFFFFFFFFFFFFFF\t\t\tg a product to the List\\r\\n   ...\n      DUP3 \t\t\tr add\n      AND \t\t\tn for adding a product to the ...\n      SWAP1 \t\t\t // Function for adding a prod...\n      POP \t\t\t // Function for adding a prod...\n      SWAP2 \t\t\ttring title, string imageHash,...\n      SWAP1 \t\t\ttring title, string imageHash,...\n      POP \t\t\ttring title, string imageHash,...\n      JUMP \t\t\ttring title, string imageHash,...\n    tag 146\t\t\tg memory _title, string memory...\n      JUMPDEST \t\t\tg memory _title, string memory...\n      PUSH 0\t\t\tstring \n      PUSH [tag] 222\t\t\tt _price) public {\\r\\n    \n      DUP3 \t\t\t\\r\\n   \n      PUSH [tag] 145\t\t\tt _price) public {\\r\\n    \n      JUMP \t\t\tt _price) public {\\r\\n    \n    tag 222\t\t\tt _price) public {\\r\\n    \n      JUMPDEST \t\t\tt _price) public {\\r\\n    \n      SWAP1 \t\t\tgeHash, uint _price) public {\\...\n      POP \t\t\tgeHash, uint _price) public {\\...\n      SWAP2 \t\t\tg memory _title, string memory...\n      SWAP1 \t\t\tg memory _title, string memory...\n      POP \t\t\tg memory _title, string memory...\n      JUMP \t\t\tg memory _title, string memory...\n    tag 147\t\t\t_price > 0, \"Value of Product ...\n      JUMPDEST \t\t\t_price > 0, \"Value of Product ...\n      PUSH [tag] 224\t\t\toBeAdded = Product({\\r\\n      ...\n      DUP2 \t\t\t     \n      PUSH [tag] 146\t\t\toBeAdded = Product({\\r\\n      ...\n      JUMP \t\t\toBeAdded = Product({\\r\\n      ...\n    tag 224\t\t\toBeAdded = Product({\\r\\n      ...\n      JUMPDEST \t\t\toBeAdded = Product({\\r\\n      ...\n      DUP3 \t\t\tduc\n      MSTORE \t\t\tory productToBeAdded = Product...\n      POP \t\t\t_price > 0, \"Value of Product ...\n      POP \t\t\t_price > 0, \"Value of Product ...\n      JUMP \t\t\t_price > 0, \"Value of Product ...\n    tag 148\t\t\tCount,\\r\\n            seller: ...\n      JUMPDEST \t\t\tCount,\\r\\n            seller: ...\n      PUSH 0\t\t\t      \n      DUP2 \t\t\tder),\n      MLOAD \t\t\tsg.sender),\\r\n      SWAP1 \t\t\tpayable (msg.sender),\\r\n      POP \t\t\tpayable (msg.sender),\\r\n      SWAP2 \t\t\tCount,\\r\\n            seller: ...\n      SWAP1 \t\t\tCount,\\r\\n            seller: ...\n      POP \t\t\tCount,\\r\\n            seller: ...\n      JUMP \t\t\tCount,\\r\\n            seller: ...\n    tag 149\t\t\ttitle: _title,\\r\\n            ...\n      JUMPDEST \t\t\ttitle: _title,\\r\\n            ...\n      PUSH 0\t\t\tash: _image\n      DUP3 \t\t\te: _pr\n      DUP3 \t\t\t pr\n      MSTORE \t\t\t        price: _pri\n      PUSH 20\t\t\t    \n      DUP3 \t\t\t\\r\\n \n      ADD \t\t\talse\\r\\n        \n      SWAP1 \t\t\t        sold: false\\r\\n       ...\n      POP \t\t\t        sold: false\\r\\n       ...\n      SWAP3 \t\t\ttitle: _title,\\r\\n            ...\n      SWAP2 \t\t\ttitle: _title,\\r\\n            ...\n      POP \t\t\ttitle: _title,\\r\\n            ...\n      POP \t\t\ttitle: _title,\\r\\n            ...\n      JUMP \t\t\ttitle: _title,\\r\\n            ...\n    tag 150\t\t\t products.push(productToBeAdde...\n      JUMPDEST \t\t\t products.push(productToBeAdde...\n      DUP3 \t\t\ttitle,\n      DUP2 \t\t\ter,\n      DUP4 \t\t\t.se\n      MCOPY \t\t\tt, msg.sender, _title, \n      PUSH 0\t\t\tu\n      DUP4 \t\t\t     p\n      DUP4 \t\t\t\\r\\n \n      ADD \t\t\tce);\\r\\n        pr\n      MSTORE \t\t\th, _price);\\r\\n        produc\n      POP \t\t\t products.push(productToBeAdde...\n      POP \t\t\t products.push(productToBeAdde...\n      POP \t\t\t products.push(productToBeAdde...\n      JUMP \t\t\t products.push(productToBeAdde...\n    tag 151\t\t\t  }\\r\\n\\r\\n    // Function cal...\n      JUMPDEST \t\t\t  }\\r\\n\\r\\n    // Function cal...\n      PUSH 0\t\t\tg the \n      PUSH 1F\t\t\td)\n      NOT \t\t\tt _id) \n      PUSH 1F\t\t\tt(\n      DUP4 \t\t\teProd\n      ADD \t\t\tchaseProduct(u\n      AND \t\t\t purchaseProduct(uint _id) e\n      SWAP1 \t\t\t  function purchaseProduct(uin...\n      POP \t\t\t  function purchaseProduct(uin...\n      SWAP2 \t\t\t  }\\r\\n\\r\\n    // Function cal...\n      SWAP1 \t\t\t  }\\r\\n\\r\\n    // Function cal...\n      POP \t\t\t  }\\r\\n\\r\\n    // Function cal...\n      JUMP \t\t\t  }\\r\\n\\r\\n    // Function cal...\n    tag 152\t\t\tble {\\r\\n    require(_id < pro...\n      JUMPDEST \t\t\tble {\\r\\n    require(_id < pro...\n      PUSH 0\t\t\t st\n      PUSH [tag] 230\t\t\troducts[_id];\\r\\n    require(m...\n      DUP3 \t\t\tlue =\n      PUSH [tag] 148\t\t\troducts[_id];\\r\\n    require(m...\n      JUMP \t\t\troducts[_id];\\r\\n    require(m...\n    tag 230\t\t\troducts[_id];\\r\\n    require(m...\n      JUMPDEST \t\t\troducts[_id];\\r\\n    require(m...\n      PUSH [tag] 231\t\t\t.price, \"Incorrect amount, ple...\n      DUP2 \t\t\t\");\\r\\n \n      DUP6 \t\t\tpri\n      PUSH [tag] 149\t\t\t.price, \"Incorrect amount, ple...\n      JUMP \t\t\t.price, \"Incorrect amount, ple...\n    tag 231\t\t\t.price, \"Incorrect amount, ple...\n      JUMPDEST \t\t\t.price, \"Incorrect amount, ple...\n      SWAP4 \t\t\tProduct.price, \"Incorrect amou...\n      POP \t\t\tProduct.price, \"Incorrect amou...\n      PUSH [tag] 232\t\t\t(!selectedProduct.sold, \"Item ...\n      DUP2 \t\t\tire(ms\n      DUP6 \t\t\t re\n      PUSH 20\t\t\t);\\r\\n\n      DUP7 \t\t\ty sol\n      ADD \t\t\tready sold\");\\r\\n \n      PUSH [tag] 150\t\t\t(!selectedProduct.sold, \"Item ...\n      JUMP \t\t\t(!selectedProduct.sold, \"Item ...\n    tag 232\t\t\t(!selectedProduct.sold, \"Item ...\n      JUMPDEST \t\t\t(!selectedProduct.sold, \"Item ...\n      PUSH [tag] 233\t\t\tt.owner, \"Item owner cannot p\n      DUP2 \t\t\tannot \n      PUSH [tag] 151\t\t\tt.owner, \"Item owner cannot p\n      JUMP \t\t\tt.owner, \"Item owner cannot p\n    tag 233\t\t\tt.owner, \"Item owner cannot p\n      JUMPDEST \t\t\tt.owner, \"Item owner cannot p\n      DUP5 \t\t\trod\n      ADD \t\t\ttedProduct.owner, \"Item owner ...\n      SWAP2 \t\t\t= selectedProduct.owner, \"Item...\n      POP \t\t\t= selectedProduct.owner, \"Item...\n      POP \t\t\trage selectedProduct = product...\n      SWAP3 \t\t\tble {\\r\\n    require(_id < pro...\n      SWAP2 \t\t\tble {\\r\\n    require(_id < pro...\n      POP \t\t\tble {\\r\\n    require(_id < pro...\n      POP \t\t\tble {\\r\\n    require(_id < pro...\n      JUMP \t\t\tble {\\r\\n    require(_id < pro...\n    tag 153\t\t\t own item\");\\r\\n\\r\\n    (bool ...\n      JUMPDEST \t\t\t own item\");\\r\\n\\r\\n    (bool ...\n      PUSH 0\t\t\tred, ) \n      DUP2 \t\t\tmsg.v\n      ISZERO \t\t\tvalue: msg.va\n      ISZERO \t\t\tr.call{value: msg.val\n      SWAP1 \t\t\troduct.owner.call{value: msg.v...\n      POP \t\t\troduct.owner.call{value: msg.v...\n      SWAP2 \t\t\t own item\");\\r\\n\\r\\n    (bool ...\n      SWAP1 \t\t\t own item\");\\r\\n\\r\\n    (bool ...\n      POP \t\t\t own item\");\\r\\n\\r\\n    (bool ...\n      JUMP \t\t\t own item\");\\r\\n\\r\\n    (bool ...\n    tag 154\t\t\t  require(transferred, \"Ether ...\n      JUMPDEST \t\t\t  require(transferred, \"Ether ...\n      PUSH [tag] 236\t\t\te ownership from sell\n      DUP2 \t\t\tm sel\n      PUSH [tag] 153\t\t\te ownership from sell\n      JUMP \t\t\te ownership from sell\n    tag 236\t\t\te ownership from sell\n      JUMPDEST \t\t\te ownership from sell\n      DUP3 \t\t\tng \n      MSTORE \t\t\tAssigning the ownership from s...\n      POP \t\t\t  require(transferred, \"Ether ...\n      POP \t\t\t  require(transferred, \"Ether ...\n      JUMP \t\t\t  require(transferred, \"Ether ...\n    tag 155\t\t\tedProduct.owner = payable(msg....\n      JUMPDEST \t\t\tedProduct.owner = payable(msg....\n      PUSH 0\t\t\tLog\n      PUSH 100\t\t\tProduc\n      DUP4 \t\t\tent\n      ADD \t\t\tpaymentOfProduct\n      PUSH 0\t\t\t, ms\n      DUP4 \t\t\tusOwn\n      ADD \t\t\teviousOwner, msg\n      MLOAD \t\t\tid, previousOwner, msg.\n      PUSH [tag] 238\t\t\ttedProduct.price);\\r\\n}\\r\\n\\r\\...\n      PUSH 0\t\t\to re\n      DUP7 \t\t\tall\n      ADD \t\t\ton call to ret\n      DUP3 \t\t\t // Get Func\n      PUSH [tag] 144\t\t\ttedProduct.price);\\r\\n}\\r\\n\\r\\...\n      JUMP \t\t\ttedProduct.price);\\r\\n}\\r\\n\\r\\...\n    tag 238\t\t\ttedProduct.price);\\r\\n}\\r\\n\\r\\...\n      JUMPDEST \t\t\ttedProduct.price);\\r\\n}\\r\\n\\r\\...\n      POP \t\t\tr, previousOwner, msg.value);\\...\n      PUSH 20\t\t\tmemo\n      DUP4 \t\t\tduct[\n      ADD \t\t\t(Product[] memor\n      MLOAD \t\t\tturns (Product[] memory\n      PUSH [tag] 239\t\t\treturn products;\\r\\n    }\\r\\n\\...\n      PUSH 20\t\t\t by \n      DUP7 \t\t\todu\n      ADD \t\t\ta product by a\n      DUP3 \t\t\tl to retriev\n      PUSH [tag] 147\t\t\treturn products;\\r\\n    }\\r\\n\\...\n      JUMP \t\t\treturn products;\\r\\n    }\\r\\n\\...\n    tag 239\t\t\treturn products;\\r\\n    }\\r\\n\\...\n      JUMPDEST \t\t\treturn products;\\r\\n    }\\r\\n\\...\n      POP \t\t\ts available\\r\\n    function ge...\n      PUSH 40\t\t\tquir\n      DUP4 \t\t\t     \n      ADD \t\t\t\\n        require\n      MLOAD \t\t\try) {\\r\\n        require(\n      PUSH [tag] 240\t\t\tCount, \"Product ID does not ex...\n      PUSH 40\t\t\t}\\r\\n}\n      DUP7 \t\t\t\\n  \n      ADD \t\t\td];\\r\\n    }\\r\\n}\\r\n      DUP3 \t\t\trn products[\n      PUSH [tag] 147\t\t\tCount, \"Product ID does not ex...\n      JUMP \t\t\tCount, \"Product ID does not ex...\n    tag 240\t\t\tCount, \"Product ID does not ex...\n      JUMPDEST \t\t\tCount, \"Product ID does not ex...\n      POP \t\t\ttProductById(uint _id) public ...\n      PUSH 60\t\t\t\n      DUP4 \t\t\t\n      ADD \t\t\t\n      MLOAD \t\t\t\n      DUP5 \t\t\t\n      DUP3 \t\t\t\n      SUB \t\t\t\n      PUSH 60\t\t\t\n      DUP7 \t\t\t\n      ADD \t\t\t\n      MSTORE \t\t\t\n      PUSH [tag] 241\t\t\t\n      DUP3 \t\t\t\n      DUP3 \t\t\t\n      PUSH [tag] 152\t\t\t\n      JUMP \t\t\t\n    tag 241\t\t\t\n      JUMPDEST \t\t\t\n      SWAP2 \t\t\t\n      POP \t\t\t\n      POP \t\t\t\n      PUSH 80\t\t\t\n      DUP4 \t\t\t\n      ADD \t\t\t\n      MLOAD \t\t\t\n      DUP5 \t\t\t\n      DUP3 \t\t\t\n      SUB \t\t\t\n      PUSH 80\t\t\t\n      DUP7 \t\t\t\n      ADD \t\t\t\n      MSTORE \t\t\t\n      PUSH [tag] 242\t\t\t\n      DUP3 \t\t\t\n      DUP3 \t\t\t\n      PUSH [tag] 152\t\t\t\n      JUMP \t\t\t\n    tag 242\t\t\t\n      JUMPDEST \t\t\t\n      SWAP2 \t\t\t\n      POP \t\t\t\n      POP \t\t\t\n      PUSH A0\t\t\t\n      DUP4 \t\t\t\n      ADD \t\t\t\n      MLOAD \t\t\t\n      DUP5 \t\t\t\n      DUP3 \t\t\t\n      SUB \t\t\t\n      PUSH A0\t\t\t\n      DUP7 \t\t\t\n      ADD \t\t\t\n      MSTORE \t\t\t\n      PUSH [tag] 243\t\t\t\n      DUP3 \t\t\t\n      DUP3 \t\t\t\n      PUSH [tag] 152\t\t\t\n      JUMP \t\t\t\n    tag 243\t\t\t\n      JUMPDEST \t\t\t\n      SWAP2 \t\t\t\n      POP \t\t\t\n      POP \t\t\t\n      PUSH C0\t\t\t\n      DUP4 \t\t\t\n      ADD \t\t\t\n      MLOAD \t\t\t\n      PUSH [tag] 244\t\t\t\n      PUSH C0\t\t\t\n      DUP7 \t\t\t\n      ADD \t\t\t\n      DUP3 \t\t\t\n      PUSH [tag] 144\t\t\t\n      JUMP \t\t\t\n    tag 244\t\t\t\n      JUMPDEST \t\t\t\n      POP \t\t\t\n      PUSH E0\t\t\t\n      DUP4 \t\t\t\n      ADD \t\t\t\n      MLOAD \t\t\t\n      PUSH [tag] 245\t\t\t\n      PUSH E0\t\t\t\n      DUP7 \t\t\t\n      ADD \t\t\t\n      DUP3 \t\t\t\n      PUSH [tag] 154\t\t\t\n      JUMP \t\t\t\n    tag 245\t\t\t\n      JUMPDEST \t\t\t\n      POP \t\t\t\n      DUP1 \t\t\t\n      SWAP2 \t\t\t\n      POP \t\t\t\n      POP \t\t\transactions\\r\\n    emit paymen...\n      SWAP3 \t\t\tedProduct.owner = payable(msg....\n      SWAP2 \t\t\tedProduct.owner = payable(msg....\n      POP \t\t\tedProduct.owner = payable(msg....\n      POP \t\t\tedProduct.owner = payable(msg....\n      JUMP \t\t\tedProduct.owner = payable(msg....\n    tag 156\t\t\t\n      JUMPDEST \t\t\t\n      PUSH 0\t\t\t\n      PUSH [tag] 247\t\t\t\n      DUP4 \t\t\t\n      DUP4 \t\t\t\n      PUSH [tag] 155\t\t\t\n      JUMP \t\t\t\n    tag 247\t\t\t\n      JUMPDEST \t\t\t\n      SWAP1 \t\t\t\n      POP \t\t\t\n      SWAP3 \t\t\t\n      SWAP2 \t\t\t\n      POP \t\t\t\n      POP \t\t\t\n      JUMP \t\t\t\n    tag 157\t\t\t\n      JUMPDEST \t\t\t\n      PUSH 0\t\t\t\n      PUSH 20\t\t\t\n      DUP3 \t\t\t\n      ADD \t\t\t\n      SWAP1 \t\t\t\n      POP \t\t\t\n      SWAP2 \t\t\t\n      SWAP1 \t\t\t\n      POP \t\t\t\n      JUMP \t\t\t\n    tag 158\t\t\t\n      JUMPDEST \t\t\t\n      PUSH 0\t\t\t\n      PUSH [tag] 250\t\t\t\n      DUP3 \t\t\t\n      PUSH [tag] 140\t\t\t\n      JUMP \t\t\t\n    tag 250\t\t\t\n      JUMPDEST \t\t\t\n      PUSH [tag] 251\t\t\t\n      DUP2 \t\t\t\n      DUP6 \t\t\t\n      PUSH [tag] 141\t\t\t\n      JUMP \t\t\t\n    tag 251\t\t\t\n      JUMPDEST \t\t\t\n      SWAP4 \t\t\t\n      POP \t\t\t\n      DUP4 \t\t\t\n      PUSH 20\t\t\t\n      DUP3 \t\t\t\n      MUL \t\t\t\n      DUP6 \t\t\t\n      ADD \t\t\t\n      PUSH [tag] 252\t\t\t\n      DUP6 \t\t\t\n      PUSH [tag] 142\t\t\t\n      JUMP \t\t\t\n    tag 252\t\t\t\n      JUMPDEST \t\t\t\n      DUP1 \t\t\t\n      PUSH 0\t\t\t\n    tag 253\t\t\t\n      JUMPDEST \t\t\t\n      DUP6 \t\t\t\n      DUP2 \t\t\t\n      LT \t\t\t\n      ISZERO \t\t\t\n      PUSH [tag] 255\t\t\t\n      JUMPI \t\t\t\n      DUP5 \t\t\t\n      DUP5 \t\t\t\n      SUB \t\t\t\n      DUP10 \t\t\t\n      MSTORE \t\t\t\n      DUP2 \t\t\t\n      MLOAD \t\t\t\n      PUSH [tag] 256\t\t\t\n      DUP6 \t\t\t\n      DUP3 \t\t\t\n      PUSH [tag] 156\t\t\t\n      JUMP \t\t\t\n    tag 256\t\t\t\n      JUMPDEST \t\t\t\n      SWAP5 \t\t\t\n      POP \t\t\t\n      PUSH [tag] 257\t\t\t\n      DUP4 \t\t\t\n      PUSH [tag] 157\t\t\t\n      JUMP \t\t\t\n    tag 257\t\t\t\n      JUMPDEST \t\t\t\n      SWAP3 \t\t\t\n      POP \t\t\t\n      PUSH 20\t\t\t\n      DUP11 \t\t\t\n      ADD \t\t\t\n      SWAP10 \t\t\t\n      POP \t\t\t\n      POP \t\t\t\n      PUSH 1\t\t\t\n      DUP2 \t\t\t\n      ADD \t\t\t\n      SWAP1 \t\t\t\n      POP \t\t\t\n      PUSH [tag] 253\t\t\t\n      JUMP \t\t\t\n    tag 255\t\t\t\n      JUMPDEST \t\t\t\n      POP \t\t\t\n      DUP3 \t\t\t\n      SWAP8 \t\t\t\n      POP \t\t\t\n      DUP8 \t\t\t\n      SWAP6 \t\t\t\n      POP \t\t\t\n      POP \t\t\t\n      POP \t\t\t\n      POP \t\t\t\n      POP \t\t\t\n      POP \t\t\t\n      SWAP3 \t\t\t\n      SWAP2 \t\t\t\n      POP \t\t\t\n      POP \t\t\t\n      JUMP \t\t\t\n    tag 12\t\t\t\n      JUMPDEST \t\t\t\n      PUSH 0\t\t\t\n      PUSH 20\t\t\t\n      DUP3 \t\t\t\n      ADD \t\t\t\n      SWAP1 \t\t\t\n      POP \t\t\t\n      DUP2 \t\t\t\n      DUP2 \t\t\t\n      SUB \t\t\t\n      PUSH 0\t\t\t\n      DUP4 \t\t\t\n      ADD \t\t\t\n      MSTORE \t\t\t\n      PUSH [tag] 259\t\t\t\n      DUP2 \t\t\t\n      DUP5 \t\t\t\n      PUSH [tag] 158\t\t\t\n      JUMP \t\t\t\n    tag 259\t\t\t\n      JUMPDEST \t\t\t\n      SWAP1 \t\t\t\n      POP \t\t\t\n      SWAP3 \t\t\t\n      SWAP2 \t\t\t\n      POP \t\t\t\n      POP \t\t\t\n      JUMP \t\t\t\n    tag 159\t\t\t\n      JUMPDEST \t\t\t\n      PUSH 0\t\t\t\n      PUSH 40\t\t\t\n      MLOAD \t\t\t\n      SWAP1 \t\t\t\n      POP \t\t\t\n      SWAP1 \t\t\t\n      JUMP \t\t\t\n    tag 160\t\t\t\n      JUMPDEST \t\t\t\n      PUSH 0\t\t\t\n      DUP1 \t\t\t\n      REVERT \t\t\t\n    tag 161\t\t\t\n      JUMPDEST \t\t\t\n      PUSH 0\t\t\t\n      DUP1 \t\t\t\n      REVERT \t\t\t\n    tag 162\t\t\t\n      JUMPDEST \t\t\t\n      PUSH [tag] 264\t\t\t\n      DUP2 \t\t\t\n      PUSH [tag] 143\t\t\t\n      JUMP \t\t\t\n    tag 264\t\t\t\n      JUMPDEST \t\t\t\n      DUP2 \t\t\t\n      EQ \t\t\t\n      PUSH [tag] 265\t\t\t\n      JUMPI \t\t\t\n      PUSH 0\t\t\t\n      DUP1 \t\t\t\n      REVERT \t\t\t\n    tag 265\t\t\t\n      JUMPDEST \t\t\t\n      POP \t\t\t\n      JUMP \t\t\t\n    tag 163\t\t\t\n      JUMPDEST \t\t\t\n      PUSH 0\t\t\t\n      DUP2 \t\t\t\n      CALLDATALOAD \t\t\t\n      SWAP1 \t\t\t\n      POP \t\t\t\n      PUSH [tag] 267\t\t\t\n      DUP2 \t\t\t\n      PUSH [tag] 162\t\t\t\n      JUMP \t\t\t\n    tag 267\t\t\t\n      JUMPDEST \t\t\t\n      SWAP3 \t\t\t\n      SWAP2 \t\t\t\n      POP \t\t\t\n      POP \t\t\t\n      JUMP \t\t\t\n    tag 15\t\t\t\n      JUMPDEST \t\t\t\n      PUSH 0\t\t\t\n      PUSH 20\t\t\t\n      DUP3 \t\t\t\n      DUP5 \t\t\t\n      SUB \t\t\t\n      SLT \t\t\t\n      ISZERO \t\t\t\n      PUSH [tag] 269\t\t\t\n      JUMPI \t\t\t\n      PUSH [tag] 270\t\t\t\n      PUSH [tag] 160\t\t\t\n      JUMP \t\t\t\n    tag 270\t\t\t\n      JUMPDEST \t\t\t\n    tag 269\t\t\t\n      JUMPDEST \t\t\t\n      PUSH 0\t\t\t\n      PUSH [tag] 271\t\t\t\n      DUP5 \t\t\t\n      DUP3 \t\t\t\n      DUP6 \t\t\t\n      ADD \t\t\t\n      PUSH [tag] 163\t\t\t\n      JUMP \t\t\t\n    tag 271\t\t\t\n      JUMPDEST \t\t\t\n      SWAP2 \t\t\t\n      POP \t\t\t\n      POP \t\t\t\n      SWAP3 \t\t\t\n      SWAP2 \t\t\t\n      POP \t\t\t\n      POP \t\t\t\n      JUMP \t\t\t\n    tag 164\t\t\t\n      JUMPDEST \t\t\t\n      PUSH 0\t\t\t\n      PUSH 100\t\t\t\n      DUP4 \t\t\t\n      ADD \t\t\t\n      PUSH 0\t\t\t\n      DUP4 \t\t\t\n      ADD \t\t\t\n      MLOAD \t\t\t\n      PUSH [tag] 273\t\t\t\n      PUSH 0\t\t\t\n      DUP7 \t\t\t\n      ADD \t\t\t\n      DUP3 \t\t\t\n      PUSH [tag] 144\t\t\t\n      JUMP \t\t\t\n    tag 273\t\t\t\n      JUMPDEST \t\t\t\n      POP \t\t\t\n      PUSH 20\t\t\t\n      DUP4 \t\t\t\n      ADD \t\t\t\n      MLOAD \t\t\t\n      PUSH [tag] 274\t\t\t\n      PUSH 20\t\t\t\n      DUP7 \t\t\t\n      ADD \t\t\t\n      DUP3 \t\t\t\n      PUSH [tag] 147\t\t\t\n      JUMP \t\t\t\n    tag 274\t\t\t\n      JUMPDEST \t\t\t\n      POP \t\t\t\n      PUSH 40\t\t\t\n      DUP4 \t\t\t\n      ADD \t\t\t\n      MLOAD \t\t\t\n      PUSH [tag] 275\t\t\t\n      PUSH 40\t\t\t\n      DUP7 \t\t\t\n      ADD \t\t\t\n      DUP3 \t\t\t\n      PUSH [tag] 147\t\t\t\n      JUMP \t\t\t\n    tag 275\t\t\t\n      JUMPDEST \t\t\t\n      POP \t\t\t\n      PUSH 60\t\t\t\n      DUP4 \t\t\t\n      ADD \t\t\t\n      MLOAD \t\t\t\n      DUP5 \t\t\t\n      DUP3 \t\t\t\n      SUB \t\t\t\n      PUSH 60\t\t\t\n      DUP7 \t\t\t\n      ADD \t\t\t\n      MSTORE \t\t\t\n      PUSH [tag] 276\t\t\t\n      DUP3 \t\t\t\n      DUP3 \t\t\t\n      PUSH [tag] 152\t\t\t\n      JUMP \t\t\t\n    tag 276\t\t\t\n      JUMPDEST \t\t\t\n      SWAP2 \t\t\t\n      POP \t\t\t\n      POP \t\t\t\n      PUSH 80\t\t\t\n      DUP4 \t\t\t\n      ADD \t\t\t\n      MLOAD \t\t\t\n      DUP5 \t\t\t\n      DUP3 \t\t\t\n      SUB \t\t\t\n      PUSH 80\t\t\t\n      DUP7 \t\t\t\n      ADD \t\t\t\n      MSTORE \t\t\t\n      PUSH [tag] 277\t\t\t\n      DUP3 \t\t\t\n      DUP3 \t\t\t\n      PUSH [tag] 152\t\t\t\n      JUMP \t\t\t\n    tag 277\t\t\t\n      JUMPDEST \t\t\t\n      SWAP2 \t\t\t\n      POP \t\t\t\n      POP \t\t\t\n      PUSH A0\t\t\t\n      DUP4 \t\t\t\n      ADD \t\t\t\n      MLOAD \t\t\t\n      DUP5 \t\t\t\n      DUP3 \t\t\t\n      SUB \t\t\t\n      PUSH A0\t\t\t\n      DUP7 \t\t\t\n      ADD \t\t\t\n      MSTORE \t\t\t\n      PUSH [tag] 278\t\t\t\n      DUP3 \t\t\t\n      DUP3 \t\t\t\n      PUSH [tag] 152\t\t\t\n      JUMP \t\t\t\n    tag 278\t\t\t\n      JUMPDEST \t\t\t\n      SWAP2 \t\t\t\n      POP \t\t\t\n      POP \t\t\t\n      PUSH C0\t\t\t\n      DUP4 \t\t\t\n      ADD \t\t\t\n      MLOAD \t\t\t\n      PUSH [tag] 279\t\t\t\n      PUSH C0\t\t\t\n      DUP7 \t\t\t\n      ADD \t\t\t\n      DUP3 \t\t\t\n      PUSH [tag] 144\t\t\t\n      JUMP \t\t\t\n    tag 279\t\t\t\n      JUMPDEST \t\t\t\n      POP \t\t\t\n      PUSH E0\t\t\t\n      DUP4 \t\t\t\n      ADD \t\t\t\n      MLOAD \t\t\t\n      PUSH [tag] 280\t\t\t\n      PUSH E0\t\t\t\n      DUP7 \t\t\t\n      ADD \t\t\t\n      DUP3 \t\t\t\n      PUSH [tag] 154\t\t\t\n      JUMP \t\t\t\n    tag 280\t\t\t\n      JUMPDEST \t\t\t\n      POP \t\t\t\n      DUP1 \t\t\t\n      SWAP2 \t\t\t\n      POP \t\t\t\n      POP \t\t\t\n      SWAP3 \t\t\t\n      SWAP2 \t\t\t\n      POP \t\t\t\n      POP \t\t\t\n      JUMP \t\t\t\n    tag 22\t\t\t\n      JUMPDEST \t\t\t\n      PUSH 0\t\t\t\n      PUSH 20\t\t\t\n      DUP3 \t\t\t\n      ADD \t\t\t\n      SWAP1 \t\t\t\n      POP \t\t\t\n      DUP2 \t\t\t\n      DUP2 \t\t\t\n      SUB \t\t\t\n      PUSH 0\t\t\t\n      DUP4 \t\t\t\n      ADD \t\t\t\n      MSTORE \t\t\t\n      PUSH [tag] 282\t\t\t\n      DUP2 \t\t\t\n      DUP5 \t\t\t\n      PUSH [tag] 164\t\t\t\n      JUMP \t\t\t\n    tag 282\t\t\t\n      JUMPDEST \t\t\t\n      SWAP1 \t\t\t\n      POP \t\t\t\n      SWAP3 \t\t\t\n      SWAP2 \t\t\t\n      POP \t\t\t\n      POP \t\t\t\n      JUMP \t\t\t\n    tag 165\t\t\t\n      JUMPDEST \t\t\t\n      PUSH [tag] 284\t\t\t\n      DUP2 \t\t\t\n      PUSH [tag] 143\t\t\t\n      JUMP \t\t\t\n    tag 284\t\t\t\n      JUMPDEST \t\t\t\n      DUP3 \t\t\t\n      MSTORE \t\t\t\n      POP \t\t\t\n      POP \t\t\t\n      JUMP \t\t\t\n    tag 166\t\t\t\n      JUMPDEST \t\t\t\n      PUSH [tag] 286\t\t\t\n      DUP2 \t\t\t\n      PUSH [tag] 146\t\t\t\n      JUMP \t\t\t\n    tag 286\t\t\t\n      JUMPDEST \t\t\t\n      DUP3 \t\t\t\n      MSTORE \t\t\t\n      POP \t\t\t\n      POP \t\t\t\n      JUMP \t\t\t\n    tag 167\t\t\t\n      JUMPDEST \t\t\t\n      PUSH 0\t\t\t\n      DUP3 \t\t\t\n      DUP3 \t\t\t\n      MSTORE \t\t\t\n      PUSH 20\t\t\t\n      DUP3 \t\t\t\n      ADD \t\t\t\n      SWAP1 \t\t\t\n      POP \t\t\t\n      SWAP3 \t\t\t\n      SWAP2 \t\t\t\n      POP \t\t\t\n      POP \t\t\t\n      JUMP \t\t\t\n    tag 168\t\t\t\n      JUMPDEST \t\t\t\n      PUSH 0\t\t\t\n      PUSH [tag] 289\t\t\t\n      DUP3 \t\t\t\n      PUSH [tag] 148\t\t\t\n      JUMP \t\t\t\n    tag 289\t\t\t\n      JUMPDEST \t\t\t\n      PUSH [tag] 290\t\t\t\n      DUP2 \t\t\t\n      DUP6 \t\t\t\n      PUSH [tag] 167\t\t\t\n      JUMP \t\t\t\n    tag 290\t\t\t\n      JUMPDEST \t\t\t\n      SWAP4 \t\t\t\n      POP \t\t\t\n      PUSH [tag] 291\t\t\t\n      DUP2 \t\t\t\n      DUP6 \t\t\t\n      PUSH 20\t\t\t\n      DUP7 \t\t\t\n      ADD \t\t\t\n      PUSH [tag] 150\t\t\t\n      JUMP \t\t\t\n    tag 291\t\t\t\n      JUMPDEST \t\t\t\n      PUSH [tag] 292\t\t\t\n      DUP2 \t\t\t\n      PUSH [tag] 151\t\t\t\n      JUMP \t\t\t\n    tag 292\t\t\t\n      JUMPDEST \t\t\t\n      DUP5 \t\t\t\n      ADD \t\t\t\n      SWAP2 \t\t\t\n      POP \t\t\t\n      POP \t\t\t\n      SWAP3 \t\t\t\n      SWAP2 \t\t\t\n      POP \t\t\t\n      POP \t\t\t\n      JUMP \t\t\t\n    tag 169\t\t\t\n      JUMPDEST \t\t\t\n      PUSH [tag] 294\t\t\t\n      DUP2 \t\t\t\n      PUSH [tag] 153\t\t\t\n      JUMP \t\t\t\n    tag 294\t\t\t\n      JUMPDEST \t\t\t\n      DUP3 \t\t\t\n      MSTORE \t\t\t\n      POP \t\t\t\n      POP \t\t\t\n      JUMP \t\t\t\n    tag 28\t\t\t\n      JUMPDEST \t\t\t\n      PUSH 0\t\t\t\n      PUSH 100\t\t\t\n      DUP3 \t\t\t\n      ADD \t\t\t\n      SWAP1 \t\t\t\n      POP \t\t\t\n      PUSH [tag] 296\t\t\t\n      PUSH 0\t\t\t\n      DUP4 \t\t\t\n      ADD \t\t\t\n      DUP12 \t\t\t\n      PUSH [tag] 165\t\t\t\n      JUMP \t\t\t\n    tag 296\t\t\t\n      JUMPDEST \t\t\t\n      PUSH [tag] 297\t\t\t\n      PUSH 20\t\t\t\n      DUP4 \t\t\t\n      ADD \t\t\t\n      DUP11 \t\t\t\n      PUSH [tag] 166\t\t\t\n      JUMP \t\t\t\n    tag 297\t\t\t\n      JUMPDEST \t\t\t\n      PUSH [tag] 298\t\t\t\n      PUSH 40\t\t\t\n      DUP4 \t\t\t\n      ADD \t\t\t\n      DUP10 \t\t\t\n      PUSH [tag] 166\t\t\t\n      JUMP \t\t\t\n    tag 298\t\t\t\n      JUMPDEST \t\t\t\n      DUP2 \t\t\t\n      DUP2 \t\t\t\n      SUB \t\t\t\n      PUSH 60\t\t\t\n      DUP4 \t\t\t\n      ADD \t\t\t\n      MSTORE \t\t\t\n      PUSH [tag] 299\t\t\t\n      DUP2 \t\t\t\n      DUP9 \t\t\t\n      PUSH [tag] 168\t\t\t\n      JUMP \t\t\t\n    tag 299\t\t\t\n      JUMPDEST \t\t\t\n      SWAP1 \t\t\t\n      POP \t\t\t\n      DUP2 \t\t\t\n      DUP2 \t\t\t\n      SUB \t\t\t\n      PUSH 80\t\t\t\n      DUP4 \t\t\t\n      ADD \t\t\t\n      MSTORE \t\t\t\n      PUSH [tag] 300\t\t\t\n      DUP2 \t\t\t\n      DUP8 \t\t\t\n      PUSH [tag] 168\t\t\t\n      JUMP \t\t\t\n    tag 300\t\t\t\n      JUMPDEST \t\t\t\n      SWAP1 \t\t\t\n      POP \t\t\t\n      DUP2 \t\t\t\n      DUP2 \t\t\t\n      SUB \t\t\t\n      PUSH A0\t\t\t\n      DUP4 \t\t\t\n      ADD \t\t\t\n      MSTORE \t\t\t\n      PUSH [tag] 301\t\t\t\n      DUP2 \t\t\t\n      DUP7 \t\t\t\n      PUSH [tag] 168\t\t\t\n      JUMP \t\t\t\n    tag 301\t\t\t\n      JUMPDEST \t\t\t\n      SWAP1 \t\t\t\n      POP \t\t\t\n      PUSH [tag] 302\t\t\t\n      PUSH C0\t\t\t\n      DUP4 \t\t\t\n      ADD \t\t\t\n      DUP6 \t\t\t\n      PUSH [tag] 165\t\t\t\n      JUMP \t\t\t\n    tag 302\t\t\t\n      JUMPDEST \t\t\t\n      PUSH [tag] 303\t\t\t\n      PUSH E0\t\t\t\n      DUP4 \t\t\t\n      ADD \t\t\t\n      DUP5 \t\t\t\n      PUSH [tag] 169\t\t\t\n      JUMP \t\t\t\n    tag 303\t\t\t\n      JUMPDEST \t\t\t\n      SWAP10 \t\t\t\n      SWAP9 \t\t\t\n      POP \t\t\t\n      POP \t\t\t\n      POP \t\t\t\n      POP \t\t\t\n      POP \t\t\t\n      POP \t\t\t\n      POP \t\t\t\n      POP \t\t\t\n      POP \t\t\t\n      JUMP \t\t\t\n    tag 170\t\t\t\n      JUMPDEST \t\t\t\n      PUSH 0\t\t\t\n      DUP1 \t\t\t\n      REVERT \t\t\t\n    tag 171\t\t\t\n      JUMPDEST \t\t\t\n      PUSH 0\t\t\t\n      DUP1 \t\t\t\n      REVERT \t\t\t\n    tag 172\t\t\t\n      JUMPDEST \t\t\t\n      PUSH 4E487B7100000000000000000000000000000000000000000000000000000000\t\t\t\n      PUSH 0\t\t\t\n      MSTORE \t\t\t\n      PUSH 41\t\t\t\n      PUSH 4\t\t\t\n      MSTORE \t\t\t\n      PUSH 24\t\t\t\n      PUSH 0\t\t\t\n      REVERT \t\t\t\n    tag 173\t\t\t\n      JUMPDEST \t\t\t\n      PUSH [tag] 308\t\t\t\n      DUP3 \t\t\t\n      PUSH [tag] 151\t\t\t\n      JUMP \t\t\t\n    tag 308\t\t\t\n      JUMPDEST \t\t\t\n      DUP2 \t\t\t\n      ADD \t\t\t\n      DUP2 \t\t\t\n      DUP2 \t\t\t\n      LT \t\t\t\n      PUSH FFFFFFFFFFFFFFFF\t\t\t\n      DUP3 \t\t\t\n      GT \t\t\t\n      OR \t\t\t\n      ISZERO \t\t\t\n      PUSH [tag] 309\t\t\t\n      JUMPI \t\t\t\n      PUSH [tag] 310\t\t\t\n      PUSH [tag] 172\t\t\t\n      JUMP \t\t\t\n    tag 310\t\t\t\n      JUMPDEST \t\t\t\n    tag 309\t\t\t\n      JUMPDEST \t\t\t\n      DUP1 \t\t\t\n      PUSH 40\t\t\t\n      MSTORE \t\t\t\n      POP \t\t\t\n      POP \t\t\t\n      POP \t\t\t\n      JUMP \t\t\t\n    tag 174\t\t\t\n      JUMPDEST \t\t\t\n      PUSH 0\t\t\t\n      PUSH [tag] 312\t\t\t\n      PUSH [tag] 159\t\t\t\n      JUMP \t\t\t\n    tag 312\t\t\t\n      JUMPDEST \t\t\t\n      SWAP1 \t\t\t\n      POP \t\t\t\n      PUSH [tag] 313\t\t\t\n      DUP3 \t\t\t\n      DUP3 \t\t\t\n      PUSH [tag] 173\t\t\t\n      JUMP \t\t\t\n    tag 313\t\t\t\n      JUMPDEST \t\t\t\n      SWAP2 \t\t\t\n      SWAP1 \t\t\t\n      POP \t\t\t\n      JUMP \t\t\t\n    tag 175\t\t\t\n      JUMPDEST \t\t\t\n      PUSH 0\t\t\t\n      PUSH FFFFFFFFFFFFFFFF\t\t\t\n      DUP3 \t\t\t\n      GT \t\t\t\n      ISZERO \t\t\t\n      PUSH [tag] 315\t\t\t\n      JUMPI \t\t\t\n      PUSH [tag] 316\t\t\t\n      PUSH [tag] 172\t\t\t\n      JUMP \t\t\t\n    tag 316\t\t\t\n      JUMPDEST \t\t\t\n    tag 315\t\t\t\n      JUMPDEST \t\t\t\n      PUSH [tag] 317\t\t\t\n      DUP3 \t\t\t\n      PUSH [tag] 151\t\t\t\n      JUMP \t\t\t\n    tag 317\t\t\t\n      JUMPDEST \t\t\t\n      SWAP1 \t\t\t\n      POP \t\t\t\n      PUSH 20\t\t\t\n      DUP2 \t\t\t\n      ADD \t\t\t\n      SWAP1 \t\t\t\n      POP \t\t\t\n      SWAP2 \t\t\t\n      SWAP1 \t\t\t\n      POP \t\t\t\n      JUMP \t\t\t\n    tag 176\t\t\t\n      JUMPDEST \t\t\t\n      DUP3 \t\t\t\n      DUP2 \t\t\t\n      DUP4 \t\t\t\n      CALLDATACOPY \t\t\t\n      PUSH 0\t\t\t\n      DUP4 \t\t\t\n      DUP4 \t\t\t\n      ADD \t\t\t\n      MSTORE \t\t\t\n      POP \t\t\t\n      POP \t\t\t\n      POP \t\t\t\n      JUMP \t\t\t\n    tag 177\t\t\t\n      JUMPDEST \t\t\t\n      PUSH 0\t\t\t\n      PUSH [tag] 320\t\t\t\n      PUSH [tag] 321\t\t\t\n      DUP5 \t\t\t\n      PUSH [tag] 175\t\t\t\n      JUMP \t\t\t\n    tag 321\t\t\t\n      JUMPDEST \t\t\t\n      PUSH [tag] 174\t\t\t\n      JUMP \t\t\t\n    tag 320\t\t\t\n      JUMPDEST \t\t\t\n      SWAP1 \t\t\t\n      POP \t\t\t\n      DUP3 \t\t\t\n      DUP2 \t\t\t\n      MSTORE \t\t\t\n      PUSH 20\t\t\t\n      DUP2 \t\t\t\n      ADD \t\t\t\n      DUP5 \t\t\t\n      DUP5 \t\t\t\n      DUP5 \t\t\t\n      ADD \t\t\t\n      GT \t\t\t\n      ISZERO \t\t\t\n      PUSH [tag] 322\t\t\t\n      JUMPI \t\t\t\n      PUSH [tag] 323\t\t\t\n      PUSH [tag] 171\t\t\t\n      JUMP \t\t\t\n    tag 323\t\t\t\n      JUMPDEST \t\t\t\n    tag 322\t\t\t\n      JUMPDEST \t\t\t\n      PUSH [tag] 324\t\t\t\n      DUP5 \t\t\t\n      DUP3 \t\t\t\n      DUP6 \t\t\t\n      PUSH [tag] 176\t\t\t\n      JUMP \t\t\t\n    tag 324\t\t\t\n      JUMPDEST \t\t\t\n      POP \t\t\t\n      SWAP4 \t\t\t\n      SWAP3 \t\t\t\n      POP \t\t\t\n      POP \t\t\t\n      POP \t\t\t\n      JUMP \t\t\t\n    tag 178\t\t\t\n      JUMPDEST \t\t\t\n      PUSH 0\t\t\t\n      DUP3 \t\t\t\n      PUSH 1F\t\t\t\n      DUP4 \t\t\t\n      ADD \t\t\t\n      SLT \t\t\t\n      PUSH [tag] 326\t\t\t\n      JUMPI \t\t\t\n      PUSH [tag] 327\t\t\t\n      PUSH [tag] 170\t\t\t\n      JUMP \t\t\t\n    tag 327\t\t\t\n      JUMPDEST \t\t\t\n    tag 326\t\t\t\n      JUMPDEST \t\t\t\n      DUP2 \t\t\t\n      CALLDATALOAD \t\t\t\n      PUSH [tag] 328\t\t\t\n      DUP5 \t\t\t\n      DUP3 \t\t\t\n      PUSH 20\t\t\t\n      DUP7 \t\t\t\n      ADD \t\t\t\n      PUSH [tag] 177\t\t\t\n      JUMP \t\t\t\n    tag 328\t\t\t\n      JUMPDEST \t\t\t\n      SWAP2 \t\t\t\n      POP \t\t\t\n      POP \t\t\t\n      SWAP3 \t\t\t\n      SWAP2 \t\t\t\n      POP \t\t\t\n      POP \t\t\t\n      JUMP \t\t\t\n    tag 32\t\t\t\n      JUMPDEST \t\t\t\n      PUSH 0\t\t\t\n      DUP1 \t\t\t\n      PUSH 0\t\t\t\n      DUP1 \t\t\t\n      PUSH 80\t\t\t\n      DUP6 \t\t\t\n      DUP8 \t\t\t\n      SUB \t\t\t\n      SLT \t\t\t\n      ISZERO \t\t\t\n      PUSH [tag] 330\t\t\t\n      JUMPI \t\t\t\n      PUSH [tag] 331\t\t\t\n      PUSH [tag] 160\t\t\t\n      JUMP \t\t\t\n    tag 331\t\t\t\n      JUMPDEST \t\t\t\n    tag 330\t\t\t\n      JUMPDEST \t\t\t\n      PUSH 0\t\t\t\n      DUP6 \t\t\t\n      ADD \t\t\t\n      CALLDATALOAD \t\t\t\n      PUSH FFFFFFFFFFFFFFFF\t\t\t\n      DUP2 \t\t\t\n      GT \t\t\t\n      ISZERO \t\t\t\n      PUSH [tag] 332\t\t\t\n      JUMPI \t\t\t\n      PUSH [tag] 333\t\t\t\n      PUSH [tag] 161\t\t\t\n      JUMP \t\t\t\n    tag 333\t\t\t\n      JUMPDEST \t\t\t\n    tag 332\t\t\t\n      JUMPDEST \t\t\t\n      PUSH [tag] 334\t\t\t\n      DUP8 \t\t\t\n      DUP3 \t\t\t\n      DUP9 \t\t\t\n      ADD \t\t\t\n      PUSH [tag] 178\t\t\t\n      JUMP \t\t\t\n    tag 334\t\t\t\n      JUMPDEST \t\t\t\n      SWAP5 \t\t\t\n      POP \t\t\t\n      POP \t\t\t\n      PUSH 20\t\t\t\n      DUP6 \t\t\t\n      ADD \t\t\t\n      CALLDATALOAD \t\t\t\n      PUSH FFFFFFFFFFFFFFFF\t\t\t\n      DUP2 \t\t\t\n      GT \t\t\t\n      ISZERO \t\t\t\n      PUSH [tag] 335\t\t\t\n      JUMPI \t\t\t\n      PUSH [tag] 336\t\t\t\n      PUSH [tag] 161\t\t\t\n      JUMP \t\t\t\n    tag 336\t\t\t\n      JUMPDEST \t\t\t\n    tag 335\t\t\t\n      JUMPDEST \t\t\t\n      PUSH [tag] 337\t\t\t\n      DUP8 \t\t\t\n      DUP3 \t\t\t\n      DUP9 \t\t\t\n      ADD \t\t\t\n      PUSH [tag] 178\t\t\t\n      JUMP \t\t\t\n    tag 337\t\t\t\n      JUMPDEST \t\t\t\n      SWAP4 \t\t\t\n      POP \t\t\t\n      POP \t\t\t\n      PUSH 40\t\t\t\n      DUP6 \t\t\t\n      ADD \t\t\t\n      CALLDATALOAD \t\t\t\n      PUSH FFFFFFFFFFFFFFFF\t\t\t\n      DUP2 \t\t\t\n      GT \t\t\t\n      ISZERO \t\t\t\n      PUSH [tag] 338\t\t\t\n      JUMPI \t\t\t\n      PUSH [tag] 339\t\t\t\n      PUSH [tag] 161\t\t\t\n      JUMP \t\t\t\n    tag 339\t\t\t\n      JUMPDEST \t\t\t\n    tag 338\t\t\t\n      JUMPDEST \t\t\t\n      PUSH [tag] 340\t\t\t\n      DUP8 \t\t\t\n      DUP3 \t\t\t\n      DUP9 \t\t\t\n      ADD \t\t\t\n      PUSH [tag] 178\t\t\t\n      JUMP \t\t\t\n    tag 340\t\t\t\n      JUMPDEST \t\t\t\n      SWAP3 \t\t\t\n      POP \t\t\t\n      POP \t\t\t\n      PUSH 60\t\t\t\n      PUSH [tag] 341\t\t\t\n      DUP8 \t\t\t\n      DUP3 \t\t\t\n      DUP9 \t\t\t\n      ADD \t\t\t\n      PUSH [tag] 163\t\t\t\n      JUMP \t\t\t\n    tag 341\t\t\t\n      JUMPDEST \t\t\t\n      SWAP2 \t\t\t\n      POP \t\t\t\n      POP \t\t\t\n      SWAP3 \t\t\t\n      SWAP6 \t\t\t\n      SWAP2 \t\t\t\n      SWAP5 \t\t\t\n      POP \t\t\t\n      SWAP3 \t\t\t\n      POP \t\t\t\n      JUMP \t\t\t\n    tag 38\t\t\t\n      JUMPDEST \t\t\t\n      PUSH 0\t\t\t\n      PUSH 20\t\t\t\n      DUP3 \t\t\t\n      ADD \t\t\t\n      SWAP1 \t\t\t\n      POP \t\t\t\n      PUSH [tag] 343\t\t\t\n      PUSH 0\t\t\t\n      DUP4 \t\t\t\n      ADD \t\t\t\n      DUP5 \t\t\t\n      PUSH [tag] 165\t\t\t\n      JUMP \t\t\t\n    tag 343\t\t\t\n      JUMPDEST \t\t\t\n      SWAP3 \t\t\t\n      SWAP2 \t\t\t\n      POP \t\t\t\n      POP \t\t\t\n      JUMP \t\t\t\n    tag 179\t\t\t\n      JUMPDEST \t\t\t\n      PUSH 4E487B7100000000000000000000000000000000000000000000000000000000\t\t\t\n      PUSH 0\t\t\t\n      MSTORE \t\t\t\n      PUSH 22\t\t\t\n      PUSH 4\t\t\t\n      MSTORE \t\t\t\n      PUSH 24\t\t\t\n      PUSH 0\t\t\t\n      REVERT \t\t\t\n    tag 44\t\t\t\n      JUMPDEST \t\t\t\n      PUSH 0\t\t\t\n      PUSH 2\t\t\t\n      DUP3 \t\t\t\n      DIV \t\t\t\n      SWAP1 \t\t\t\n      POP \t\t\t\n      PUSH 1\t\t\t\n      DUP3 \t\t\t\n      AND \t\t\t\n      DUP1 \t\t\t\n      PUSH [tag] 346\t\t\t\n      JUMPI \t\t\t\n      PUSH 7F\t\t\t\n      DUP3 \t\t\t\n      AND \t\t\t\n      SWAP2 \t\t\t\n      POP \t\t\t\n    tag 346\t\t\t\n      JUMPDEST \t\t\t\n      PUSH 20\t\t\t\n      DUP3 \t\t\t\n      LT \t\t\t\n      DUP2 \t\t\t\n      SUB \t\t\t\n      PUSH [tag] 347\t\t\t\n      JUMPI \t\t\t\n      PUSH [tag] 348\t\t\t\n      PUSH [tag] 179\t\t\t\n      JUMP \t\t\t\n    tag 348\t\t\t\n      JUMPDEST \t\t\t\n    tag 347\t\t\t\n      JUMPDEST \t\t\t\n      POP \t\t\t\n      SWAP2 \t\t\t\n      SWAP1 \t\t\t\n      POP \t\t\t\n      JUMP \t\t\t\n    tag 180\t\t\t\n      JUMPDEST \t\t\t\n      PUSH 4974656D20494420646F6573206E6F7420657869737400000000000000000000\t\t\t\n      PUSH 0\t\t\t\n      DUP3 \t\t\t\n      ADD \t\t\t\n      MSTORE \t\t\t\n      POP \t\t\t\n      JUMP \t\t\t\n    tag 181\t\t\t\n      JUMPDEST \t\t\t\n      PUSH 0\t\t\t\n      PUSH [tag] 351\t\t\t\n      PUSH 16\t\t\t\n      DUP4 \t\t\t\n      PUSH [tag] 167\t\t\t\n      JUMP \t\t\t\n    tag 351\t\t\t\n      JUMPDEST \t\t\t\n      SWAP2 \t\t\t\n      POP \t\t\t\n      PUSH [tag] 352\t\t\t\n      DUP3 \t\t\t\n      PUSH [tag] 180\t\t\t\n      JUMP \t\t\t\n    tag 352\t\t\t\n      JUMPDEST \t\t\t\n      PUSH 20\t\t\t\n      DUP3 \t\t\t\n      ADD \t\t\t\n      SWAP1 \t\t\t\n      POP \t\t\t\n      SWAP2 \t\t\t\n      SWAP1 \t\t\t\n      POP \t\t\t\n      JUMP \t\t\t\n    tag 62\t\t\t\n      JUMPDEST \t\t\t\n      PUSH 0\t\t\t\n      PUSH 20\t\t\t\n      DUP3 \t\t\t\n      ADD \t\t\t\n      SWAP1 \t\t\t\n      POP \t\t\t\n      DUP2 \t\t\t\n      DUP2 \t\t\t\n      SUB \t\t\t\n      PUSH 0\t\t\t\n      DUP4 \t\t\t\n      ADD \t\t\t\n      MSTORE \t\t\t\n      PUSH [tag] 354\t\t\t\n      DUP2 \t\t\t\n      PUSH [tag] 181\t\t\t\n      JUMP \t\t\t\n    tag 354\t\t\t\n      JUMPDEST \t\t\t\n      SWAP1 \t\t\t\n      POP \t\t\t\n      SWAP2 \t\t\t\n      SWAP1 \t\t\t\n      POP \t\t\t\n      JUMP \t\t\t\n    tag 65\t\t\t\n      JUMPDEST \t\t\t\n      PUSH 4E487B7100000000000000000000000000000000000000000000000000000000\t\t\t\n      PUSH 0\t\t\t\n      MSTORE \t\t\t\n      PUSH 32\t\t\t\n      PUSH 4\t\t\t\n      MSTORE \t\t\t\n      PUSH 24\t\t\t\n      PUSH 0\t\t\t\n      REVERT \t\t\t\n    tag 182\t\t\t\n      JUMPDEST \t\t\t\n      PUSH 496E636F727265637420616D6F756E742C20706C656173652073656E64207468\t\t\t\n      PUSH 0\t\t\t\n      DUP3 \t\t\t\n      ADD \t\t\t\n      MSTORE \t\t\t\n      PUSH 6520657861637420707269636500000000000000000000000000000000000000\t\t\t\n      PUSH 20\t\t\t\n      DUP3 \t\t\t\n      ADD \t\t\t\n      MSTORE \t\t\t\n      POP \t\t\t\n      JUMP \t\t\t\n    tag 183\t\t\t\n      JUMPDEST \t\t\t\n      PUSH 0\t\t\t\n      PUSH [tag] 358\t\t\t\n      PUSH 2D\t\t\t\n      DUP4 \t\t\t\n      PUSH [tag] 167\t\t\t\n      JUMP \t\t\t\n    tag 358\t\t\t\n      JUMPDEST \t\t\t\n      SWAP2 \t\t\t\n      POP \t\t\t\n      PUSH [tag] 359\t\t\t\n      DUP3 \t\t\t\n      PUSH [tag] 182\t\t\t\n      JUMP \t\t\t\n    tag 359\t\t\t\n      JUMPDEST \t\t\t\n      PUSH 40\t\t\t\n      DUP3 \t\t\t\n      ADD \t\t\t\n      SWAP1 \t\t\t\n      POP \t\t\t\n      SWAP2 \t\t\t\n      SWAP1 \t\t\t\n      POP \t\t\t\n      JUMP \t\t\t\n    tag 69\t\t\t\n      JUMPDEST \t\t\t\n      PUSH 0\t\t\t\n      PUSH 20\t\t\t\n      DUP3 \t\t\t\n      ADD \t\t\t\n      SWAP1 \t\t\t\n      POP \t\t\t\n      DUP2 \t\t\t\n      DUP2 \t\t\t\n      SUB \t\t\t\n      PUSH 0\t\t\t\n      DUP4 \t\t\t\n      ADD \t\t\t\n      MSTORE \t\t\t\n      PUSH [tag] 361\t\t\t\n      DUP2 \t\t\t\n      PUSH [tag] 183\t\t\t\n      JUMP \t\t\t\n    tag 361\t\t\t\n      JUMPDEST \t\t\t\n      SWAP1 \t\t\t\n      POP \t\t\t\n      SWAP2 \t\t\t\n      SWAP1 \t\t\t\n      POP \t\t\t\n      JUMP \t\t\t\n    tag 184\t\t\t\n      JUMPDEST \t\t\t\n      PUSH 4974656D20697320616C726561647920736F6C64000000000000000000000000\t\t\t\n      PUSH 0\t\t\t\n      DUP3 \t\t\t\n      ADD \t\t\t\n      MSTORE \t\t\t\n      POP \t\t\t\n      JUMP \t\t\t\n    tag 185\t\t\t\n      JUMPDEST \t\t\t\n      PUSH 0\t\t\t\n      PUSH [tag] 364\t\t\t\n      PUSH 14\t\t\t\n      DUP4 \t\t\t\n      PUSH [tag] 167\t\t\t\n      JUMP \t\t\t\n    tag 364\t\t\t\n      JUMPDEST \t\t\t\n      SWAP2 \t\t\t\n      POP \t\t\t\n      PUSH [tag] 365\t\t\t\n      DUP3 \t\t\t\n      PUSH [tag] 184\t\t\t\n      JUMP \t\t\t\n    tag 365\t\t\t\n      JUMPDEST \t\t\t\n      PUSH 20\t\t\t\n      DUP3 \t\t\t\n      ADD \t\t\t\n      SWAP1 \t\t\t\n      POP \t\t\t\n      SWAP2 \t\t\t\n      SWAP1 \t\t\t\n      POP \t\t\t\n      JUMP \t\t\t\n    tag 72\t\t\t\n      JUMPDEST \t\t\t\n      PUSH 0\t\t\t\n      PUSH 20\t\t\t\n      DUP3 \t\t\t\n      ADD \t\t\t\n      SWAP1 \t\t\t\n      POP \t\t\t\n      DUP2 \t\t\t\n      DUP2 \t\t\t\n      SUB \t\t\t\n      PUSH 0\t\t\t\n      DUP4 \t\t\t\n      ADD \t\t\t\n      MSTORE \t\t\t\n      PUSH [tag] 367\t\t\t\n      DUP2 \t\t\t\n      PUSH [tag] 185\t\t\t\n      JUMP \t\t\t\n    tag 367\t\t\t\n      JUMPDEST \t\t\t\n      SWAP1 \t\t\t\n      POP \t\t\t\n      SWAP2 \t\t\t\n      SWAP1 \t\t\t\n      POP \t\t\t\n      JUMP \t\t\t\n    tag 186\t\t\t\n      JUMPDEST \t\t\t\n      PUSH 4974656D206F776E65722063616E6E6F74207075726368617365207468656972\t\t\t\n      PUSH 0\t\t\t\n      DUP3 \t\t\t\n      ADD \t\t\t\n      MSTORE \t\t\t\n      PUSH 206F776E206974656D0000000000000000000000000000000000000000000000\t\t\t\n      PUSH 20\t\t\t\n      DUP3 \t\t\t\n      ADD \t\t\t\n      MSTORE \t\t\t\n      POP \t\t\t\n      JUMP \t\t\t\n    tag 187\t\t\t\n      JUMPDEST \t\t\t\n      PUSH 0\t\t\t\n      PUSH [tag] 370\t\t\t\n      PUSH 29\t\t\t\n      DUP4 \t\t\t\n      PUSH [tag] 167\t\t\t\n      JUMP \t\t\t\n    tag 370\t\t\t\n      JUMPDEST \t\t\t\n      SWAP2 \t\t\t\n      POP \t\t\t\n      PUSH [tag] 371\t\t\t\n      DUP3 \t\t\t\n      PUSH [tag] 186\t\t\t\n      JUMP \t\t\t\n    tag 371\t\t\t\n      JUMPDEST \t\t\t\n      PUSH 40\t\t\t\n      DUP3 \t\t\t\n      ADD \t\t\t\n      SWAP1 \t\t\t\n      POP \t\t\t\n      SWAP2 \t\t\t\n      SWAP1 \t\t\t\n      POP \t\t\t\n      JUMP \t\t\t\n    tag 75\t\t\t\n      JUMPDEST \t\t\t\n      PUSH 0\t\t\t\n      PUSH 20\t\t\t\n      DUP3 \t\t\t\n      ADD \t\t\t\n      SWAP1 \t\t\t\n      POP \t\t\t\n      DUP2 \t\t\t\n      DUP2 \t\t\t\n      SUB \t\t\t\n      PUSH 0\t\t\t\n      DUP4 \t\t\t\n      ADD \t\t\t\n      MSTORE \t\t\t\n      PUSH [tag] 373\t\t\t\n      DUP2 \t\t\t\n      PUSH [tag] 187\t\t\t\n      JUMP \t\t\t\n    tag 373\t\t\t\n      JUMPDEST \t\t\t\n      SWAP1 \t\t\t\n      POP \t\t\t\n      SWAP2 \t\t\t\n      SWAP1 \t\t\t\n      POP \t\t\t\n      JUMP \t\t\t\n    tag 188\t\t\t\n      JUMPDEST \t\t\t\n      PUSH 0\t\t\t\n      DUP2 \t\t\t\n      SWAP1 \t\t\t\n      POP \t\t\t\n      SWAP3 \t\t\t\n      SWAP2 \t\t\t\n      POP \t\t\t\n      POP \t\t\t\n      JUMP \t\t\t\n    tag 189\t\t\t\n      JUMPDEST \t\t\t\n      POP \t\t\t\n      JUMP \t\t\t\n    tag 190\t\t\t\n      JUMPDEST \t\t\t\n      PUSH 0\t\t\t\n      PUSH [tag] 377\t\t\t\n      PUSH 0\t\t\t\n      DUP4 \t\t\t\n      PUSH [tag] 188\t\t\t\n      JUMP \t\t\t\n    tag 377\t\t\t\n      JUMPDEST \t\t\t\n      SWAP2 \t\t\t\n      POP \t\t\t\n      PUSH [tag] 378\t\t\t\n      DUP3 \t\t\t\n      PUSH [tag] 189\t\t\t\n      JUMP \t\t\t\n    tag 378\t\t\t\n      JUMPDEST \t\t\t\n      PUSH 0\t\t\t\n      DUP3 \t\t\t\n      ADD \t\t\t\n      SWAP1 \t\t\t\n      POP \t\t\t\n      SWAP2 \t\t\t\n      SWAP1 \t\t\t\n      POP \t\t\t\n      JUMP \t\t\t\n    tag 77\t\t\t\n      JUMPDEST \t\t\t\n      PUSH 0\t\t\t\n      PUSH [tag] 380\t\t\t\n      DUP3 \t\t\t\n      PUSH [tag] 190\t\t\t\n      JUMP \t\t\t\n    tag 380\t\t\t\n      JUMPDEST \t\t\t\n      SWAP2 \t\t\t\n      POP \t\t\t\n      DUP2 \t\t\t\n      SWAP1 \t\t\t\n      POP \t\t\t\n      SWAP2 \t\t\t\n      SWAP1 \t\t\t\n      POP \t\t\t\n      JUMP \t\t\t\n    tag 191\t\t\t\n      JUMPDEST \t\t\t\n      PUSH 4574686572207472616E73666572206661696C65640000000000000000000000\t\t\t\n      PUSH 0\t\t\t\n      DUP3 \t\t\t\n      ADD \t\t\t\n      MSTORE \t\t\t\n      POP \t\t\t\n      JUMP \t\t\t\n    tag 192\t\t\t\n      JUMPDEST \t\t\t\n      PUSH 0\t\t\t\n      PUSH [tag] 383\t\t\t\n      PUSH 15\t\t\t\n      DUP4 \t\t\t\n      PUSH [tag] 167\t\t\t\n      JUMP \t\t\t\n    tag 383\t\t\t\n      JUMPDEST \t\t\t\n      SWAP2 \t\t\t\n      POP \t\t\t\n      PUSH [tag] 384\t\t\t\n      DUP3 \t\t\t\n      PUSH [tag] 191\t\t\t\n      JUMP \t\t\t\n    tag 384\t\t\t\n      JUMPDEST \t\t\t\n      PUSH 20\t\t\t\n      DUP3 \t\t\t\n      ADD \t\t\t\n      SWAP1 \t\t\t\n      POP \t\t\t\n      SWAP2 \t\t\t\n      SWAP1 \t\t\t\n      POP \t\t\t\n      JUMP \t\t\t\n    tag 83\t\t\t\n      JUMPDEST \t\t\t\n      PUSH 0\t\t\t\n      PUSH 20\t\t\t\n      DUP3 \t\t\t\n      ADD \t\t\t\n      SWAP1 \t\t\t\n      POP \t\t\t\n      DUP2 \t\t\t\n      DUP2 \t\t\t\n      SUB \t\t\t\n      PUSH 0\t\t\t\n      DUP4 \t\t\t\n      ADD \t\t\t\n      MSTORE \t\t\t\n      PUSH [tag] 386\t\t\t\n      DUP2 \t\t\t\n      PUSH [tag] 192\t\t\t\n      JUMP \t\t\t\n    tag 386\t\t\t\n      JUMPDEST \t\t\t\n      SWAP1 \t\t\t\n      POP \t\t\t\n      SWAP2 \t\t\t\n      SWAP1 \t\t\t\n      POP \t\t\t\n      JUMP \t\t\t\n    tag 193\t\t\t\n      JUMPDEST \t\t\t\n      PUSH 50726F6475637420494420646F6573206E6F7420657869737400000000000000\t\t\t\n      PUSH 0\t\t\t\n      DUP3 \t\t\t\n      ADD \t\t\t\n      MSTORE \t\t\t\n      POP \t\t\t\n      JUMP \t\t\t\n    tag 194\t\t\t\n      JUMPDEST \t\t\t\n      PUSH 0\t\t\t\n      PUSH [tag] 389\t\t\t\n      PUSH 19\t\t\t\n      DUP4 \t\t\t\n      PUSH [tag] 167\t\t\t\n      JUMP \t\t\t\n    tag 389\t\t\t\n      JUMPDEST \t\t\t\n      SWAP2 \t\t\t\n      POP \t\t\t\n      PUSH [tag] 390\t\t\t\n      DUP3 \t\t\t\n      PUSH [tag] 193\t\t\t\n      JUMP \t\t\t\n    tag 390\t\t\t\n      JUMPDEST \t\t\t\n      PUSH 20\t\t\t\n      DUP3 \t\t\t\n      ADD \t\t\t\n      SWAP1 \t\t\t\n      POP \t\t\t\n      SWAP2 \t\t\t\n      SWAP1 \t\t\t\n      POP \t\t\t\n      JUMP \t\t\t\n    tag 91\t\t\t\n      JUMPDEST \t\t\t\n      PUSH 0\t\t\t\n      PUSH 20\t\t\t\n      DUP3 \t\t\t\n      ADD \t\t\t\n      SWAP1 \t\t\t\n      POP \t\t\t\n      DUP2 \t\t\t\n      DUP2 \t\t\t\n      SUB \t\t\t\n      PUSH 0\t\t\t\n      DUP4 \t\t\t\n      ADD \t\t\t\n      MSTORE \t\t\t\n      PUSH [tag] 392\t\t\t\n      DUP2 \t\t\t\n      PUSH [tag] 194\t\t\t\n      JUMP \t\t\t\n    tag 392\t\t\t\n      JUMPDEST \t\t\t\n      SWAP1 \t\t\t\n      POP \t\t\t\n      SWAP2 \t\t\t\n      SWAP1 \t\t\t\n      POP \t\t\t\n      JUMP \t\t\t\n    tag 195\t\t\t\n      JUMPDEST \t\t\t\n      PUSH 56616C7565206F662050726F64756374206D7573742062652067726561746572\t\t\t\n      PUSH 0\t\t\t\n      DUP3 \t\t\t\n      ADD \t\t\t\n      MSTORE \t\t\t\n      PUSH 207468616E207A65726F00000000000000000000000000000000000000000000\t\t\t\n      PUSH 20\t\t\t\n      DUP3 \t\t\t\n      ADD \t\t\t\n      MSTORE \t\t\t\n      POP \t\t\t\n      JUMP \t\t\t\n    tag 196\t\t\t\n      JUMPDEST \t\t\t\n      PUSH 0\t\t\t\n      PUSH [tag] 395\t\t\t\n      PUSH 2A\t\t\t\n      DUP4 \t\t\t\n      PUSH [tag] 167\t\t\t\n      JUMP \t\t\t\n    tag 395\t\t\t\n      JUMPDEST \t\t\t\n      SWAP2 \t\t\t\n      POP \t\t\t\n      PUSH [tag] 396\t\t\t\n      DUP3 \t\t\t\n      PUSH [tag] 195\t\t\t\n      JUMP \t\t\t\n    tag 396\t\t\t\n      JUMPDEST \t\t\t\n      PUSH 40\t\t\t\n      DUP3 \t\t\t\n      ADD \t\t\t\n      SWAP1 \t\t\t\n      POP \t\t\t\n      SWAP2 \t\t\t\n      SWAP1 \t\t\t\n      POP \t\t\t\n      JUMP \t\t\t\n    tag 130\t\t\t\n      JUMPDEST \t\t\t\n      PUSH 0\t\t\t\n      PUSH 20\t\t\t\n      DUP3 \t\t\t\n      ADD \t\t\t\n      SWAP1 \t\t\t\n      POP \t\t\t\n      DUP2 \t\t\t\n      DUP2 \t\t\t\n      SUB \t\t\t\n      PUSH 0\t\t\t\n      DUP4 \t\t\t\n      ADD \t\t\t\n      MSTORE \t\t\t\n      PUSH [tag] 398\t\t\t\n      DUP2 \t\t\t\n      PUSH [tag] 196\t\t\t\n      JUMP \t\t\t\n    tag 398\t\t\t\n      JUMPDEST \t\t\t\n      SWAP1 \t\t\t\n      POP \t\t\t\n      SWAP2 \t\t\t\n      SWAP1 \t\t\t\n      POP \t\t\t\n      JUMP \t\t\t\n    tag 197\t\t\t\n      JUMPDEST \t\t\t\n      PUSH 0\t\t\t\n      DUP2 \t\t\t\n      SWAP1 \t\t\t\n      POP \t\t\t\n      DUP2 \t\t\t\n      PUSH 0\t\t\t\n      MSTORE \t\t\t\n      PUSH 20\t\t\t\n      PUSH 0\t\t\t\n      KECCAK256 \t\t\t\n      SWAP1 \t\t\t\n      POP \t\t\t\n      SWAP2 \t\t\t\n      SWAP1 \t\t\t\n      POP \t\t\t\n      JUMP \t\t\t\n    tag 198\t\t\t\n      JUMPDEST \t\t\t\n      PUSH 0\t\t\t\n      PUSH 20\t\t\t\n      PUSH 1F\t\t\t\n      DUP4 \t\t\t\n      ADD \t\t\t\n      DIV \t\t\t\n      SWAP1 \t\t\t\n      POP \t\t\t\n      SWAP2 \t\t\t\n      SWAP1 \t\t\t\n      POP \t\t\t\n      JUMP \t\t\t\n    tag 199\t\t\t\n      JUMPDEST \t\t\t\n      PUSH 0\t\t\t\n      DUP3 \t\t\t\n      DUP3 \t\t\t\n      SHL \t\t\t\n      SWAP1 \t\t\t\n      POP \t\t\t\n      SWAP3 \t\t\t\n      SWAP2 \t\t\t\n      POP \t\t\t\n      POP \t\t\t\n      JUMP \t\t\t\n    tag 200\t\t\t\n      JUMPDEST \t\t\t\n      PUSH 0\t\t\t\n      PUSH 8\t\t\t\n      DUP4 \t\t\t\n      MUL \t\t\t\n      PUSH [tag] 403\t\t\t\n      PUSH FFFFFFFFFFFFFFFFFFFFFFFFFFFFFFFFFFFFFFFFFFFFFFFFFFFFFFFFFFFFFFFF\t\t\t\n      DUP3 \t\t\t\n      PUSH [tag] 199\t\t\t\n      JUMP \t\t\t\n    tag 403\t\t\t\n      JUMPDEST \t\t\t\n      PUSH [tag] 404\t\t\t\n      DUP7 \t\t\t\n      DUP4 \t\t\t\n      PUSH [tag] 199\t\t\t\n      JUMP \t\t\t\n    tag 404\t\t\t\n      JUMPDEST \t\t\t\n      SWAP6 \t\t\t\n      POP \t\t\t\n      DUP1 \t\t\t\n      NOT \t\t\t\n      DUP5 \t\t\t\n      AND \t\t\t\n      SWAP4 \t\t\t\n      POP \t\t\t\n      DUP1 \t\t\t\n      DUP7 \t\t\t\n      AND \t\t\t\n      DUP5 \t\t\t\n      OR \t\t\t\n      SWAP3 \t\t\t\n      POP \t\t\t\n      POP \t\t\t\n      POP \t\t\t\n      SWAP4 \t\t\t\n      SWAP3 \t\t\t\n      POP \t\t\t\n      POP \t\t\t\n      POP \t\t\t\n      JUMP \t\t\t\n    tag 201\t\t\t\n      JUMPDEST \t\t\t\n      PUSH 0\t\t\t\n      DUP2 \t\t\t\n      SWAP1 \t\t\t\n      POP \t\t\t\n      SWAP2 \t\t\t\n      SWAP1 \t\t\t\n      POP \t\t\t\n      JUMP \t\t\t\n    tag 202\t\t\t\n      JUMPDEST \t\t\t\n      PUSH 0\t\t\t\n      PUSH [tag] 407\t\t\t\n      PUSH [tag] 408\t\t\t\n      PUSH [tag] 409\t\t\t\n      DUP5 \t\t\t\n      PUSH [tag] 143\t\t\t\n      JUMP \t\t\t\n    tag 409\t\t\t\n      JUMPDEST \t\t\t\n      PUSH [tag] 201\t\t\t\n      JUMP \t\t\t\n    tag 408\t\t\t\n      JUMPDEST \t\t\t\n      PUSH [tag] 143\t\t\t\n      JUMP \t\t\t\n    tag 407\t\t\t\n      JUMPDEST \t\t\t\n      SWAP1 \t\t\t\n      POP \t\t\t\n      SWAP2 \t\t\t\n      SWAP1 \t\t\t\n      POP \t\t\t\n      JUMP \t\t\t\n    tag 203\t\t\t\n      JUMPDEST \t\t\t\n      PUSH 0\t\t\t\n      DUP2 \t\t\t\n      SWAP1 \t\t\t\n      POP \t\t\t\n      SWAP2 \t\t\t\n      SWAP1 \t\t\t\n      POP \t\t\t\n      JUMP \t\t\t\n    tag 204\t\t\t\n      JUMPDEST \t\t\t\n      PUSH [tag] 412\t\t\t\n      DUP4 \t\t\t\n      PUSH [tag] 202\t\t\t\n      JUMP \t\t\t\n    tag 412\t\t\t\n      JUMPDEST \t\t\t\n      PUSH [tag] 413\t\t\t\n      PUSH [tag] 414\t\t\t\n      DUP3 \t\t\t\n      PUSH [tag] 203\t\t\t\n      JUMP \t\t\t\n    tag 414\t\t\t\n      JUMPDEST \t\t\t\n      DUP5 \t\t\t\n      DUP5 \t\t\t\n      SLOAD \t\t\t\n      PUSH [tag] 200\t\t\t\n      JUMP \t\t\t\n    tag 413\t\t\t\n      JUMPDEST \t\t\t\n      DUP3 \t\t\t\n      SSTORE \t\t\t\n      POP \t\t\t\n      POP \t\t\t\n      POP \t\t\t\n      POP \t\t\t\n      JUMP \t\t\t\n    tag 205\t\t\t\n      JUMPDEST \t\t\t\n      PUSH 0\t\t\t\n      SWAP1 \t\t\t\n      JUMP \t\t\t\n    tag 206\t\t\t\n      JUMPDEST \t\t\t\n      PUSH [tag] 417\t\t\t\n      PUSH [tag] 205\t\t\t\n      JUMP \t\t\t\n    tag 417\t\t\t\n      JUMPDEST \t\t\t\n      PUSH [tag] 418\t\t\t\n      DUP2 \t\t\t\n      DUP5 \t\t\t\n      DUP5 \t\t\t\n      PUSH [tag] 204\t\t\t\n      JUMP \t\t\t\n    tag 418\t\t\t\n      JUMPDEST \t\t\t\n      POP \t\t\t\n      POP \t\t\t\n      POP \t\t\t\n      JUMP \t\t\t\n    tag 207\t\t\t\n      JUMPDEST \t\t\t\n    tag 420\t\t\t\n      JUMPDEST \t\t\t\n      DUP2 \t\t\t\n      DUP2 \t\t\t\n      LT \t\t\t\n      ISZERO \t\t\t\n      PUSH [tag] 422\t\t\t\n      JUMPI \t\t\t\n      PUSH [tag] 423\t\t\t\n      PUSH 0\t\t\t\n      DUP3 \t\t\t\n      PUSH [tag] 206\t\t\t\n      JUMP \t\t\t\n    tag 423\t\t\t\n      JUMPDEST \t\t\t\n      PUSH 1\t\t\t\n      DUP2 \t\t\t\n      ADD \t\t\t\n      SWAP1 \t\t\t\n      POP \t\t\t\n      PUSH [tag] 420\t\t\t\n      JUMP \t\t\t\n    tag 422\t\t\t\n      JUMPDEST \t\t\t\n      POP \t\t\t\n      POP \t\t\t\n      JUMP \t\t\t\n    tag 208\t\t\t\n      JUMPDEST \t\t\t\n      PUSH 1F\t\t\t\n      DUP3 \t\t\t\n      GT \t\t\t\n      ISZERO \t\t\t\n      PUSH [tag] 425\t\t\t\n      JUMPI \t\t\t\n      PUSH [tag] 426\t\t\t\n      DUP2 \t\t\t\n      PUSH [tag] 197\t\t\t\n      JUMP \t\t\t\n    tag 426\t\t\t\n      JUMPDEST \t\t\t\n      PUSH [tag] 427\t\t\t\n      DUP5 \t\t\t\n      PUSH [tag] 198\t\t\t\n      JUMP \t\t\t\n    tag 427\t\t\t\n      JUMPDEST \t\t\t\n      DUP2 \t\t\t\n      ADD \t\t\t\n      PUSH 20\t\t\t\n      DUP6 \t\t\t\n      LT \t\t\t\n      ISZERO \t\t\t\n      PUSH [tag] 428\t\t\t\n      JUMPI \t\t\t\n      DUP2 \t\t\t\n      SWAP1 \t\t\t\n      POP \t\t\t\n    tag 428\t\t\t\n      JUMPDEST \t\t\t\n      PUSH [tag] 429\t\t\t\n      PUSH [tag] 430\t\t\t\n      DUP6 \t\t\t\n      PUSH [tag] 198\t\t\t\n      JUMP \t\t\t\n    tag 430\t\t\t\n      JUMPDEST \t\t\t\n      DUP4 \t\t\t\n      ADD \t\t\t\n      DUP3 \t\t\t\n      PUSH [tag] 207\t\t\t\n      JUMP \t\t\t\n    tag 429\t\t\t\n      JUMPDEST \t\t\t\n      POP \t\t\t\n      POP \t\t\t\n    tag 425\t\t\t\n      JUMPDEST \t\t\t\n      POP \t\t\t\n      POP \t\t\t\n      POP \t\t\t\n      JUMP \t\t\t\n    tag 209\t\t\t\n      JUMPDEST \t\t\t\n      PUSH 0\t\t\t\n      DUP3 \t\t\t\n      DUP3 \t\t\t\n      SHR \t\t\t\n      SWAP1 \t\t\t\n      POP \t\t\t\n      SWAP3 \t\t\t\n      SWAP2 \t\t\t\n      POP \t\t\t\n      POP \t\t\t\n      JUMP \t\t\t\n    tag 210\t\t\t\n      JUMPDEST \t\t\t\n      PUSH 0\t\t\t\n      PUSH [tag] 433\t\t\t\n      PUSH 0\t\t\t\n      NOT \t\t\t\n      DUP5 \t\t\t\n      PUSH 8\t\t\t\n      MUL \t\t\t\n      PUSH [tag] 209\t\t\t\n      JUMP \t\t\t\n    tag 433\t\t\t\n      JUMPDEST \t\t\t\n      NOT \t\t\t\n      DUP1 \t\t\t\n      DUP4 \t\t\t\n      AND \t\t\t\n      SWAP2 \t\t\t\n      POP \t\t\t\n      POP \t\t\t\n      SWAP3 \t\t\t\n      SWAP2 \t\t\t\n      POP \t\t\t\n      POP \t\t\t\n      JUMP \t\t\t\n    tag 211\t\t\t\n      JUMPDEST \t\t\t\n      PUSH 0\t\t\t\n      PUSH [tag] 435\t\t\t\n      DUP4 \t\t\t\n      DUP4 \t\t\t\n      PUSH [tag] 210\t\t\t\n      JUMP \t\t\t\n    tag 435\t\t\t\n      JUMPDEST \t\t\t\n      SWAP2 \t\t\t\n      POP \t\t\t\n      DUP3 \t\t\t\n      PUSH 2\t\t\t\n      MUL \t\t\t\n      DUP3 \t\t\t\n      OR \t\t\t\n      SWAP1 \t\t\t\n      POP \t\t\t\n      SWAP3 \t\t\t\n      SWAP2 \t\t\t\n      POP \t\t\t\n      POP \t\t\t\n      JUMP \t\t\t\n    tag 133\t\t\t\n      JUMPDEST \t\t\t\n      PUSH [tag] 437\t\t\t\n      DUP3 \t\t\t\n      PUSH [tag] 148\t\t\t\n      JUMP \t\t\t\n    tag 437\t\t\t\n      JUMPDEST \t\t\t\n      PUSH FFFFFFFFFFFFFFFF\t\t\t\n      DUP2 \t\t\t\n      GT \t\t\t\n      ISZERO \t\t\t\n      PUSH [tag] 438\t\t\t\n      JUMPI \t\t\t\n      PUSH [tag] 439\t\t\t\n      PUSH [tag] 172\t\t\t\n      JUMP \t\t\t\n    tag 439\t\t\t\n      JUMPDEST \t\t\t\n    tag 438\t\t\t\n      JUMPDEST \t\t\t\n      PUSH [tag] 440\t\t\t\n      DUP3 \t\t\t\n      SLOAD \t\t\t\n      PUSH [tag] 44\t\t\t\n      JUMP \t\t\t\n    tag 440\t\t\t\n      JUMPDEST \t\t\t\n      PUSH [tag] 441\t\t\t\n      DUP3 \t\t\t\n      DUP3 \t\t\t\n      DUP6 \t\t\t\n      PUSH [tag] 208\t\t\t\n      JUMP \t\t\t\n    tag 441\t\t\t\n      JUMPDEST \t\t\t\n      PUSH 0\t\t\t\n      PUSH 20\t\t\t\n      SWAP1 \t\t\t\n      POP \t\t\t\n      PUSH 1F\t\t\t\n      DUP4 \t\t\t\n      GT \t\t\t\n      PUSH 1\t\t\t\n      DUP2 \t\t\t\n      EQ \t\t\t\n      PUSH [tag] 443\t\t\t\n      JUMPI \t\t\t\n      PUSH 0\t\t\t\n      DUP5 \t\t\t\n      ISZERO \t\t\t\n      PUSH [tag] 444\t\t\t\n      JUMPI \t\t\t\n      DUP3 \t\t\t\n      DUP8 \t\t\t\n      ADD \t\t\t\n      MLOAD \t\t\t\n      SWAP1 \t\t\t\n      POP \t\t\t\n    tag 444\t\t\t\n      JUMPDEST \t\t\t\n      PUSH [tag] 445\t\t\t\n      DUP6 \t\t\t\n      DUP3 \t\t\t\n      PUSH [tag] 211\t\t\t\n      JUMP \t\t\t\n    tag 445\t\t\t\n      JUMPDEST \t\t\t\n      DUP7 \t\t\t\n      SSTORE \t\t\t\n      POP \t\t\t\n      PUSH [tag] 442\t\t\t\n      JUMP \t\t\t\n    tag 443\t\t\t\n      JUMPDEST \t\t\t\n      PUSH 1F\t\t\t\n      NOT \t\t\t\n      DUP5 \t\t\t\n      AND \t\t\t\n      PUSH [tag] 446\t\t\t\n      DUP7 \t\t\t\n      PUSH [tag] 197\t\t\t\n      JUMP \t\t\t\n    tag 446\t\t\t\n      JUMPDEST \t\t\t\n      PUSH 0\t\t\t\n    tag 447\t\t\t\n      JUMPDEST \t\t\t\n      DUP3 \t\t\t\n      DUP2 \t\t\t\n      LT \t\t\t\n      ISZERO \t\t\t\n      PUSH [tag] 449\t\t\t\n      JUMPI \t\t\t\n      DUP5 \t\t\t\n      DUP10 \t\t\t\n      ADD \t\t\t\n      MLOAD \t\t\t\n      DUP3 \t\t\t\n      SSTORE \t\t\t\n      PUSH 1\t\t\t\n      DUP3 \t\t\t\n      ADD \t\t\t\n      SWAP2 \t\t\t\n      POP \t\t\t\n      PUSH 20\t\t\t\n      DUP6 \t\t\t\n      ADD \t\t\t\n      SWAP5 \t\t\t\n      POP \t\t\t\n      PUSH 20\t\t\t\n      DUP2 \t\t\t\n      ADD \t\t\t\n      SWAP1 \t\t\t\n      POP \t\t\t\n      PUSH [tag] 447\t\t\t\n      JUMP \t\t\t\n    tag 449\t\t\t\n      JUMPDEST \t\t\t\n      DUP7 \t\t\t\n      DUP4 \t\t\t\n      LT \t\t\t\n      ISZERO \t\t\t\n      PUSH [tag] 450\t\t\t\n      JUMPI \t\t\t\n      DUP5 \t\t\t\n      DUP10 \t\t\t\n      ADD \t\t\t\n      MLOAD \t\t\t\n      PUSH [tag] 451\t\t\t\n      PUSH 1F\t\t\t\n      DUP10 \t\t\t\n      AND \t\t\t\n      DUP3 \t\t\t\n      PUSH [tag] 210\t\t\t\n      JUMP \t\t\t\n    tag 451\t\t\t\n      JUMPDEST \t\t\t\n      DUP4 \t\t\t\n      SSTORE \t\t\t\n      POP \t\t\t\n    tag 450\t\t\t\n      JUMPDEST \t\t\t\n      PUSH 1\t\t\t\n      PUSH 2\t\t\t\n      DUP9 \t\t\t\n      MUL \t\t\t\n      ADD \t\t\t\n      DUP9 \t\t\t\n      SSTORE \t\t\t\n      POP \t\t\t\n      POP \t\t\t\n      POP \t\t\t\n    tag 442\t\t\t\n      JUMPDEST \t\t\t\n      POP \t\t\t\n      POP \t\t\t\n      POP \t\t\t\n      POP \t\t\t\n      POP \t\t\t\n      POP \t\t\t\n      JUMP \t\t\t\n    tag 137\t\t\t\n      JUMPDEST \t\t\t\n      PUSH 0\t\t\t\n      PUSH 60\t\t\t\n      DUP3 \t\t\t\n      ADD \t\t\t\n      SWAP1 \t\t\t\n      POP \t\t\t\n      DUP2 \t\t\t\n      DUP2 \t\t\t\n      SUB \t\t\t\n      PUSH 0\t\t\t\n      DUP4 \t\t\t\n      ADD \t\t\t\n      MSTORE \t\t\t\n      PUSH [tag] 453\t\t\t\n      DUP2 \t\t\t\n      DUP7 \t\t\t\n      PUSH [tag] 168\t\t\t\n      JUMP \t\t\t\n    tag 453\t\t\t\n      JUMPDEST \t\t\t\n      SWAP1 \t\t\t\n      POP \t\t\t\n      DUP2 \t\t\t\n      DUP2 \t\t\t\n      SUB \t\t\t\n      PUSH 20\t\t\t\n      DUP4 \t\t\t\n      ADD \t\t\t\n      MSTORE \t\t\t\n      PUSH [tag] 454\t\t\t\n      DUP2 \t\t\t\n      DUP6 \t\t\t\n      PUSH [tag] 168\t\t\t\n      JUMP \t\t\t\n    tag 454\t\t\t\n      JUMPDEST \t\t\t\n      SWAP1 \t\t\t\n      POP \t\t\t\n      PUSH [tag] 455\t\t\t\n      PUSH 40\t\t\t\n      DUP4 \t\t\t\n      ADD \t\t\t\n      DUP5 \t\t\t\n      PUSH [tag] 165\t\t\t\n      JUMP \t\t\t\n    tag 455\t\t\t\n      JUMPDEST \t\t\t\n      SWAP5 \t\t\t\n      SWAP4 \t\t\t\n      POP \t\t\t\n      POP \t\t\t\n      POP \t\t\t\n      POP \t\t\t\n      JUMP \t\t\t\n    tag 212\t\t\t\n      JUMPDEST \t\t\t\n      PUSH 4E487B7100000000000000000000000000000000000000000000000000000000\t\t\t\n      PUSH 0\t\t\t\n      MSTORE \t\t\t\n      PUSH 11\t\t\t\n      PUSH 4\t\t\t\n      MSTORE \t\t\t\n      PUSH 24\t\t\t\n      PUSH 0\t\t\t\n      REVERT \t\t\t\n    tag 139\t\t\t\n      JUMPDEST \t\t\t\n      PUSH 0\t\t\t\n      PUSH [tag] 458\t\t\t\n      DUP3 \t\t\t\n      PUSH [tag] 143\t\t\t\n      JUMP \t\t\t\n    tag 458\t\t\t\n      JUMPDEST \t\t\t\n      SWAP2 \t\t\t\n      POP \t\t\t\n      PUSH FFFFFFFFFFFFFFFFFFFFFFFFFFFFFFFFFFFFFFFFFFFFFFFFFFFFFFFFFFFFFFFF\t\t\t\n      DUP3 \t\t\t\n      SUB \t\t\t\n      PUSH [tag] 459\t\t\t\n      JUMPI \t\t\t\n      PUSH [tag] 460\t\t\t\n      PUSH [tag] 212\t\t\t\n      JUMP \t\t\t\n    tag 460\t\t\t\n      JUMPDEST \t\t\t\n    tag 459\t\t\t\n      JUMPDEST \t\t\t\n      PUSH 1\t\t\t\n      DUP3 \t\t\t\n      ADD \t\t\t\n      SWAP1 \t\t\t\n      POP \t\t\t\n      SWAP2 \t\t\t\n      SWAP1 \t\t\t\n      POP \t\t\t\n      JUMP \t\t\t\n    .data\n"
}